:020000040800F2
:10000000D8C900208102000821440008FF2A000806
:100010003D420008E30A0008495B000800000000B8
:10002000000000000000000000000000C101000806
:10003000371E0008000000001D02000815550008CA
:100040009B0200089B0200089B0200089B0200081C
:100050009B0200089B0200089B0200089B0200080C
:100060009B0200089B0200089B020008311E00084A
:100070009B0200089B0200089B0200089B020008EC
:100080009B020008331E00089B0200089B02000828
:10009000AD0B00089B0200089B0200089B020008B1
:1000A0009B020008395600089B0200089B020008CA
:1000B000455600089B020008555600089B020008A0
:1000C0009B0200089B0200089B0200089B0200089C
:1000D0009B020008495A00089B0200084D5A00087C
:1000E0009B0200089B0200089B0200089B0200087C
:1000F0009B0200089B0200089B0200089B0200086C
:100100009B0200089B020008695600089B02000839
:100110009B0200089B0200089B0200087D56000815
:100120009B020008351E00089B0200089B02000885
:100130009B0200089B0200089B0200089B0200082B
:10014000890D00089B0200089B0200089B02000822
:100150009B0200089B0200089B0200084F5A0008FF
:100160009B0200089B0200089B0200089B020008FB
:100170009B0200089B0200089B0200080000000090
:100180009B0200089B0200089B020008BF57000862
:100190009B0200089B0200089B0200089B020008CB
:1001A00000000000000000009B020008DFF80CD0F7
:1001B00000F0EEFA00480047B5610008D8C90020F9
:1001C0002C4B19680868B0E8F04F80F30988BFF33A
:1001D0006F8F4FF0000080F311887047000000001F
:1001E00008480068006880F308884FF0000080F33A
:1001F000148862B661B6BFF34F8FBFF36F8F00DF15
:1002000000BF00BF08ED00E0DFF80C00016841F41A
:1002100070010160704700BF88ED00E0EFF30980D6
:10022000BFF36F8F134B1A681EF0100F08BF20ED3D
:10023000108A20E9F04F106009B44FF0500080F3AD
:100240001188BFF34F8FBFF36F8F06F0C1FF4FF0E0
:10025000000080F3118809BC19680868B0E8F04F05
:100260001EF0100F08BFB0EC108A80F30988BFF3AE
:100270006F8F704790000020EFF3058070470000FB
:100280000648804706480047FEE7FEE7FEE7FEE730
:10029000FEE7FEE7FEE7FEE7FEE7FEE71D56000885
:1002A000AD0100082DE9F05F0546002092469B460F
:1002B00088460646814640241BE02846414647467C
:1002C000224600F0AEF953465A46C01A914110D367
:1002D00011461846224600F095F92D1A67EB0108E1
:1002E0004F4622460120002100F08CF917EB00094F
:1002F0004E41201EA4F10104DFDC484631462A4667
:100300004346BDE8F09F40EA01039B0703D009E0A4
:1003100008C9121F08C0042AFAD203E011F8013BF1
:1003200000F8013B521EF9D27047D2B201E000F84A
:10033000012B491EFBD270470022F6E710B5134689
:100340000A4604461946FFF7F0FF204610BD2DE986
:10035000FE4F804681EA0300C00F0C46009021F05A
:10036000004123F00045B8EB0200A94105D2404608
:10037000214690461C460B46024623F0004010439F
:1003800047D0270DC7F30A00C3F30A510290401A61
:10039000019040286BDAC3F3130040F4801B0098EF
:1003A000924620B10023D2EB030A63EB0B0B0198BA
:1003B0005946C0F14002504600F024F906460D4669
:1003C00050465946019A00F03CF910EB0800614193
:1003D000002487EA115284EAE7731A4340D0009A56
:1003E00062B3019A012A4FEA075215DC001B61EB48
:1003F00002014FF0004202EA0752CDE90042001C20
:1004000041F5801132462B4600F073F903B0BDE888
:10041000F08F40462146F9E7001B61EB0201001C0A
:1004200041F5801300185B412018A2F5001747EB37
:10043000030140EAD570B6196D4111E06D084FEA2D
:10044000360645EAC0754FEA0752001B61EB020110
:10045000001C41F5801149084FEA30000019514154
:1004600032462B4603B0BDE8F04F00F033B9009898
:10047000012240000023D0EB020263EBE0730098FE
:1004800021464FEAE074B8EB000061EB0401E9E7B4
:1004900083F000435BE781F0004158E72DE9F04D20
:1004A00081EA030404F0004B21F0004514464FF0AC
:1004B000000A23F0004150EA050220D054EA01026C
:1004C0001DD0C5F30A570246C5F31303C1F3130049
:1004D000C1F30A5640F4801543F48013A7EB0608D5
:1004E000101BD64608F2FD3873EB050002D308F165
:1004F000010801E092185B41B8F1000F03DA002017
:100500000146BDE8F08D00204FF480110646844678
:100510000EE0171B73EB050705D3121B63EB0503F6
:1005200006434CEA010C49084FEA300092185B413F
:1005300050EA0107EDD152EA030012D082EA04002A
:1005400083EA0501084305D0101BAB4106D2012206
:10055000002306E000224FF0004302E06FF00102AA
:1005600053101AEB06004CEB085110EB0A0041EB5C
:100570000B01BDE8F04D00F0ADB800F0004230F0E6
:1005800000400AD0C10D01F56071C0F3160042EAC7
:100590000151C208400711437047002001467047CF
:1005A00001F0004330B421F0004150EA010206D0CE
:1005B0000A0DA2F56072C1F31301002A02DC30BCFF
:1005C00000207047440F44EAC104C100E01830BC69
:1005D00000EBC25000F047B830B50B460146002092
:1005E0002022012409E021FA02F59D4205D303FAF5
:1005F00002F5491B04FA02F52844151EA2F1010276
:10060000F1DC30BD202A04DB203A00FA02F10020A0
:1006100070479140C2F1200320FA03F31943904040
:100620007047202A04DB203A21FA02F000217047AB
:1006300021FA02F3D040C2F120029140084319464A
:100640007047202A06DBCB17203A41FA02F043EA32
:10065000E07306E041FA02F3D040C2F1200291407B
:100660000843194670470029A8BF7047401C49003D
:1006700008BF20F00100704710B4B0FA80FC00FA07
:100680000CF050EA010404BF10BC704749B1CCF132
:10069000200421FA04F411FA0CF118BF01212143BE
:1006A0000843A3EB0C01CB1D4FEA00614FEA102079
:1006B00042BF002010BC704700EBC350104400291B
:1006C000A4BF10BC7047401C490008BF20F00100C7
:1006D00010BC704710B5141E73F1000408DA401CFA
:1006E00041F1000192185B411A4301D120F0010051
:1006F00010BD2DE9F04D92469B4611B1B1FA81F241
:1007000002E0B0FA80F220329046FFF77BFF044609
:100710000F4640EA0A0041EA0B0153465A46084395
:1007200013D0114653EA010019D0C8F140025046D7
:10073000FFF777FF05460E46504659464246FFF7FB
:1007400061FF084305D0012004E020463946BDE89A
:10075000F08D0020054346EAE0762C4337430A98A3
:100760006305E40AA0EB08000022FD0A44EA4754AE
:100770000A3002D500200146E9E701051019694158
:10078000DDE9084500196941BDE8F04DA2E7000028
:10079000064C074D06E0E06840F0010394E80700CE
:1007A00098471034AC42F6D3FFF704FDD888000810
:1007B000F888000870B58C1810F8015B15F0070375
:1007C00001D110F8013B2A1106D110F8012B03E0EA
:1007D00010F8016B01F8016B5B1EF9D12B0705D4F2
:1007E0000023521E0DD401F8013BFAE710F8013B3B
:1007F000CB1A921C03E013F8015B01F8015B521E57
:10080000F9D5A142D8D3002070BD000010B505F085
:1008100051FC03F0F1FEBDE8104001A005F0CEBA96
:100820000D0A416C6C207065726970686572616C4C
:1008300020696E69742E0D0A0000000070B5B0F8D2
:100840000520304CB2F5017F12D008DC032A2CD0F1
:10085000A2F50072013A2DD0012A07D140E0B2F58D
:10086000027F0AD0A2F50072093A16D00A2070BDA4
:10087000012938D1C079A07242E0C01D0546062981
:1008800031D104F091FF2080A81C04F08DFF60801E
:10089000281D04F089FFA08032E0C01D042922D168
:1008A00004F084FFC4F806002AE0BDE87040C01DD3
:1008B00000F072B8C51D1B2915D1287804F82B0F3C
:1008C00068786070A81C04F06FFF6080281D04F039
:1008D0006BFFA08005F1180004F066FF20830FE095
:1008E000C01D102901D0002070BD001D04F05CFF68
:1008F00000EE100AB8EE400A10EE100AC4F84A00E2
:10090000012070BD8AC2002070B5044600781546EB
:100910000E46A52801D0002070BD0521204605F017
:1009200051F90028F8D016B1B4F8010030800DB1AB
:10093000E0782870012070BDF0B589B0074600202E
:100940008DF8140005AB06AA384601F0EDFC002432
:1009500006AE01AD19E000BF305D05EB440138443F
:100960000022FFF7D1FF70B135F81400093081B2D1
:10097000305D384401F0FCF928B1305D35F81410D1
:100980003844FFF75BFF641CE4B29DF81400844216
:10099000E2D309B00120F0BD70B50446202901D092
:1009A000002070BD04F000FF264D25F80B0FA01CA1
:1009B00004F0FAFE6880201D04F0F6FEA880A01D59
:1009C00004F0F2FEE88004F1080004F0EDFE288156
:1009D00004F10A0004F0E8FE688104F10C0004F060
:1009E000E3FEA88104F10E0004F0DEFEE88104F1CC
:1009F000100004F0D9FE288204F1120004F0D4FEA5
:100A0000688204F1140004F0CFFEA88204F11600FD
:100A100004F0CAFEE88204F1180004F0C5FE288341
:100A200004F11A0004F0C0FE688304F11C0004F015
:100A3000BBFEA88304F11E0004F0B6FEE88301208B
:100A400070BD00008AC200202DE9F04F0CACDDE93A
:100A50000A9694E820480024DDF83CA0099F06E0AF
:100A6000C4F10208641C00F808C0032C04DA11F871
:100A700004C0BCF1000FF3D110F8031F21F03801BE
:100A8000203162F302010170018863F38911018052
:100A9000417867F385014170818865F309018180A0
:100AA000B0F805206BF38C02A0F80520C2886EF325
:100AB0004F12C280B0F8012069F38E12A0F8012015
:100AC000418866F3CF114180B0F809206AF38C02A7
:100AD000A0F809204289109961F34F124281BDE8C4
:100AE000F08FFEE710B505F035FF0249002048639E
:100AF00010BD0000001800401CB500220521032095
:100B000006F036FC174E3060FFF7ECFFC82006F009
:100B1000C9F94FF0FF3842466946306806F0FCFDDF
:100B2000012803D010A005F049F9F4E7164D002480
:100B3000154F2C3D11E000BFBDF8010038604008A2
:100B40006863BDF8030006F0ADF900206863BDF8E6
:100B5000030006F0A7F9641CE4B29DF80000A0426F
:100B6000D9D9E9E7440000203C44454255473E209E
:100B700042656570207461736B206572726F7221BB
:100B800021210D0A0D0A00002C18004018B101287F
:100B900003D000207047044801E00348001D0068AE
:100BA00000F00300704700000C64004010B5254CB5
:100BB00088B0206820F0020020600020FFF7E6FFE8
:100BC00030B90120FFF7E2FF10B91FA005F0F6F8D9
:100BD00004A907A8CDE9000103AB02AA06A90020D9
:100BE00000F048F89DF808009DF80C10084302D06A
:100BF0001AA005F0E3F80698012806D0022807D0CD
:100C0000032816D0042808D117E004A9184802E0E8
:100C1000174804A9C01D00F039FD0A4808380168CA
:100C200021F020010160206840F00200206008B03F
:100C300010BD0F4804A90E30EDE70D4804A915308A
:100C4000E9E700001464004043616E31CEB4BDD3C7
:100C5000CAD5B5BDCAFDBEDD0D0A000063616E31A7
:100C6000BDD3CAD5CAFDBEDDD2ECB3A30D0A0000C8
:100C700054C20020F0B5214CDDE9055604EB001408
:100C8000D4F8B07507F004071770D4F8B025C2F394
:100C900047520A60D4F8B01501F002011970D4F877
:100CA000B41501F00F012970D4F8B8153170D4F8DB
:100CB000B815090A7170D4F8B815090CB170D4F8D8
:100CC000B815090EF170D4F8BC153171D4F8BC1503
:100CD000090A7171D4F8BC15090CB171D4F8BC15AE
:100CE000090EF17138B1012804D10548016841F0BD
:100CF00020010160F0BD0248001FF7E700600040DE
:100D000010640040174928B1012810D002281BD0D8
:100D100005207047086800F001020868096800F0C3
:100D20000200104301F0806140EA116070470868DA
:100D300000F001020868096800F00200104301F0A9
:100D4000006140EA51607047086800F001020868DD
:100D5000096800F00200104301F0805140EA916000
:100D6000704700000864004018B1012803D000203B
:100D70007047044801E00348001D006800F00300CC
:100D8000704700000C68004010B51B4C88B020680C
:100D900020F0020020600020FFF7E6FF30B90120BC
:100DA000FFF7E2FF10B915A005F008F804A907A89D
:100DB000CDE9000103AB02AA06A9002000F034F837
:100DC0009DF808009DF80C10084302D010A004F014
:100DD000F5FF0698012803D104A9124805F0C4F9CB
:100DE00005480838016821F020010160206840F0C2
:100DF0000200206008B010BD1468004043616E31ED
:100E0000CEB4BDD3CAD5B5BDCAFDBEDD0D0A000046
:100E100063616E31BDD3CAD5CAFDBEDDD2ECB3A3CA
:100E20000D0A000070C20020F0B5214CDDE9055626
:100E300004EB0014D4F8B07907F004071770D4F865
:100E4000B029C2F347520A60D4F8B01901F0020188
:100E50001970D4F8B41901F00F012970D4F8B81939
:100E60003170D4F8B819090A7170D4F8B819090C9E
:100E7000B170D4F8B819090EF170D4F8BC193171F9
:100E8000D4F8BC19090A7171D4F8BC19090CB171F4
:100E9000D4F8BC19090EF17138B1012804D1054804
:100EA000016841F020010160F0BD0248001FF7E732
:100EB0000060004010680040174928B1012810D098
:100EC00002281BD005207047086800F0010208685E
:100ED000096800F00200104301F0806140EA1160EF
:100EE0007047086800F001020868096800F0020015
:100EF000104301F0006140EA51607047086800F05B
:100F000001020868096800F00200104301F08051F6
:100F100040EA916070470000086800402DE9F04FFA
:100F20009FB040F2C1344FF41678CDE9044805462D
:100F300040F226290226CDE90249CDE900560923CF
:100F40000122FCA1FC4802F04FFB4FF4F07BCDE9FD
:100F5000044B40F21221CDE90241F748CDE9005699
:100F600009230122F5A10F3002F03EFB40F21D24BF
:100F70004FF46170CDE90340009540F2B63105941D
:100F8000CDE90161EC4809230122EDA11E3002F0F8
:100F90002BFB02A84FF47F7A40F2CA3180E812049A
:100FA0000594E548CDE9005609230122E5A12D303D
:100FB00002F01AFB4FF47077CDE90056CDE90279C3
:100FC000DD48CDE9047809230122DFA13C3002F09D
:100FD0000BFBCDE9005640F21221CDE90271D64853
:100FE000CDE9047B09230122D8A14B3002F0FCFAA1
:100FF000671E4FF46170CDE90370059740F2B6317A
:101000000095CDE90161CC4809230122D0A15A30D5
:1010100002F0EAFA02A840F2CA3180E88204059799
:10102000C548CDE9005609230122CAA1693002F062
:10103000DBFA40F24D30CDE90340009540F27F31BC
:101040000594CDE90161BC4809230122C2A1783091
:1010500002F0CAFA40F21630CDE9034000954FF491
:1010600052710594CDE90161B34809230122BBA166
:10107000873002F0B9FA40F2DF20CDE90340009555
:1010800040F211310594CDE90161AB4809230122F9
:10109000B3A1963002F0A8FA4FF42A70CDE90340CC
:1010A000009540F2DA210594CDE90161A2480923B7
:1010B0000122ACA1A53002F097FA40F27120CDE9EF
:1010C0000340009540F2A3210594CDE901619A48BF
:1010D00009230122A4A1B43002F086FA40F23A209A
:1010E000CDE9034000954FF41B710594CDE90161F2
:1010F0009148092301229DA1C33002F075FA40F204
:101100000320CDE90340009540F235210594CDE957
:10111000016189480923012295A1D23002F064FAC5
:101120004FF4E670CDE9034000954FF4FF7105944C
:10113000CDE901618048092301228EA1E13002F04E
:1011400053FA40F29510CDE90340009540F2C711E3
:101150000594CDE9016178480923012286A1F03088
:1011600002F042FA4FF4AF70CDE9034000954FF41E
:10117000C8710594CDE901616F48092301227FA15F
:10118000FF3002F031FA7800CDE90340009540F2DB
:1011900001410594CDE901610923012278A1794833
:1011A00002F022FA40F26F40CDE90340009540F290
:1011B0003D410594CDE9016172480923012272A1E4
:1011C0000F3002F011FA40F2A640CDE9034000953D
:1011D00040F274410594CDE901616A480923012276
:1011E0006AA11E3002F000FA40F2DD40CDE9034072
:1011F000009540F2AB410594CDE9016161480923B6
:10120000012263A12D3002F0EFF940F21450CDE934
:101210000340009540F2E2410594CDE9016159484F
:10122000092301225BA13C3002F0DEF94FF4AA60F1
:10123000CDE90340009540F219510594CDE90161D3
:1012400050480923012254A14B3002F0CDF940F25D
:101250008750CDE90340009540F255510594CDE902
:1012600001614848092301224CA15A3002F0BCF91F
:1012700040F2BE50CDE90340009540F28C510594F8
:10128000CDE901613F480923012245A1693002F0FF
:10129000ABF940F2F550CDE90340009540F2C3515F
:1012A0000594CDE901613748092301223DA1783039
:1012B00002F09AF940F22C60CDE90340009540F22B
:1012C000FA510594CDE901612E480923012236A186
:1012D000873002F089F918490F225A3116A8FFF712
:1012E00012F815490F224B3112A8FFF70CF81249DA
:1012F0000F223C310EA8FFF706F80F490F222D31BF
:101300000AA8FFF700F80C490F221E3106A8FEF7C5
:10131000FAFF09490F220F3102A8FEF7F4FF064831
:10132000343850F83C1F00918188ADF80410807962
:101330003CE000003039310014C400203039320064
:101340003039330030393400303935003039360027
:101350003039370030393800303939003130300019
:10136000313031003130320031303300313034002F
:10137000313035003130360031303700313038000F
:101380003130390022C50020313130003131310097
:1013900031313200313133003131340031313500F7
:1013A0003131360031313700313138008DF80600E7
:1013B0000F2270491AA8FEF7A6FF6E48DDE91A232E
:1013C0000721713804F092FA6A48713804F088FAFB
:1013D0006848713804F012FB66490F22C33116A821
:1013E000FEF791FF63490F22B43112A8FEF78BFF7D
:1013F00060490F22A5310EA8FEF785FF5D490F2237
:1014000096310AA8FEF77FFF5A490F22873106A8B6
:10141000FEF779FF57490F22783102A8FEF773FFD4
:1014200054480F224C3050F8251F00918188ADF8A8
:10143000041080794F498DF8060069311AA8FEF72B
:1014400062FF4C48DDE91A230721713804F04EFA97
:101450004848713804F044FA4648713804F0CEFA2E
:101460000F22454916A8FEF74EFF43490F220F39B8
:1014700012A8FEF748FF40490F221E390EA8FEF7BA
:1014800042FF3D490F222D390AA8FEF73CFF3A4999
:101490000F223C3906A8FEF736FF37490F224B3999
:1014A00002A8FEF730FF344C0F22603CA11DD4F897
:1014B0000E000090608AADF80400207D8DF80600D3
:1014C0001AA8FEF720FFDDE91A230721A4F23D1038
:1014D00004F00CFAA4F23D1004F002FAA4F23D105C
:1014E00004F08CFA0F2204F1C90116A8FEF70BFFD5
:1014F0000F2204F1BA0112A8FEF705FF0F2204F132
:10150000AB010EA8FEF7FFFE0F2204F19C010AA812
:10151000FEF7F9FE0F2204F18D0106A8FEF7F3FE97
:101520000F2204F17E0102A8FEF7EDFED4F8770049
:101530000090B4F87B00ADF8040094F87D008DF8BD
:1015400006000F2204F16F011AA8FEF7DCFEDDE9A8
:101550001A230721A4F23D1004F0C8F9A4F23D10AB
:1015600004F0BEF91FB0A4F23D10BDE8F04F04F046
:1015700045BA000014C4002040C5002010B5044640
:101580002DED068BB7EE008A90ED030AD0ED040A2C
:1015900030EE600A80ED050A90F82000D4ED070ACD
:1015A00090B194ED099AF0EEC08AF4EEC98AF1EE9A
:1015B00010FA02DD9FED348A2DE094ED0A1AF4EE64
:1015C000C18AF1EE10FA04D230EE800A84ED070AE7
:1015D00021E030EE800A84ED070A39EE410A10EE70
:1015E000100AFEF7CAFF41EC1A0B18EE900AFEF73C
:1015F000C4FF41EC180B19EE100AFEF7BEFF53ECC6
:10160000182BFEF745FF53EC1A2BFEF747FFFEF7AA
:10161000C7FF08EE100A94ED0B1A94ED070AF1EEDD
:10162000410A02F0CDFF84ED070A94ED001AD4EDD3
:10163000050A21EE201A84ED0D1AD4ED011A21EECF
:10164000800A20EE080A84ED0E0AD4ED061A31EE67
:10165000000A70EEE10AD4ED021A60EEA10AC4EDB0
:101660000F0A30EE200A84ED100A94ED0C1AF1EE08
:10167000410A02F0A5FF84ED100A94ED050A84EDFD
:10168000060ABDEC068B10BD000000000A8852BAA5
:1016900002804A8852BA42808A8852BA8280897906
:1016A000817170471248016841F0010101601049E1
:1016B0001C310A6822F001020A600D4A0C321368DC
:1016C00043F001031360021D13681360084A1432CB
:1016D00013681360064B002240331A601B1D1A600A
:1016E0000B6843F001030B60016802607047000063
:1016F00000660040434810B5016841F008010160F0
:101700004148016841F00A010160001D016821F0B3
:1017100003010160001D016841F00F0101603B49B8
:101720000120086038480C30016841F00501016073
:1017300035482030016841F009010160016841F03D
:10174000900101602F4800221030016841F00071C3
:1017500001602F4814460260016841F001010160F8
:10176000031D04E0521C642A01DD022010BD19682B
:10177000C907F7D001680160016801600168016074
:10178000016841F0100101600168016001680160B9
:101790001F491C310C600C680C600C680C600C68F4
:1017A00044F480140C600C6844F4A0240C600C68B1
:1017B00044F004040C60016821F0010101604FF65F
:1017C000F07004E0521C824201DD032010BD196854
:1017D000C907F7D1FFF766FF0D481430016841F0E3
:1017E000020101604FF0E020D0F8001141F48011B7
:1017F000C0F800110748017841F060010170002035
:1018000010BD000030380240000C0240203801407A
:101810000064004014E400E03CB50A880024120A89
:101820008DF800200A788DF801204A88120A8DF878
:1018300002208A788DF803208A88120A8DF8042005
:101840000A798DF80520CA88120A8DF80620897950
:101850008DF807106A46082102F096FD054640F60D
:10186000FF7301E0641CA4B22846FFF74BFA072877
:1018700001D09C42F6D39C4201D301203CBD002004
:101880003CBD00001248016841F0010101601049AF
:101890001C310A6822F480520A600D4A0C32136827
:1018A00043F480531360021D13681360084A143216
:1018B00013681360064B002240331A601B1D1A6028
:1018C0000B6843F001030B60016802607047000081
:1018D000006A0040424810B5016841F00201016011
:1018E0004048016841F020610160001D016889B233
:1018F0000160001D016841F0706101603A490120FA
:10190000086038480C30016841F0A061016035483A
:101910002430016841F410210160016841F4100194
:1019200001602F4800221030016841F080610160A1
:101930002E4814460260016841F001010160031D58
:1019400004E0521C642A01DD022010BD1968C90799
:10195000F7D00168016001680160016801600168F9
:1019600041F01001016001680160016801601F49D8
:101970001C310C600C680C600C680C600C6844F442
:1019800080140C600C6844F4A0240C600C6844F0D3
:1019900004040C60016821F0010101604FF6F07051
:1019A00004E0521C824201DD032010BD1968C90702
:1019B000F7D1FFF767FF0D481430016841F00201CD
:1019C00001604FF0E020D0F8081141F00101C0F8AB
:1019D00008110748017841F060010170002010BD36
:1019E00030380240000402402038014000680040C6
:1019F00040E400E02DE9F04F0BACDDE90EA594E8E2
:101A0000400ADDE9097E002407E000BFC4F10208B6
:101A1000641C00F808C0032C04DA11F804C0BCF1FF
:101A2000000FF3D1C17841F0380162F30201C170B7
:101A3000B0F8031063F38911A0F80310017967F37C
:101A400085010171B0F8072069F30902A0F80720A9
:101A500002896BF38C020281B0F809206AF34F12FD
:101A6000A0F8092082886EF38E128280B0F80510EB
:101A700066F3CF11A0F80510002104E0431815F813
:101A8000012BDA73491CB142F8D3BDE8F08F000096
:101A90000FB43022F0B591B004464FF6FF7617A987
:101AA00004A8FEF730FCA5208DF80000274D332058
:101AB000ADF8010028786F468DF80300FF2204215D
:101AC000384600F00DFE8DF8040040F20130ADF80C
:101AD00005004FF48870ADF808000220ADF80A0048
:101AE0004FF48170ADF80C0032460721384600F003
:101AF000D3FD024602A8062100F0CEFD024604A84E
:101B00002D2100F0C9FD0646009844F8040BBDF8ED
:101B1000040024F8020B9DF8060004F8010B02985B
:101B200044F8040BBDF80C0024F8020B04A92D2284
:101B30002046FEF7E8FBA4F82D602878401C2870AA
:101B400011B00020F0BC5DF814FB00004A04002036
:101B500008B500252E4600F0F5FD824CE06000F04F
:101B6000F5FD2061FFF7C6FDFFF7B4FEC82005F0C4
:101B700099F97D4FDFF8F4A107F1080007F10C0B8C
:101B8000009020690078012802D002287ED0BCE0B5
:101B9000E168B1F91A00B1F9183000EE100AB1F994
:101BA0001620F8EEC00A94ED010AA3EB020C02EB3A
:101BB000030880EE801A00EE90CAF8EEE00A71EE9B
:101BC000200AFDEEE00A10EE90CA00EE900A0FFA2D
:101BD0008CF9F8EEE00AC8F1000C80EE801A00EEF5
:101BE00090CAF8EEE00A71EE200AFDEEE00A10EE6F
:101BF00090CA00EE900A0FFA8CFCF8EEE00A80EE34
:101C0000801A00EE908AF8EEE00A71EE200AFDEEEE
:101C1000E00A10EE908A00EE900AD01A0FFA88F8C7
:101C2000B8EEE01AC1EE000A00EE100AB8EEC00AE3
:101C300030EE800ABDEEC00A10EE100A00EE109AD7
:101C400000B2F8EEC00A94ED000A60EE800AFDEEE4
:101C5000E00A10EE902A00EE90CA62F30F05F8EE4B
:101C6000E00A60EE800AFDEEE00A10EE902A00EE37
:101C7000908A62F31F45F8EEE00A60EE800AFDEEFE
:101C8000E00A10EE902A62F30F0600E011E000EE89
:101C9000900AF8EEE00A20EE800ABDEEC00A10EECF
:101CA000100A60F31F46B1F91C00A0F2DC5040425C
:101CB0002AE0E1688B88CA88088803EB0209A3EB55
:101CC000020CD21A09EB000884440244A0EB090379
:101CD00008EB480000EBC80060F30F050CEB4C006C
:101CE00000EBCC0060F31F4502EB420000EBC200AA
:101CF00060F30F0603EB430000EBC30060F31F46E5
:101D0000B1F9020000F2DC50A0602AB2322116487C
:101D100002F0C0FD2A143221381D02F0BBFD32B2A0
:101D20003221009802F0B6FD32143221584602F0FA
:101D3000B1FD97ED030AF8EEC01A97ED020AB8EE6E
:101D4000C01A97ED010AF8EEC00A97ED000AB8EE46
:101D5000C00A02F0DDFFA068CAF83400052005F0D3
:101D6000A1F80EE748000020600700200040014075
:101D700010B503F009FFC0B210BD2DE9F0470024F3
:101D8000DDE90A95DDE90876DDF830A006E0C4F16A
:101D90000208641C00F808C0032C04DA11F804C01F
:101DA000BCF1000FF3D110F8031F21F038011031FE
:101DB00062F302010170018863F3891101804178A7
:101DC00067F385014170818866F309018180B0F86D
:101DD000052069F38C02A0F80520C18865F34F1136
:101DE000C18002896AF309020281BDE8F087000020
:101DF00003220021012005F0BBFA0C4C206003F007
:101E000001F900F07FFC6060C82005F04BF84FF44A
:101E1000FA752946206805F027FD012801D100F058
:101E200089F8052005F03EF8F3E70000880000205F
:101E30007047704770477047024901EB001002F08D
:101E40001EBA00001806002025A003F0B7FF04F01A
:101E5000A3FE254E002400BF002306EB04101A4603
:101E6000052102F0ECF9641CE4B2082CF4D30A203A
:101E7000A6F852004FF4487005F014F8DFF86C80B3
:101E80004FF480775FF0000406EB0415284602F05B
:101E9000E0F9287910B101280BD014E06879012805
:101EA00011D127FA04F00104C8F81810214610A037
:101EB00007E0687938B927FA04F0C8F81800214615
:101EC00013A003F07BFF641CE4B2082CDCD3184899
:101ED000416981F480414161FA2004F0E3FFD1E7D8
:101EE00064657465637400001806002000180240E1
:101EF0003C494E464F3E204D6F64756C652564200D
:101F00004F6E6C696E652E0D0A0D0A0D0A000000F9
:101F10003C494E464F3E204D6F64756C65256420EC
:101F20004F66666C696E652E0D0A0D0A0D0A00007B
:101F3000001402402DE9F04F9BB000220121E4483B
:101F400003F074FCE24803F059FDE24802244FF02C
:101F5000000A0178E04801297ED080F800A00078CE
:101F6000FEF7DCFF01264FF4AF680096CDE9034889
:101F7000DAA14FF44877CDE905711025D448CDE9B1
:101F8000015409233246D6A18738FFF733FDD049E3
:101F900021227B3968460991FEF7B5F9CC492D22FB
:101FA00087390AA8FEF7AFF90DF12809C84899E862
:101FB0000E00FFF76DFDC64803F020FD40F2BE594C
:101FC000CDE904975746DFF81CA3CDE90264CDE9BB
:101FD00000759AF80400082300EE100ABC4801229C
:101FE000B8EE400AC0A15A3800F0B0F9BFA203A968
:101FF000069240F2023B009681E81009B448CDE910
:10200000015409230122BAA18738FFF7F3FC2122EA
:1020100068460999FEF777F9AD492D2287390AA854
:10202000FEF771F90DF1280CA9489CE80E00FFF7A6
:102030002FFDA74803F0E2FC03A9009781E8100AEE
:10204000CDE901569AF80100082300EE100A01229A
:10205000A8A1B8EE400A00E038E19D484B3800F0F6
:1020600075F94FF0030BA4A24FF43971CDF808B005
:10207000CDE90512CDE903489548CDE9006509236E
:1020800001229EA18738FFF7B5FC212268460999F5
:10209000FEF739F98E492D2287390AA8FEF733F960
:1020A0000DF1280C8A489CE80E00FFF7F1FC8848E7
:1020B00003F0A4FC4FF43970CDE90490CDE902643B
:1020C000CDE900759AF80600082300EE100A804852
:1020D0000122B8EE400A8AA13C3800F037F989A203
:1020E00040F2C620CDF808B0CDE90502CDE903489D
:1020F0007748CDE900650923012283A18738FFF7DE
:1021000079FC212268460999FEF7FDF870492D22D5
:1021100087390AA8FEF7F7F80DF1280C6C489CE8FF
:102120000E00FFF7B5FC6A4803F068FC40F2C621D8
:10213000CDE90491CDE90264CDE900759AF8050076
:10214000082300EE100A62480122B8EE400A6FA18F
:102150002D3800F0FBF86EA24FF42A71CDF808B0CC
:10216000CDE90512CDE903485948CDE900650923B9
:10217000012268A18738FFF73DFC212268460999B2
:10218000FEF7C1F852492D2287390AA8FEF7BBF89D
:102190000DF1280C4E489CE80E00FFF779FC4C48E6
:1021A00003F02CFC4FF42A71CDE90491CDE90264CF
:1021B000CDE900759AF80A00082300EE100A444899
:1021C0000122B8EE400A54A11E3800F0BFF853A215
:1021D00040F28A20CDF808B0CDE90502CDE90348E8
:1021E0003B48CDE90065092301224DA18738FFF75F
:1021F00001FC212268460999FEF785F834492D2211
:10220000873909A8FEF77FF80DF12408304898E8CF
:102210000E00FFF73DFC2E4803F0F0FB40F28A2051
:10222000CDE90490CDE90264CDE900759AF80B0080
:10223000082300EE100A26480122B8EE400A39A110
:102240000F3800F083F822490F220F3912A8FEF749
:102250005AF81F490F221E390EA8FEF754F81C49E0
:102260000F222D390AA8FEF74EF819490F223C39E2
:1022700006A8FEF748F816490F224B3902A8FEF7C8
:1022800042F813480F22C33850F8711F009181881B
:10229000ADF8041080790E498DF806005A3916A859
:1022A000FEF731F8DDE916230621094803F01EFB8D
:1022B000074803F0A3FB08220121054803F0B6FA02
:1022C0001BB00348BDE8F04F03F098BB047046E62E
:1022D000A3C3002038000020500400204F54000009
:1022E00030303600540700203030370055500000A1
:1022F0003030380030303900524553003031300032
:102300003031310052455600303132003031330027
:102310004F55500030313600303137004F535300A5
:10232000303138003031390030B500241C7009E0FC
:10233000055DA52D04D11D7854551D786D1C1D70AB
:10234000641CA4B28C42F3D330BD00002DE9F04FE1
:102350000024DDE90D95DDE90BB6DDE9097A06E03B
:10236000C4F10208641C00F808C0032C04DA11F858
:1023700004C0BCF1000FF3D110F8031FDFED180A01
:1023800021F03801283162F302010170018820EE4A
:10239000200A63F3891101804178BDEEC00A67F31A
:1023A00085014170818866F309018180B0F80520BC
:1023B00069F38C02A0F80520C18865F34F11C18034
:1023C000B0F8012010EE101A6AF38E12A0F8012066
:1023D00042886BF3CF1242808160BDE8F08F00002D
:1023E00000007A4400F0AEF9944C206000F0AEF9A1
:1023F00060604FF47A7004F055FD03F09FFEC82032
:1024000004F050FD40F68C2A8D4D4FF4FA5941F6F8
:10241000D0380027CAF1000B8A4E706980F48040E2
:10242000706160680078012802D002287ED0F1E057
:10243000687A022804D0032805D1A0690A3801E08F
:10244000A0690A30A061E87A012801D0A0690CE0F7
:10245000A878012806D0022806D0032802D0042834
:1024600004D101E0A76001E07748A060A87A0128C4
:1024700003D0EA79022A23D11FE06878012816D018
:1024800002280ED0032808D0704940F2DC500860C2
:10249000091D0860091D08603AE041F244604142AC
:1024A00001E050465946C4E90301A2682EE0E76006
:1024B000276100210846A26828E060690A3060614F
:1024C000287A022805D06069484506DDC4F81490D2
:1024D00006E06FF00900606101E0002800DA676142
:1024E000A168414502DDC4F8088002E0002900DA55
:1024F000A760022A04D16069A268414202F054FB3D
:10250000287A022804D16069A268414202F04CFB9B
:102510006068807901280ED04D484FF44371C16343
:1025200040F27E4101642879012800E024E009D0CE
:1025300002280CD108E0464840F2B631C1634FF49E
:102540006171EFE7434800E0434802F043FC6068F4
:10255000417901290AD04FF00071404A9161C07859
:10256000012806D04FF08060B06153E04FF4007155
:10257000F3E74FF48060F7E7A878012806D0022837
:1025800006D0032802D0042804D101E0A76001E0AE
:102590003348A060687801281BD0022813D0032894
:1025A0000DD02A4940F2DC500860091D0860091D61
:1025B00008602879012810D0022813D10FE029499A
:1025C000A268484202E059465046A26802F0ECFA7E
:1025D000EFE700210846A268F8E7234800E01E481C
:1025E00002F0F8FB6068C178012917D04FF08061D4
:1025F000B1614179012914D018494FF000728A6104
:102600008079012812D012484FF44371C16340F21F
:102610007E410164052004F045FCFDE64FF4806135
:10262000E6E70E4A4FF400719161E9E7084840F28D
:10263000B631C1634FF46171EBE700006400002024
:10264000540700200014024030E4FFFF340401402E
:1026500000040040B0BFFEFF9CE6FFFF00200240E8
:102660000CF4FFFFBCE9FFFFC0E6FEFF10B558B158
:10267000084C491E0BD310F8013B5340DBB234F831
:10268000133083EA1222F4E74FF6FF7010BD1046B4
:1026900010BD0000D883000810B558B1084C491E81
:1026A0000BD310F8013B5340DBB234F8133083EA0C
:1026B0001222F4E74FF6FF7010BD104610BD000067
:1026C000D886000810B5054C04E000BF10F8013BA7
:1026D0005340E25C491EF9D2104610BDD882000872
:1026E00010B5054C04E000BF10F8013B5340E25C1C
:1026F000491EF9D2104610BDD88500080048704721
:1027000096050020004870478AC200200649054807
:102710008978405810F4002F01D000207047012024
:102720007047000000640240D082000818B1012800
:1027300003D000207047024870470148243070479A
:10274000CE0400200048704718070020004870475A
:102750005407002002488168027811448160704764
:10276000000000200B4810B5016841F400710160C1
:10277000016841F480610160016841F48071016089
:10278000032000F089F8062000F006F800F03EF87B
:10279000002010BD003C024010B5014688B0002268
:1027A000192000F059F8192000F048F813480024C7
:1027B000016841F001010160006805A900F0010015
:1027C0000690684600F07AF800F098F80C4940004E
:1027D000B0FBF1F10C480B4A491E026040F2E732AF
:1027E000C0E90324C0E9011400F09AF810B10120F7
:1027F00008B010BD044800F0AFF8F9E744380240D3
:1028000040420F0000000140580400200A4808B56B
:10281000016841F480410160006800F4804000904C
:102820000548001F016841F080510160006800F018
:102830008050009008BD000044380240002809DBA9
:1028400000F01F02012191404009800000F1E020CA
:10285000C0F8001170470000F0B40E4B1B680C4626
:10286000C3F30223C3F10705042D00D90425191D64
:10287000072901D2002300E0DB1E012606FA05F13C
:10288000491E214099409E40761E16403143F0BCBF
:1028900003F014BB0CED00E0064900F007020868E5
:1028A0004FF6FF03184040EA0220034A1043086035
:1028B000704700000CED00E00000FA050F220260F6
:1028C0000C4A136803F003034360136803F0F0033A
:1028D0008360136803F4E053C36012684FF4E0535D
:1028E00003EAD20202610448006800F00F000860A9
:1028F0007047000008380240003C02400448054987
:1029000000680968044AC1F34231515CC84070470D
:102910000C00002008380240C88200087047704749
:1029200010B5040003D094F83D0010B107E0012079
:1029300010BD002084F83C00204600F00CF8022076
:1029400084F83D00211D206802F0CAFE012084F8B1
:102950003D00002010BD70470168CA6842F00102C6
:10296000CA600068816801F00701062903D0016888
:1029700041F00101016000207047704770B50446C6
:10298000006801694FF00005C943890715D4C16883
:10299000C943890711D4E91E01610120207720680D
:1029A00080698007204602D0FFF7E7FF04E000F0CF
:1029B00098F8204600F096F8257720680169C94309
:1029C000490717D4C168C943490713D46FF00401FC
:1029D0000161022020772068806910F4407F204642
:1029E00002D0FFF7CAFF04E000F07BF8204600F0B9
:1029F00079F8257720680169C943090716D4C168A9
:102A0000C943090712D46FF008010161042020773F
:102A10002068C0698007204602D0FFF7AEFF04E0BF
:102A200000F05FF8204600F05DF825772068016926
:102A3000C943C90617D4C168C943C90613D46FF086
:102A400010010161082020772068C06910F4407FE0
:102A5000204602D0FFF791FF04E000F042F8204644
:102A600000F040F8257720680169C943C90708D1FB
:102A7000C168C943C90704D1891E0161204600F01D
:102A800033F820680169C943090609D4C168C943FC
:102A9000090605D46FF0800101612046FFF73EFF73
:102AA00020680169C943490609D4C168C943490678
:102AB00005D46FF040010161204600F01FF8206846
:102AC0000169C94389060BD4C168C943890607D483
:102AD0006FF0200101612046BDE87040FFF71FBF85
:102AE00070BD70477047000000680349884201D1FB
:102AF000FFF730BE70470000000001407047FEE75E
:102B0000904201DD104670478842FCDA0846704763
:102B100008B5FFF7F3FD144CA06003F0CDFFC8200B
:102B200004F0C0F9114D4FF0FF36002132460E4B34
:102B30000846009605F0A0F8686980F400606861B6
:102B40000B482268A168FDF7DEFB0520FFF774F94A
:102B5000208881B20648FDF7EFFE02F0EBFF05206A
:102B600004F0A0F9E1E70000180000200010024086
:102B700098060020044908B50A6802430A600968FB
:102B80000140009108BD000030380240044908B5FA
:102B90000A6802430A6009680140009108BD00000C
:102BA00030380240044908B50A6802430A600968DF
:102BB0000140009108BD000030380240044908B5CA
:102BC0000A6802430A6009680140009108BD0000DC
:102BD00030380240044908B50A6802430A600968AF
:102BE0000140009108BD000040380240044908B58A
:102BF0000A6802430A6009680140009108BD0000AC
:102C000040380240044908B50A6802430A6009686E
:102C10000140009108BD000044380240044908B555
:102C20000A6802430A6009680140009108BD00007B
:102C300044380240034A1430515C0A5822F004021E
:102C40000A507047B0820008034A515C425822F093
:102C50000102425070470000D0820008034A515CD4
:102C6000425842F00102425070470000D0820008F2
:102C7000024A001D515C085880B27047D08200089B
:102C8000034B595C435823F0606313434350704730
:102C9000B0820008034B595C435823F400231343CC
:102CA00043507047D0820008044B001D595C0B58FC
:102CB0006FF30F0313430B5070470000D0820008DE
:102CC000034B595C435823F0C003134343507047F0
:102CD000B0820008034B595C435823F480631343CC
:102CE00043507047B0820008034B595C435823F4AB
:102CF000C043134343507047B0820008034B595CF4
:102D0000435823F49073134343507047B082000834
:102D1000034B595C435823F40073134343507047EB
:102D2000B0820008034B595C435823F4C05313434B
:102D300043507047B0820008034B595C435823F45A
:102D40004033134343507047B0820008F0B50A681F
:102D50000F2692FAA2F2B2FA82F303248AE0012744
:102D60009F4015EA07027DD04D68012D01D0022D4C
:102D70001BD18D68876892FAA2FCBCFA8CFC4FEAE2
:102D80004C0C04FA0CFC27EA0C0792FAA2FCBCFAE1
:102D90008CFC4FEA4C0C05FA0CF52F438760CD688C
:102DA0004768554397432F4347600F69D0F80CC0DD
:102DB00092FAA2F5B5FA85F54FEA450E04FA0EF53A
:102DC0002CEA050C92FAA2F5B5FA85F56D00AF4034
:102DD0004CEA070CC0F80CC04D68022D33D192FAB2
:102DE000A2F5B5FA85F5082D15D2D1F814C0056AFB
:102DF00092FAA2F7B7FA87F7BF0006FA07F7BD43C2
:102E000092FAA2F7B7FA87F7BF000CFA07FC45EA77
:102E10000C05056217E0D1F814E0476A150A95FA27
:102E2000A5FCBCFA8CFC4FEA8C0C06FA0CFC95FA5B
:102E3000A5F5B5FA85F5AD0027EA0C070EFA05FEF3
:102E400047EA0E0747624D68076892FAA2FCBCFA8F
:102E50008CFC4FEA4C0C04FA0CFE27EA0E0792FA9F
:102E6000A2F200E005E0B2FA82F2520095402F4350
:102E700007605B1C0A681546DA407FF470AF0020DB
:102E8000F0BD30B5036A91FAA1F4B4FA84F4A50058
:102E90000F24AC4091FAA1F1B1FA81F18900A3436A
:102EA0008A401343036230BD30B5436A090A91FA80
:102EB000A1F4B4FA84F4A5000F24AC4091FAA1F176
:102EC000B1FA81F18900A3438A401343436230BDC4
:102ED00010B5044601F0A0FC206001F073FC6060B6
:102EE00001F07EFCA060606801F088FCE06010BD2D
:102EF00001490860704700000C0000200A7B8B68C5
:102F00001A434B6822F480621A430B6822F4006271
:102F10001A43CB8922F480521A430B6922F40052DF
:102F20001A434B6922F480421A4322F400411943A8
:102F3000416400207047000010B501291CD004290D
:102F40001CD010291CD040291CD0B1F5807F1BD08B
:102F5000B1F5806F1AD006210D4B18305B5C184418
:102F600003680B4C0E34615C03248C40120CA343A9
:102F70008A401343036010BD0021EDE70121EBE718
:102F80000221E9E70321E7E70421E5E70521E3E77B
:102F90009482000810B501291CD004291CD01029E6
:102FA0001CD040291CD0B1F5807F1BD0B1F5806FBB
:102FB0001AD006210D4B18305B5C184403680B4C8B
:102FC0000E34615CF0248C40120CA3438A401343FE
:102FD000036010BD0021EDE70121EBE70221E9E7E5
:102FE0000321E7E70421E5E70521E3E794820008F0
:102FF00010B5012916D0042916D0102916D0402961
:1030000016D0B1F5807F15D0B1F5806F14D00623AE
:10301000016A0A4CE35C0A249C40A1439A40114394
:10302000016210BD0023F3E70123F1E70223EFE77C
:103030000323EDE70423EBE70523E9E7A982000872
:1030400010B501291CD004291CD010291CD04029FE
:103050001CD0B1F5807F1BD0B1F5806F1AD006214E
:103060000D4B18305B5C184403680B4C0E34615CEC
:103070000C248C40120CA3438A401343036010BD00
:103080000021EDE70121EBE70221E9E70321E7E772
:103090000421E5E70521E3E794820008F0B5026822
:1030A000254B264D264E274F274C4FF0804C9842FB
:1030B00009D0604507D0A84205D0B04203D0B8423D
:1030C00001D0A04205D1D1F804E022F0700242EA1A
:1030D0000E0298421BD0604519D0A84217D0B042CA
:1030E00015D0B84213D0A04211D0184DA8420ED02E
:1030F000174DA8420BD0174DA84208D0164DA84234
:1031000005D0164DA84202D0154DA84203D1CD6876
:1031100022F440722A4302608A68C2620A8882628C
:10312000984201D0A04201D1097C0163416941F07C
:10313000010141610020F0BD000001400004004099
:1031400000080040000C0040000401400040014025
:10315000004401400048014000180040001C0040AD
:1031600000200040012919D0042919D0102919D0B4
:10317000402919D0B1F5807F18D0B1F5806F17D0F4
:1031800006210C4A1830525C10440268094BDB1DC2
:103190005B5C042199408A43026070470021F0E79C
:1031A0000121EEE70221ECE70321EAE70421E8E749
:1031B0000521E6E794820008012919D0042919D0D5
:1031C000102919D0402919D0B1F5807F18D0B1F558
:1031D000806F17D006210C4A1830525C10440268E8
:1031E000094BDB1D5B5C082199400A430260704774
:1031F0000021F0E70121EEE70221ECE70321EAE7F5
:103200000421E8E70521E6E794820008F0B50126ED
:1032100000236E4C6E4D012908D010293BD0B1F52A
:10322000807F73D0B1F5805F6ED1A6E0016A21F096
:1032300001010162016A46688769D2F800C027F07F
:10324000730747EA0C07D2F810C021F0020141EAE7
:103250000C01D2F804C021F0010141EA0C01A042A6
:1032600001D0A84212D1546921F0080141EA840139
:10327000946821F0040141EA8401956926F4807480
:103280002C43D56924F4007444EA450646608761FE
:10329000D26842636FE0016A21F010010162066AA0
:1032A00041688769D2F800C027F4E64747EA0C274F
:1032B000D2F810C026F0200646EA0C16D2F804C058
:1032C00026F0100646EA0C16A04201D0A84213D1FF
:1032D000556926F0800444EA8514956824F040047A
:1032E00044EA8516946921F4806141EA8401D46935
:1032F00021F4006141EAC40141608761D1688163C2
:1033000061E003E000E01E463046F0BD016A21F4B2
:1033100080710162016A4668C769D2F800C027F06F
:10332000730747EA0C07D2F810C021F4007141EA94
:103330000C21D2F804C021F4807141EA0C21A04292
:1033400001D0A84213D1546921F4006141EA8421DB
:10335000946821F4806141EA8421956926F48054BF
:1033600044EA0514D56924F4005444EA451646603D
:10337000C761D268C2630162C5E7016A21F4805166
:103380000162066A4168C769D2F800C027F4E647BF
:1033900047EA0C27D2F810C026F4005646EA0C364D
:1033A000D2F804C026F4805646EA0C36A04201D07A
:1033B000A84204D1946921F4804141EA841141601A
:1033C000C761D168016406629DE70000000001400A
:1033D0000004014008B5016800914068009008BDF4
:1033E000016921F490410161416921F02A014161A3
:1033F000704700007FB50446C0680D460126C0F343
:103400004030E8BBE9686868AA6908432969114344
:103410000843E16849F20C6291430843E060A86800
:10342000216921F44051014321616869616921F4F6
:103430004071014361616846FFF74AFD13488442C9
:1034400008D01348844213D01248844210D0124846
:10345000844201D103990CE01048844208D01048FE
:10346000844205D00F48844202D00F4884420AD1DA
:10347000029929B12B681BB100262046AA6900E0F9
:1034800001E000F013F804B0304670BD00100140B8
:10349000004400400048004000140140004C00403F
:1034A0000050004000780040007C00402DE9F041D1
:1034B00006461920A1FB00011F4600236424322583
:1034C000B2F5004F27D0BB0FBA00FCF7EBFE014668
:1034D000B0FBF4F06FF01802504301EB800005EBF5
:1034E0000010B0FBF4F000F0F002B1FBF4F002EBDE
:1034F0000012B1FBF4F06FF01803584301EB8000A9
:1035000005EB0010B0FBF4F000F00F00104480B2A7
:10351000B060BDE8F081FA195B41FCF7C3FE0146DB
:10352000B0FBF4F00201B1FBF4F06FF01803584364
:1035300001EB800005EBC000B0FBF4F000F0F800F8
:1035400002EB4002B1FBF4F0584301EB800005EBC5
:10355000C000B0FBF4F000F00700D7E708B54FF06B
:10356000E0210A690092421C00D0401C0A69D20383
:1035700000D5401E0028F9D108BD00002DE9F0411A
:103580000E4F00244FF4807626FA04F5BD611E200C
:10359000FFF7E4FF641CE4B2082CF5D308494FF4AC
:1035A000006088611E20FFF7D9FF06494FF4804074
:1035B0008861BDE8F0411E20FFF7D0BF001802402F
:1035C000001002400014024005494FF48040886119
:1035D000C110044881614FF4FF71816170470000A0
:1035E00000140240001002402DE9F04F09ACDDE963
:1035F0000C6594E880060024DDF838B007E000BFD1
:10360000C4F10208641C00F808C0032C04DA11F8A5
:1036100004C0BCF1000FF3D110F8031F62F30201E4
:103620000170018863F389110180417867F3850196
:103630004170828869F309028280B0F805206AF33C
:103640008C02A0F80520C18866F34F11C180B0F844
:10365000091065F38C01A0F8091042896BF34F1231
:103660004281BDE8F08F10B54FF48000FFF78EFA6D
:103670004FF40010FFF78AFA02F0D8FB002206216F
:1036800000F0CFFE01460B2002F0E8FB0B2002F019
:10369000A5FB02F0CBFB0022062100F0C2FE014692
:1036A000112002F0DBFB112002F098FB02F0BEFBC0
:1036B0000022062100F0B5FE0146392002F0CEFBC3
:1036C000392002F08BFB02F0B1FB0022062100F052
:1036D000A8FE01463A2002F0C1FBBDE810403A20A6
:1036E00002F07CBB2DE9F04F87B018216846FCF74B
:1036F00023FE1020FFF73EFA4020FFF73BFA01209F
:10370000FFF738FA0220FFF735FA4FF48070FFF721
:1037100031FA8020FFF72EFA2020FFF72BFA08203D
:10372000FFF728FA24484FF400710A048261234FFE
:103730004FF47012BA61DFF888804FF0FF734FF4D6
:10374000FF7BC8F81830DFF87C904303C9F81830C5
:10375000DFF874A08B04CAF8183001240325002672
:103760008DE8720069460494FFF7F0FA3C208DE87A
:103770007100694638460494FFF7E8FA01A9CDF8CC
:1037800000B081E87000694640460494FFF7DEFA15
:103790004FF488408DE87100694648460494FFF76D
:1037A000D5FAE0028DE87100694650460494FFF7AF
:1037B000CDFA07B0BDE8F08F00200240001C0240A7
:1037C00000180240001402400010024030B593B0CF
:1037D00014210EA8FCF7B0FD20216846FCF7ACFDD3
:1037E000182108A8FCF7A8FD4020FFF7F3F959209D
:1037F000ADF83800002440F2E730CDE90F40184D15
:103800000EA928461194FFF749FC286820F0800093
:10381000286001212846FFF7CFFC6020CDE9000495
:10382000029403946A46012128460494FFF7EEFCB3
:1038300001212846FFF796FC8020FFF7B3F94020CE
:10384000089009AA0220032182E813000C900920A5
:103850000D9008A90348FFF779FA13B030BD0000B6
:1038600000180040001C024070B58CB0142106A85E
:10387000FCF762FD18216846FCF75EFD0120FFF7AA
:10388000A9F90120FFF78EF903200221CDE90001FB
:10389000029001200025CDE90305059069462C48DA
:1038A000FFF754FA02F0CAFA0022062100F0D2FD16
:1038B00001461C2002F0E2FA1C2002F09CFA4FF0B4
:1038C0008044A06820F0070040F00200A060A6132A
:1038D000324601212046FFF72FFB0022012120461E
:1038E000FFF7AEFB002201212046FFF753FB002229
:1038F00001212046FFF77CFB324610212046FFF7CE
:103900001BFB002210212046FFF79AFB002210210A
:103910002046FFF73FFB002210212046FFF768FBFF
:10392000ADF81850701ECDE9075006A9204609953C
:10393000FFF7B4FB206820F080002060606820F072
:1039400070006060A06820F08000A0600CB070BDC6
:103950000000024070B594B014210EA8FCF7ECFCF6
:1039600020216846FCF7E8FC182108A8FCF7E4FCD5
:103970000220FFF72FF9B320ADF83800002444F6F9
:103980001F60CDE90F40244D0EA928461194FFF782
:1039900085FB286840F080002860AE153146284637
:1039A000FFF70AFC6020CDE90004029403946A4604
:1039B000314628460494FFF729FC31462846FFF794
:1039C000D1FBAE1431462846FFF7F6FB01946A4658
:1039D000314628460294FFF719FC31462846FFF786
:1039E000C1FB686820F070006860A86820F0800063
:1039F000A8600220FFF7D6F80320CDE90A040221CF
:103A0000CDE908010120CDE90C0108A90348FFF721
:103A10009DF914B070BD0000000400400004024095
:103A200070B58CB0142106A8FCF786FC18216846F6
:103A3000FCF782FC0420FFF7CDF80820FFF7B2F86E
:103A40004FF44050009002200321CDE90101059080
:103A500001210025CDE9031569462C48FFF776F9C9
:103A600002F0ECF90022062100F0F4FC01461E20D1
:103A700002F004FA1E2002F0BEF9254CA06820F0E6
:103A8000070040F00200A060A61332460121204644
:103A9000FFF752FA002201212046FFF7D1FA002257
:103AA00001212046FFF776FA002201212046FFF788
:103AB0009FFA324610212046FFF73EFA00221021DD
:103AC0002046FFF7BDFA002210212046FFF762FAD8
:103AD000002210212046FFF78BFAADF81850701E17
:103AE000CDE9075006A920460995FFF7D7FA2068C7
:103AF00020F080002060606820F070006060A068A6
:103B000020F08000A0600CB070BD0000000C0240EE
:103B10000008004070B58CB0142106A8FCF70CFC1E
:103B200018216846FCF708FC0820FFF753F88020AE
:103B3000FFF738F84FF44060009002200321CDE9F0
:103B40000101059001210025CDE9031569462C48A6
:103B5000FFF7FCF802F072F90022062100F07AFC6F
:103B60000146322002F08AF9322002F044F9254C55
:103B7000A06820F0070040F00200A060A6133246C3
:103B800001212046FFF7D8F9002201212046FFF746
:103B900057FA002201212046FFF7FCF900220121FB
:103BA0002046FFF725FA324610212046FFF7C4F9D8
:103BB000002210212046FFF743FA00221021204660
:103BC000FFF7E8F9002210212046FFF711FAADF8BF
:103BD0001850701ECDE9075006A920460995FFF739
:103BE0005DFA206820F080002060606820F070009E
:103BF0006060A06820F08000A0600CB070BD000084
:103C0000001C0240000C004010B586B0142168462C
:103C1000FCF792FB2020FEF7DDFF02F00FF90022F7
:103C2000062100F017FC0146372002F027F9372063
:103C300002F0E1F85920ADF800000020019044F6B0
:103C40001F600A4C029069462046FFF727FA206859
:103C500020F080002060606820F070006060A06844
:103C600020F08000A06006B010BD000000140040ED
:103C7000F0B599B0142114A8FCF75EFB202168462A
:103C8000FCF75AFB182108A8FCF756FB18210EA8D0
:103C9000FCF752FB0220FEF7B5FFB320ADF8500051
:103CA000002444F61F60CDE915403D4D17948DF872
:103CB000604014A92846FFF7F1F9286840F0800019
:103CC000286001212846FFF777FA6020CDE900043B
:103CD000029403940494059406946A4601212846AC
:103CE0000794FFF793FA01212846FFF73BFA1021CA
:103CF0002846FFF761FA01946A461021284602948B
:103D0000FFF784FA10212846FFF72CFAAE1531464A
:103D10002846FFF751FA01946A4631462846029434
:103D2000FFF774FA31462846FFF71CFAAF143946FC
:103D30002846FFF741FA01946A463946284602941C
:103D4000FFF764FA39462846FFF70CFA686820F056
:103D500070006860A86820F08000A860089468146B
:103D6000CDE90C048DF82C4009940A94ADF82E404E
:103D700008A92846FFF7C2F83046FEF713FFE420F3
:103D80000E9002200F9003200121CDE91210CDE901
:103D900010040EA90348FEF7D9FF19B0F0BD0000CA
:103DA000000401400020024070B594B014210EA818
:103DB000FCF7C2FA20216846FCF7BEFA182108A8D1
:103DC000FCF7BAFA4FF48030FEF71CFFB320ADF8D1
:103DD0003800002444F61F60CDE90F401E4D0EA9A7
:103DE00028461194FFF75AF9286820F080002860CF
:103DF00001212846FFF7E0F96026CDE9006402942E
:103E000003946A46012128460494FFF7FFF9012133
:103E10002846FFF7A7F910212846FFF7CDF90194AE
:103E20006A46102128460294FFF7F0F9102128462F
:103E3000FFF798F91020FEF7B5FE0220CDE90860E3
:103E400003200121CDE90C10CDE90A0408A903489B
:103E5000FEF77CFF14B070BD00400140001002402E
:103E60002DE9F0418EB01C216846FCF765FA182157
:103E700007A8FCF761FA4FF00040FEF7B7FE1020EC
:103E8000FEF79CFE03200221CDE907010024CDE9C5
:103E9000090401200B9008200C9007A94348FEF765
:103EA00055FF434E4FF020652A4606213046FEF767
:103EB000E7FE002206213046FEF702FF4FF44037AE
:103EC0003A4606213046FEF737FF002206213046EB
:103ED000FEF714FF002206213046FEF719FF4FF4CB
:103EE0008068424606213046FEF7F4FE0022062195
:103EF0003046FEF717FF002206213046FEF7F4FE9B
:103F000006213046FEF796FE2A4600213046FEF78F
:103F1000B7FE402200213046FEF7D2FE3A4600218D
:103F20003046FEF709FF002211463046FEF7E6FE56
:103F3000002211463046FEF7EBFE42460021304695
:103F4000FEF7C8FE002211463046FEF7EBFE0022C7
:103F500011463046FEF7C8FE00213046FEF76AFEE5
:103F600001F074FF0022062100F08DFA0146532073
:103F700001F094FF532001F04BFF4FF4E130CDE905
:103F800000040C200294CDE9034005940694094CEA
:103F900069462046FFF72EFA2046FFF721FAE0682F
:103FA00040F40050E0600EB0BDE8F0810010024027
:103FB00000600240007C004030B58DB01C21684696
:103FC000FCF7BAF9182107A8FCF7B6F91020FEF79C
:103FD00025FE0220FEF7F2FDC02007900220089087
:103FE00003200024CDE9090401200B9007200C9048
:103FF00007A92B48FEF7AAFE2A4D4FF000620221C6
:104000002846FEF73DFE002202212846FEF758FE14
:104010004FF4403202212846FEF78EFEAA150221F7
:104020002846FEF76BFE002202212846FEF770FEAE
:104030002A1502212846FEF74DFE002202212846BD
:10404000FEF770FE002202212846FEF74DFE0221F7
:104050002846FEF7EFFD01F0F9FE0022062100F0F0
:1040600012FA0146252001F019FF252001F0D0FEAB
:104070000D480090A814CDE901040C20CDE90340BF
:1040800005940694094C69462046FFF7B3F920468B
:10409000FFF7A6F9E06840F40050E0600DB030BDD5
:1040A0000004024000640240A086010000100140AC
:1040B00010B58EB01C216846FCF73EF9182107A800
:1040C000FCF73AF94FF48020FEF790FD0820FEF748
:1040D00075FD4FF440700790022000240890CDE950
:1040E000090401200B9007200C9007A91348FEF744
:1040F0002DFE01F0ABFE0022062100F0C4F90146BE
:10410000272001F0CBFE272001F082FE4FF4E130A2
:10411000CDE900040C200294CDE9034005940694F7
:10412000074C69462046FFF765F92046FFF758F926
:10413000E06840F40050E0600EB010BD000C02409A
:104140000048004030B58DB01C216846FCF7F4F8FB
:10415000182107A8FCF7F0F82020FEF75FFD4020AB
:10416000FEF72CFD4FF484400790022008900320B6
:104170000024CDE9090401200B9008200C9007A928
:104180002B48FEF7E3FD2B4D4FF02062012128461E
:10419000FEF776FD002201212846FEF791FD4FF43F
:1041A000403201212846FEF7C7FD002201212846A2
:1041B000FEF7A4FD002201212846FEF7A9FD2A15DD
:1041C00001212846FEF786FD002201212846FEF740
:1041D000A9FD002201212846FEF786FD012128467F
:1041E000FEF728FD01F032FE0022062100F04BF917
:1041F0000146472001F052FE472001F009FE4FF42E
:10420000E130CDE900040C200294CDE9034005948F
:104210000694094C69462046FFF7ECF82046FFF764
:10422000DFF8E06840F40050E0600DB030BD000001
:10423000001802400064024000140140FEE710B57F
:10424000002404804180012101714171C0E90223F1
:1042500010BD0179417102884AB1521E02800022CC
:1042600002718068002801D0012907D0704701221F
:104270000271C0680028F9D00029F7D100474188B1
:10428000018070473CB50A880024120A8DF800208E
:104290000A788DF801204A88120A8DF802208A785F
:1042A0008DF803208A88120A8DF804200A798DF887
:1042B0000520CA88120A8DF8062089798DF8071022
:1042C0006A46082100F014F8054640F6FF7301E045
:1042D000641CA4B22846FCF7EFFD072801D09C42DD
:1042E000F6D39C4201D301203CBD00203CBD000020
:1042F00070B5234B044600201D686D0108D4186872
:10430000000101D5012003E01868C00036D5022065
:104310001C4B002503EB0013C3F88059D3F88059D8
:1043200045EA4455C3F88059D3F88049C3F8804919
:10433000D3F88049C3F88049D3F8844901F00F01CC
:1043400024F00F04C3F88449D3F884490C43C3F81C
:1043500084491179D2F8054041EA0421C3F88C1947
:104360001178D2F8012041EA0221C3F88819D3F864
:10437000801941F00101C3F8801970BDFF2070BDA4
:10438000086800400060004070B5234B04460020E0
:104390001D686D0108D41868000101D5012003E0F3
:1043A0001868C00036D502201C4B002503EB001313
:1043B000C3F88055D3F8805545EA4455C3F8805575
:1043C000D3F88045C3F88045D3F88045C3F88045CD
:1043D000D3F8844501F00F0124F00F04C3F884459D
:1043E000D3F884450C43C3F884451179D2F80540CD
:1043F00041EA0421C3F88C151178D2F8012041EA72
:104400000221C3F88815D3F8801541F00101C3F8E3
:10441000801570BDFF2070BD086400400060004042
:10442000FEE730B500F00703C3F10704042C00D900
:104430000424181D072801D2002300E0DB1E0125FB
:1044400005FA04F0401E084098409D406D1E15403E
:10445000284330BD30B500F00703C3F10704042C36
:1044600000D90424181D072801D2002300E0DB1E18
:10447000012505FA04F0401E084098409D406D1E3D
:104480001540284330BD30B500F00703C3F10704E1
:10449000042C00D90424181D072801D2002300E0B1
:1044A000DB1E012505FA04F0401E084098409D409F
:1044B0006D1E1540284330BD1CB50246002104483E
:1044C000009101910323406803F00CFB1CBD000028
:1044D000180000204FF4C874204602F0E3FC0520C9
:1044E00002F0E0FCF8E72DE9F0410C460178427853
:1044F00041EA0221C1F30A01218042788378D2087F
:1045000042EA4312C2F30A0262808378C5789B09AB
:1045100043EA8503057943EA8523C3F30A03A380AD
:10452000057946796D0845EAC615C5F30A05E580A3
:104530004679C6F30116A6724679B609E6728679FF
:10454000C77946EA0726A681067A477A46EA072609
:10455000E681867AC77A46EA07262682067BA67413
:10456000467BE674867BC77B46EA0726A682067CE6
:10457000407CA1F580612180A2F580626280A3F574
:10458000806346EA0020A380A5F58065E580A0F55C
:1045900080602081204601F029FB4FF496656E4231
:1045A000B4F90C002A463146FEF7AAFAA081B4F904
:1045B0000E002A463146FEF7A3FAE081BDE8F081FD
:1045C000B4EEE00AF1EE10FA02D2B0EE600A7047E3
:1045D000B4EEC10AF1EE10FAF9DDB0EE410A70470F
:1045E00010B580ED030A0446C0ED040AFCF7C6FFCF
:1045F00094ED100A10BD00000448042181610821D7
:10460000816110218161202181617047001C02407D
:1046100010B50EA001F0D2FB0DA001F0CFFB18A049
:1046200001F0CCFB22A001F0C9FB2DA001F0C6FBDC
:1046300037A001F0C3FB43A001F0C0FB4EA001F086
:10464000BDFBBDE8104001A001F0B8BB0D0A0000A1
:1046500020202020202020202A3D3D3D2A202020EF
:104660002A3D3D3D2A202020202A3D3D3D2A202074
:1046700020202020202020202A3D3D3D2A0D0A0018
:10468000202020202020202F2020202F2020202FFD
:104690002020202F202020202F2020202F202020ED
:1046A000202020202020202F2020202F0D0A000055
:1046B0002020202020202F2020202A3D3D3D2A2080
:1046C00020202F202020202F2020202F20202020BD
:1046D0002020202020202F2020202F0D0A00000045
:1046E00020202020202F20202020202020202020BB
:1046F000202F202020202F2020202F20202020208D
:1047000020202020202F2020202F0D0A0000000034
:10471000202020202F2020202A3D3D3D2A2020201F
:104720002F202020202F2020202A3D3D3D3D3D3DB3
:104730002A2020202F2020202A3D3D3D3D3D3D2A9E
:104740000D0A00002020202F2020202F2020202FA5
:104750002020202F202020202F202020202020203B
:104760002020202F2020202F20202020202020202B
:1047700020202F0D0A00000020202A3D3D3D2A2048
:1047800020202A3D3D3D2A202020202A3D3D3D3D40
:104790003D3D3D3D3D3D2A2020202A3D3D3D3D3DC6
:1047A0003D3D3D3D3D2A0D0A0000000003494FF408
:1047B000806088610249401088617047001402409F
:1047C0000020024004490968044A01F0F001090987
:1047D000515CC8407047000008380240B8820008A9
:1047E00004490968044A01F4E05102EB9121097877
:1047F000C840704708380240C88200080449096868
:10480000044A01F4604102EB51310978C840704715
:1048100008380240C88200080748006810F00C0100
:10482000064807D0042904D0082903D1082000F045
:1048300009B8034870470000083802400024F4001B
:10484000001BB70010B5104A04460020116811F48F
:1048500080030E4903D0B3F5800F00D10C49082C1A
:1048600011D1106800F03F00B1FBF0F01168C1F306
:10487000881148431168012201F4403102EB1141D3
:104880004900B0FBF1F010BD043802400024F400F0
:10489000001BB7000368934205DA19440160914296
:1048A00000DD02607047FCDD591A01609142F8DBBF
:1048B00070478A8A82828A7C8274CA7CC2748A899E
:1048C0008281CA89C2810A8A02820A8802804A8851
:1048D00042808A888280CA88C2800A8902818A7A54
:1048E0008272C97AC1727047002181828174C17459
:1048F0008181C1810182018041808180C1800181EB
:1049000003218172C172704708B508486946406842
:1049100002F09AFE0098002807D005494FF0805019
:104920000860BFF34F8FBFF36F8F08BD24000020D6
:1049300004ED00E02DE9F04F0024DDE90CA5DDE9F0
:104940000976DDF838B0DDF82C9006E0C4F10208F5
:10495000641C00F808C0032C04DA11F804C0BCF190
:10496000000FF3D110F8031F21F03801083162F372
:1049700002010170018863F389110180417867F3B6
:1049800085014170818866F309018180B0F80520B6
:1049900069F38C02A0F80520C2886AF34F12C28026
:1049A000B0F8091065F38C01A0F8091042896BF387
:1049B0004F124281BDE8F08FB0F900204FF4A5619D
:1049C00002F525728A4201D901207047B0F9022010
:1049D00002F525728A4201D902207047B0F90420FD
:1049E00002F525728A4201D903207047B0F90620EA
:1049F00002F525728A4201D904207047817A012983
:104A000005D0022903D0032901D005207047C07AC0
:104A1000012805D0022803D0032801D006207047C2
:104A20000020704703220021012002F0A1FC324C3B
:104A300060600020FDF77AFE04F10805286001207F
:104A4000FDF774FE68602D48FFF74EFF2B481E30BF
:104A5000FFF74AFF294802213C30017001214170D3
:104A60008170C1700171817141718172C172C171B6
:104A70000172417202F050F8C82002F013FA4FF4AC
:104A8000FA763146606802F0EFFE01280AD01B4832
:104A9000FFF72AFF19481E30FFF726FF052002F016
:104AA00001FAEEE7FDF732FE207055F820001349B9
:104AB000FFF719FD1148FFF77FFF50B10F490F486D
:104AC0001E31FFF7F6FE01F041F864210CA001F061
:104AD00075F90020FDF7B0F900F01CF8074A074807
:104AE0003C32A2F11E0100F01DFC044901F11E0040
:104AF000FFF7DFFED2E700002400002018070020A7
:104B00003C4552524F523E206572726F723A256494
:104B10000D0A00002DE9F041224D0127A5F11E06E6
:104B2000A87A05F11E0403280FD1B07A02280CD10F
:104B30002078401CC0B22070032800D12770207854
:104B400037224FF47A7100F0D1F82078022827D16B
:104B5000E87A032824D1F07A4FF4966802280ED11F
:104B60006078401CC0B26070032800D9677060781C
:104B70003222414600F0BAF8E87A032810D1F07AE0
:104B800001280DD12079401CC0B22071022800D923
:104B9000277120794146BDE8F041322200F0A6B8E5
:104BA000BDE8F0813607002070B50D461C4914465B
:104BB000D1F80E1000EE101AF8EEC00A00EE100A3E
:104BC0001848B8EEC00AFFF70BFD1748D0F80E00E2
:104BD00000EE100A1348F8EEC00A00EE105A8830B2
:104BE000B8EEC00AFFF7FCFC1048D0F80E0000EE4B
:104BF000100A0F48F8EEC00A00EE104AB8EEC00ADC
:104C0000FFF7EEFC0A4890ED101A8838D0ED100A34
:104C1000883890ED100ABDE8704000F00BB8000035
:104C200098040020F4020020AA040020BC04002004
:104C30000404002010B527482DED028BF0EE608AA9
:104C4000B0F90C00B0EE418A00EE900A2248F8EE6E
:104C5000E00AFFF7C5FC2148B0F90C0000EE100A8D
:104C60001D48F8EEC00AB0EE680A8830FFF7B8FCBD
:104C70001B48B0F90C0000EE100A1A48F8EEC00A02
:104C8000B0EE480AFFF7ACFC13481349154A90ED03
:104C9000100A8831144BBDEEC00A10EE100A91EDD7
:104CA000100A00F2DC50BDEEC00A10EE101A92EDB0
:104CB000100A1860BDEEC00A10EE102A181D01F28D
:104CC000DC510160001D02F2DC520260BDEC028B7F
:104CD00010BD000098040020B0020020AA040020AB
:104CE000BC040020C0030020340401401CB5012096
:104CF000ADF801108DF800000448ADF80320002342
:104D00001A466946006802F0D9FB1CBD4400002029
:104D100070B500202DED048BB0EE618AF0EE418A73
:104D20002A4CB0EE609A014624F81010401C04286A
:104D3000FADB274DB5F9020000EE900A2348F8EEA1
:104D4000E00A0830FFF74CFCBDEEC00A10EE100A76
:104D50002080B5F9090000EE100A1C48F8EEC00AE0
:104D6000B0EE490A4C30FFF73BFCBDEEC00A10EE36
:104D7000100A6080B5F9100000EE100A1348F8EE32
:104D8000C00AB0EE680A9030FFF72AFCBDEEC00AF8
:104D900010EE100AA080B5F9170000EE100A0B48BB
:104DA000F8EEC00AB0EE480AD430FFF719FCBDEEA9
:104DB000C00A064910EE100AE0804FF40070BDEC06
:104DC000048BBDE87040FCF727BD0000FC0000200C
:104DD00054C200200A4910B5D1F80F1000EE101A85
:104DE000F8EEC00A00EE100A0648B8EEC00AFFF757
:104DF000F7FB044890ED100ABDE8104000F004B83D
:104E000070C200206002002010B500200E4C014648
:104E100024F81010401C0428FADB0C48B0F90200FA
:104E200000EE900A0848F8EEE00A0830FFF7D8FBD9
:104E3000BDEEC00A044910EE100A2080BDE8104003
:104E40004FF40070FFF71EBA1402002070C2002059
:104E50007CB501F011FF2F490F20CDE900014FF47F
:104E6000807500232A462CA12F4802F00FFE2F49FF
:104E70000620CDE90001002380222DA12F4802F059
:104E800005FE2F491420CDE9000100232A462DA15B
:104E9000304802F0FBFD30481324CDE900400023E8
:104EA0002A462EA1314802F0F1FD31480023CDE918
:104EB00000402A462FA1334802F0E8FD3248092479
:104EC000CDE9004000232A4630A1334802F0DEFD40
:104ED00032491820CDE9000100232A4630A1334889
:104EE00002F0D4FD32480023CDE900402A4631A12A
:104EF000344802F0CBFDFEF741FB33A000F05EFF2B
:104F000039A000F05BFF01F0F3FEBDE87C4000201B
:104F100001F0FEBF3400002072656D6F7465725F32
:104F20007461736B00000000254A000840000020F7
:104F300062757A7A65725F7461736B00F90A0008B2
:104F40005C000020636861737369735F7461736BE5
:104F500000000000511B00086000002066756E63B1
:104F600074696F6E5F7461736B000000E523000865
:104F7000800000206F766572636869705F7461738A
:104F80006B000000D54400081C0000206A756467AF
:104F9000655F7461736B0000112B00081400002022
:104FA0006465746563745F7461736B00491E000807
:104FB00084000020636C69656E745F75695F74615D
:104FC000736B0000F11D00083C494E464F3E200D1A
:104FD0000A416C6C207461736B7320637265617439
:104FE0002E0D0A0D0A0000003C494E464F3E200D92
:104FF0000A53797374656D2072756E2E0D0A0D0A51
:10500000000000002DE9F04395B00F21BC48FBF7EC
:1050100093F9BB480F210F30FBF78EF9B8480F21E9
:105020001E30FBF789F9B6480F212D30FBF784F9C4
:10503000B3480F213C30FBF77FF9B1480F214B30CB
:10504000FBF77AF9AE480F215A30FBF775F9AC48F7
:105050000F216930FBF770F9A9480F217830FBF771
:105060006BF9A7480F218730FBF766F9A4480F2199
:105070009630FBF761F9A2480F21A530FBF75CF9E8
:105080009F480F21B430FBF757F99D480F21C330DB
:10509000FBF752F99A480F21D230FBF74DF99848A7
:1050A0000F21E130FBF748F995480F21F030FBF76D
:1050B00043F993480F21FF30FBF73EF90F21914848
:1050C000FBF73AF98F480F210F30FBF735F98D4880
:1050D0000F211E30FBF730F98A480F212D30FBF7E6
:1050E0002BF988480F213C30FBF726F985480F2122
:1050F0004B30FBF721F983480F215A30FBF71CF99D
:1051000080480F216930FBF717F97E480F2178306E
:10511000FBF712F97B480F218730FBF70DF979482F
:105120000F219630FBF708F976480F21A530FBF7E1
:1051300003F94FF4B37000F075FC40F2C1344FF442
:105140001677CDE904476010CDE902404FF014080E
:105150000025CDE90058082301226BA16B48FEF71A
:1051600043FA6A4E0F223146B0680090B089ADF81C
:105170000400B07B8DF8060002A8FBF7C4F8DDE957
:105180000223012106F1C30000F0B0FB06F1C300C9
:1051900000F034FC4FF47F70CDE904074FF4D27176
:1051A0004FF46172CDE902214FF00509CDE90059B4
:1051B0000823012256A106F10F00FFF7BBFBD6F82A
:1051C00017000090B6F81B00ADF80400707F8DF852
:1051D00006000F2206F10F0102A8FBF794F8DDE9A3
:1051E0000223012106F1C30000F080FB06F1C30099
:1051F00000F004FC96214FF407770095CDE9037188
:10520000CDE901940823012242A106F11E00FCF71A
:10521000B4FDD6F826000090708DADF8040096F825
:105220002C008DF806000F2206F11E0102A8FBF7E4
:105230006AF8DDE90223012106F1C30000F056FB04
:1052400006F1C30000F0DAFB3220CDE905700790CB
:105250006FF013010095CDE90181CDE903840823A6
:1052600001222DA106F12D00FBF7EEFBD6F835004B
:105270000090B6F83900ADF8040096F83B008DF8C0
:1052800006000F2206F12D0102A8FBF73CF8DDE92C
:105290000223012106F1C30000F028FB06F1C30040
:1052A00000F0ACFB1D48621ECDE905700421CDE97C
:1052B000031230210122CDE90021032002900823AE
:1052C00017A106F13C00FCF795FB212206F14801ED
:1052D0006846FBF718F82D2206F13C0109A8FBF7F8
:1052E00012F809AC06F1C30094E80E00FCF7D0FBFD
:1052F00015B006F1C300BDE8F04300F07FBB00002D
:1053000014C4002022C5002030303100E0C200204B
:10531000303032003030330030303400510400205F
:10532000303035002DE9F0471178144601297DD140
:1053300076494FF0010501F11E068A8A520409D50B
:10534000B28A520406D4A27A521CD2B2A272022AA3
:1053500000D9A5728A8A120409D5B28A120406D429
:10536000E27A521CD2B2E272022A00D9E5728B8A2A
:105370005A0611D5B28A57060ED49B0601D592065D
:1053800007D56278521CD2B26270032A04D96570C4
:1053900002E06570E5712572827C0227012A11D036
:1053A000E571C07C01280FD02572888A80050ED552
:1053B000B08A80050BD46079401CC0B260710328AC
:1053C00004D004E0E771ECE72772EEE765718846E8
:1053D000898A4FF49669080615D5B08A020612D458
:1053E000890601D580060CD5A078401CC0B2A070FB
:1053F000042800D9A570A07832224946FFF776FC30
:1054000001E06572A570B8F8141008050CD5B08AD3
:10541000020509D4890601D5800605D56772A078F2
:1054200032224946FFF762FC474600E06BE0B8F8DD
:10543000140081040ED5B18A8A040BD4820601D5EA
:10544000890607D503206072A07832224946FFF70B
:105450004DFC0AE0010502D5B18A090505D5800693
:1054600002D5307D800600D56572B88AC00522D588
:10547000B08AC0051FD42079401CC0B22071022818
:1054800000D92571E07832224946FFF72FFC2079B8
:105490001F49032801D34D7006E0012802D80022DD
:1054A0004A702EE0497861B3401E2071C0B23222AA
:1054B0004946FFF71BFCB88A40050ED5B08A400567
:1054C0000BD4A079401CC0B2A071022800D9A571EC
:1054D000A07932224946FFF709FCB88A800412D528
:1054E000B08A80040FD4E078401CC0B2E07002287B
:1054F00000D9E570E0784946BDE8F0473222FFF771
:10550000F5BB401CD1E7BDE8F0870000180700207C
:105510002400002010B5502080F31188BFF34F8F76
:10552000BFF36F8F02F022FC18B104494FF0805096
:105530000860002080F3118810BD000004ED00E039
:10554000304810B5016821F00F0141F005010160FC
:10555000016801F00F010529FAD12B48016841F4D7
:1055600040410160016841F48031016027480168D1
:1055700041F4803101600168C1F340410029FAD053
:105580002249234A091D0B68224C23401A430A6012
:105590000A6822F440320A60016841F080710160BB
:1055A0000168C1F340610029FAD018480830016849
:1055B00021F0F0010160016821F4E05141F4A051B3
:1055C0000160016821F4604141F40041016001681B
:1055D00021F0030141F002010160016801F00C01BA
:1055E0000829FAD10C48FDF783FC0620FDF7D4F812
:1055F00008B172B6FEE705488C30016821F0807171
:10560000016010BD003C02400070004000380240C4
:10561000062D40000080BFFF0095BA0A05480168CA
:1056200041F47001016003494FF000608039086067
:105630007047000088ED00E00148FDF79FB90000C9
:10564000580400204FF080400169016921F00101F8
:105650000161704703480168016821F001010160A0
:10566000704700001008004003480168016821F0FD
:105670000101016070470000100C004070B5164831
:10568000016911F0010F25D06FF00101016101F0F6
:105690004DF9124CA08101F053F904F1120540427A
:1056A000A88101F03BF901B204F124008181D4F812
:1056B0000E20B4F90C301A44C4F80E20D5F80E2090
:1056C000B5F90C301A44C5F80E20D0F80E2011445C
:1056D000C0F80E1070BD00000014004098040020B7
:1056E000F0B50268254C264D264E274F274B4FF02C
:1056F000804CA04209D0604507D0A84205D0B042F6
:1057000003D0B84201D0984204D122F0700E4A680A
:1057100042EA0E02A0421BD0604519D0A84217D021
:10572000B04215D0B84213D0984211D0184DA842BB
:105730000ED0184DA8420BD0174DA84208D0174DD7
:10574000A84205D0164DA84202D0164DA84203D15A
:1057500022F44075CA682A434D6922F080022A4328
:1057600002608A68C2620A688262A04201D09842DE
:1057700001D10969016301214161F0BD00000140CF
:105780000004004000080040000C004000040140FC
:105790000040014000440140004801400018004022
:1057A000001C0040002000400088704702784178CB
:1057B00042EA01600A0442EA01210843704700F00E
:1057C00001B8000070B5154D2868C0F3001000281E
:1057D00023D0134C06212046FDF736FA2846FDF764
:1057E000F9FD4FF40010E06006212046FDF740FA75
:1057F0000C4DC0F180008022687006212046FDF724
:1058000053FA0949E01488616878FEF755FE20468E
:10581000BDE870400621FDF721BA70BD007C004054
:105820000060024010000020001002402DE9F0430B
:1058300085B00446A5208DF80400284D0820ADF859
:10584000050028789146884601AF8DF807004FF68D
:10585000FF76FF2204213846FCF742FF8DF808004E
:1058600040F20130ADF809004FF48070ADF80C0043
:105870000220ADF80E004FF48170ADF810008DF8E5
:1058800000808DF80190324607213846FCF704FF6E
:10589000024603A80621FCF7FFFE024668460221E5
:1058A000FCF7FAFE0146019844F8040BBDF8080025
:1058B00024F8020B9DF80A0004F8010B03982060FD
:1058C000BDF81000A080BDF80000E080218128789C
:1058D000401C287005B0BDE8F08300004A04002099
:1058E000B0F80100093080B2704700000FB4FF2209
:1058F0002DE9F04389B00446A5208DF800001198E9
:10590000DFF8F490C0EB0010801DADF8010099F8AD
:1059100000006F468DF803004FF6FF7512AE0421AC
:105920003846FCF7DDFE8DF8040040F20130ADF89A
:10593000050011994FF4817001290CD002290DD076
:1059400005290ED0072934D04FF0FF3009B0BDE84B
:10595000F0035DF814FB40F2011104E0ADF808001B
:1059600003E040F20311ADF808100221ADF80A106F
:10597000ADF80C002A4607213846FCF78DFE02469A
:1059800002A80621FCF788FE0546009844F8040B9F
:10599000BDF8040024F8020B9DF8060004F8010B82
:1059A000029844F8040BBDF80C0024F8020B002701
:1059B00016E04FF48271D6E730460DF110080FC89B
:1059C00088E80F0010362A460F214046FCF764FE97
:1059D00005460F2241462046FAF795FC0F347F1CFE
:1059E00011988742E8DB258099F80010491C89F856
:1059F00000100020AAE700004A04002070B5044609
:105A0000FFF76EFF064B00211A1F06E0655C1D6064
:105A100015686D06FCD5491C89B28142F6D370BD6C
:105A2000047C0040411E092904D36439092901D3AB
:105A3000002070470349488000F58070888001206D
:105A4000704700004A04002000F030B8704700F0B2
:105A500001B8000070B5124C2068C0F30010002897
:105A60001DD0104D01212846FDF7EEF82046FDF728
:105A7000B1FC01212846FDF7FBF80B4CC0F180007A
:105A80008022207001212846FDF70EF92078FEF7CC
:105A900013FD2846BDE870400221FDF7DFB870BD58
:105AA00000140140006402401000002070B51C4D3D
:105AB0002868C0F30010002831D01A4C022120467B
:105AC000FDF7C2F82846FDF785FC4FF40010A060F2
:105AD00002212046FDF7CCF81349C0F1240048808C
