:020000040800F2
:1000000088C500202D030008192F0008B31A000826
:10001000112F00082D120008893A00080000000086
:100020000000000000000000000000006D02000859
:100030004D16000800000000C902000849370008FA
:100040004703000847030008470300084703000868
:100050004703000847030008470300084703000858
:100060004703000847030008470300084703000848
:100070004703000847030008470300084703000838
:100080004703000847030008470300084703000828
:10009000451200084703000847030008470300080B
:1000A000470300086D3800084703000847030008AD
:1000B000793800084703000889380008470300081A
:1000C00047030008470300084703000847030008E8
:1000D00047030008D539000847030008D93900084C
:1000E00047030008470300084703000847030008C8
:1000F00047030008470300084703000847030008B8
:1001000047030008470300089D380008470300081C
:10011000470300084703000847030008B1380008F8
:10012000470300082F16000831160008470300088F
:100130004703000847030008470300084703000877
:100140004703000847030008470300084703000867
:10015000470300084703000847030008DB3900088D
:100160004703000847030008470300084703000847
:100170004703000847030008470300080000000089
:100180004703000847030008470300084703000827
:100190004703000847030008470300084703000817
:1001A00000000000000000004703000800F002F813
:1001B00000F04CF80AA090E8000C82448344AAF1B5
:1001C0000107DA4501D100F041F8AFF2090EBAE8B3
:1001D0000F0013F0010F18BFFB1A43F0010318477B
:1001E0005C5B00007C5B0000103A24BF78C878C1DB
:1001F000FAD8520724BF30C830C144BF04680C602D
:10020000704700000023002400250026103A28BF74
:1002100078C1FBD8520728BF30C148BF0B60704778
:10022000642900F08581732900F0988200207047CE
:100230001FB505F0D1FB9DE8030000F0FDFC00F0C8
:10024000F1FA1FBD10B500F056FB10BD00F0B9FB70
:100250001146FFF7EDFF03F01BFD00F0BDFC03B4FA
:10026000FFF7F0FF03BC00F079FE00002C4B19688B
:100270000868B0E8F04F80F30988BFF36F8F4FF044
:10028000000080F3118870470000000008480068F3
:10029000006880F308884FF0000080F3148862B68D
:1002A00061B6BFF34F8FBFF36F8F00DF00BF00BF9A
:1002B00008ED00E0DFF80C00016841F47001016016
:1002C000704700BF88ED00E0EFF30980BFF36F8F48
:1002D000134B1A681EF0100F08BF20ED108A20E99A
:1002E000F04F106009B44FF0500080F31188BFF355
:1002F0004F8FBFF36F8F04F07BFC4FF0000080F353
:10030000118809BC19680868B0E8F04F1EF0100F9A
:1003100008BFB0EC108A80F30988BFF36F8F704775
:1003200058000020EFF3058070470000094880471F
:1003300009480047FEE7FEE7FEE7FEE7FEE7FEE7C7
:10034000FEE7FEE7FEE7FEE704480549054A064BDF
:100350007047000051380008AD01000888BF002038
:1003600088C5002088C1002088C1002053EA020C03
:1003700000F069802DE9F04B4FF00006002B1FBF05
:10038000B3FA83F503FA05F424FA05F65E4012BFCA
:100390001643B2FA82F502FA05F4C5F120051EBF34
:1003A00022FA05FC44EA0C04203556EA044C4FEAD4
:1003B000144418BF641C4FF000084FF0000990422D
:1003C00071EB030C39D3002919BFB1FA81F701FA97
:1003D00007F6B0FA80F700FA07F6C7F120071EBF4C
:1003E00020FA07FC46EA0C062037B6FBF4FCA7EB24
:1003F0000507103F07F01F0BCBF120060CFA0BFB93
:100400002CFA06F644BFB3460026202FA4BF5E4652
:100410004FF0000B5BEA060C08BF4FF0010B19EB25
:100420000B09ABFB027C48EB0608C01B06FB02CCA9
:100430000BFB03CC71EB0C01C1E70B4602464146B6
:100440004846BDE8F08B13B54FF000004FF00001B7
:10045000AFF30080BDE81C40704700000FB40449B2
:1004600010B503AA029800F07DF910BC5DF814FBEA
:1004700080BE00202DE9F0410E4604460020206297
:100480002046E168884730B3252805D0D4E901210A
:100490009047206A401CF2E7E16820460027884721
:1004A000050018D0A5F14100192802D820354FF4D5
:1004B00000673246294620462760FFF7B1FE40B16B
:1004C000012804D0F61D26F007060836D8E7361DA9
:1004D000D6E72846DAE7206ABDE8F08170B50C4619
:1004E0000546012A05D02878800600D5EA69002350
:1004F00002E0012305E05B1C934202D2E05C00288D
:10050000F9D1A869E618C01AA861286A18442862B7
:100510002846AFF3008004E0D5E9012114F8010B6F
:100520009047B442F8D32846AFF3008070BD000076
:100530002DE9F0410646002410687529314616A5BC
:1005400010D0AFF30080002802DA404213A507E084
:1005500031688A0701D512A502E0490704D511A523
:10056000012401E0AFF3008000210A2206F12407F4
:1005700009E0B0FBF2FCB0FBF2F302FB1C003030F0
:1005800078541846491C0028F3D123462A463046A1
:10059000BDE8F04100F077B8000000002D00000039
:1005A0002B00000020000000032A40F2308010F0F1
:1005B000030C00F0158011F8013BBCF1020F6244FE
:1005C00098BF11F801CB00F8013B38BF11F8013B8F
:1005D000A2F1040298BF00F801CB38BF00F8013B3C
:1005E00011F0030300F0D080083AC0F0088051F801
:1005F000043B083A51F804CBA0E80810F5E7121DB7
:100600005CBF51F8043B40F8043BAFF30080D207D5
:1006100024BF11F8013B11F801CB48BF11F8012BA1
:1006200024BF00F8013B00F801CB48BF00F8012BC4
:1006300070474FF0000200B51346944696462039A5
:1006400022BFA0E80C50A0E80C50B1F12001BFF48B
:10065000F7AF090728BFA0E80C5048BF0CC05DF8F1
:1006600004EB890028BF40F8042B08BF704748BF3F
:1006700020F8022B11F0804F18BF00F8012B7047B3
:100680007047704770472DE9F0470D4699469246EE
:10069000044600F124080168880604D5E06921F0C9
:1006A0001001216000E00120A84201DD471B00E0AD
:1006B0000027A1697A1902EB0900081AA0612078C5
:1006C000C00602D42046AFF30080002608E0D4E93B
:1006D00001211AF806009047206A401C761C20620F
:1006E0004E45F4DB2078C0060AD52046AFF30080E3
:1006F00006E0D4E9012130209047206A401C2062A6
:10070000381EA7F10107F4DC07E0D4E9012118F84D
:1007100005009047206A401C2062281EA5F10105B3
:10072000F3DC2046AFF300802078000602D50220DB
:10073000BDE8F0870120FBE710B5436913B1AFF3C3
:10074000008001E0FFF7CAFE012010BD127800F121
:1007500024010A7000224A700122EDE711684FF06F
:10076000FF32E9E7074B70B50D467B4400F043F8D4
:100770000446284600F052F810B14FF0FF3070BD2B
:10078000204670BD0B35000010B5203AC0F00B803C
:10079000B1E81850203AA0E81850B1E81850A0E885
:1007A0001850BFF4F5AF5FEA027C24BFB1E81850DF
:1007B000A0E8185044BF18C918C0BDE810405FEA4F
:1007C000827C24BF51F8043B40F8043B08BF7047CB
:1007D000D20728BF31F8023B48BF11F8012B28BFD0
:1007E00020F8023B48BF00F8012B704701694A1C02
:1007F00002610878704700B58FB0CDE90131002162
:10080000059105497944CDE9031011466846FFF783
:1008100031FE0FB000BD0000E5FFFFFF007B00F0E0
:100820008000704710B542485421FFF702FF41484D
:100830005421FFF7FEFE40485421FFF7FAFE3F49DE
:100840003B483C4A3F4B08603D490A603A491960C1
:10085000531C0365481C1065012008653B48344A59
:1008600039A1784400F01CF920B9384878440A3896
:1008700000F0B8F937482F4A35A1784400F010F954
:1008800020B9344878440A3800F0ACF932482A4A92
:100890002FA1784400F004F920B92F4878440A3891
:1008A00000F0A0F940232248DC000021224600F09D
:1008B000D4F820B125487844543800F093F91D4805
:1008C00022464023002100F0C8F820B12148784496
:1008D000543800F087F9184822461023002100F010
:1008E000BCF8002806D01C487844BDE810405638B3
:1008F00000F078B910BD104870B5006D20F001040B
:100900000B4800F043F90B4800F040F90A4800F0AA
:100910003DF909E0206D20F00105204600F036F990
:10092000204600F073F82C46002CF3D170BD000077
:100930002CBE002080BE0020D4BE0020C8000020B5
:10094000CC000020D000002072000000C85400003D
:1009500077000000B4540000A05400000EB5CDE9AB
:10096000000100F0DBFA029069460120ABBE0EBD2B
:1009700008B5694600900220ABBE08BD1FB58DE8E2
:10098000070069460520ABBE04B010BD1FB58DE859
:100990000F0069460620ABBEF6E708B56946009031
:1009A0000920ABBE08BD1CB5CDE9000169460A208F
:1009B000ABBE1CBD704708B5694600900C20ABBEAD
:1009C00008BD754600F016F9AE4605006946534667
:1009D00020F00700854618B020B5FFF7B5FCBDE84C
:1009E00020404FF000064FF000074FF000084FF096
:1009F000000B21F00701AC46ACE8C009ACE8C00927
:100A0000ACE8C009ACE8C0098D46704770B5044633
:100A1000051F00F0F5F80068002C14BF446870BD95
:100A2000002C18BFAC423CBF20466468F8D3016874
:100A30000A18AA4218BF456003D12A680546114426
:100A4000016028684119A1421CBF6C6070BD6168DB
:100A5000696021680844286070BD70B5C468A50746
:100A600013D0650211D4B2F5807F09D0B2F5007FB2
:100A700006D0B2F5806F08D1012300F1240106E011
:100A80005D1E6FF07F46B54201D3012070BD01614C
:100A9000C361416024F470611143C160002070BDE6
:100AA0002DE9F0410C4607461646104600F06EF858
:100AB0002078611C61280AD0722802D077283CD1A6
:100AC00002E00125002405E00225042402E00824B8
:100AD00048F2020511F8010B2B2806D0622809D034
:100AE00011F8010C74280AD00BE045F0030544F01E
:100AF0000204EFE745F0040544F00104EAE744F09E
:100B0000100438462146FFF729FF411C15D000216B
:100B1000316171604FF40071F560F161706120071F
:100B200004D530460222002100F0E4F8306D40F098
:100B3000010030653046BDE8F0810020FBE72DE97B
:100B4000F0410D460646104C206DC10704D0410807
:100B500004D020F00104F7E722460EE0542000F014
:100B60009AF807000ED0206D47F001010843542188
:100B700020653846FFF75DFD3A4629463046BDE818
:100B8000F0418DE70020D6E72CBE00202DE9F0478C
:100B900004464FF000094FF0FF37C568D4E90486DA
:100BA000A80707D0204600F055F93046FFF7E0FED1
:100BB000002802DA3846BDE8F087280502D540460D
:100BC000FFF724FF4C212046FFF733FD206D20F076
:100BD000010020654846EEE70446AFF3008020465A
:100BE000FFF73DFB10B500F07FF9BDE8104000F0C5
:100BF00075B900000048704728BF0020704700000A
:100C00000048704730BF00207047704770477047FA
:100C100038B504460A4600206946AFF30080002834
:100C200008BF38BD02460099204600F0A4F9012013
:100C300038BD012000F0F3B9F8B5AFF300800546E8
:100C400000200C46102000BF0646A819A0420DD96E
:100C5000324669460020AFF30080070008BF00F06D
:100C6000DEF90098A04218BF0546C419FFF7C8FF77
:100C700005600746F01D20F007004619284600F0E1
:100C800073F9B44208BFF8BDA21B31463868BDE80D
:100C9000F84000F070B970B50646FFF7B1FF05687F
:100CA00006F10B0020F00704B4429CBF002070BD89
:100CB0002B466A68BAB11068A04210D304F108014B
:100CC00088423CBF5068586007D351681019416092
:100CD0001168091B016058601460101D70BD134637
:100CE0005268002AE7D121462846FFF791FF0028E5
:100CF000DED170BD2DE9F041044616460D46476928
:100D0000007B80072ED03846FFF747FE50BB3EB32E
:100D1000012E02D0022E25D104E0204600F045F934
:100D200005441DE03846FFF746FEE168002841F023
:100D30001001E16005DA204600F058F80120BDE816
:100D4000F081C9030BD56268E16A914200D811466F
:100D5000A26911442269891A814200DD08460544CE
:100D6000002D01DA0220EAE7E16A6068E268814268
:100D700006D29103E06203D522F4003141F0100263
:100D8000A6690027AE4213DCE16A814201D90B4615
:100D900000E0034603EB060C2369ACEB030CAC4507
:100DA00006DD814201D98C4600E084469C4505D190
:100DB000A760276042F02000A5620DE0AD1BE66948
:100DC000AE1B8142A66000D90846C01A281A2060CE
:100DD0005819606022F0200003490840E0600020BC
:100DE00084F84870ABE70000BFCFD7FFC16821F49B
:100DF000001141F08001C1600021816001607047F5
:100E00002DE9F047814614460E464FF0FF38324830
:100E1000D5685769054209D03846A169FFF7C3FD77
:100E2000002811DB2C48C0430540E5602B463246C4
:100E300049463846FFF7A2FDA16920F00042B21AE8
:100E400011440028A16103D02046FFF7CFFF4046A0
:100E5000BDE8F08770B504460569C06A61688842DC
:100E600000D80846E16821F42011E160C90312D5D9
:100E7000A84208D02246411B2846FFF7C1FF10B107
:100E80004FF0FF3070BD0020E562C4E90150E0681A
:100E900020F48030E060002070BD10B50446C068CA
:100EA00020F02000E060A16AA06988420DD02046B1
:100EB000FFF7D0FFE06820F4405040F01000E06001
:100EC000A06AA0612069E062606044F24001E068CD
:100ED0008843E06010BD000010000200002801D02F
:100EE00000F03CB87047000010B5014602A000F0C9
:100EF0007DF8012010BD000053494752545245442B
:100F00003A2052656469726563743A2063616E27A2
:100F100074206F70656E3A200000000010B5431C0D
:100F200002E010F8011B71B18107FAD14FF00132D4
:100F300002C88C1A8C4314EAC211F9D0C01A0A06EE
:100F400003D0C01E10BDC01A10BD0A0401D0801EFF
:100F500010BD0902FCD0401E10BD00000149182040
:100F6000ABBEFEE72600020000210160C0E90110CF
:100F7000704710207047034640688C46002818BF11
:100F800088423CBF03464068F8D31868184488423A
:100F900007D00CF1030020F00700001D411A521A7F
:100FA0000146081D0A60FFF731BD10B50146C26851
:100FB000900703D0900607D5886A0AE000F03EF853
:100FC00001210160881E10BD8B69486818440B69B7
:100FD000C01A91F848301BB191F84910401A10BD61
:100FE0001103FCD50028FADD401E10BD70B5054682
:100FF0000C460A2000E06D1C00F018F835B1287886
:101000000028F8D102E0641C00F010F814B1207838
:101010000028F8D1BDE870400A2000F007B810B5EC
:1010200000F010F8BDE81040FFF758BF08B569465A
:101030008DF800000320ABBE08BD000000487047DB
:1010400028BF002010B5012805D0002103A0FFF71C
:10105000CDFF012010BD09A1F8E700005349475218
:10106000544D454D3A204F7574206F662068656178
:1010700070206D656D6F7279000000003A20486540
:101080006170206D656D6F727920636F727275701B
:101090007465640010B502F0C3FD02F06FF8BDE89E
:1010A000104001A0FFF7DAB90D0A416C6C207065A1
:1010B000726970686572616C20696E69742E0D0AC0
:1010C0000000000070B5B0F80520A2F50072013AEA
:1010D00029D0174D012A03D0062A16D00A2070BD48
:1010E000C41D102913D1201D00F0E4FC10EE100ADD
:1010F00045F81F0F04F1080002F06AFCA88004F113
:101100000A0002F065FCE8800BE0072901D000200E
:1011100070BD50F8071F45F82B1F8188A980807982
:10112000A871012070BDBDE87040C01D00F01AB864
:10113000F8BD002070B50446007815460E46A52877
:1011400001D0002070BD0521204602F0DBFC002804
:10115000F8D016B1B4F8010030800DB1E0782870F5
:10116000012070BD70B504461B2901D0002070BD60
:10117000144D20782870A01D02F02AFCE88004F1AC
:10118000080002F025FC288104F10A0002F020FC8E
:10119000688104F1180002F01BFC2883A07E8108FE
:1011A000A87E61F38200A8764107074803D5042191
:1011B0008161082103E04FF4802181614900816150
:1011C000012070BDF8BD0020001C0240F0B589B0C0
:1011D000074600208DF8140005AB06AA384600F03B
:1011E0003FFA002406AE01AD19E000BF305D05EB0B
:1011F000440138440022FFF79DFF70B135F8140018
:10120000093081B2305D384400F00CFA28B1305D0D
:1012100035F814103844FFF755FF641CE4B29DF80C
:1012200014008442E2D309B00120F0BDFEE70000C3
:1012300010B503F0E5F802490020486310BD000036
:101240000018004000B589B002A907A8CDE9000147
:1012500006AB05AA04A9002000F01EF80498012896
:101260000CD002280ED0032810D0042804D109483D
:1012700002A900BF00F058F809B000BD054802A956
:101280001838F7E7034802A91038F3E7014802A924
:101290000838EFE7F0BD0020F0B5214CDDE9055638
:1012A00004EB0014D4F8B07507F004071770D4F8F5
:1012B000B025520D0A60D4F8B01501F00201197082
:1012C000D4F8B41501F00F012970D4F8B8153170B5
:1012D000D4F8B815090A7170D4F8B815090CB170B2
:1012E000D4F8B815090EF170D4F8BC153171D4F8E2
:1012F000BC15090A7171D4F8BC15090CB171D4F888
:10130000BC15090EF17138B1012804D105480168F6
:1013100041F020010160F0BD0248001FF7E7000026
:1013200000600040106400400A8852BA02804A8877
:1013300052BA42808A8852BA828089798171704714
:101340001248016841F00101016010491C310A682E
:1013500022F001020A600D4A0C32136843F00103C7
:101360001360021D13681360084A14321368136077
:10137000064B002240331A601B1D1A600B6843F0B5
:1013800001030B60016802607047000000660040C6
:10139000434810B5016841F0080101604148016807
:1013A00041F00A010160001D016821F003010160A4
:1013B000001D016841F00F0101603B4901200860F8
:1013C00038480C30016841F0050101603548203093
:1013D000016841F009010160016841F0900101607C
:1013E0002F4800221030016841F0007101602F4841
:1013F00014460260016841F001010160031D04E030
:10140000521C642A01DD022010BD1968C907F7D0FB
:10141000016801600168016001680160016841F0D4
:101420001001016001680160016801601F491C3101
:101430000C600C680C600C680C600C6844F4801440
:101440000C600C6844F4A0240C600C6844F00404A4
:101450000C60016821F0010101604FF6F07004E0BA
:10146000521C824201DD032010BD1968C907F7D163
:10147000FFF766FF0D481430016841F0020101607A
:101480004FF0E020D0F8001141F48011C0F80011B5
:101490000748017841F010010170002010BD0000E4
:1014A00030380240000C0240203801400064004007
:1014B00014E400E01248016841F0010101601049A4
:1014C0001C310A6822F480520A600D4A0C321368FB
:1014D00043F480531360021D13681360084A1432EA
:1014E00013681360064B002240331A601B1D1A60FC
:1014F0000B6843F001030B60016802607047000055
:10150000006A0040424810B5016841F002010160E4
:101510004048016841F020610160001D016889B206
:101520000160001D016841F0706101603A490120CD
:10153000086038480C30016841F0A061016035480E
:101540002430016841F410210160016841F4100168
:1015500001602F4800221030016841F08061016075
:101560002E4814460260016841F001010160031D2C
:1015700004E0521C642A01DD022010BD1968C9076D
:10158000F7D00168016001680160016801600168CD
:1015900041F01001016001680160016801601F49AC
:1015A0001C310C600C680C600C680C600C6844F416
:1015B00080140C600C6844F4A0240C600C6844F0A7
:1015C00004040C60016821F0010101604FF6F07025
:1015D00004E0521C824201DD032010BD1968C907D6
:1015E000F7D1FFF767FF0D481430016841F00201A1
:1015F00001604FF0E020D0F8081141F00101C0F87F
:1016000008110748017841F010010170002010BD59
:101610003038024000040240203801400068004099
:1016200040E400E010B502F04FFAC0B210BD7047C0
:1016300005480168C1F34051002904D04FF400115E
:10164000816001F011BF70470064024070470000E4
:10165000024901EB001001F05CBC0000B801002061
:1016600030B500241C7009E0055DA52D04D11D785E
:1016700054551D786D1C1D70641CA4B28C42F3D3AC
:1016800030BD000010B558B1084C491E0BD310F8FE
:10169000013B5340DBB234F8133083EA1222F4E703
:1016A0004FF6FF7010BD104610BD00002E5B000805
:1016B00010B5054C04E000BF10F8013B5340E25C5C
:1016C000491EF9D2104610BD2E5A00080048704736
:1016D00038010020064905488978405810F4002F49
:1016E00001D00020704701207047000000640240D4
:1016F0001E5A000818B1012803D000207047024884
:101700007047014812307047140100200248816878
:101710000278114481607047000000200B4810B52A
:10172000016841F400710160016841F48061016069
:10173000016841F480710160032000F087F8002007
:1017400000F006F800F03EF8002010BD003C02401A
:1017500010B5014688B00022192000F057F8192072
:1017600000F048F813480024016841F001010160CD
:10177000006805A900F001000690684600F078F8BE
:1017800000F096F80C494000B0FBF1F10C480B4A10
:10179000491E026040F2E732C0E90324C0E90114A7
:1017A00000F098F810B1012008B010BD044800F016
:1017B000ADF8F9E74438024040420F000000014014
:1017C000D40000200A4808B5016841F48041016056
:1017D000006800F4804000900548001F016841F057
:1017E00080510160006800F08050009008BD00004A
:1017F0004438024000F01F0201219140400980005E
:1018000000F1E020C0F8001170470000F0B40E4B6A
:101810001B680C46C3F30223C3F10705042D00D94E
:101820000425191D072901D2002300E0DB1E012633
:1018300006FA05F1491E214099409E40761E164049
:101840003143F0BC01F00EBC0CED00E0064900F0A5
:10185000070208684FF6FF03184040EA0220034AD7
:1018600010430860704700000CED00E00000FA052E
:101870000F2202600C4A136803F0030343601368ED
:1018800003F0F0038360136803F4E053C36012684D
:101890004FF4E05303EAD20202610448006800F00A
:1018A0000F0008607047000008380240003C02400A
:1018B0000448054900680968044AC1F34231515C93
:1018C000C84070470C00002008380240165A000833
:1018D0007047704710B5040003D094F83D0010B174
:1018E00007E0012010BD002084F83C00204600F0F5
:1018F0000CF8022084F83D00211D206802F004F855
:10190000012084F83D00002010BD70470168CA68BE
:1019100042F00102CA600068816801F007010629EF
:1019200003D0016841F00101016000207047704759
:1019300070B50446006801694FF00005C943890786
:1019400015D4C168C943890711D4E91E016101207A
:101950002077206880698007204602D0FFF7E7FFE4
:1019600004E000F098F8204600F096F8257720680B
:101970000169C943490717D4C168C943490713D44A
:101980006FF004010161022020772068806910F463
:10199000407F204602D0FFF7CAFF04E000F07BF84A
:1019A000204600F079F8257720680169C9430907C6
:1019B00016D4C168C943090712D46FF00801016148
:1019C000042020772068C0698007204602D0FFF7F6
:1019D000AEFF04E000F05FF8204600F05DF82577E8
:1019E00020680169C943C90617D4C168C943C9063B
:1019F00013D46FF010010161082020772068C069BE
:101A000010F4407F204602D0FFF791FF04E000F081
:101A100042F8204600F040F8257720680169C94364
:101A2000C90708D1C168C943C90704D1891E01612A
:101A3000204600F033F820680169C943090609D43B
:101A4000C168C943090605D46FF0800101612046D1
:101A5000FFF73EFF20680169C943490609D4C16800
:101A6000C943490605D46FF040010161204600F0EA
:101A70001FF820680169C94389060BD4C168C943AE
:101A8000890607D46FF0200101612046BDE870404F
:101A9000FFF71FBF70BD7047704700000068034923
:101AA000884201D1FFF732BE7047000000000140BC
:101AB0007047FEE708B500216A46435C5354491C51
:101AC0000429FAD39DED000A08BD904201DD1046BD
:101AD00070478842FCDA08467047000008B5FFF7F7
:101AE000F5FD104CA060C82002F0ECFE0E48C16865
:101AF00041F01001C1604FF0FF3500212A46094B2B
:101B00000846009503F05AFC08482268A168FEF7D1
:101B10004BFD0520FFF79CFD208881B20348FFF7AD
:101B200055FBEAE72C000020001401403802002099
:101B3000044908B50A6802430A6009680140009137
:101B400008BD000030380240044908B50A68024365
:101B50000A6009680140009108BD00003038024069
:101B6000044908B50A6802430A6009680140009107
:101B700008BD000030380240044908B50A68024335
:101B80000A6009680140009108BD00004038024029
:101B9000044908B50A6802430A60096801400091D7
:101BA00008BD000044380240034A1430515C0A5812
:101BB00022F004020A507047FE590008034A14300C
:101BC000515C0A5822F004020A5070471E5A00085D
:101BD000034A515C425822F0010242507047000013
:101BE0001E5A0008034A515C425842F0010242501A
:101BF000704700001E5A0008034B595C435823F0FD
:101C00006063134343507047FE590008044B001DA6
:101C1000595C0B586FF30F0313430B5070470000D0
:101C20001E5A0008034B595C435823F0C00313436A
:101C300043507047FE590008034B595C435823F446
:101C40008063134343507047FE590008034B595CAF
:101C5000435823F4C043134343507047FE590008D0
:101C6000034B595C435823F490731343435070471C
:101C7000FE590008034B595C435823F40073134387
:101C800043507047FE590008034B595C435823F4F6
:101C9000C053134343507047FE590008034B595C2F
:101CA000435823F44033134343507047FE59000810
:101CB000F0B50A680F2692FAA2F2B2FA82F3032470
:101CC0008AE001279F4015EA07027DD04D68012D6B
:101CD00001D0022D1BD18D68876892FAA2FCBCFA54
:101CE0008CFC4FEA4C0C04FA0CFC27EA0C0792FA25
:101CF000A2FCBCFA8CFC4FEA4C0C05FA0CF52F4305
:101D00008760CD684768554397432F4347600F6905
:101D1000D0F80CC092FAA2F5B5FA85F54FEA450E57
:101D200004FA0EF52CEA050C92FAA2F5B5FA85F53F
:101D30006D00AF404CEA070CC0F80CC04D68022D96
:101D400033D192FAA2F5B5FA85F5082D15D2D1F85E
:101D500014C0056A92FAA2F7B7FA87F7BF0006FA2D
:101D600007F7BD4392FAA2F7B7FA87F7BF000CFA5C
:101D700007FC45EA0C05056217E0D1F814E0476A54
:101D8000150A95FAA5FCBCFA8CFC4FEA8C0C06FAF5
:101D90000CFC95FAA5F5B5FA85F5AD0027EA0C0718
:101DA0000EFA05FE47EA0E0747624D68076892FA89
:101DB000A2FCBCFA8CFC4FEA4C0C04FA0CFE27EA9D
:101DC0000E0792FAA2F200E005E0B2FA82F25200A7
:101DD00095402F4307605B1C0A681546DA407FF484
:101DE00070AF0020F0BD30B5036A91FAA1F4B4FAE7
:101DF00084F4A5000F24AC4091FAA1F1B1FA81F16D
:101E00008900A3438A401343036230BD30B5436A5F
:101E1000090A91FAA1F4B4FA84F4A5000F24AC40A5
:101E200091FAA1F1B1FA81F18900A3438A401343E9
:101E3000436230BD10B5044601F0ACFA206001F0F9
:101E40007FFA606001F08AFAA060606801F094FA9D
:101E5000E06010BD01490860704700000C000020E0
:101E60000A7B8B681A434B6822F480621A430B6822
:101E700022F400621A43CB8922F480521A430B6980
:101E800022F400521A434B6922F480421A4322F48E
:101E900000411943416400207047000010B501293A
:101EA0001CD004291CD010291CD040291CD0B1F50D
:101EB000807F1BD0B1F5806F1AD006210D4B1830F2
:101EC0005B5C184403680B4C0E34615C03248C404B
:101ED000120CA3438A401343036010BD0021EDE7B9
:101EE0000121EBE70221E9E70321E7E70421E5E728
:101EF0000521E3E7E259000810B501291CD00429A7
:101F00001CD010291CD040291CD0B1F5807F1BD0DB
:101F1000B1F5806F1AD006210D4B18305B5C184468
:101F200003680B4C0E34615CF0248C40120CA3430C
:101F30008A401343036010BD0021EDE70121EBE768
:101F40000221E9E70321E7E70421E5E70521E3E7CB
:101F5000E259000810B5012916D0042916D010291D
:101F600016D0402916D0B1F5807F15D0B1F5806F1D
:101F700014D00623016A0A4CE35C0A249C40A14366
:101F80009A401143016210BD0023F3E70123F1E7FA
:101F90000223EFE70323EDE70423EBE70523E9E75B
:101FA000F759000810B501291CD004291CD01029AC
:101FB0001CD040291CD0B1F5807F1BD0B1F5806FBB
:101FC0001AD006210D4B18305B5C184403680B4C8B
:101FD0000E34615C0C248C40120CA3438A401343E2
:101FE000036010BD0021EDE70121EBE70221E9E7E5
:101FF0000321E7E70421E5E70521E3E7E2590008CB
:10200000F0B50268254B264D264E274F274C4FF042
:10201000804C984209D0604507D0A84205D0B04214
:1020200003D0B84201D0A04205D1D1F804E022F09B
:10203000700242EA0E0298421BD0604519D0A842B5
:1020400017D0B04215D0B84213D0A04211D0184DCD
:10205000A8420ED0174DA8420BD0174DA84208D069
:10206000164DA84205D0164DA84202D0154DA842E3
:1020700003D1CD6822F440722A4302608A68C262AA
:102080000A888262984201D0A04201D1097C016392
:10209000416941F0010141610020F0BD00000140B3
:1020A0000004004000080040000C00400004014013
:1020B0000040014000440140004801400018004039
:1020C000001C004000200040012919D0042919D02B
:1020D000102919D0402919D0B1F5807F18D0B1F559
:1020E000806F17D006210C4A1830525C10440268E9
:1020F000094BDB1D5B5C042199408A4302607047F9
:102100000021F0E70121EEE70221ECE70321EAE7F5
:102110000421E8E70521E6E7E2590008012919D082
:10212000042919D0102919D0402919D0B1F5807F80
:1021300018D0B1F5806F17D006210C4A1830525CC8
:1021400010440268094BDB1D5B5C082199400A437F
:10215000026070470021F0E70121EEE70221ECE781
:102160000321EAE70421E8E70521E6E7E259000850
:10217000F0B5012600236E4C6E4D012908D01029C0
:102180003BD0B1F5807F73D0B1F5805F6ED1A6E012
:10219000016A21F001010162016A46688769D2F88B
:1021A00000C027F0730747EA0C07D2F810C021F0EF
:1021B000020141EA0C01D2F804C021F0010141EA18
:1021C0000C01A04201D0A84212D1546921F00801AB
:1021D00041EA8401946821F0040141EA840195698F
:1021E00026F480742C43D56924F4007444EA45062F
:1021F00046608761D26842636FE0016A21F0100196
:102200000162066A41688769D2F800C027F4E64790
:1022100047EA0C27D2F810C026F0200646EA0C1632
:10222000D2F804C026F0100646EA0C16A04201D0EF
:10223000A84213D1556926F0800444EA85149568B4
:1022400024F0400444EA8516946921F4806141EA4F
:102250008401D46921F4006141EAC40141608761CD
:10226000D168816361E003E000E01E463046F0BDC6
:10227000016A21F480710162016A4668C769D2F877
:1022800000C027F0730747EA0C07D2F810C021F40A
:10229000007141EA0C21D2F804C021F4807141EAB6
:1022A0000C21A04201D0A84213D1546921F400614D
:1022B00041EA8421946821F4806141EA842195698E
:1022C00026F4805444EA0514D56924F4005444EA01
:1022D00045164660C761D268C2630162C5E7016AFC
:1022E00021F480510162066A4168C769D2F800C0D2
:1022F00027F4E64747EA0C27D2F810C026F4005628
:1023000046EA0C36D2F804C026F4805646EA0C366B
:10231000A04201D0A84204D1946921F4804141EA4D
:1023200084114160C761D168016406629DE70000C5
:1023300000000140000401407FB50446C0680D461E
:102340000126C0F34030E8BBE9686868AA69084321
:10235000296911430843E16849F20C62914308433B
:10236000E060A868216921F4405101432161686956
:10237000616921F44071014361616846FFF75AFDCC
:102380001348844208D01348844213D01248844230
:1023900010D01248844201D103990CE010488442C5
:1023A00008D01048844205D00F48844202D00F481C
:1023B00084420AD1029929B12B681BB1002620461C
:1023C000AA6900E001E000F013F804B0304670BDE7
:1023D000001001400044004000480040001401404B
:1023E000004C00400050004000780040007C00405D
:1023F0002DE9F04106461920A1FB00011F460023EC
:1024000064243225B2F5004F27D0BB0FBA00FDF788
:10241000ADFF0146B0FBF4F06FF01802504301EB42
:10242000800005EB0010B0FBF4F000F0F002B1FB0F
:10243000F4F002EB0012B1FBF4F06FF01803584314
:1024400001EB800005EB0010B0FBF4F000F00F0092
:10245000104480B2B060BDE8F081FA195B41FDF72D
:1024600085FF0146B0FBF4F00201B1FBF4F06FF020
:102470001803584301EB800005EBC000B0FBF4F0FB
:1024800000F0F80002EB4002B1FBF4F0584301EB1E
:10249000800005EBC000B0FBF4F000F00700D7E7C8
:1024A00008B54FF0E0210A690092421C00D0401CA0
:1024B0000A69D20300D5401E0028F9D108BD0000EA
:1024C0002DE9F0410E4F00244FF4807626FA04F5F2
:1024D000BD611E20FFF7E4FF641CE4B2082CF5D3B5
:1024E00008494FF4006088611E20FFF7D9FF0649B4
:1024F0004FF480408861BDE8F0411E20FFF7D0BF57
:1025000000180240001002400014024005494FF438
:1025100080408861C110044881614FF4FF7181617E
:1025200070470000001402400010024038B5144803
:10253000016841F4800101600068124C00F48000E1
:10254000009020680022C0F30220114600F006FD32
:102550000146392000F056FD392000F0DEFC2068ED
:102560000022C0F30220114600F0F8FC01463A2098
:1025700000F048FDBDE838403A2000F0CEBC000035
:10258000303802400CED00E02DE9F04F87B0182103
:102590006846FEF74EF84020FFF7CAFA0120FFF721
:1025A000C7FA0220FFF7C4FA0420FFF7C1FA4FF47C
:1025B0008070FFF7BDFA8020FFF7BAFA2020FFF7FE
:1025C000B7FA0820FFF7B4FA1020FFF7B1FA204855
:1025D0004FF4701181611F4F4FF0FF714FF4FF7A7C
:1025E000B961DFF874804FF088424FF4884BC8F827
:1025F0001820DFF868904FF00062C9F818203C21DD
:102600000124032500268DE8720069460494FFF733
:102610004FFB01A9CDF800A081E87000694638465B
:102620000494FFF745FB01A9CDF800B081E87000E4
:10263000694640460494FFF73BFBE0028DE87100D9
:10264000694648460494FFF733FB07B0BDE8F08FB6
:10265000001C02400018024000140240001002401A
:1026600030B593B014210EA8FDF7E3FF2021684692
:10267000FDF7DFFF182108A8FDF7DBFF4020FFF77B
:102680007BFA5920ADF83800002440F2E730CDE95C
:102690000F40184D0EA928461194FFF7B1FC286889
:1026A00020F08000286001212846FFF737FD6020D8
:1026B000CDE90004029403946A460121284604945B
:1026C000FFF756FD01212846FFF7FEFC8020FFF7AB
:1026D0003BFA4020089009AA0220032182E8130057
:1026E0000C9009200D9008A90348FFF7E1FA13B0F8
:1026F00030BD000000180040001C024070B58CB0D6
:10270000142106A8FDF795FF18216846FDF791FFF3
:102710000120FFF731FA0120FFF716FA032002210A
:10272000CDE90001029001200025CDE903050590C7
:1027300069462C48FFF7BCFA00F05CFC0022114609
:1027400000F025FC01461C2000F06CFC1C2000F071
:10275000EFFB4FF08044A06820F0070040F002003B
:10276000A060A613324601212046FFF797FB002206
:1027700001212046FFF716FC002201212046FFF729
:10278000BBFB002201212046FFF7E4FB324610216B
:102790002046FFF783FB002210212046FFF702FCB2
:1027A000002210212046FFF7A7FB0022102120461F
:1027B000FFF7D0FBADF81850701ECDE9075006A901
:1027C00020460995FFF71CFC206820F0800020605F
:1027D000606820F070006060A06820F08000A06059
:1027E0000CB070BD0000024070B594B014210EA86A
:1027F000FDF71FFF20216846FDF71BFF182108A8E1
:10280000FDF717FF0220FFF7B7F91120ADF83800E8
:10281000002440F2F310CDE90F40244D0EA92846C4
:102820001194FFF7EDFB286840F080002860AE159A
:1028300031462846FFF772FC6020CDE9000402947F
:1028400003946A46314628460494FFF791FC3146CA
:102850002846FFF739FCAE1431462846FFF75EFCE8
:1028600001946A46314628460294FFF781FC3146BE
:102870002846FFF729FC686820F070006860A868A7
:1028800020F08000A8600220FFF75EF90320CDE968
:102890000A040221CDE908010120CDE90C0108A9B3
:1028A0000348FFF705FA14B070BD000000040040B3
:1028B0000004024070B58CB0142106A8FDF7B9FEE3
:1028C00018216846FDF7B5FE0420FFF755F90820EA
:1028D000FFF73AF94FF44050009002200321CDE970
:1028E0000101059001210025CDE9031569462C4819
:1028F000FFF7DEF900F07EFB0022114600F047FBF7
:1029000001461E2000F08EFB1E2000F011FB254C1E
:10291000A06820F0070040F00200A060A613324635
:1029200001212046FFF7BAFA002201212046FFF7D5
:1029300039FB002201212046FFF7DEFA00220121A7
:102940002046FFF707FB324610212046FFF7A6FA84
:10295000002210212046FFF725FB002210212046EF
:10296000FFF7CAFA002210212046FFF7F3FAADF86C
:102970001850701ECDE9075006A920460995FFF7AB
:102980003FFB206820F080002060606820F070002D
:102990006060A06820F08000A0600CB070BD0000F6
:1029A000000C02400008004070B58CB0142106A84D
:1029B000FDF73FFE18216846FDF73BFE0820FFF7B4
:1029C000DBF88020FFF7C0F84FF440600090022051
:1029D0000321CDE90101059001210025CDE9031571
:1029E00069462C48FFF764F900F004FB0022114609
:1029F00000F0CDFA0146322000F014FB322000F046
:102A000097FA254CA06820F0070040F00200A06073
:102A1000A613324601212046FFF740FA0022012189
:102A20002046FFF7BFFA002201212046FFF764FA93
:102A3000002201212046FFF78DFA32461021204660
:102A4000FFF72CFA002210212046FFF7ABFA0022F4
:102A500010212046FFF750FA002210212046FFF7F0
:102A600079FAADF81850701ECDE9075006A9204636
:102A70000995FFF7C5FA206820F0800020606068A3
:102A800020F070006060A06820F08000A0600CB0B2
:102A900070BD0000001C0240000C004010B586B064
:102AA00014216846FDF7C5FD2020FFF765F800F00A
:102AB000A1FA0022114600F06AFA0146372000F020
:102AC000B1FA372000F034FA5920ADF800000020A8
:102AD000019044F61F600A4C029069462046FFF7B9
:102AE0008FFA206820F080002060606820F070007D
:102AF0006060A06820F08000A06006B010BD0000FB
:102B000000140040F0B59BB0142114A8FDF791FD0E
:102B100020216846FDF78DFD182108A8FDF789FDE5
:102B200018210EA8FDF785FD4548016841F0020116
:102B300001600068002400F002001990B320ADF895
:102B4000500044F61F60CDE915403E4D17948DF8B6
:102B5000604014A92846FFF753FA286840F0800027
:102B6000286001212846FFF7D9FA6020CDE900044A
:102B7000029403940494059406946A46012128461D
:102B80000794FFF7F5FA01212846FFF79DFA102177
:102B90002846FFF7C3FA01946A461021284602949A
:102BA000FFF7E6FA10212846FFF78EFAAE153146F8
:102BB0002846FFF7B3FA01946A4631462846029444
:102BC000FFF7D6FA31462846FFF77EFAAF143946AA
:102BD0002846FFF7A3FA01946A463946284602942C
:102BE000FFF7C6FA39462846FFF76EFA686820F004
:102BF00070006860A86820F08000A86008946814DD
:102C0000CDE90C048DF82C4009940A94ADF82E40BF
:102C100008A92846FFF724F93046FEF795FFE4207F
:102C20000E9002200F9003200121CDE91210CDE972
:102C300010040EA90448FFF73BF81BB0F0BD0000DC
:102C400044380240000401400020024030B58DB0FD
:102C50001C216846FDF7EDFC182107A8FDF7E9FCEB
:102C60001020FEF795FF0220FEF77AFFC0200790A4
:102C70000220089003200024CDE9090401200B90D4
:102C800007200C9007A92E48FFF712F82D4D4FF0A2
:102C9000006202212846FEF7AFFF002202212846EB
:102CA000FEF7C0FF002202212846FEF7F7FFAA1513
:102CB00002212846FEF7D4FF002202212846FEF713
:102CC000D9FF2A1502212846FEF7B6FF002202216D
:102CD0002846FEF7D9FF002202212846FEF7B6FF5C
:102CE00002212846FEF760FF174800680022C0F363
:102CF0000220114600F064F90146252000F0A2F9F7
:102D0000252000F020F911480090A814CDE9010415
:102D10000C20CDE90340059406940D4C69462046ED
:102D2000FFF70AFB206920F490402061606920F0E1
:102D30002A006061E06840F40050E0600DB030BDF2
:102D400000040240006402400CED00E0A086010097
:102D50000010014010B58EB01C216846FDF769FCDB
:102D6000182107A8FDF765FC2348016841F480217C
:102D70000160006800F480200D900420FEF7F0FE52
:102D80004FF440600790022000240890CDE9090428
:102D900001200B9007200C9007A91848FEF788FF28
:102DA000174800680022C0F30220114600F008F91D
:102DB0000146272000F046F9272000F0C4F84FF420
:102DC000E130CDE900040C200294CDE903400594E4
:102DD00006940C4C69462046FFF7AEFA206920F4B1
:102DE00090402061606920F02A006061E06840F452
:102DF0000050E0600EB010BD4038024000080240B4
:102E00000CED00E00048004030B58DB01C21684654
:102E1000FDF70FFC182107A8FDF70BFC2020FEF79B
:102E2000B7FE4020FEF79CFE4FF48440079002203E
:102E3000089003200024CDE9090401200B9008200C
:102E40000C9007A92E48FEF733FF2E4D4FF020625D
:102E500001212846FEF7D0FE002201212846FEF778
:102E6000E1FE002201212846FEF718FF0022012181
:102E70002846FEF7F5FE002201212846FEF7FAFE5D
:102E80002A1501212846FEF7D7FE002201212846F7
:102E9000FEF7FAFE002201212846FEF7D7FE0121A7
:102EA0002846FEF781FE184800680022C0F3022081
:102EB000114600F085F80146472000F0C3F847208E
:102EC00000F041F84FF4E130CDE900040C20029409
:102ED000CDE90340059406940C4C69462046FFF763
:102EE0002BFA206920F490402061606920F02A00CC
:102EF0006061E06840F40050E0600DB030BD00005B
:102F000000180240006402400CED00E00014014093
:102F1000FEE7418801807047FEE700F01F020121B3
:102F200091404009800000F1E020C0F80011704796
:102F300000F01F02012191404009800000F1E020D3
:102F4000C0F80011704700F01F02012191404009B4
:102F5000800000F1E020C0F80011704730B500F0AB
:102F60000703C3F10704042C00D90424181D072803
:102F700001D2002300E0DB1E012505FA04F0401E0B
:102F8000084098409D406D1E1540284330BD30B527
:102F900000F00703C3F10704042C00D90424181D12
:102FA000072801D2002300E0DB1E012505FA04F00A
:102FB000401E084098409D406D1E1540284330BD7E
:102FC00030B500F00703C3F10704042C00D9042432
:102FD000181D072801D2002300E0DB1E012505FA99
:102FE00004F0401E084098409D406D1E1540284347
:102FF00030BD000002480068C0F3022070470000A6
:103000000CED00E00907090E002806DA00F00F00B9
:1030100000F1E02080F8141D704700F1E02080F8F6
:10302000001470470907090E002806DA00F00F00A7
:1030300000F1E02080F8141D704700F1E02080F8D6
:10304000001470470907090E002806DA00F00F0087
:1030500000F1E02080F8141D704700F1E02080F8B6
:10306000001470470907090E002806DA00F00F0067
:1030700000F1E02080F8141D704700F1E02080F896
:10308000001470471CB502460021044800910191CC
:103090000323406802F0C8F81CBD00002C0000208B
:1030A0002DE9F0410C460178427841EA0221C1F352
:1030B0000A01218042788378D20842EA4312C2F39F
:1030C0000A0262808378C5789B0943EA8503057903
:1030D00043EA8523C3F30A03A380057946796D0883
:1030E00045EAC615C5F30A05E5804679C6F301161B
:1030F000A6724679B609E6728679C77946EA072646
:10310000A681067A477A46EA0726E681867AC77A52
:1031100046EA07262682067BA674467BE674867BF3
:10312000C77B46EA0726A682067C407CA1F5806123
:103130002180A2F580626280A3F5806346EA0020C8
:10314000A380A5F58065E580A0F5806020812046FC
:1031500000F0EBFC4FF496656E42B4F90C002A4681
:103160003146FEF7B2FCA081B4F90E002A46314682
:10317000FEF7ABFCE081BDE8F081000004480421CB
:103180008161082181611021816120218161704765
:10319000001C024010B50EA0FDF760F90DA0FDF770
:1031A0005DF918A0FDF75AF922A0FDF757F92DA0F7
:1031B000FDF754F937A0FDF751F943A0FDF74EF99B
:1031C0004EA0FDF74BF9BDE8104001A0FDF746B950
:1031D0000D0A000020202020202020202A3D3D3DF7
:1031E0002A2020202A3D3D3D2A202020202A3D3D26
:1031F0003D2A202020202020202020202A3D3D3D47
:103200002A0D0A00202020202020202F2020202FDF
:103210002020202F2020202F202020202F20202081
:103220002F202020202020202020202F2020202F71
:103230000D0A00002020202020202F2020202A3DC1
:103240003D3D2A2020202F202020202F2020202F0D
:10325000202020202020202020202F2020202F0D63
:103260000A00000020202020202F202020202020C5
:1032700020202020202F202020202F2020202F2021
:103280002020202020202020202F2020202F0D0A49
:1032900000000000202020202F2020202A3D3D3D3E
:1032A0002A2020202F202020202F2020202A3D3DB2
:1032B0003D3D3D3D2A2020202F2020202A3D3D3D20
:1032C0003D3D3D2A0D0A00002020202F2020202FE8
:1032D0002020202F2020202F202020202F202020C1
:1032E000202020202020202F2020202F20202020C0
:1032F0002020202020202F0D0A00000020202A3D21
:103300003D3D2A2020202A3D3D3D2A202020202A04
:103310003D3D3D3D3D3D3D3D3D3D2A2020202A3D5A
:103320003D3D3D3D3D3D3D3D3D2A0D0A0000000037
:1033300002494FF48060886170470000001C024021
:1033400004490968044A01F0F0010909515CC840C8
:103350007047000008380240065A0008044909680E
:10336000044A01F4E05102EB91210978C84070470A
:1033700008380240165A000804490968044A01F452
:10338000604102EB51310978C8407047083802406B
:10339000165A00080748006810F00C01064807D0CC
:1033A000042904D0082903D1082000F009B80348F3
:1033B00070470000083802400024F400001BB700EA
:1033C00010B5104A04460020116811F480030E491C
:1033D00003D0B3F5800F00D10C49082C11D110682F
:1033E00000F03F00B1FBF0F01168C1F388114843D1
:1033F0001168012201F4403102EB11414900B0FB98
:10340000F1F010BD043802400024F400001BB700A6
:103410008A8A82828A7C8274CA7CC2748A89828106
:10342000CA89C2810A8A02820A8802804A88428046
:103430008A888280CA88C2800A8902818A7A8272D6
:10344000C97AC1727047002181828174C1748181FF
:10345000C1810182018041808180C180018103217D
:103460008172C1727047000008B50848694640681B
:1034700001F034FD0098002807D005494FF0805036
:103480000860BFF34F8FBFF36F8F08BD3800002077
:1034900004ED00E0B0F900204FF4A56102F52572BB
:1034A0008A421FD8B0F9022002F525728A4219D843
:1034B000B0F9042002F525728A4213D8B0F906202B
:1034C00002F525728A420DD8817A012903D002299A
:1034D00001D0032906D1C07A012805D0022803D0E3
:1034E000032801D0012070470020704703220021EB
:1034F000012001F04DFC2C4C60600020FEF7FAF832
:1035000004F1100528600120FEF7F4F868602748F0
:10351000FFF799FF25481E30FFF795FF04F10800DB
:1035200002210170012141708170C1700171C820B8
:1035300001F0C8F91F491E488A788258897842F0FC
:10354000010242504FF4FA763146606801F02EFDD8
:10355000012807D01548FFF776FF14481E30FFF703
:1035600072FFF1E7FEF7B6F8207055F820000F491A
:10357000FFF796FD0D48FFF78DFF50B10B490B4843
:103580001E31FFF745FF00F081FA64210AA0FCF725
:1035900065FF0020FEF75CF800F018F8034901F120
:1035A0001E00FFF735FFCFE738000020B8020020EB
:1035B00000640240265A00083C4552524F523E20B9
:1035C0006572726F723A25640D0A0000F0B52E4BD9
:1035D0000226A3F11E00DC7AC27A01212B48032CBB
:1035E00004D0012C0CD0022C0ED00FE0022A02D005
:1035F000012A02D00AE0467008E00325457005E084
:10360000022A03D1417001E0032AFBD09D7A1E4BB0
:103610001E3B032D9B7A02D0012D04D006E0012B26
:1036200004D1C67002E0032B00D1C170174F083FD0
:10363000032C14D1022A02D0012A08D00FE04278CC
:10364000521CD2B24270042A09D1417007E079704D
:103650008278521CD2B28270052A00D18170032D6B
:1036600007D1012B06D0022B03D10179012900D10A
:103670000671F0BDB970C278521CD2B2C270032A72
:10368000F7D1C170F0BD0000D6020020400000203C
:103690001CB501F001F812490F20CDE900014FF4EB
:1036A0008074002322460FA1124801F091FD1249B7
:1036B0000920CDE900010023224610A1124801F0A3
:1036C00087FDFEF7FDFE11A0FCF7C8FE17A0FCF772
:1036D000C5FE01F01DF8BDE81C40002001F028B92E
:1036E0005000002072656D6F7465725F7461736B5A
:1036F00000000000ED340008300000206A756467A7
:10370000655F7461736B0000DD1A00083C494E462A
:103710004F3E200D0A416C6C207461736B73206303
:10372000726561742E0D0A0D0A0000003C494E4678
:103730004F3E200D0A53797374656D2072756E2E9D
:103740000D0A0D0A0000000010B5502080F311880A
:10375000BFF34F8FBFF36F8F01F0AAFE18B104497A
:103760004FF080500860002080F3118810BD0000E9
:1037700004ED00E0304810B5016821F00F0141F080
:1037800005010160016801F00F010529FAD12B48FC
:10379000016841F440410160016841F480310160F9
:1037A0002748016841F4803101600168C1F340415C
:1037B0000029FAD02249234A091D0B68224C2340D4
:1037C0001A430A600A6822F440320A60016841F034
:1037D000807101600168C1F340610029FAD0184886
:1037E0000830016821F0F0010160016821F4E05126
:1037F00041F4A0510160016821F4604141F40041AD
:103800000160016821F0030141F0020101600168DB
:1038100001F00C010829FAD10C48FEF71BFB00202F
:10382000FDF796FF08B172B6FEE705488C300168D7
:1038300021F08071016010BD003C0240007000402A
:1038400000380240062D40000080BFFF0095BA0AF4
:103850000548016841F47001016003494FF00060C0
:10386000803908607047000088ED00E00148FEF7ED
:103870005FB80000D40000204FF08040016901696A
:1038800021F001010161704703480168016821F0DE
:103890000101016070470000100800400348016802
:1038A000016821F00101016070470000100C004028
:1038B00070B5134E306910F0010F20D000F08CFD70
:1038C000104C208000F092FD04F108054042288051
:1038D00000F07AFD404201B204F110000180B4F919
:1038E000003062681A446260B5F900306A681A44B0
:1038F0006A604268114441606FF00100306170BD40
:103900000014004010000020F0B50268254C264D40
:10391000264E274F274B4FF0804CA04209D06045E0
:1039200007D0A84205D0B04203D0B84201D0984297
:1039300004D122F0700E4A6842EA0E02A0421BD067
:10394000604519D0A84217D0B04215D0B84213D064
:10395000984211D0184DA8420ED0184DA8420BD055
:10396000174DA84208D0174DA84205D0164DA842C1
:1039700002D0164DA84203D122F44075CA682A43EA
:103980004D6922F080022A4302608A68C2620A6896
:103990008262A04201D0984201D1096901630121EC
:1039A0004161F0BD000001400004004000080040FB
:1039B000000C004000040140004001400044014070
:1039C0000048014000180040001C0040002000405A
:1039D0000088704700F04AB8704700F001B8000056
:1039E00038B51B480168C1F3001100292FD00168C8
:1039F00000914068009017488078EE281BD0164D43
:103A000001212846FEF7E4F81448291D4078405863
:103A1000134C80B2C0F18000207080220121284622
:103A2000FEF7F4F82078FFF72DFB2846BDE8384074
:103A30000221FEF7D7B8BFF34F8F0A4801680A4A40
:103A400001F4E06111430160BFF34F8FFEE738BD21
:103A50000014014038010020006402401E5A000892
:103A6000280000200CED00E00400FA05054808B528
:103A70000168C1F30011002903D00168009140687A
:103A8000009008BD00100140FEE7000070B50C4C2E
:103A9000E06840F40050E0600A4D02212846FEF73D
:103AA00097F8122202212846FEF7B0F80221284694
:103AB000FEF798F8E06840F40050E06070BD000048
:103AC000001001400064024030B50C46050014D0DF
:103AD000022C12D90A48A11E02882846FDF7D2FD01
:103AE0002919C2B211F8023C9A4206D111F8011C00
:103AF000B1EB102F01D1012030BD002030BD0000FE
:103B0000C400002030B50C4605000CD0022C0AD9A8
:103B1000FF22611EFDF7CCFD291911F8011C81421D
:103B200001D1012030BD002030BD70B5828A4FF434
:103B30001674D607B0F91810C4F100054FF0000351
:103B40004FEA82760BD0002E0DDB002901DA0A3114
:103B50000183B0F91810A14220DA491D15E0002EAA
:103B600001DAD60708D0002911DA01F10A0109B2F9
:103B70000183002911DC11E0002901DD0A390183EC
:103B8000B0F91810A94209DD491F018306E005DDDF
:103B90000A3909B20183002900DA0383B0F916104B
:103BA00016070BD5520718D4002901DA0A31C18251
:103BB000B0F91610A14220DA491D0CE054070CD5CB
:103BC00012070AD4002901DD0A39C182B0F91610A2
:103BD000A94212DD491FC1820FE0002906DA01F176
:103BE0000A0109B2C182002906DC06E005DD0A39B6
:103BF00009B2C182002900DAC382B0F90C1061B1A8
:103C0000428B114409B24FF425724183914202DC88
:103C10005242914200DA428370BD438370BD00007E
:103C200010B5FDF705FBFFF783FBFEF76FFC00F017
:103C300077FC00F0B9FCFDF7ABFBFDF763FC00F08F
:103C4000EBFB00F013FC00F031FC00F003FCFFF78D
:103C5000A1FABDE8104001A0FCF700BC0D0A484CD9
:103C60004C5F323032325F454E47494E4545525FD8
:103C70004C4C0D0A000000000449C2B24A600A68B8
:103C8000C2F38012002AFAD07047000000480040BA
:103C90001CB5FDF743FDFFF76DFDFEF775FCFEF764
:103CA00045FCFEF7D3FFFEF729FDFEF703FEFEF706
:103CB0007BFEFFF74FF8FEF797FDFEF723FFFEF7B9
:103CC000EDFEFFF7A1F8FEF7CBFCFDF7E3F906499F
:103CD0000A20CDE900010023802204A1064801F05A
:103CE00077FA00F039FFFEE7540000207374617228
:103CF000745F7461736B0000913600082DE9F04128
:103D00001E4C0F460546E6682068001D00F07EFC4C
:103D100038B9206890F82C1001208840216981432F
:103D20002161681C15D1A7B11549226848689060C7
:103D300023688268DA6022688368121D5A602268EC
:103D4000121D8260206841610868401C0860BDE85F
:103D5000F08120683544B5424560216805D2E06BAA
:103D6000BDE8F041091D00F072BCA06B091D00F018
:103D70006EFCA06A8542EAD2A562E8E758000020FE
:103D8000C40500202DE9F041054600F085FC354CC6
:103D9000A068401CA0602068334F10B1606930B348
:103DA0002BE02560A068012827D1002606EB8600BD
:103DB00007EB800000F03DFC761C202EF6D32B484C
:103DC00000F037FC2948143000F033FC2748283035
:103DD00000F02FFC25483C3000F02BFC23485030ED
:103DE00000F027FC2148A0631430E06305E0206860
:103DF000E96AC06A884200D82560606A0121401CD7
:103E00006062E86A226981401143216100EB800011
:103E100007EB80004068A8608168E9608268291D1E
:103E200051608160E86A00EB800007EB8001696106
:103E300057F82010491C47F8201000F069FC606911
:103E400000280CD02068E96AC06A884207D2084975
:103E50004FF080500860BFF34F8FBFF36F8FBDE806
:103E6000F081000058000020F402002074050020BA
:103E700004ED00E02DE9F041856B1746044600266D
:103E8000026C82B1C7B1E068FCF78EFBE168206C80
:103E9000091AE1602268914202D2A168081AE06022
:103EA000022F16D017E02068A8B9A06801F0ACFB7B
:103EB00006460020A0600EE06068FCF775FB216CF0
:103EC000606808446060A168884204D3206860602C
:103ED00001E005B16D1E6D1CA5633046BDE8F081A3
:103EE00010B50446006B00F045FC2046BDE81040CC
:103EF00000F040BC10484FF43841420706D0C01DC6
:103F00000D4920F00700411AC1F538410B4A002342
:103F10000144C2E900030839183A21F00701116091
:103F20004B600B600B1AC0E9001393604FF0004028
:103F30005360506170470000D8050020B000002099
:103F4000144E154CA6F52F774FF08058DFF84C90A3
:103F500012E000BF00F0A0FBF068C568281D00F06B
:103F600055FBA068401EA0606068401E606000F0C5
:103F7000CFFB2846FFF7B4FF60680028EAD1386815
:103F80000128F9D9C9F80080BFF34F8FBFF36F8FB5
:103F9000F2E70000B00500205800002004ED00E02A
:103FA0002DE9F05FDDE90B940F4683466FF00301C6
:103FB000206B01EB820108440A9E20F007089A4614
:103FC0005FEA487005D04FF458721EA122A0FCF79A
:103FD00045FA002567B100202218395C82F83410B8
:103FE000395C11B1401C1028F6D384F8435001E02D
:103FF00084F83450202E06D340F2973211A116A037
:10400000FCF72CFA1F26E662C4E91165201D00F0BA
:104010001BFB04F1180000F017FB2461C6F120001F
:104020006462A061E56484F85050524659464046A7
:1040300000F0B4F92060B9F1000F01D0C9F80040D8
:10404000BDE8F09F2E2E5C4672656552544F535C5E
:104050007461736B732E63004572726F723A2573CD
:104060002C25640D0A00000030B5114900E011460E
:104070000A688242FBD34B685C18844203D14068D3
:1040800018444860084643681C18944209D1084CFB
:10409000183C2468A24209D052681A4442600A6857
:1040A00012680260814200D0086030BD0460F9E708
:1040B000B000002010B5044600F0EEFAA06B28B165
:1040C0005FF0000400F024FB204610BD0124F9E756
:1040D000F1B500980026846C2CB940F6D53219A1B0
:1040E0001DA0FCF7BBF9A06BE16B884205D340F63D
:1040F000D63214A118A0FCF7B1F9A06BE16B88428D
:104100001ED294F94550002269462046FFF7B2FEC0
:104110000646681C02D07F2D09D00EE0606A78B197
:1041200004F1240001F032FB50B1012608E040F612
:10413000F63204A108A0FCF791F96D1C84F84550F3
:104140003046F8BD2E2E5C4672656552544F535C66
:1041500071756575652E63004572726F723A2573CD
:104160002C25640D0A0000000548816B096821B107
:10417000816BC9680968816270474FF0FF31FAE7C7
:104180005800002008484068401C04D0E92207A1DC
:1041900011A0FCF763F9502080F31188BFF34F8F13
:1041A000BFF36F8FFEE70000B80000202E2E5C46A4
:1041B00072656552544F535C706F727461626C65C6
:1041C0005C525644535C41524D5F434D34465C70E3
:1041D0006F72742E630000004572726F723A25731D
:1041E0002C25640D0A0000002DE9F041044600F082
:1041F00053FA94F9455004F124060FE0A06C18B16D
:104200002046FFF765FF04E0606A48B1304601F0E0
:10421000BDFA08B100F0FEFB6D1E6DB2002DEDDCA5
:104220004FF0FF3684F8456000F072FA00F034FA7F
:1042300094F9445004F1100709E0206948B1384668
:1042400001F0A4FA08B100F0E5FB6D1E6DB2002D7F
:10425000F3DC84F84460BDE8F04100F059BA000096
:104260002DE9F0410546002600F0BAFC364F3868CB
:1042700008B9FFF73FFE7869054258D1002D56D0A6
:1042800005F10804AC4252D960070ED004F00700D3
:10429000C0F108002044A04249D90446400704D098
:1042A0009C222AA133A0FCF7D9F8002C3FD07868D3
:1042B00084423CD82448183001460D6801E0284665
:1042C0000D466968A14202D229680029F7D13968F0
:1042D000B8468D422BD006682968016068680836A8
:1042E000001B10280ED92F19780704D0CF2217A150
:1042F00020A0FCF7B3F86868001B786038466C6053
:10430000FFF7B2FE6A68D8F804104046891AC8F868
:104310000410D8F80830994200D2816041690A43FC
:104320000021C5E90012C168491CC8F80C1001F051
:10433000ABFA700705D04FF4887204A10DA0FCF70A
:104340008DF83046BDE8F081980000202E2E5C46A6
:1043500072656552544F535C706F727461626C6524
:104360005C4D656D4D616E675C686561705F342E94
:10437000630000004572726F723A25732C25640D3C
:104380000A0000000449086818B10868826C521CD1
:1043900082640868704700005800002010B5031FB1
:1043A0004FF080741C601B1F21F001011960191F60
:1043B000044B0B6014390A60091F6FF00202443885
:1043C0000A6010BD854100084FF08041486A002214
:1043D00000B24A627047000003480068024A0021A8
:1043E000243A00B251627047240800400348006834
:1043F000024A0021243A00B251627047240C004066
:104400000448016A41F001010162016841F00101C3
:10441000016070470018004010B50C4C02220121C9
:104420002046FDF7F3FC022211462046FDF7EEFC84
:104430000748016A41F480710162016A41F48051C8
:104440000162016841F00101016010BD00040240F9
:10445000000400400448C16841F00101C1600168E6
:1044600041F0010101607047001400400E48016AEC
:1044700041F001010162016A41F010010162016A2B
:1044800041F480710162016A41F480510162016866
:1044900041F001010160416C41F40041416440F28E
:1044A000DC514163816370470004014010B51A4C30
:1044B000012211462046FDF796FC012202212046EA
:1044C000FDF791FC6003016A41F001010162016A9C
:1044D00041F010010162016841F0010101604FEA01
:1044E000F440016A41F001010162016A41F01001EA
:1044F0000162016841F0010101600848016A41F070
:1045000001010162016A41F010010162016841F09C
:104510000101016010BD000000000240000C0040DD
:104520002DE9F0411C4D02212846FDF747FB1C4CAC
:10453000DFF86480194FA17808F1080841F8087085
:10454000A17808F104061748885112220221284652
:10455000FDF75CFB02212846FDF73AFBA2781148E3
:10456000123042F80870A1788851A0782858A178B4
:1045700020F400206850A0782858A17840F48020CA
:104580006850381F416941F0400141612846BDE84B
:10459000F0410221FDF726BB0064024004100140F7
:1045A0001E5A00081401002010B5144C01212046A9
:1045B000FDF704FB134A114B114851780833C850DA
:1045C0005278181D10491150802201212046FDF714
:1045D0001DFB0B49091FC86840F02000C860C8686F
:1045E00040F01000C860486940F040004861204633
:1045F000BDE810400121FDF7F5BA0000006402405B
:10460000041401401E5A000838010020D0E901328C
:1046100001699A60D0E901235A604A68824201D157
:1046200082684A60002202610868401E08600868CB
:10463000704700F108014FF0FF32C0E90112C1607C
:10464000016100210160704700210161704730B5B0
:104650000B685A1C02D000F1080202E0026904E073
:104660002246546825689D42FAD953684B60996088
:104670008A60516008610168491C016030BD426870
:104680004A6093688B609368596091600861016823
:10469000491C016070470000502080F31188BFF36F
:1046A0004F8FBFF36F8F09494868401C486001284D
:1046B0000AD10748006810F0FF0F05D04FF4DB72F5
:1046C00004A10FA0FBF7CABE70470000B80000208D
:1046D00004ED00E02E2E5C4672656552544F535C2B
:1046E000706F727461626C655C525644535C4152E7
:1046F0004D5F434D34465C706F72742E6300000052
:104700004572726F723A25732C25640D0A00000001
:1047100010B5084C606828B940F2BD1206A111A07E
:10472000FBF79CFE6068401E606001D180F3118839
:1047300010BD0000B80000202E2E5C467265655248
:10474000544F535C706F727461626C655C52564476
:10475000535C41524D5F434D34465C706F72742E12
:10476000630000004572726F723A25732C25640D48
:104770000A00000070B500282DD0174DA0F10804E4
:1047800060686969084205D14FF4927213A11DA0B7
:10479000FBF764FE206828B140F225120FA119A092
:1047A000FBF75CFE61686869014214D02268002A48
:1047B00011D18143616000F013FA606869680844B0
:1047C00068602046FFF750FC2869401C2861BDE85E
:1047D000704001F059B870BD980000202E2E5C4644
:1047E00072656552544F535C706F727461626C6590
:1047F0005C4D656D4D616E675C686561705F342E00
:10480000630000004572726F723A25732C25640DA7
:104810000A0000004FF0E02000210161816105499C
:104820004FF47A720968B1FBF2F1491E4161072128
:10483000016170470C00002010B5FBF773FD104CB0
:1048400010280CD300F1E02090F8F0032178884282
:1048500005D240F217320BA115A0FBF7FFFD184857
:104860000068A16800F4E060884207D9BDE8104004
:1048700040F2273203A10EA0FBF7F0BD10BD0000EF
:10488000B80000202E2E5C4672656552544F535C72
:10489000706F727461626C655C525644535C415235
:1048A0004D5F434D34465C706F72742E63000000A0
:1048B0004572726F723A25732C25640D0A00000050
:1048C0000CED00E010B5040012D00E48406B28B18A
:1048D00040F249520CA111A0FBF7C0FD00F080F995
:1048E00000212046FFF70AFA00F0CEFF002807D18A
:1048F0000E494FF080500860BFF34F8FBFF36F8FAA
:1049000010BD0000580000202E2E5C4672656552D6
:10491000544F535C7461736B732E63004572726FF6
:10492000723A25732C25640D0A00000004ED00E0A6
:1049300070B50546FFF7B0FE254C05B92568281D62
:10494000FFF764FE58B9E86A224A00EB800152F88A
:10495000211021B901218140206988432061A86A82
:1049600018B105F11800FFF751FE606A401C606243
:104970002068854207D1291D1748FFF780FE60682F
:10498000401C606004E0A068401EA060FFF7ECFBE4
:10499000FFF7BEFE2068854202D02846FFF7A0FA46
:1049A0006069002812D0206885420FD1606B28B161
:1049B00040F2DC4209A10EA0FBF750FD10494FF078
:1049C00080500860BFF34F8FBFF36F8F70BD000042
:1049D00058000020F4020020B00500202E2E5C4676
:1049E00072656552544F535C7461736B732E630030
:1049F0004572726F723A25732C25640D0A0000000F
:104A000004ED00E002490A6A0260C968416070472B
:104A10005800002001490120C8617047580000205B
:104A200070B50D46040005D140F61C4207A10CA04C
:104A3000FBF714FD0E48016820461831FFF707FE0A
:104A40002846BDE870400121FFF758B92E2E5C467C
:104A500072656552544F535C7461736B732E6300BF
:104A60004572726F723A25732C25640D0A0000009E
:104A70005800002070B50D46040056D0A06C28B92F
:104A800041F29F0229A12EA0FBF7E8FC606CA8422E
:104A900000D30546E06AA84247D0A06C012844D163
:104AA0002B4E3068844205D141F2BA021FA124A0E6
:104AB000FBF7D4FCE06AE562A169002902DBC5F1DD
:104AC0002001A161234D00EB8000616905EB8000AE
:104AD00081422AD1201DFFF799FD012130B994F8B8
:104AE0002C00326901FA00F082433261E06A3269D7
:104AF00081401143316100EB800005EB800040688C
:104B0000A0608168E1608268211D51608160E06A77
:104B100000EB800005EB80006061E06A00EB800044
:104B200055F82010491C45F8201070BD2E2E5C460B
:104B300072656552544F535C7461736B732E6300DE
:104B40004572726F723A25732C25640D0A000000BD
:104B500058000020F40200207CB514480025CDE95F
:104B600000502B46802212A1134800F031FB0F4C5D
:104B70002C3C012802D0401C10D015E0502080F3BE
:104B80001188BFF34F8FBFF36F8F4FF0FF30A062DC
:104B900001206061E56000F069F805E04FF404620F
:104BA00006A10BA0FBF75AFC206B7CBD8400002003
:104BB00049444C4500000000413F00082E2E5C4651
:104BC00072656552544F535C7461736B732E63004E
:104BD0004572726F723A25732C25640D0A0000002D
:104BE0000248416B491C4163704700005800002097
:104BF00070B5134C606B10B10120E06170BD0020F6
:104C0000E06120690F4EB0FA80F0C0F11F0000EBA8
:104C1000800556F8250028B940F602420AA10FA0E7
:104C2000FBF71CFC06EB850000F1080241684968AF
:104C30004160914201D149684160C868206070BDFF
:104C400058000020F40200202E2E5C46726565524A
:104C5000544F535C7461736B732E63004572726FB3
:104C6000723A25732C25640D0A0000007CB5344C83
:104C700020683449884205D140F2431232A13DA058
:104C8000FBF7ECFB20682F49491E884205D14FF401
:104C9000A2722DA137A0FBF7E1FB3A4D28780190D5
:104CA000FF20287028788DF800009DF800009DF8FE
:104CB000001000F0F000884205D040F25D1222A101
:104CC0002CA0FBF7CBFB9DF800002F4C00F0500010
:104CD00020700720A06005E09DF8001049008DF8C5
:104CE0000010401E9DF800100906F5D4A0600328AE
:104CF00005D04FF4BD7214A11EA0FBF7AFFB207AC4
:104D0000000200F4E060A060019828700C48203098
:104D1000016841F470010160016841F07041016077
:104D2000FFF778FD00206060FBF7C4FA17480168C0
:104D300041F040410160FBF7A9FA00207CBD000072
:104D400000ED00E071C20F412E2E5C467265655287
:104D5000544F535C706F727461626C655C52564460
:104D6000535C41524D5F434D34465C706F72742EFC
:104D7000630000004572726F723A25732C25640D32
:104D80000A00000000E400E0B800002034EF00E07A
:104D900070B50E4605004FF000041DD0601EB0FB3C
:104DA000F5F0B04218D305FB06F010F14D0F13D803
:104DB0004C30FFF755FA040014D004F14C004EB10A
:104DC0002060C4E90F562046012100F01FF80021A1
:104DD000A16407E02460F4E74FF4E37202A107A0A6
:104DE000FBF73CFB204670BD2E2E5C46726565527B
:104DF000544F535C71756575652E63004572726F13
:104E0000723A25732C25640D0A0000002DE9F0414B
:104E10000F4604004FF001062BD0E06B78B3B51EAF
:104E2000B5FBF0F1206C814229D3FFF735FCD4E9C2
:104E30000F20216802FB0011A1600021A1632168FD
:104E400061600A46D4E90F01401E00FB01212046A3
:104E5000E16000F8445F457004F11000CFB1FFF746
:104E6000E8FB04F12400FFF7E4FB00BFFFF750FC70
:104E70000CE04FF488720FA113A0FBF7EFFA0026A5
:104E800040F245120BA110A0FBF7E8FA3046BDE84E
:104E9000F08121690029E9D000F078FC0028E5D0F4
:104EA0000D494FF080500860BFF34F8FBFF36F8FF5
:104EB000DCE700002E2E5C4672656552544F535C51
:104EC00071756575652E63004572726F723A257350
:104ED0002C25640D0A00000004ED00E02DE9F041EE
:104EE0000F46040005D140F2AD4227A12BA0FBF7ED
:104EF000B5FA206C28B140F2B14223A127A0FBF7FC
:104F0000ADFA206838B9A06828B140F2B6421EA1B7
:104F100022A0FBF7A3FAFFF78FFC5020EFF31186D6
:104F200080F31188BFF34F8FBFF36F8FA06BE16BDE
:104F3000814224D994F94550401CA063681C02D0DA
:104F40007F2D11D016E0A06C012518B12046FFF787
:104F5000BFF805E0606A80B104F1240000F016FC9F
:104F600058B157B13D6008E040F2355206A10BA0A0
:104F7000FBF774FA6D1C84F84550012000E0002016
:104F800086F31188BDE8F0812E2E5C46726565526D
:104F9000544F535C71756575652E63004572726F71
:104FA000723A25732C25640D0A0000002DE9F343A5
:104FB000002683B00400354605D140F2E35254A1E7
:104FC00058A0FBF74BFA206C28B140F2E75250A1F1
:104FD00054A0FBF743FA00F05DFA38B9049828B101
:104FE00040F2EC524AA14FA0FBF738FA4FF000090B
:104FF0004FF08057DFF83C81FFF74EFBA06BC8B144
:10500000401EA063206810B9FFF7BCF9A0602069BA
:1050100050B104F1100000F0B9FB28B1C8F80070DD
:10502000BFF34F8FBFF36F8FFFF772FB012005B007
:10503000BDE8F083049808B156B10DE02DB140F2FF
:10504000326233A137A0FBF709FAFFF761FB5DE09D
:105050006846FFF7D7FC0126FFF75AFBFFF7C0FDB4
:10506000FFF71AFB94F94400401C01D184F84490E6
:1050700094F94500401C01D184F84590FFF748FBA6
:1050800004A9684600F058F80028204612D0FFF71F
:10509000ABF800F0F9FB2046FFF70CF80028ABD086
:1050A0009DB3FFF7F9FA606A50B3206B0068C0F156
:1050B000200126E0FEF7FEFFE0B1206838B9FFF7D7
:1050C000EBFAA06800F00AFB0546FFF721FB04F1AC
:1050D00024000499FFF7A4FC2046FFF785F800F0B0
:1050E000D3FB002888D1C8F80070BFF34F8FBFF3FF
:1050F0006F8F81E72046FFF777F800F0C5FB7BE76D
:105100000021A068FFF7B6FC9FE7FFE700208EE7CD
:105110002E2E5C4672656552544F535C71756575F1
:10512000652E63004572726F723A25732C25640DEB
:105130000A00000004ED00E02DE9F0410C460500F6
:1051400005D140F6FD4218A11CA0FBF787F92CB948
:1051500040F6FE4214A119A0FBF780F9FFF79CFA74
:105160001A4EF2686B682068D11A471C0AD02F6863
:10517000D6F820C00026674506D0934204D8012502
:1051800026600BE0002509E0884205D9401A20601E
:105190002846FFF737FCF5E701252660FFF7B8FA48
:1051A0002846BDE8F08100002E2E5C4672656552EF
:1051B000544F535C7461736B732E63004572726F4E
:1051C000723A25732C25640D0A0000005800002057
:1051D0002DE9FF5F8346DDE90E87994616468A462C
:1051E0009000FFF73DF805001AD05420FFF738F87B
:1051F000040012D025630021CDE90241CDE90087EA
:105200004B46324651465846FEF7CAFE2046FEF748
:10521000B9FD012004B0BDE8F09F2846FFF7AAFAC7
:105220004FF0FF30F6E700002DE9F05FDDE90A9A64
:105230009B4616460F4604004FF0010805D141F287
:10524000853252A156A0FBF709F92FB141F28632FF
:105250004EA153A0FBF702F9FFF7EEFA5020EFF34F
:10526000118580F31188BFF34F8FBFF36F8F04EB6D
:105270008700B9F1000F02D0C26CC9F80020E11913
:1052800011F8507F02220A70DFF82491BBF1050F5C
:1052900012D2DFE80BF01A03060C0A00C16C31438E
:1052A00001E0C16C491CC1640FE0022F01D0C6644B
:1052B0000BE04FF0000830E0D9F80C0028B141F2C3
:1052C000CD3232A136A0FBF7C9F8012F25D1A06A53
:1052D00028B141F2D8322DA131A0FBF7BFF8D9F89F
:1052E000342048460121EAB1324B5A68E26196689F
:1052F0002662976804F118067E609660A3621A68B9
:10530000521C1A60E26A0368DB6A9A4205D9BAF154
:10531000000F01D0CAF80010C16185F31188404622
:10532000BDE8F09FD4E902636269B360D4E9023654
:1053300073605368261DB34201D1E36853600023B4
:10534000636113685B1E1360E36A076901FA03F285
:105350003A43026103EB8302174B03EB820252686C
:10536000A2609768E76097687E609660E26A02EBE9
:10537000820203EB82026261E26A02EB820253F86C
:105380002260761C43F82260BCE700002E2E5C46AB
:1053900072656552544F535C7461736B732E630076
:1053A0004572726F723A25732C25640D0A00000055
:1053B000580000209C050020F40200202DE9F04751
:1053C000DDF820801E4691460F46040005D041F2CC
:1053D000B02225A129A0FBF741F8FFF75DF92B4D7D
:1053E0002868204490F85000022818D0286800EB64
:1053F0008400C16CB943C16429680120214481F84B
:1054000050005FEA08000AD00121FEF777FC20492E
:105410004FF080500860BFF34F8FBFF36F8FFFF7DF
:1054200077F9FFF739F926B1286800EB8400C06CE2
:1054300030602868204490F85000022801D00026EF
:1054400007E0286800EB8400C16C21EA0901C1640F
:10545000012629680020214481F85000FFF758F9FF
:105460003046BDE8F08700002E2E5C46726565521E
:10547000544F535C7461736B732E63004572726F8B
:10548000723A25732C25640D0A0000005800002094
:1054900004ED00E00548416919B1406B18B10020E6
:1054A000704701207047022070470000580000201C
:1054B0002DE9F041494C0026606B28B1A069401CE1
:1054C000A0613046BDE8F081E5686D1CE56011D152
:1054D000A06B006828B140F6C72241A145A0FAF7A9
:1054E000BDFFA06BE16BA163E063206A401C2062FA
:1054F000FEF73AFEA16A43488D420FD34FF0000EEB
:10550000A16B096839B1A16BC968C9684A6895423D
:1055100012D2A26202E04FF0FF31A1622168C96A93
:1055200001EB810150F82100012800D90126E06932
:105530000028C6D00126C4E7D1E902724B69BA60DF
:10554000D1E902277A605F680A1D974201D1CF68CE
:105550005F60C1F814E01F687F1E1F60D1F828C08B
:10556000BCF1000F15D0D1E907379F60D1E90737AB
:105570007B60DCF8047001F118039F4202D10B6AD2
:10558000CCF80430C1F828E0DCF800305B1ECCF821
:105590000030CB6A0127D4F810C09F4047EA0C07BF
:1055A000276103EB830300EB83035B688B609F68D9
:1055B000CF609F687A609A60CA6A02EB820200EB51
:1055C00082034B6150F822305B1C40F82230C96ADC
:1055D0002268D26A914293D3012691E758000020B5
:1055E0002E2E5C4672656552544F535C7461736B2A
:1055F000732E63004572726F723A25732C25640D09
:105600000A000000F402002070B504004FF000060C
:105610004BD0274D2868844205D041F24F0225A186
:1056200029A0FAF71BFFA06C28B941F2500221A172
:1056300025A0FAF713FFA06C401EA064626CE16A1B
:10564000914232D088BB201DFEF7E0FF012130B926
:1056500094F82C002A6901FA00F082432A61606CF8
:10566000E062C0F12000A061E06A2A698140114334
:105670002961194900EB800001EB80004068A060BF
:105680008268E2608368221D5A608260E06A00EBF3
:10569000800001EB80006061E06A00EB800051F85F
:1056A0002020521C41F820200126304670BD000009
:1056B000580000202E2E5C4672656552544F535C94
:1056C0007461736B732E63004572726F723A257347
:1056D0002C25640D0A000000F402002070B50400BF
:1056E0004FF0000047D0274DE16A2A68D26A914204
:1056F00042D2A069002804DB2868C06AC0F12000FB
:10570000A061214E01EB8101606906EB81018842B5
:105710002DD1201DFEF77AFF012130B994F82C001D
:105720002A6901FA00F082432A612868C06AE062AF
:105730002A6981401143296100EB800006EB80005B
:105740004068A0608168E1608268211D51608160CD
:10575000E06A00EB800006EB80006061E06A00EB2D
:10576000800056F82010491C46F8201002E02868F6
:10577000C06AE062012070BD616C2A68D26A914201
:10578000F8D370BD58000020F402002070B5C06846
:10579000C4682CB940F682422FA134A0FAF75EFE0D
:1057A000D4E90720A16A9060D4E9070250604A68F2
:1057B00004F11800824201D1226A4A600023A362E8
:1057C0000A68521E0A602D494A6B01259AB12C4B7A
:1057D0005A68E26196682662966870609060A3627B
:1057E0001868401C1860E06A0A68D26A904231D991
:1057F0000120CD6170BDD4E902626069B260D4E974
:10580000022672604668221D964201D1E668466013
:10581000636103685B1E0360E06A0E6905FA00F3CA
:1058200033430B61174B00EB800003EB80004068B3
:10583000A0608668E660866872608260E06A00EB5D
:10584000800003EB8002626153F82020521C43F871
:105850002020C8E7002070BD2E2E5C467265655280
:10586000544F535C7461736B732E63004572726F97
:10587000723A25732C25640D0A00000058000020A0
:105880009C050020F40200202DE9F041454D002444
:105890002746686B28B940F6B30243A147A0FAF740
:1058A000DDFDFEF7F9FE686B401E6863686B00283B
:1058B00072D1A868454B00264FF00108F0BB6BE0A1
:1058C000D868C468D4E90721A06A9160D4E90712B6
:1058D0005160426804F118018A4201D1216A416095
:1058E000A6620168491E0160D4E9022160699160E5
:1058F000D4E9021251604268211D8A4201D1E26856
:10590000426066610268521E0260E26AD5F810C009
:1059100008FA02F040EA0C00286102EB82002C4AEF
:1059200002EB80004068A060D0F808C0C4F80CC04A
:10593000D0F808C0CCF80410816000E011E0E06A03
:1059400000EB800002EB8001616152F82010491CDD
:1059500042F82010E06A2968C96A884201D3C5F874
:105960001C8018680028ABD10CB1FEF7FDFBAC69B8
:1059700044B100BFFFF79CFD08B1C5F81C80641E50
:10598000F8D1AE61E86938B11249012738070860DB
:10599000BFF34F8FBFF36F8FFEF7BAFE3846BDE8F7
:1059A000F0810000580000202E2E5C467265655282
:1059B000544F535C7461736B732E63004572726F46
:1059C000723A25732C25640D0A0000009C05002006
:1059D000F402002004ED00E04FF04070E1EE100A08
:1059E00070470000000004040400000800000008E4
:1059F0000000080000000800020406080A0C102835
:105A000040587088A0B800000000000000000102AB
:105A1000030406070809000000000102030410281F
:105A200040587088A0B8102840587088A0B8005E10
:105A3000BCE2613FDD83C29C7E20A3FD1F419DC36C
:105A4000217FFCA2401E5F01E3BD3E6082DC237D1E
:105A50009FC1421CFEA0E1BF5D0380DE3C62BEE050
:105A6000025CDF81633D7C22C09E1D43A1FF46187E
:105A7000FAA427799BC584DA3866E5BB5907DB852C
:105A80006739BAE406581947A5FB7826C49A653BDE
:105A9000D987045AB8E6A7F91B45C6987A24F8A610
:105AA000441A99C7257B3A6486D85B05E7B98CD23E
:105AB000306EEDB3510F4E10F2AC2F7193CD114FEC
:105AC000ADF3702ECC92D38D6F31B2EC0E50AFF19E
:105AD000134DCE90722C6D33D18F0C52B0EE326CD0
