:020000040800F2
:10000000D8040020C1010008A31D0008410D00080C
:10001000A11D0008CD0200083521000800000000E5
:10002000000000000000000000000000791F000830
:100030001F03000800000000A51E00087B1F000829
:10004000DB010008DB010008DB010008DB01000820
:10005000DB010008DB010008DB010008DB01000810
:10006000DB010008DB010008DB010008DB01000800
:10007000DB010008DB010008DB010008DB010008F0
:10008000DB010008DB010008DB010008DB010008E0
:1000900011030008DB010008DB010008DB01000898
:1000A000DB010008DB010008DB010008DB010008C0
:1000B00079200008DB0100087B200008DB01000834
:1000C000DB010008DB010008DB010008DB010008A0
:1000D000DB01000881200008DB01000895200008F2
:1000E000DB010008DB010008DB010008DB01000880
:1000F000DB010008DB010008DB010008DB01000870
:10010000DB010008DB0100087D200008DB0100089E
:10011000DB010008DB010008DB0100087F2000088C
:10012000DB010008DB0100081D030008DB010008FB
:10013000DB010008DB010008DB010008DB0100082F
:10014000DB010008DB010008DB010008DB0100081F
:10015000DB010008DB010008DB010008DB0100080F
:10016000DB010008DB010008DB010008DB010008FF
:10017000DB010008DB010008DB01000800000000D3
:10018000DB010008DB010008DB010008DB010008DF
:10019000DB010008DB010008DB010008DB010008CF
:1001A0000000000000000000DB010008DFF80CD0B8
:1001B00000F07AF800480047F1210008D804002038
:1001C0000648804706480047FEE7FEE7FEE7FEE7F1
:1001D000FEE7FEE7FEE7FEE7FEE7FEE75D2000083C
:1001E000AD0100082DE9F05F0546002092469B46D0
:1001F00088460646814640241BE02846414647463D
:10020000224600F041F853465A46C01A914110D395
:1002100011461846224600F028F82D1A67EB01080F
:100220004F4622460120002100F01FF817EB00097D
:100230004E41201EA4F10104DFDC484631462A4627
:100240004346BDE8F09FD2B201E000F8012B491E01
:10025000FBD270470022F6E710B513460A46044663
:100260001946FFF7F0FF204610BD202A04DB203A94
:1002700000FA02F1002070479140C2F1200320FAF9
:1002800003F3194390407047202A04DB203A21FAF7
:1002900002F00021704721FA02F3D040C2F120029F
:1002A0009140084319467047064C074D06E0E06848
:1002B00040F0010394E8070098471034AC42F6D3AD
:1002C000FFF778FF7C2200089C220008FEE7000070
:1002D00000B58BB000200121CDE9060147F6FE7282
:1002E0000590CDE900200290039004900E20CDE906
:1002F00008106946054800F027F8044800F050FB54
:100300000221024800F00EF80BB000BD2C000020C6
:10031000014800F014B900002C000020704770471D
:1003200072B6FEE790F82020012A07D0022A05D0F5
:10033000416A41F4802141620120704700684269AE
:100340000A4342610020704710B590F82020012A2E
:1003500007D0022A05D0416A41F480214162012080
:1003600010BD3B48D0F8002242F00102C0F8002244
:10037000D0F8002222F47C52C0F80022D0F80022EB
:100380004B6A42EA0322C0F800220A7D02F01F03F2
:1003900001229A40D0F81C329343C0F81C32CB693A
:1003A000B3B9D0F80C329343C0F80C328C894B6847
:1003B00064F31F434C6900EBC404C4F840320C8959
:1003C0000B6864F31F434C6900EBC404C4F8443267
:1003D000CB69012B16D1D0F80C321343C0F80C3284
:1003E0000C884B6864F31F434C6900EBC404C4F8E9
:1003F00040320C89CB6864F31F434C6900EBC404A2
:10040000C4F844328B69002BD0F804320ED0134369
:10041000C0F804320B69002BD0F8143208D0134313
:10042000C0F81432096A012904D008E09343EFE7C9
:100430009343F5E7D0F81C121143C0F81C12D0F812
:10044000001221F00101C0F80012002010BD0000D0
:1004500000640040704730B590F82040012C05D072
:10046000022C03D0416A41F480215DE00468002938
:1004700055D02469A40754D04FF4D874056804EB10
:1004800001142D5915F00405956005682D594ED0BD
:10049000ED08556005682C5904F00204D4604FF44F
:1004A000DA74056804EB01142D5905F00F05156188
:1004B00005682D59C5F30725956105682C59240C4D
:1004C00054614FF4DC72046802EB0112A4581C70F2
:1004D0000468A458240A5C700468A458240C9C7016
:1004E0000468A258120EDA704FF4DE72046802EB50
:1004F0000112A4581C710468A458240A5C71046891
:10050000A458240C9C710468A258120EDA71006879
:1005100081B1016941F020010161002030BDE46832
:10052000A8E7416A41F400114162012030BD6D0D20
:100530001560AFE7C16841F02001C160EDE72DE92A
:10054000F05F0546006800244669D0F8049087688B
:10055000D0F80CB0D0F810A0D0F81880F10748D02F
:10056000F90714D001218160B80703D5284600F0AF
:1005700044FA0CE0780702D54FF4006407E038072E
:1005800002D54FF4805402E0284600F035FAF80511
:1005900016D529684FF480708860B80503D52846C1
:1005A00000F02DFA0CE0780502D544F4005407E081
:1005B000380502D544F4804402E0284600F01EFAD3
:1005C000F80316D529684FF480308860B80303D546
:1005D000284600F016FA0CE0780302D544F40044F3
:1005E00007E0380302D544F4803402E0284600F0E6
:1005F00007FA300707D55FEACB6004D529681020D9
:1006000044F40074C86070074FF0080707D55FEA2C
:100610000B7004D52868C760284600F097F9B0072A
:1006200006D52868C068800702D0284600F090F9F7
:10063000700607D55FEACA6004D52968102044F423
:1006400080640861B00607D55FEA0A7004D528689F
:100650000761284600F0A0F9F00606D52868006971
:10066000800702D0284600F098F9B00308D55FEA69
:10067000C96005D5296810204860284600F08EF929
:10068000F00307D55FEA097004D52868476028465B
:1006900000F0B8F9300446D55FEA497040D5F0055E
:1006A00004D55FEAC87001D044F00104B00504D558
:1006B0005FEA887001D544F00204700504D55FEA52
:1006C000487001D544F00404300529D518F0700FA6
:1006D00026D008F07000402815D006DC102809D07C
:1006E00020280AD0302816D10AE050280ED06028E1
:1006F00011D10EE044F008040DE044F010040AE0CB
:1007000044F0200407E044F0400404E044F0800496
:1007100001E044F480742868816921F070018161EE
:10072000296804204860002C05D0686A204368626C
:100730002846FFF78FFEBDE8F09F70B5040003D098
:1007400094F8200010B104E0012070BD204600F0B4
:1007500081F82068016821F00201016000F03EFA92
:100760000546052604E000F039FA401B0A2811D896
:10077000206840688007F6D42068016841F00101D4
:10078000016000F02BFA05460BE000F027FA401B51
:100790000A2806D9606A40F40030606284F820605C
:1007A000D2E720684068C007EFD0207E012820688B
:1007B00001683DD021F080010160607E0128206841
:1007C000016838D021F040010160A07E0128206836
:1007D000016833D021F020010160E07E012820680B
:1007E00001682ED041F010010160207F01282068AF
:1007F000016829D021F008010160607F012820688C
:10080000016824D021F004010160D4E90201084309
:10081000D4E90412114308436168491E0843216862
:10082000C86100206062012084F82000002070BDB3
:1008300041F08001C0E741F04001C5E741F02001EF
:10084000CAE721F01001CFE741F00801D4E741F0F9
:100850000401D9E72DE9F04387B004461421684626
:10086000FFF7F8FC354B3648DFF8CC801968D4F830
:1008700000C0334A022503260927DFF8C89010304C
:100880000024491CC44528D11960012907D10168F9
:1008900041F000710160006800F000700590106880
:1008A00040F002001060106802AB00F002000590FA
:1008B0004FF44070CDE9000583E8D0006946484612
:1008C00000F0A2F800221146142000F0F3F91420E1
:1008D00000F0E4F907B0BDE8F083DFF86C80C445B0
:1008E000F8D1D0F800C04CF0806CC0F800C0D0F84F
:1008F00000C001290CF0806CCDF814C0196007D13C
:10090000016841F000710160006800F0007005901E
:10091000106840F002001060106802AB00F00200A6
:10092000059042F22000CDE9000583E8D000694639
:10093000484600F069F8CDE7006400400000002060
:100940003038024000040240006800407047000058
:1009500010B500F043F90C4C2168401AB0F5FA7F4D
:1009600002D900F03BF92060074B084A0C33002104
:100970000748FFF770FD044BBDE810400C33034AF5
:1009800000210448FFF767BD140000207C00002010
:100990002C00002054000020704770477047000072
:1009A00070B5044690F82000012804D0606A40F435
:1009B0000020606218E0022084F8200020680168AE
:1009C00021F00101016000F009F905460EE000BFC9
:1009D00000F004F9401B0A2808D9606A40F400308E
:1009E0006062052084F82000012070BD2068406806
:1009F000C007EDD1606270BD7047704770477047A7
:100A000070477047704700002DE9F84F00224FF003
:100A1000010803254FF00F0E0B6808FA02F423407B
:100A2000A3426ED14E68012E05D0022E03D0112EA6
:100A300001D0122E12D186684FEA420C05FA0CF74B
:100A4000BE43CF6807FA0CF7374387604668A64372
:100A50000C79C4F30014944034434460C6685700D2
:100A600005FA07FC8C6826EA0C06BC403443C460D7
:100A70004C68022C01D0122C13D1D40800EB840452
:100A8000A346D4F8209054074FEAD46A0EFA0AF627
:100A900029EA06090E6906FA0AF646EA0906CBF8BB
:100AA000206004680E7924EA0C0406F00306BE40B8
:100AB000264306604C68E4006FD53B4C266846F43C
:100AC00080462660246822F0030604F480440094E3
:100AD000364C3444A446D4F808489607360F0EFA2C
:100AE00006F7BC43324FB84201D100272EE0314F08
:100AF000B84201D1012729E02F4FB84202D1022785
:100B000024E04AE02D4FB84201D103271EE02C4FCC
:100B1000B84201D1042719E02A4FB84201D1052774
:100B200014E0294FB84201D106270FE0274FB84201
:100B300001D107270AE0264FB84201D1082705E076
:100B4000244FB84201D1092700E00A27B7402743C4
:100B5000CCF80878204E34684F689C43FF0300D5DA
:100B60001C4334601C4E361D34684F689C43BF03E1
:100B700000D51C433460184E083634684F689C43D7
:100B8000FF0200D51C433460134E0C3634684F68A6
:100B90009C43BF0200D51C433460521C102AFFF452
:100BA0003BAFBDE8F88F0000443802400030014000
:100BB000000002400004024000080240000C024015
:100BC000001002400014024000180240001C0240C5
:100BD0000020024000240240003C0140014880689F
:100BE0007047000004000020024881680278114428
:100BF00081607047040000200B4810B5016841F483
:100C000000710160016841F480610160016841F494
:100C100080710160032000F06DF8002000F006F8FC
:100C200000F024F8002010BD003C024070B50D4DCE
:100C300004464FF47A712878B1FBF0F00A4909684C
:100C4000B1FBF0F000F068F848B9102C07D2002290
:100C50002146501E00F02EF800206C6070BD01206F
:100C600070BD000004000020100000200A4808B5F4
:100C7000016841F480410160006800F48040009008
:100C80000548001F016841F080510160006800F0D4
:100C90008050009008BD00004438024000F01F0260
:100CA000012191404009800000F1E020C0F80011CE
:100CB00070470000F0B40E4B1B680C46C3F30223D0
:100CC000C3F10705042D00D90425191D072901D2F8
:100CD000002300E0DB1E012606FA05F1491E214033
:100CE00099409E40761E16403143F0BC01F0CAB8D0
:100CF0000CED00E0064900F0070208684FF6FF031C
:100D0000184040EA0220034A104308607047000080
:100D10000CED00E00000FA0510B5401EB0F1807F38
:100D200001D3012010BD4FF0E02460610F21601756
:100D300001F0A8F80020A06107202061002010BD6C
:100D4000FEE70000044908B50A6802430A60096822
:100D50000140009108BD000030380240044908B548
:100D60000A6802430A6009680140009108BD00005A
:100D700030380240044908B50A6802430A6009682D
:100D80000140009108BD000030380240044908B518
:100D90000A6802430A6009680140009108BD00002A
:100DA00040380240F0B50A680F2692FAA2F2B2FA71
:100DB00082F303248AE001279F4015EA07027DD0D1
:100DC0004D68012D01D0022D1BD18D68876892FAE4
:100DD000A2FCBCFA8CFC4FEA4C0C04FA0CFC27EA8F
:100DE0000C0792FAA2FCBCFA8CFC4FEA4C0C05FAF8
:100DF0000CF52F438760CD684768554397432F43D1
:100E000047600F69D0F80CC092FAA2F5B5FA85F5E3
:100E10004FEA450E04FA0EF52CEA050C92FAA2F5FB
:100E2000B5FA85F56D00AF404CEA070CC0F80CC070
:100E30004D68022D33D192FAA2F5B5FA85F5082D49
:100E400015D2D1F814C0056A92FAA2F7B7FA87F75B
:100E5000BF0006FA07F7BD4392FAA2F7B7FA87F781
:100E6000BF000CFA07FC45EA0C05056217E0D1F853
:100E700014E0476A150A95FAA5FCBCFA8CFC4FEA07
:100E80008C0C06FA0CFC95FAA5F5B5FA85F5AD00C3
:100E900027EA0C070EFA05FE47EA0E0747624D687F
:100EA000076892FAA2FCBCFA8CFC4FEA4C0C04FADC
:100EB0000CFE27EA0E0792FAA2F200E005E0B2FA71
:100EC00082F2520095402F4307605B1C0A6815466A
:100ED000DA407FF470AF0020F0BD10B5044601F099
:100EE0000DF8206000F0E0FF606000F0EBFFA06014
:100EF000606800F0F5FFE06010BD00000149086087
:100F000070470000100000200A7B8B681A434B6872
:100F100022F480621A430B6822F400621A43CB89E0
:100F200022F480521A430B6922F400521A434B698F
:100F300022F480421A4322F4004119434164002004
:100F40007047000010B501291CD004291CD01029BD
:100F50001CD040291CD0B1F5807F1BD0B1F5806F2B
:100F60001AD006210D4B18305B5C184403680B4CFB
:100F70000E34615C03248C40120CA3438A4013435B
:100F8000036010BD0021EDE70121EBE70221E9E755
:100F90000321E7E70421E5E70521E3E72E22000826
:100FA00010B501291CD004291CD010291CD04029BF
:100FB0001CD0B1F5807F1BD0B1F5806F1AD006210F
:100FC0000D4B18305B5C184403680B4C0E34615CAD
:100FD000F0248C40120CA3438A401343036010BDDD
:100FE0000021EDE70121EBE70221E9E70321E7E733
:100FF0000421E5E70521E3E72E22000810B50129C9
:1010000016D0042916D0102916D0402916D0B1F5D3
:10101000807F15D0B1F5806F14D00623016A0A4C89
:10102000E35C0A249C40A1439A401143016210BD35
:101030000023F3E70123F1E70223EFE70323EDE7C2
:101040000423EBE70523E9E74322000810B5012953
:101050001CD004291CD010291CD040291CD0B1F56B
:10106000807F1BD0B1F5806F1AD006210D4B183050
:101070005B5C184403680B4C0E34615C0C248C40A0
:10108000120CA3438A401343036010BD0021EDE717
:101090000121EBE70221E9E70321E7E70421E5E786
:1010A0000521E3E72E220008F0B50268254B264D06
:1010B000264E274F274C4FF0804C984209D0604570
:1010C00007D0A84205D0B04203D0B84201D0A04218
:1010D00005D1D1F804E022F0700242EA0E029842F3
:1010E0001BD0604519D0A84217D0B04215D0B842E5
:1010F00013D0A04211D0184DA8420ED0174DA842CF
:101100000BD0174DA84208D0164DA84205D0164D59
:10111000A84202D0154DA84203D1CD6822F44072F6
:101120002A4302608A68C2620A888262984201D0B9
:10113000A04201D1097C0163416941F00101416193
:101140000020F0BD00000140000400400008004005
:10115000000C0040000401400040014000440140F8
:101160000048014000180040001C004000200040E2
:10117000012919D0042919D0102919D0402919D0D2
:10118000B1F5807F18D0B1F5806F17D006210C4AD9
:101190001830525C10440268094BDB1D5B5C042173
:1011A00099408A43026070470021F0E70121EEE791
:1011B0000221ECE70321EAE70421E8E70521E6E75D
:1011C0002E220008012919D0042919D0102919D07C
:1011D000402919D0B1F5807F18D0B1F5806F17D0B4
:1011E00006210C4A1830525C10440268094BDB1D82
:1011F0005B5C082199400A43026070470021F0E7D8
:101200000121EEE70221ECE70321EAE70421E8E708
:101210000521E6E72E220008F0B5012600236E4CDA
:101220006E4D012908D010293BD0B1F5807F73D0D5
:10123000B1F5805F6ED1A6E0016A21F00101016283
:10124000016A46688769D2F800C027F0730747EA49
:101250000C07D2F810C021F0020141EA0C01D2F8CB
:1012600004C021F0010141EA0C01A04201D0A842D2
:1012700012D1546921F0080141EA8401946821F0F7
:10128000040141EA8401956926F480742C43D569F0
:1012900024F4007444EA450646608761D2684263DC
:1012A0006FE0016A21F010010162066A41688769F6
:1012B000D2F800C027F4E64747EA0C27D2F810C05E
:1012C00026F0200646EA0C16D2F804C026F01006D6
:1012D00046EA0C16A04201D0A84213D1556926F067
:1012E000800444EA8514956824F0400444EA851695
:1012F000946921F4806141EA8401D46921F4006198
:1013000041EAC40141608761D168816361E003E023
:1013100000E01E463046F0BD016A21F48071016292
:10132000016A4668C769D2F800C027F0730747EA28
:101330000C07D2F810C021F4007141EA0C21D2F858
:1013400004C021F4807141EA0C21A04201D0A842DE
:1013500013D1546921F4006141EA8421946821F495
:10136000806141EA8421956926F4805444EA051499
:10137000D56924F4005444EA45164660C761D26832
:10138000C2630162C5E7016A21F480510162066A05
:101390004168C769D2F800C027F4E64747EA0C273E
:1013A000D2F810C026F4005646EA0C36D2F804C033
:1013B00026F4805646EA0C36A04201D0A84204D159
:1013C000946921F4804141EA84114160C761D16888
:1013D000016406629DE70000000001400004014036
:1013E0007FB50446C0680D460126C0F34030E8BB17
:1013F000E9686868AA690843296911430843E168F4
:1014000049F20C6291430843E060A868216921F425
:101410004051014321616869616921F440710143D0
:1014200061616846FFF759FD1348844208D01348AC
:10143000844213D01248844210D01248844201D111
:1014400003990CE01048844208D01048844205D02B
:101450000F48844202D00F4884420AD1029929B130
:101460002B681BB100262046AA6900E001E000F0CD
:1014700013F804B0304670BD001001400044004035
:101480000048004000140140004C00400050004063
:1014900000780040007C00402DE9F041064619200C
:1014A000A1FB00011F46002364243225B2F5004F42
:1014B00027D0BB0FBA00FEF795FE0146B0FBF4F053
:1014C0006FF01802504301EB800005EB0010B0FBF9
:1014D000F4F000F0F002B1FBF4F002EB0012B1FB0B
:1014E000F4F06FF01803584301EB800005EB001097
:1014F000B0FBF4F000F00F00104480B2B060BDE823
:10150000F081FA195B41FEF76DFE0146B0FBF4F085
:101510000201B1FBF4F06FF01803584301EB8000B7
:1015200005EBC000B0FBF4F000F0F80002EB400265
:10153000B1FBF4F0584301EB800005EBC000B0FBB9
:10154000F4F000F00700D7E70F4810B50D4901602F
:101550000921416000214FF480328160C0E903120B
:10156000120142610176012242768176C1760177CD
:101570004177FFF7E2F8002803D0BDE81040FEF7FE
:10158000CFBE10BD006400402C0000200F4810B5F5
:101590000D4901600921416000214FF40032816052
:1015A000C0E9031241610176012242768176C1765B
:1015B00001774177FFF7C1F8002803D0BDE810405C
:1015C000FEF7AEBE10BD00000068004054000020D1
:1015D000104808B5016841F480010160006800F41A
:1015E000800000900C480068C0F30220011D07290C
:1015F00001D2002000E0C01E0021814008010749FF
:1016000081F8000405494FF080603639C1F80001C7
:1016100008BD0000303802400CED00E03AE000E088
:1016200010B50220FFF78EFB0120FFF78BFB042093
:10163000FFF788FB4FF48070FFF784FB8020FFF7F3
:1016400081FBBDE810400820FFF77CBB70B58CB073
:10165000142106A8FEF7FEFD18216846FEF7FAFDE4
:101660000120FFF793FB0220FFF778FB0120FFF733
:1016700075FB0820009002260024CDE901640125B5
:10168000694633480394CDE90445FFF78BFBE80333
:101690000090CDE9016469462E480394CDE90445E4
:1016A000FFF780FB00F0C6FB0022114600F090FB24
:1016B00001461C2000F0C6FB1C2000F073FBAD07A8
:1016C000A86820F0070040F00200A860AE13324680
:1016D00001212846FFF736FC002201212846FFF7AA
:1016E000B5FC002201212846FFF75AFC0022012107
:1016F0002846FFF783FC324610212846FFF722FCDC
:10170000002210212846FFF7A1FC002210212846C4
:10171000FFF746FC002210212846FFF76FFCADF8CA
:101720001840701ECDE9074006A928460994FFF726
:10173000BBFC286820F080002860686820F07000FA
:101740006860A86820F08000A8600CB070BD000040
:10175000000402400000024070B594B014210EA8AD
:10176000FEF778FD20216846FEF774FD182108A8D1
:10177000FEF770FD0220FFF709FB1120ADF83800DD
:10178000002440F2F310CDE90F40244D0EA9284665
:101790001194FFF789FC286840F080002860AE159E
:1017A00031462846FFF70EFD6020CDE90004029483
:1017B00003946A46314628460494FFF72DFD3146CE
:1017C0002846FFF7D5FCAE1431462846FFF7FAFC51
:1017D00001946A46314628460294FFF71DFD3146C2
:1017E0002846FFF7C5FC686820F070006860A868AC
:1017F00020F08000A8600420FFF7B0FA4FF440709A
:1018000008900220CDE90904CDE90C4008A90B9409
:101810000348FFF7C7FA14B070BD00000004004091
:101820000008024070B58CB0142106A8FEF712FD26
:1018300018216846FEF70EFD0420FFF7A7FA0820DE
:10184000FFF78CFA4FF44050009002200025CDE9BC
:101850000105CDE90450694603952C48FFF7A2FA2B
:1018600000F0E8FA0022114600F0B2FA01461E200C
:1018700000F0E8FA1E2000F095FA254CA06820F050
:10188000070040F00200A060A61332460121204666
:10189000FFF758FB002201212046FFF7D7FB00226B
:1018A00001212046FFF77CFB002201212046FFF7A3
:1018B000A5FB324610212046FFF744FB00221021F1
:1018C0002046FFF7C3FB002210212046FFF768FBEC
:1018D000002210212046FFF791FBADF81850701E32
:1018E000CDE9075006A920460995FFF7DDFB2068E2
:1018F00020F080002060606820F070006060A068C8
:1019000020F08000A0600CB070BD0000000C024010
:101910000008004070B58CB0142106A8FEF79AFCB0
:1019200018216846FEF796FC0820FFF72FFA802062
:10193000FFF714FA4FF44060009002200025CDE933
:101940000105CDE90450694603952C48FFF72AFAB2
:1019500000F070FA0022114600F03AFA01463220F7
:1019600000F070FA322000F01DFA254CA06820F03B
:10197000070040F00200A060A61332460121204675
:10198000FFF7E0FA002201212046FFF75FFB00226B
:1019900001212046FFF704FB002201212046FFF72A
:1019A0002DFB324610212046FFF7CCFA00221021F1
:1019B0002046FFF74BFB002210212046FFF7F0FAEC
:1019C000002210212046FFF719FBADF81850701EB9
:1019D000CDE9075006A920460995FFF765FB206869
:1019E00020F080002060606820F070006060A068D7
:1019F00020F08000A0600CB070BD0000001C024010
:101A0000000C004010B586B014216846FEF722FC99
:101A10002020FFF7BBF900F00DFA0022114600F07C
:101A2000D7F90146372000F00DFA372000F0BAF957
:101A30005920ADF800000020019044F61F600A4CC8
:101A4000029069462046FFF72FFB206820F08000B7
:101A50002060606820F070006060A06820F0800066
:101A6000A06006B010BD000000140040F0B59BB0AF
:101A7000142114A8FEF7EEFB20216846FEF7EAFBCE
:101A8000182108A8FEF7E6FB18210EA8FEF7E2FBD6
:101A90004448016841F0020101600068002400F040
:101AA00002001990B320ADF8500044F61F60CDE954
:101AB00015403D4D17948DF8604014A92846FFF756
:101AC000F3FA286840F08000286001212846FFF7DB
:101AD00079FB6020CDE900040294039404940594FA
:101AE00006946A46012128460794FFF795FB0121D9
:101AF0002846FFF73DFB10212846FFF763FB0194C2
:101B00006A46102128460294FFF786FB10212846DA
:101B1000FFF72EFBAE1531462846FFF753FB019425
:101B20006A46314628460294FFF776FB314628463E
:101B3000FFF71EFBAF1439462846FFF743FB01941D
:101B40006A46394628460294FFF766FB394628461E
:101B5000FFF70EFB686820F070006860A86820F04E
:101B60008000A86008946814CDE90C048DF82C401E
:101B700009940A94ADF82E4008A92846FFF7C4F945
:101B80003046FFF7EBF8E4200E900220CDE90F0479
:101B90000320CDE912400EA911940448FFF702F981
:101BA0001BB0F0BD44380240000401400020024058
:101BB00010B58EB01C216846FEF74CFB182107A813
:101BC000FEF748FB4248016841F0100101600068DF
:101BD00000F010000D900220FFF7CCF8C020079015
:101BE0000220089003200024CDE909040720CDE954
:101BF0000B4007A93748FFF7D5F8384836498278AF
:101C00008A58837822F0606242F00062CA5082787B
:101C10008A58837822F0C002CA5082788A58837822
:101C200022F44032CA5082788A58837822F4907223
:101C300042F48072CA5082788A58837822F4007203
:101C4000CA5082788A58837842F48062CA50827877
:101C50008A58837822F4C052CA5082788A5883788E
:101C600022F4C042CA501C498278143152588078FC
:101C700022F0040242501A4800680022C0F30220F9
:101C8000114600F0BEF80146252000F0EBF82520B3
:101C900000F093F8134800904FF48050CDE9010410
:101CA0000C20CDE90340059406940F4C694620466C
:101CB000FFF796FB206920F490402061606920F0D6
:101CC0002A006061E06840F40050E0600EB010BD92
:101CD0004438024000040240006402404A220008E6
:101CE0000CED00E0A08601000010014010B58EB0A0
:101CF0001C216846FEF7AEFA182107A8FEF7AAFADB
:101D00002348016841F480210160006800F48020CC
:101D10000D900420FFF72EF84FF44060079002204A
:101D2000089003200024CDE909040720CDE90B40E9
:101D300007A91848FFF736F8174800680022C0F3D3
:101D40000220114600F05DF80146272000F08AF8D5
:101D5000272000F032F84FF4E130CDE900040C20E8
:101D60000294CDE90340059406940C4C6946204644
:101D7000FFF736FB206920F490402061606920F075
:101D80002A006061E06840F40050E0600EB010BDD1
:101D900040380240000802400CED00E000480040DE
:101DA000FEE7FEE700F01F0201219140400980009C
:101DB00000F1E020C0F80011704700F01F0201217F
:101DC00091404009800000F1E020C0F80011704708
:101DD00030B500F00703C3F10704042C00D9042434
:101DE000181D072801D2002300E0DB1E012505FA9B
:101DF00004F0401E084098409D406D1E1540284349
:101E000030BD30B500F00703C3F10704042C00D93E
:101E10000424181D072801D2002300E0DB1E012541
:101E200005FA04F0401E084098409D406D1E154084
:101E3000284330BD02480068C0F30220704700000C
:101E40000CED00E00907090E002806DA00F00F008B
:101E500000F1E02080F8141D704700F1E02080F8C8
:101E6000001470470907090E002806DA00F00F0079
:101E700000F1E02080F8141D704700F1E02080F8A8
:101E8000001470470907090E002806DA00F00F0059
:101E900000F1E02080F8141D704700F1E02080F888
:101EA000001470477047000004490968044A01F0B3
:101EB000F0010909515CC840704700000838024031
:101EC0005222000804490968044A01F4E05102EB77
:101ED00091210978C8407047083802406222000802
:101EE00004490968044A01F4604102EB5131097860
:101EF000C84070470838024062220008074800685E
:101F000010F00C01064807D0042904D0082903D199
:101F1000082000F009B80348704700000838024064
:101F20000024F400001BB70010B5104A044600203E
:101F3000116811F480030E4903D0B3F5800F00D16E
:101F40000C49082C11D1106800F03F00B1FBF0F0F3
:101F50001168C1F3881148431168012201F440312E
:101F600002EB11414900B0FBF1F010BD0438024012
:101F70000024F400001BB7007047FEF735BE0000D8
:101F8000304810B5016821F00F0141F005010160F2
:101F9000016801F00F010529FAD12B48016841F4CD
:101FA00040410160016841F48031016027480168C7
:101FB00041F4803101600168C1F340410029FAD049
:101FC0002249234A091D0B68224C23401A430A6008
:101FD0000A6822F440320A60016841F080710160B1
:101FE0000168C1F340610029FAD01848083001683F
:101FF00021F0F0010160016821F4E05141F4A051A9
:102000000160016821F4604141F400410160016810
:1020100021F0030141F002010160016801F00C01AF
:102020000829FAD10C48FEF769FF0020FEF7FEFDF3
:1020300008B172B6FEE705488C30016821F0807166
:10204000016010BD003C02400070004000380240BA
:10205000062D40000080BFFF0095BA0A05480168C0
:1020600041F47001016003494FF00060803908605D
:102070007047000088ED00E0704770477047704778
:1020800010B500F009F802496FF02000086010BD9B
:10209000001001407047000038B51F480168C1F3C7
:1020A000001100292BD00168009140681B4B009063
:1020B0009878EE2824D01B48194A817851588478A2
:1020C00021F0010111510021A3F112045D5C65545E
:1020D000491CC9B20829F9D3134B012119701049C1
:1020E0008378091D5B5884786FF30F0343F008036E
:1020F000635081785158807841F00101115038BD0A
:10210000BFF34F8F09480168094A01F4E0611143A8
:102110000160BFF34F8FFEE700100140C2000020B6
:10212000006402406A220008280000200CED00E054
:102130000400FA05FEE702E008C8121F08C1002AE1
:10214000FAD170477047002001E001C1121F002A38
:10215000FBD17047214810B51F49837814311E4ABE
:102160005B58847823F0040363501B4C8378083455
:102170001B491951184B84780C331A49E150837864
:10218000111D5B5884786FF30F0343F01203635003
:102190001349091FCB6843F02003CB60CB6843F0A1
:1021A0001003CB604B6943F040034B618178515879
:1021B000807841F0010111500B48FEF789F80B4877
:1021C000FEF786F802210848FEF7ACF8BDE810409B
:1021D00002210648FEF7A6B80064024072220008F9
:1021E00004100140C20000202C00002054000020F8
:1021F000FEF702FDFFF7AEFFFFF7C2FEFFF710FA92
:10220000FFF7E6F9FFF7D4FCFFF79EF9FFF7BEF9F9
:10221000FFF71CFAFFF706FBFFF77CFBFFF766FDF5
:10222000FFF79AFAFFF722FCFFF7ECFBFEE700004E
:10223000000004040400000800000008000008007A
:1022400000000800020406080A0C10284058708894
:10225000A0B800000000000000000102030406070F
:10226000080900000000010203041028405870888B
:10227000A0B8102840587088A0B800009C22000820
:10228000000000202C00000036210008C8220008B1
:102290002C000020AC0400004621000800000000D3
:1022A0000100000010000000000000000024F40005
:1022B000000000000000000000000000000000001E
:0822C000000000000000000016
:04000005080001AD41
:00000001FF
