:020000040800F2
:1000000088C3002081020008A9280008871300087F
:1000100009280008A5090008A13600080000000012
:10002000000000000000000000000000C101000806
:10003000110F0008000000001D020008193300081D
:100040009B0200089B0200089B0200089B0200081C
:100050009B0200089B0200089B0200089B0200080C
:100060009B0200089B0200089B0200089B020008FC
:100070009B0200089B0200089B0200089B020008EC
:100080009B0200089B0200089B0200089B020008DC
:10009000510A00089B0200089B0200089B0200080E
:1000A0009B0200083D3400089B0200089B020008E8
:1000B000493400089B020008593400089B020008DC
:1000C0009B0200089B0200089B0200089B0200089C
:1000D0009B020008A53500089B020008A93500080E
:1000E0009B0200089B0200089B0200089B0200087C
:1000F0009B0200089B0200089B0200089B0200086C
:100100009B0200089B0200086D3400089B02000857
:100110009B0200089B0200089B0200088134000833
:100120009B0200080F0F00089B0200089B020008BA
:100130009B0200089B0200089B0200089B0200082B
:100140009B0200089B0200089B0200089B0200081B
:100150009B0200089B0200089B020008AB350008C8
:100160009B0200089B0200089B0200089B020008FB
:100170009B0200089B0200089B0200080000000090
:100180009B0200089B0200089B0200089B020008DB
:100190009B0200089B0200089B0200089B020008CB
:1001A00000000000000000009B020008DFF80CD0F7
:1001B00000F0EEFA00480047B53A000888C3002076
:1001C0002C4B19680868B0E8F04F80F30988BFF33A
:1001D0006F8F4FF0000080F311887047000000001F
:1001E00008480068006880F308884FF0000080F33A
:1001F000148862B661B6BFF34F8FBFF36F8F00DF15
:1002000000BF00BF08ED00E0DFF80C00016841F41A
:1002100070010160704700BF88ED00E0EFF30980D6
:10022000BFF36F8F134B1A681EF0100F08BF20ED3D
:10023000108A20E9F04F106009B44FF0500080F3AD
:100240001188BFF34F8FBFF36F8F04F0EDFB4FF0BA
:10025000000080F3118809BC19680868B0E8F04F05
:100260001EF0100F08BFB0EC108A80F30988BFF3AE
:100270006F8F704770000020EFF30580704700001B
:100280000648804706480047FEE7FEE7FEE7FEE730
:10029000FEE7FEE7FEE7FEE7FEE7FEE721340008A3
:1002A000AD0100082DE9F05F0546002092469B460F
:1002B00088460646814640241BE02846414647467C
:1002C000224600F0AEF953465A46C01A914110D367
:1002D00011461846224600F095F92D1A67EB0108E1
:1002E0004F4622460120002100F08CF917EB00094F
:1002F0004E41201EA4F10104DFDC484631462A4667
:100300004346BDE8F09F40EA01039B0703D009E0A4
:1003100008C9121F08C0042AFAD203E011F8013BF1
:1003200000F8013B521EF9D27047D2B201E000F84A
:10033000012B491EFBD270470022F6E710B5134689
:100340000A4604461946FFF7F0FF204610BD2DE986
:10035000FE4F804681EA0300C00F0C46009021F05A
:10036000004123F00045B8EB0200A94105D2404608
:10037000214690461C460B46024623F0004010439F
:1003800047D0270DC7F30A00C3F30A510290401A61
:10039000019040286BDAC3F3130040F4801B0098EF
:1003A000924620B10023D2EB030A63EB0B0B0198BA
:1003B0005946C0F14002504600F024F906460D4669
:1003C00050465946019A00F03CF910EB0800614193
:1003D000002487EA115284EAE7731A4340D0009A56
:1003E00062B3019A012A4FEA075215DC001B61EB48
:1003F00002014FF0004202EA0752CDE90042001C20
:1004000041F5801132462B4600F073F903B0BDE888
:10041000F08F40462146F9E7001B61EB0201001C0A
:1004200041F5801300185B412018A2F5001747EB37
:10043000030140EAD570B6196D4111E06D084FEA2D
:10044000360645EAC0754FEA0752001B61EB020110
:10045000001C41F5801149084FEA30000019514154
:1004600032462B4603B0BDE8F04F00F033B9009898
:10047000012240000023D0EB020263EBE0730098FE
:1004800021464FEAE074B8EB000061EB0401E9E7B4
:1004900083F000435BE781F0004158E72DE9F04D20
:1004A00081EA030404F0004B21F0004514464FF0AC
:1004B000000A23F0004150EA050220D054EA01026C
:1004C0001DD0C5F30A570246C5F31303C1F3130049
:1004D000C1F30A5640F4801543F48013A7EB0608D5
:1004E000101BD64608F2FD3873EB050002D308F165
:1004F000010801E092185B41B8F1000F03DA002017
:100500000146BDE8F08D00204FF480110646844678
:100510000EE0171B73EB050705D3121B63EB0503F6
:1005200006434CEA010C49084FEA300092185B413F
:1005300050EA0107EDD152EA030012D082EA04002A
:1005400083EA0501084305D0101BAB4106D2012206
:10055000002306E000224FF0004302E06FF00102AA
:1005600053101AEB06004CEB085110EB0A0041EB5C
:100570000B01BDE8F04D00F0ADB800F0004230F0E6
:1005800000400AD0C10D01F56071C0F3160042EAC7
:100590000151C208400711437047002001467047CF
:1005A00001F0004330B421F0004150EA010206D0CE
:1005B0000A0DA2F56072C1F31301002A02DC30BCFF
:1005C00000207047440F44EAC104C100E01830BC69
:1005D00000EBC25000F047B830B50B460146002092
:1005E0002022012409E021FA02F59D4205D303FAF5
:1005F00002F5491B04FA02F52844151EA2F1010276
:10060000F1DC30BD202A04DB203A00FA02F10020A0
:1006100070479140C2F1200320FA03F31943904040
:100620007047202A04DB203A21FA02F000217047AB
:1006300021FA02F3D040C2F120029140084319464A
:100640007047202A06DBCB17203A41FA02F043EA32
:10065000E07306E041FA02F3D040C2F1200291407B
:100660000843194670470029A8BF7047401C49003D
:1006700008BF20F00100704710B4B0FA80FC00FA07
:100680000CF050EA010404BF10BC704749B1CCF132
:10069000200421FA04F411FA0CF118BF01212143BE
:1006A0000843A3EB0C01CB1D4FEA00614FEA102079
:1006B00042BF002010BC704700EBC350104400291B
:1006C000A4BF10BC7047401C490008BF20F00100C7
:1006D00010BC704710B5141E73F1000408DA401CFA
:1006E00041F1000192185B411A4301D120F0010051
:1006F00010BD2DE9F04D92469B4611B1B1FA81F241
:1007000002E0B0FA80F220329046FFF77BFF044609
:100710000F4640EA0A0041EA0B0153465A46084395
:1007200013D0114653EA010019D0C8F140025046D7
:10073000FFF777FF05460E46504659464246FFF7FB
:1007400061FF084305D0012004E020463946BDE89A
:10075000F08D0020054346EAE0762C4337430A98A3
:100760006305E40AA0EB08000022FD0A44EA4754AE
:100770000A3002D500200146E9E701051019694158
:10078000DDE9084500196941BDE8F04DA2E7000028
:10079000064C074D06E0E06840F0010394E80700CE
:1007A00098471034AC42F6D3FFF704FD585D0008BB
:1007B000785D000870B58C1810F8015B15F0070320
:1007C00001D110F8013B2A1106D110F8012B03E0EA
:1007D00010F8016B01F8016B5B1EF9D12B0705D4F2
:1007E0000023521E0DD401F8013BFAE710F8013B3B
:1007F000CB1A921C03E013F8015B01F8015B521E57
:10080000F9D5A142D8D3002070BD000010B503F087
:100810000FF902F095F9BDE8104001A003F00CB803
:100820000D0A416C6C207065726970686572616C4C
:1008300020696E69742E0D0A0000000070B5B0F8D2
:100840000520A2F50072013A29D0174D012A03D0E4
:10085000062A16D00A2070BDC41D102913D1201DF0
:1008600000F092FD10EE100A45F81F0F04F1080089
:1008700002F096FEA88004F10A0002F091FEE880E2
:100880000BE0072901D0002070BD50F8071F45F884
:100890002B1F8188A9808079A871012070BDBDE8D7
:1008A0007040C01D00F01AB854BF002070B5044657
:1008B000007815460E46A52801D0002070BD052100
:1008C000204602F02BFF0028F8D016B1B4F8010042
:1008D00030800DB1E0782870012070BD70B50446FD
:1008E0001B2901D0002070BD144D20782870A01D58
:1008F00002F056FEE88004F1080002F051FE288163
:1009000004F10A0002F04CFE688104F1180002F0C4
:1009100047FE2883A07E8108A87E61F38200A87626
:100920004107074803D504218161082103E04FF402
:100930008021816149008161012070BD54BF002088
:10094000001C0240F0B589B0074600208DF8140065
:1009500005AB06AA384600F0E5FA002406AE01AD64
:1009600019E000BF305D05EB440138440022FFF779
:100970009DFF70B135F81400093081B2305D384404
:1009800000F0C0FA28B1305D35F814103844FFF794
:1009900055FF641CE4B29DF814008442E2D309B010
:1009A0000120F0BDFEE7000010B503F04FFC024946
:1009B0000020486310BD0000001800401CB5002254
:1009C0000621032004F000F9174E3060FFF7ECFF1A
:1009D000C82003F093FE4FF0FF3842466946306866
:1009E00004F0C6FA012803D010A002F025FFF4E7B6
:1009F000164D0024154F2C3D11E000BFBDF802003C
:100A0000386040086863BDF8040003F077FE0020FA
:100A10006863BDF8040003F071FE641CE4B29DF845
:100A20000000A042D9D9E9E75C0000203C444542DF
:100A300055473E2042656570207461736B20657276
:100A4000726F722121210D0A0D0A00002C1800403E
:100A500000B589B002A907A8CDE9000106AB05AA37
:100A600004A9002000F01EF8049801280CD00228E8
:100A70000ED0032810D0042804D1094802A900BFD1
:100A800000F012F909B000BD054802A91838F7E7CF
:100A9000034802A91038F3E7014802A90838EFE734
:100AA0004CBF0020F0B5214CDDE9055604EB0014E5
:100AB000D4F8B07507F004071770D4F8B025520DBC
:100AC0000A60D4F8B01501F002011970D4F8B41519
:100AD00001F00F012970D4F8B8153170D4F8B815A9
:100AE000090A7170D4F8B815090CB170D4F8B815AA
:100AF000090EF170D4F8BC153171D4F8BC15090A8F
:100B00007171D4F8BC15090CB171D4F8BC15090E7B
:100B1000F17138B1012804D10548016841F0200184
:100B20000160F0BD0248001FF7E7000000600040D0
:100B300010640040174928B1012810D002281BD0AA
:100B400005207047086800F001020868096800F095
:100B50000200104301F0806140EA116070470868AC
:100B600000F001020868096800F00200104301F07B
:100B7000006140EA51607047086800F001020868AF
:100B8000096800F00200104301F0805140EA9160D2
:100B9000704700000864004010B504462DED068B38
:100BA000B7EE008A90ED030AD0ED040A30EE600A39
:100BB00080ED050A90F82000D4ED070A90B194ED7D
:100BC000099AF0EEC08AF4EEC98AF1EE10FA02DD5D
:100BD0009FED348A2DE094ED0A1AF4EEC18AF1EE0D
:100BE00010FA04D230EE800A84ED070A21E030EEDC
:100BF000800A84ED070A39EE410A10EE100AFFF769
:100C0000BCFC41EC1A0B18EE900AFFF7B6FC41EC65
:100C1000180B19EE100AFFF7B0FC53EC182BFFF776
:100C200037FC53EC1A2BFFF739FCFFF7B9FC08EE41
:100C3000100A94ED0B1A94ED070AF1EE410A01F047
:100C400064FF84ED070A94ED001AD4ED050A21EE45
:100C5000201A84ED0D1AD4ED011A21EE800A20EE3F
:100C6000080A84ED0E0AD4ED061A31EE000A70EE81
:100C7000E10AD4ED021A60EEA10AC4ED0F0A30EECB
:100C8000200A84ED100A94ED0C1AF1EE410A01F0ED
:100C90003CFF84ED100A94ED050A84ED060ABDECD4
:100CA000068B10BD000000000A8852BA02804A88F4
:100CB00052BA42808A8852BA82808979817170479B
:100CC0003CB50A880024120A8DF800200A788DF8B5
:100CD00001204A88120A8DF802208A788DF80320B4
:100CE0008A88120A8DF804200A798DF80520CA88AE
:100CF000120A8DF8062089798DF807106A460821B6
:100D000001F086FD054640F6FF7301E0641CA4B2C5
:100D10002846FFF70FFF072801D09C42F6D39C42DC
:100D200001D301203CBD00203CBD0000002425462D
:100D300000F04EF9704F786000F04EF9B860C820AE
:100D400003F0DCFC6D4E06F1080A06F10C09B868E8
:100D50000078012802D002287ED0A3E07868B0F99C
:100D60001620B0F91810B0F91A0002EB010800EED5
:100D7000108AF8EEC00A00EE100AB8EEC01A9FED15
:100D8000600A41EE000AFDEEE00A10EE903A0FFA1A
:100D900083FC531A00EE903A891AC8F10002B8EEAB
:100DA000E01A00EE900AF8EEE00A00EE801AFDEE7E
:100DB000C10A10EE903A00EE901A1BB2B8EEE01A9B
:100DC00000EE900AF8EEE00A00EE801AFDEEC10A8D
:100DD00010EE901A00EE902A09B2B8EEE01A00EE7A
:100DE000900AF8EEE00A00EE801ABDEEC10A10EE9D
:100DF000100A00EE10CA00B2F8EEC00A97ED000A21
:100E000060EE800AFDEEE00A10EE902A00EE903AC5
:100E100062F30F04F8EEE00A60EE800AFDEEE00AED
:100E200010EE902A00EE901A62F31F44F8EEE00AEA
:100E300060EE800AFDEEE00A10EE901A00EE900AD5
:100E400061F30F05F8EEE00A20EE800ABDEEC00A5D
:100E500010EE100A24E0FFE778688288C1880088D5
:100E600002EB0108531A891A08EB000C0CEB4C0238
:100E7000034402EBCC0262F30F0403EB4302014490
:100E800002EBC30262F31F4401EB410202EBC1011A
:100E9000A0EB080061F30F0500EB400101EBC0007F
:100EA00060F31F4522B23221144801F093FF22144F
:100EB0003221301D01F08EFF2AB23221504601F05E
:100EC00089FF2A143221484601F084FF96ED030A77
:100ED000F8EEC01A96ED020AB8EEC01A96ED010AB5
:100EE000F8EEC00A96ED000AB8EEC00A02F02CF93E
:100EF000052003F003FC2AE76000002040040020E6
:100F00000000803D10B502F0EBFBC0B210BD704791
:100F100070470000024901EB001001F076BC0000B0
:100F20000403002030B500241C7009E0055DA52DE8
:100F300004D11D7854551D786D1C1D70641CA4B21D
:100F40008C42F3D330BD000010B558B1084C491E97
:100F50000BD310F8013B5340DBB234F8133083EA73
:100F60001222F4E74FF6FF7010BD104610BD0000CE
:100F7000585B000810B5054C04E000BF10F8013BB9
:100F80005340E25C491EF9D2104610BD585A000881
:100F90000048704784020020064905488978405877
:100FA00010F4002F01D0002070470120704700008E
:100FB00000640240505A000818B1012803D00020F4
:100FC0007047024870470148243070473C020020B7
:100FD000004870470404002000487047400000208B
:100FE0000248816802781144816070470000002047
:100FF0000B4810B5016841F400710160016841F4CB
:1010000080610160016841F480710160032000F09B
:1010100087F8002000F006F800F03EF8002010BD30
:10102000003C024010B5014688B00022192000F0B3
:1010300057F8192000F048F813480024016841F0DF
:1010400001010160006805A900F0010006906846F2
:1010500000F078F800F096F80C494000B0FBF1F190
:101060000C480B4A491E026040F2E732C0E90324F3
:10107000C0E9011400F098F810B1012008B010BDCB
:10108000044800F0ADF8F9E74438024040420F0050
:1010900000000140FC0100200A4808B5016841F445
:1010A00080410160006800F4804000900548001F06
:1010B000016841F080510160006800F080500090AC
:1010C00008BD00004438024000F01F020121914099
:1010D0004009800000F1E020C0F8001170470000D6
:1010E000F0B40E4B1B680C46C3F30223C3F1070593
:1010F000042D00D90425191D072901D2002300E081
:10110000DB1E012606FA05F1491E214099409E404A
:10111000761E16403143F0BC01F06CBC0CED00E0D3
:10112000064900F0070208684FF6FF03184040EA3E
:101130000220034A10430860704700000CED00E0F5
:101140000000FA050F2202600C4A136803F0030343
:101150004360136803F0F0038360136803F4E05303
:10116000C36012684FF4E05303EAD20202610448FC
:10117000006800F00F000860704700000838024067
:10118000003C02400448054900680968044AC1F36C
:101190004231515CC84070470C00002008380240C2
:1011A000485A00087047704710B5040003D094F8FF
:1011B0003D0010B107E0012010BD002084F83C0084
:1011C000204600F00CF8022084F83D00211D206824
:1011D00002F082F9012084F83D00002010BD704724
:1011E0000168CA6842F00102CA600068816801F0C3
:1011F0000701062903D0016841F0010101600020C8
:101200007047704770B50446006801694FF00005EB
:10121000C943890715D4C168C943890711D4E91E98
:10122000016101202077206880698007204602D074
:10123000FFF7E7FF04E000F098F8204600F096F88A
:10124000257720680169C943490717D4C168C94394
:10125000490713D46FF00401016102202077206850
:10126000806910F4407F204602D0FFF7CAFF04E0F7
:1012700000F07BF8204600F079F8257720680169B6
:10128000C943090716D4C168C943090712D46FF0CE
:1012900008010161042020772068C069800720468A
:1012A00002D0FFF7AEFF04E000F05FF8204600F048
:1012B0005DF8257720680169C943C90617D4C1685C
:1012C000C943C90613D46FF01001016108202077CB
:1012D0002068C06910F4407F204602D0FFF791FFDC
:1012E00004E000F042F8204600F040F8257720683E
:1012F0000169C943C90708D1C168C943C90704D1F5
:10130000891E0161204600F033F820680169C94355
:10131000090609D4C168C943090605D46FF08001E4
:1013200001612046FFF73EFF20680169C943490675
:1013300009D4C168C943490605D46FF04001016171
:10134000204600F01FF820680169C94389060BD4C4
:10135000C168C943890607D46FF0200101612046A6
:10136000BDE87040FFF71FBF70BD704770470000B9
:1013700000680349884201D1FFF732BE7047000080
:10138000000001407047FEE708B500216A46435C53
:101390005354491C0429FAD39DED000A08BD90421C
:1013A00001DD104670478842FCDA084670470000AD
:1013B000FFF7EEFD134CA06003F01AF8C82003F00D
:1013C0009DF94FF48046104DDFF840803704AF613F
:1013D000C82003F093F9AE61C82003F08FF9B8F983
:1013E00000100BA002F028FA0B482268A168FEF753
:1013F0008AFF0520FFF78EFD208881B20648FFF79F
:10140000A1FAE4E72C000020001402402000002094
:1014100025640D0A0000000084030020044908B57B
:101420000A6802430A6009680140009108BD000093
:1014300030380240044908B50A6802430A60096866
:101440000140009108BD000030380240044908B551
:101450000A6802430A6009680140009108BD000063
:1014600030380240044908B50A6802430A60096836
:101470000140009108BD000040380240044908B511
:101480000A6802430A6009680140009108BD000033
:1014900044380240034A1430515C0A5822F00402D6
:1014A0000A507047305A0008034A515C425822F0F3
:1014B0000102425070470000505A0008034A515C34
:1014C000425842F00102425070470000505A000852
:1014D000024A001D515C085880B27047505A0008FB
:1014E000034B595C435823F06063134343507047E8
:1014F000305A0008034B595C435823F4002313432C
:1015000043507047505A0008044B001D595C0B585B
:101510006FF30F0313430B5070470000505A00083D
:10152000034B595C435823F0C003134343507047A7
:10153000305A0008034B595C435823F4806313432B
:1015400043507047305A0008034B595C435823F40A
:10155000C043134343507047305A0008034B595C53
:10156000435823F49073134343507047305A000894
:10157000034B595C435823F40073134343507047A3
:10158000305A0008034B595C435823F4C0531343AB
:1015900043507047305A0008034B595C435823F4BA
:1015A0004033134343507047305A0008F0B50A687F
:1015B0000F2692FAA2F2B2FA82F303248AE00127FC
:1015C0009F4015EA07027DD04D68012D01D0022D04
:1015D0001BD18D68876892FAA2FCBCFA8CFC4FEA9A
:1015E0004C0C04FA0CFC27EA0C0792FAA2FCBCFA99
:1015F0008CFC4FEA4C0C05FA0CF52F438760CD6844
:101600004768554397432F4347600F69D0F80CC094
:1016100092FAA2F5B5FA85F54FEA450E04FA0EF5F1
:101620002CEA050C92FAA2F5B5FA85F56D00AF40EB
:101630004CEA070CC0F80CC04D68022D33D192FA69
:10164000A2F5B5FA85F5082D15D2D1F814C0056AB2
:1016500092FAA2F7B7FA87F7BF0006FA07F7BD4379
:1016600092FAA2F7B7FA87F7BF000CFA07FC45EA2F
:101670000C05056217E0D1F814E0476A150A95FADF
:10168000A5FCBCFA8CFC4FEA8C0C06FA0CFC95FA13
:10169000A5F5B5FA85F5AD0027EA0C070EFA05FEAB
:1016A00047EA0E0747624D68076892FAA2FCBCFA47
:1016B0008CFC4FEA4C0C04FA0CFE27EA0E0792FA57
:1016C000A2F200E005E0B2FA82F2520095402F4308
:1016D00007605B1C0A681546DA407FF470AF002093
:1016E000F0BD30B5036A91FAA1F4B4FA84F4A50010
:1016F0000F24AC4091FAA1F1B1FA81F18900A34322
:101700008A401343036230BD30B5436A090A91FA37
:10171000A1F4B4FA84F4A5000F24AC4091FAA1F12D
:10172000B1FA81F18900A3438A401343436230BD7B
:1017300010B5044601F010FB206001F0E3FA606090
:1017400001F0EEFAA060606801F0F8FAE06010BD08
:1017500001490860704700000C0000200A7B8B687C
:101760001A434B6822F480621A430B6822F4006229
:101770001A43CB8922F480521A430B6922F4005297
:101780001A434B6922F480421A4322F40041194360
:10179000416400207047000010B501291CD00429C5
:1017A0001CD010291CD040291CD0B1F5807F1BD043
:1017B000B1F5806F1AD006210D4B18305B5C1844D0
:1017C00003680B4C0E34615C03248C40120CA34361
:1017D0008A401343036010BD0021EDE70121EBE7D0
:1017E0000221E9E70321E7E70421E5E70521E3E733
:1017F000145A000810B501291CD004291CD0102946
:101800001CD040291CD0B1F5807F1BD0B1F5806F72
:101810001AD006210D4B18305B5C184403680B4C42
:101820000E34615CF0248C40120CA3438A401343B5
:10183000036010BD0021EDE70121EBE70221E9E79C
:101840000321E7E70421E5E70521E3E7145A00084F
:1018500010B5012916D0042916D0102916D0402918
:1018600016D0B1F5807F15D0B1F5806F14D0062366
:10187000016A0A4CE35C0A249C40A1439A4011434C
:10188000016210BD0023F3E70123F1E70223EFE734
:101890000323EDE70423EBE70523E9E7295A0008D2
:1018A00010B501291CD004291CD010291CD04029B6
:1018B0001CD0B1F5807F1BD0B1F5806F1AD0062106
:1018C0000D4B18305B5C184403680B4C0E34615CA4
:1018D0000C248C40120CA3438A401343036010BDB8
:1018E0000021EDE70121EBE70221E9E70321E7E72A
:1018F0000421E5E70521E3E7145A0008F0B5026882
:10190000254B264D264E274F274C4FF0804C9842B2
:1019100009D0604507D0A84205D0B04203D0B842F4
:1019200001D0A04205D1D1F804E022F0700242EAD1
:101930000E0298421BD0604519D0A84217D0B04281
:1019400015D0B84213D0A04211D0184DA8420ED0E5
:10195000174DA8420BD0174DA84208D0164DA842EB
:1019600005D0164DA84202D0154DA84203D1CD682E
:1019700022F440722A4302608A68C2620A88826244
:10198000984201D0A04201D1097C0163416941F034
:10199000010141610020F0BD000001400004004051
:1019A00000080040000C00400004014000400140DD
:1019B000004401400048014000180040001C004065
:1019C00000200040012919D0042919D0102919D06C
:1019D000402919D0B1F5807F18D0B1F5806F17D0AC
:1019E00006210C4A1830525C10440268094BDB1D7A
:1019F0005B5C042199408A43026070470021F0E754
:101A00000121EEE70221ECE70321EAE70421E8E700
:101A10000521E6E7145A0008012919D0042919D034
:101A2000102919D0402919D0B1F5807F18D0B1F50F
:101A3000806F17D006210C4A1830525C104402689F
:101A4000094BDB1D5B5C082199400A43026070472B
:101A50000021F0E70121EEE70221ECE70321EAE7AC
:101A60000421E8E70521E6E7145A0008F0B501264D
:101A700000236E4C6E4D012908D010293BD0B1F5E2
:101A8000807F73D0B1F5805F6ED1A6E0016A21F04E
:101A900001010162016A46688769D2F800C027F037
:101AA000730747EA0C07D2F810C021F0020141EA9F
:101AB0000C01D2F804C021F0010141EA0C01A0425E
:101AC00001D0A84212D1546921F0080141EA8401F1
:101AD000946821F0040141EA8401956926F4807438
:101AE0002C43D56924F4007444EA450646608761B6
:101AF000D26842636FE0016A21F010010162066A58
:101B000041688769D2F800C027F4E64747EA0C2706
:101B1000D2F810C026F0200646EA0C16D2F804C00F
:101B200026F0100646EA0C16A04201D0A84213D1B6
:101B3000556926F0800444EA8514956824F0400431
:101B400044EA8516946921F4806141EA8401D469EC
:101B500021F4006141EAC40141608761D168816379
:101B600061E003E000E01E463046F0BD016A21F46A
:101B700080710162016A4668C769D2F800C027F027
:101B8000730747EA0C07D2F810C021F4007141EA4C
:101B90000C21D2F804C021F4807141EA0C21A0424A
:101BA00001D0A84213D1546921F4006141EA842193
:101BB000946821F4806141EA8421956926F4805477
:101BC00044EA0514D56924F4005444EA45164660F5
:101BD000C761D268C2630162C5E7016A21F480511E
:101BE0000162066A4168C769D2F800C027F4E64777
:101BF00047EA0C27D2F810C026F4005646EA0C3605
:101C0000D2F804C026F4805646EA0C36A04201D031
:101C1000A84204D1946921F4804141EA84114160D1
:101C2000C761D168016406629DE7000000000140C1
:101C3000000401407FB50446C0680D460126C0F38C
:101C40004030E8BBE9686868AA690843296911431C
:101C50000843E16849F20C6291430843E060A868D8
:101C6000216921F44051014321616869616921F4CE
:101C70004071014361616846FFF75AFD1348844291
:101C800008D01348844213D01248844210D012481E
:101C9000844201D103990CE01048844208D01048D6
:101CA000844205D00F48844202D00F4884420AD1B2
:101CB000029929B12B681BB100262046AA6900E0D1
:101CC00001E000F013F804B0304670BD0010014090
:101CD000004400400048004000140140004C004017
:101CE0000050004000780040007C00402DE9F041A9
:101CF00006461920A1FB00011F460023642432255B
:101D0000B2F5004F27D0BB0FBA00FEF7CBFA014661
:101D1000B0FBF4F06FF01802504301EB800005EBCC
:101D20000010B0FBF4F000F0F002B1FBF4F002EBB5
:101D30000012B1FBF4F06FF01803584301EB800080
:101D400005EB0010B0FBF4F000F00F00104480B27F
:101D5000B060BDE8F081FA195B41FEF7A3FA0146D5
:101D6000B0FBF4F00201B1FBF4F06FF0180358433C
:101D700001EB800005EBC000B0FBF4F000F0F800D0
:101D800002EB4002B1FBF4F0584301EB800005EB9D
:101D9000C000B0FBF4F000F00700D7E708B54FF043
:101DA000E0210A690092421C00D0401C0A69D2035B
:101DB00000D5401E0028F9D108BD00002DE9F041F2
:101DC0000E4F00244FF4807626FA04F5BD611E20E4
:101DD000FFF7E4FF641CE4B2082CF5D308494FF484
:101DE000006088611E20FFF7D9FF06494FF480404C
:101DF0008861BDE8F0411E20FFF7D0BF0018024007
:101E0000001002400014024005494FF480408861F0
:101E1000C110044881614FF4FF7181617047000077
:101E2000001402400010024038B51448016841F423
:101E3000800101600068124C00F48000009020686E
:101E40000022C0F30220062100F050FD0146392097
:101E500000F0A0FD392000F028FD20680022C0F32A
:101E60000220062100F042FD01463A2000F092FDDA
:101E7000BDE838403A2000F018BD0000303802407C
:101E80000CED00E02DE9F04F87B018216846FEF711
:101E900053FA4020FFF7C2FA0120FFF7BFFA0220F1
:101EA000FFF7BCFA4FF48070FFF7B8FA8020FFF715
:101EB000B5FA2020FFF7B2FA0820FFF7AFFA10209A
:101EC000FFF7ACFA20484FF4701181611F4F4FF0BB
:101ED000FF714FF4FF7AB961DFF874804FF08842E8
:101EE0004FF4884BC8F81820DFF868904FF0006274
:101EF000C9F818203C210124032500268DE8720032
:101F000069460494FFF752FB01A9CDF800A081E8CF
:101F10007000694638460494FFF748FB01A9CDF8E4
:101F200000B081E87000694640460494FFF73EFB2C
:101F3000E0028DE87100694648460494FFF736FBDD
:101F400007B0BDE8F08F0000001C024000180240FE
:101F5000001402400010024030B593B014210EA8C6
:101F6000FEF7EAF920216846FEF7E6F9182108A8ED
:101F7000FEF7E2F94020FFF775FA5920ADF8380076
:101F8000002440F2E730CDE90F40184D0EA9284655
:101F90001194FFF7B3FC286820F08000286001212D
:101FA0002846FFF739FD6020CDE900040294039430
:101FB0006A46012128460494FFF758FD012128466E
:101FC000FFF700FD8020FFF735FA4020089009AAAE
:101FD0000220032182E813000C9009200D9008A92B
:101FE0000348FFF7E3FA13B030BD000000180040CB
:101FF000001C024070B58CB0142106A8FEF79CF9B5
:1020000018216846FEF798F90120FFF72BFA012006
:10201000FFF710FA03200221CDE900010290012010
:102020000025CDE90305059069462C48FFF7BEFA67
:1020300000F0A8FC0022062100F071FC01461C20E3
:1020400000F0B8FC1C2000F03BFC4FF08044A0687E
:1020500020F0070040F00200A060A61332460121E4
:102060002046FFF799FB002201212046FFF718FCCC
:10207000002201212046FFF7BDFB0022012120465E
:10208000FFF7E6FB324610212046FFF785FB0022D2
:1020900010212046FFF704FC002210212046FFF704
:1020A000A9FB002210212046FFF7D2FBADF8185003
:1020B000701ECDE9075006A920460995FFF71EFCC2
:1020C000206820F080002060606820F07000606070
:1020D000A06820F08000A0600CB070BD000002403D
:1020E00070B594B014210EA8FEF726F92021684699
:1020F000FEF722F9182108A8FEF71EF90220FFF7C3
:10210000B1F91120ADF83800002440F2F310CDE908
:102110000F40244D0EA928461194FFF7EFFB2868C5
:1021200040F080002860AE1531462846FFF774FC69
:102130006020CDE90004029403946A4631462846A3
:102140000494FFF793FC31462846FFF73BFCAE149E
:1021500031462846FFF760FC01946A46314628461E
:102160000294FFF783FC31462846FFF72BFC686892
:1021700020F070006860A86820F08000A86002204D
:10218000FFF758F90320CDE90A040221CDE908013F
:102190000120CDE90C0108A90348FFF707FA14B0A4
:1021A00070BD0000000400400004024070B58CB017
:1021B000142106A8FEF7C0F818216846FEF7BCF8FF
:1021C0000420FFF74FF90820FFF734F94FF440508F
:1021D000009002200321CDE9010105900121002595
:1021E000CDE9031569462C48FFF7E0F900F0CAFB7A
:1021F0000022062100F093FB01461E2000F0DAFBCE
:102200001E2000F05DFB254CA06820F0070040F088
:102210000200A060A613324601212046FFF7BCFA57
:10222000002201212046FFF73BFB0022012120462E
:10223000FFF7E0FA002201212046FFF709FB3246B2
:1022400010212046FFF7A8FA002210212046FFF7B0
:1022500027FB002210212046FFF7CCFA0022102194
:102260002046FFF7F5FAADF81850701ECDE907507B
:1022700006A920460995FFF741FB206820F0800061
:102280002060606820F070006060A06820F080002E
:10229000A0600CB070BD0000000C024000080040BF
:1022A00070B58CB0142106A8FEF746F818216846D0
:1022B000FEF742F80820FFF7D5F88020FFF7BAF8BC
:1022C0004FF44060009002200321CDE90101059008
:1022D00001210025CDE9031569462C48FFF766F971
:1022E00000F050FB0022062100F019FB01463220CD
:1022F00000F060FB322000F0E3FA254CA06820F0EB
:10230000070040F00200A060A613324601212046DB
:10231000FFF742FA002201212046FFF7C1FA00220E
:1023200001212046FFF766FA002201212046FFF72F
:102330008FFA324610212046FFF72EFA0022102194
:102340002046FFF7ADFA002210212046FFF752FA8F
:10235000002210212046FFF77BFAADF81850701EBE
:10236000CDE9075006A920460995FFF7C7FA20686E
:1023700020F080002060606820F070006060A0683D
:1023800020F08000A0600CB070BD0000001C024076
:10239000000C004010B586B014216846FDF7CCFF54
:1023A0002020FFF75FF800F0EDFA0022062100F090
:1023B000B6FA0146372000F0FDFA372000F080FA27
:1023C0005920ADF800000020019044F61F600A4C2F
:1023D000029069462046FFF791FA206820F08000BD
:1023E0002060606820F070006060A06820F08000CD
:1023F000A06006B010BD000000140040F0B59BB016
:10240000142114A8FDF798FF20216846FDF794FFDA
:10241000182108A8FDF790FF18210EA8FDF78CFFE2
:102420004548016841F0020101600068002400F0A5
:1024300002001990B320ADF8500044F61F60CDE9BA
:1024400015403E4D17948DF8604014A92846FFF7BB
:1024500055FA286840F08000286001212846FFF7DF
:10246000DBFA6020CDE900040294039404940594FF
:1024700006946A46012128460794FFF7F7FA0121DE
:102480002846FFF79FFA10212846FFF7C5FA019466
:102490006A46102128460294FFF7E8FA10212846E0
:1024A000FFF790FAAE1531462846FFF7B5FA0194CA
:1024B0006A46314628460294FFF7D8FA3146284644
:1024C000FFF780FAAF1439462846FFF7A5FA0194C2
:1024D0006A46394628460294FFF7C8FA3946284624
:1024E000FFF770FA686820F070006860A86820F054
:1024F0008000A86008946814CDE90C048DF82C4085
:1025000009940A94ADF82E4008A92846FFF726F949
:102510003046FEF78FFFE4200E9002200F9003203C
:102520000121CDE91210CDE910040EA90448FFF7EE
:102530003DF81BB0F0BD00004438024000040140EB
:102540000020024030B58DB01C216846FDF7F4FE36
:10255000182107A8FDF7F0FE1020FEF78FFF0220DC
:10256000FEF774FFC020079002200890032000248B
:10257000CDE9090401200B9007200C9007A92E48F3
:10258000FFF714F82D4D4FF0006202212846FEF7A8
:10259000A7FF002202212846FEF7C2FF00220221E7
:1025A0002846FEF7F9FFAA1502212846FEF7D6FFB6
:1025B000002202212846FEF7DBFF2A1502212846C9
:1025C000FEF7B8FF002202212846FEF7DBFF0022BB
:1025D00002212846FEF7B8FF02212846FEF75AFFDF
:1025E000174800680022C0F30220062100F0B0F96D
:1025F0000146252000F0EEF9252000F06CF9114885
:102600000090A814CDE901040C20CDE90340059405
:1026100006940D4C69462046FFF70CFB206920F418
:1026200090402061606920F02A006061E06840F419
:102630000050E0600DB030BD000402400064024074
:102640000CED00E0A08601000010014010B58EB036
:102650001C216846FDF770FE182107A8FDF76CFEE7
:102660002348016841F480210160006800F4802063
:102670000D900820FEF7EAFE4FF44070079002200C
:1026800000240890CDE9090401200B9007200C904C
:1026900007A91848FEF78AFF174800680022C0F310
:1026A0000220062100F054F90146272000F092F99B
:1026B000272000F010F94FF4E130CDE900040C20A0
:1026C0000294CDE90340059406940C4C69462046DB
:1026D000FFF7B0FA206920F490402061606920F093
:1026E0002A006061E06840F40050E0600EB010BD68
:1026F00040380240000C02400CED00E00048004071
:1027000030B58DB01C216846FDF716FE182107A8CC
:10271000FDF712FE2020FEF7B1FE4020FEF796FEE8
:102720004FF4844007900220089003200024CDE954
:10273000090401200B9008200C9007A92E48FEF7F1
:1027400035FF2E4D4FF0206201212846FEF7C8FECE
:10275000002201212846FEF7E3FE0022012128463F
:10276000FEF71AFF002201212846FEF7F7FE00229D
:1027700001212846FEF7FCFE2A1501212846FEF716
:10278000D9FE002201212846FEF7FCFE002201218D
:102790002846FEF7D9FE01212846FEF77BFE1848A1
:1027A00000680022C0F30220062100F0D1F80146A3
:1027B000472000F00FF9472000F08DF84FF4E1308A
:1027C000CDE900040C200294CDE903400594069461
:1027D0000C4C69462046FFF72DFA206920F4904002
:1027E0002061606920F02A006061E06840F40050D8
:1027F000E0600DB030BD00000018024000640240EF
:102800000CED00E000140140FEE7418801807047B4
:1028100070B5234B044600201D686D0108D418686C
:10282000000101D5012003E01868C00036D5022060
:102830001C4B002503EB0013C3F88055D3F88055DB
:1028400045EA4455C3F88055D3F88045C3F8804520
:10285000D3F88045C3F88045D3F8844501F00F01D3
:1028600024F00F04C3F88445D3F884450C43C3F81F
:1028700084451179D2F8054041EA0421C3F88C154A
:102880001178D2F8012041EA0221C3F88815D3F863
:10289000801541F00101C3F8801570BDFF2070BDA7
:1028A0000864004000600040FEE700F01F020121C4
:1028B00091404009800000F1E020C0F8001170470D
:1028C00000F01F02012191404009800000F1E0204A
:1028D000C0F80011704700F01F020121914040092B
:1028E000800000F1E020C0F80011704730B500F022
:1028F0000703C3F10704042C00D90424181D07287A
:1029000001D2002300E0DB1E012505FA04F0401E81
:10291000084098409D406D1E1540284330BD30B59D
:1029200000F00703C3F10704042C00D90424181D88
:10293000072801D2002300E0DB1E012505FA04F080
:10294000401E084098409D406D1E1540284330BDF4
:1029500030B500F00703C3F10704042C00D90424A8
:10296000181D072801D2002300E0DB1E012505FA0F
:1029700004F0401E084098409D406D1E15402843BD
:1029800030BD000002480068C0F30220704700001C
:102990000CED00E00907090E002806DA00F00F0030
:1029A00000F1E02080F8141D704700F1E02080F86D
:1029B000001470470907090E002806DA00F00F001E
:1029C00000F1E02080F8141D704700F1E02080F84D
:1029D000001470470907090E002806DA00F00F00FE
:1029E00000F1E02080F8141D704700F1E02080F82D
:1029F000001470470907090E002806DA00F00F00DE
:102A000000F1E02080F8141D704700F1E02080F80C
:102A1000001470471CB50246002104480091019142
:102A20000323406802F08AFC1CBD00002C0000203B
:102A30002DE9F0410C460178427841EA0221C1F3C8
:102A40000A01218042788378D20842EA4312C2F315
:102A50000A0262808378C5789B0943EA8503057979
:102A600043EA8523C3F30A03A380057946796D08F9
:102A700045EAC615C5F30A05E5804679C6F3011691
:102A8000A6724679B609E6728679C77946EA0726BC
:102A9000A681067A477A46EA0726E681867AC77AC9
:102AA00046EA07262682067BA674467BE674867B6A
:102AB000C77B46EA0726A682067C407CA1F580619A
:102AC0002180A2F580626280A3F5806346EA00203F
:102AD000A380A5F58065E580A0F580602081204673
:102AE00000F02FFE4FF496656E42B4F90C002A46B2
:102AF0003146FEF754FCA081B4F90E002A46314657
:102B0000FEF74DFCE081BDE8F081B4EEE00AF1EEA5
:102B100010FA02D2B0EE600A7047B4EEC10AF1EECC
:102B200010FAF9DDB0EE410A704710B580ED030AE6
:102B30000446C0ED040AFEF72FF894ED100A10BD0C
:102B400004480421816108218161102181612021D3
:102B500081617047001C024010B50EA000F06CFEB1
:102B60000DA000F069FE18A000F066FE22A000F0A3
:102B700063FE2DA000F060FE37A000F05DFE43A0D4
:102B800000F05AFE4EA000F057FEBDE8104001A034
:102B900000F052BE0D0A000020202020202020201E
:102BA0002A3D3D3D2A2020202A3D3D3D2A2020204F
:102BB000202A3D3D3D2A20202020202020202020AA
:102BC0002A3D3D3D2A0D0A00202020202020202FD4
:102BD0002020202F2020202F2020202F20202020C8
:102BE0002F2020202F202020202020202020202FB8
:102BF0002020202F0D0A00002020202020202F2020
:102C000020202A3D3D3D2A2020202F202020202F3B
:102C10002020202F202020202020202020202F2096
:102C200020202F0D0A00000020202020202F20200F
:102C30002020202020202020202F202020202F2076
:102C400020202F202020202020202020202F202066
:102C5000202F0D0A00000000202020202F202020FF
:102C60002A3D3D3D2A2020202F202020202F2020DB
:102C7000202A3D3D3D3D3D3D2A2020202F20202083
:102C80002A3D3D3D3D3D3D2A0D0A00002020202FDC
:102C90002020202F2020202F2020202F2020202007
:102CA0002F202020202020202020202F2020202FF7
:102CB000202020202020202020202F0D0A0000008E
:102CC00020202A3D3D3D2A2020202A3D3D3D2A202E
:102CD0002020202A3D3D3D3D3D3D3D3D3D3D2A20BE
:102CE00020202A3D3D3D3D3D3D3D3D3D3D2A0D0AD7
:102CF0000000000002494FF48060886170470000C6
:102D0000001C024004490968044A01F0F001090965
:102D1000515CC8407047000008380240385A00082B
:102D200004490968044A01F4E05102EB9121097851
:102D3000C840704708380240485A000804490968EA
:102D4000044A01F4604102EB51310978C8407047F0
:102D500008380240485A00080748006810F00C0183
:102D6000064807D0042904D0082903D1082000F020
:102D700009B8034870470000083802400024F400F6
:102D8000001BB70010B5104A04460020116811F46A
:102D900080030E4903D0B3F5800F00D10C49082CF5
:102DA00011D1106800F03F00B1FBF0F01168C1F3E1
:102DB000881148431168012201F4403102EB1141AE
:102DC0004900B0FBF1F010BD043802400024F400CB
:102DD000001BB7000368934205DA19440160914271
:102DE00000DD02607047FCDD591A01609142F8DB9A
:102DF00070478A8A82828A7C8274CA7CC2748A8979
:102E00008281CA89C2810A8A02820A8802804A882B
:102E100042808A888280CA88C2800A8902818A7A2E
:102E20008272C97AC1727047002181828174C17433
:102E30008181C1810182018041808180C1800181C5
:102E400003218172C172704708B50848694640681D
:102E500002F026F80098002807D005494FF080506E
:102E60000860BFF34F8FBFF36F8F08BD380000209D
:102E700004ED00E0B0F900204FF4A56102F52572E1
:102E80008A4201D901207047B0F9022002F525726B
:102E90008A4201D902207047B0F9042002F5257258
:102EA0008A4201D903207047B0F9062002F5257245
:102EB0008A4201D904207047817A012905D002296C
:102EC00003D0032901D005207047C07A012805D01E
:102ED000022803D0032801D0062070470020704745
:102EE00003220021012001F06FFE2E4C60600020C3
:102EF000FEF762F804F1100528600120FEF75CF887
:102F000068602948FFF790FF27481E30FFF78CFFC5
:102F100004F1080002210170012141708170C1702B
:102F2000017101F023FAC82001F0E8FB4FF4FA76B2
:102F30003146606802F0C4F801280AD01A48FFF749
:102F400073FF19481E30FFF76FFF052001F0D6FB15
:102F5000EEE7FEF721F8207055F820001249FFF740
:102F600067FD1148B0F9021010A000F065FC0E4892
:102F7000FFF780FF50B10C490B481E31FFF739FFB6
:102F800000F090FB64210BA000F056FC0020FDF740
:102F9000C1FF00F019F8044901F11E00FFF729FFF5
:102FA000D3E70000380000200404002025640D0A47
:102FB000000000003C4552524F523E206572726F35
:102FC000723A25640D0A00002DE9F047534E0125A1
:102FD000534CF07A4FF002084FF47A79A6F11E07AD
:102FE000032815D1F87A022809D1404684F80180D7
:102FF0003722494600F096F8F07A032808D1F87A8B
:1030000001281DD1032060703722494600F08AF85C
:10301000F07A012808D1F87A022811D12846657083
:103020003722494600F07EF8F07A022808D1F87A73
:10303000032805D1284665703722494600F072F80A
:10304000B07A032809D1B87A012812D1404684F811
:1030500003803722494600F065F8B07A012808D18C
:10306000B87A032805D12846E5703722494600F092
:1030700059F8F07ADFF8A8904FF4966AA9F1080998
:10308000032822D1F87A02280ED16078401CC0B201
:103090006070042800D1657060783222514600F0DB
:1030A00041F8F07A032810D1F87A01280DD189F877
:1030B0000150A078401CC0B2A070052800D1A570B6
:1030C000A0783222514600F02DF8B07A032822D1A0
:1030D000B87A012810D189F80250E078401CC0B2BB
:1030E000E070032800D1E570E0783222514600F00C
:1030F00019F8B07A03280ED1B87A02280BD12079BA
:10310000012808D1404684F804805146BDE8F047C4
:10311000322200F007B8BDE8F0870000220400204A
:10312000400000201CB50023ADF802108DF800000F
:103130000448ADF804201A466946006801F0EAFD2B
:103140001CBD00005C00002070B500202DED048B3C
:10315000B0EE618AF0EE418A2A4CB0EE609A0146E8
:1031600024F81010401C0428FADB274DB5F90200A2
:1031700000EE900A2348F8EEE00A0830FFF7D5FC8D
:10318000BDEEC00A10EE100A2080B5F9020000EE74
:10319000100A1C48F8EEC00AB0EE490A4C30FFF79E
:1031A000C4FCBDEEC00A10EE100A6080B5F9120032
:1031B00000EE100A1348F8EEC00AB0EE680A90302C
:1031C000FFF7B3FCBDEEC00A10EE100AA080B5F9FF
:1031D0001A0000EE100A0B48F8EEC00AB0EE480ADA
:1031E000D430FFF7A2FCBDEEC00A064910EE100A6B
:1031F000E0804FF40070BDEC048BBDE87040FDF73B
:103200005FBD0000DC00002034BF00201CB501F0D1
:103210005FF91C490F20CDE900014FF480740023B1
:10322000224619A11C4802F05DF81C490320CDE993
:103230000001002380221AA11C4802F053F81C4907
:103240001420CDE90001002322461AA11D4802F0F6
:1032500049F81D490920CDE90001002322461BA1A0
:103260001D4802F03FF8FEF7A9FD1CA000F0E4FAAB
:1032700022A000F0E1FA01F067F9BDE81C4000204F
:1032800001F072BA5000002072656D6F7465725F54
:103290007461736B00000000E12E000858000020EC
:1032A00062757A7A65725F7461736B00BD0900089C
:1032B0006C000020636861737369735F7461736B82
:1032C000000000002D0D0008300000206A756467C2
:1032D000655F7461736B0000B11300083C494E4692
:1032E0004F3E200D0A416C6C207461736B73206338
:1032F000726561742E0D0A0D0A0000003C494E46AD
:103300004F3E200D0A53797374656D2072756E2ED1
:103310000D0A0D0A0000000010B5502080F311883E
:10332000BFF34F8FBFF36F8F02F0E0F818B104497D
:103330004FF080500860002080F3118810BD00001D
:1033400004ED00E0304810B5016821F00F0141F0B4
:1033500005010160016801F00F010529FAD12B4830
:10336000016841F440410160016841F4803101602D
:103370002748016841F4803101600168C1F3404190
:103380000029FAD02249234A091D0B68224C234008
:103390001A430A600A6822F440320A60016841F068
:1033A000807101600168C1F340610029FAD01848BA
:1033B0000830016821F0F0010160016821F4E0515A
:1033C00041F4A0510160016821F4604141F40041E1
:1033D0000160016821F0030141F002010160016810
:1033E00001F00C010829FAD10C48FEF7B1F90020D0
:1033F000FDF718FE08B172B6FEE705488C3001688B
:1034000021F08071016010BD003C0240007000405E
:1034100000380240062D40000080BFFF0095BA0A28
:103420000548016841F47001016003494FF00060F4
:10343000803908607047000088ED00E00148FDF722
:10344000E1BE0000FC0100204FF0804001690169ED
:1034500021F001010161704703480168016821F012
:103460000101016070470000100800400348016836
:10347000016821F00101016070470000100C00405C
:1034800070B5134E306910F0010F20D000F0CAFE65
:10349000104C208000F0D0FE04F108054042288046
:1034A00000F0B8FE404201B204F110000180B4F90E
:1034B000003062681A446260B5F900306A681A44E4
:1034C0006A604268114441606FF00100306170BD74
:1034D0000014004010000020F0B50268254C264D75
:1034E000264E274F274B4FF0804CA04209D0604515
:1034F00007D0A84205D0B04203D0B84201D09842CC
:1035000004D122F0700E4A6842EA0E02A0421BD09B
:10351000604519D0A84217D0B04215D0B84213D098
:10352000984211D0184DA8420ED0184DA8420BD089
:10353000174DA84208D0174DA84205D0164DA842F5
:1035400002D0164DA84203D122F44075CA682A431E
:103550004D6922F080022A4302608A68C2620A68CA
:103560008262A04201D0984201D109690163012120
:103570004161F0BD0000014000040040000800402F
:10358000000C0040000401400040014000440140A4
:103590000048014000180040001C0040002000408E
:1035A0000088704700F036B8704700F001B800009E
:1035B00038B5144C2068C0F30010002821D0124DFB
:1035C00001212846FDF770FF206800906068009098
:1035D00001212846FDF77CFF0C4CC0F180000C490E
:1035E0002070E8148861802201212846FDF78CFFB5
:1035F0002078FFF70FFA2846BDE838400221FDF792
:103600005DBF38BD00140140006402402800002066
:103610000010024038B51D4D2868C0F30010002886
:1036200032D01B4C02212046FDF73EFF2868009057
:10363000686800904FF40010A06002212046FDF75A
:1036400047FF1449C0F1240048801348807820586F
:103650004FF4002200F40020904200D10022022109
:103660002046FDF747FF242202212046FDF74CFFAC
:10367000FFF7EAFB09494FF0006088612046BDE88A
:1036800038400221FDF71ABF38BD0000001001408C
:103690000064024028000020505A00080010024038
:1036A000FEE7000070B50C4CE06840F40050E060AC
:1036B0000A4D02212846FDF7F7FE24220221284662
:1036C000FDF722FF02212846FDF7F8FEE06840F4EE
:1036D0000050E06070BD0000001001400064024036
:1036E00030B50C46050014D0022C12D90A48A11E90
:1036F00002882846FDF728FC2919C2B211F8023CBD
:103700009A4206D111F8011CB1EB102F01D1012012
:1037100030BD002030BD0000F401002030B50C4663
:1037200005000CD0022C0AD9FF22611EFDF722FCF5
:10373000291911F8011C814201D1012030BD00205E
:1037400030BD70B5828A4FF41674D607B0F91810E0
:10375000C4F100054FF000034FEA82760BD0002E33
:103760000DDB002901DA0A310183B0F91810A142FA
:1037700020DA491D15E0002E01DAD60708D000290D
:1037800011DA01F10A0109B20183002911DC11E00B
:10379000002901DD0A390183B0F91810A94209DDB9
:1037A000491F018306E005DD0A3909B201830029BA
:1037B00000DA0383B0F9161016070BD5520718D498
:1037C000002901DA0A31C182B0F91610A14220DACB
:1037D000491D0CE054070CD512070AD4002901DD5D
:1037E0000A39C182B0F91610A94212DD491FC182FF
:1037F0000FE0002906DA01F10A0109B2C1820029AD
:1038000006DC06E005DD0A3909B2C182002900DACA
:10381000C382B0F90C1061B1428B114409B24FF46C
:1038200025724183914202DC5242914200DA428386
:1038300070BD438370BD00000FB4054B10B503A9E4
:10384000044A029800F018F810BC5DF814FB000060
:103850009D3A0008F801002002E008C8121F08C1C4
:10386000002AFAD170477047002001E001C1121F01
:10387000002AFBD1704700002DE9FF4F8BB09A461C
:103880000F460546002606E025280BD052460D9926
:1038900090476D1C761C28780028F5D10FB0304673
:1038A000BDE8F08F0024A0460122604900E00443F7
:1038B00015F8013F203B02FA03F00842F7D12878BF
:1038C0002E2817D115F8010F44F004042A280ED031
:1038D0006FF02F022878A0F1300109290AD808EBEF
:1038E000880102EB410100EB01086D1CF2E757F87B
:1038F000048B6D1C287869283ED006DC0028CDD0CA
:1039000063280BD0642804D136E0732810D07528C2
:103910004BD052460D999047761C85E017F8040B62
:103920008DF8000000208DF80100E946012003E039
:1039300057F8049B4FF0FF3061074FF0000401D4AB
:103940000AE0641C44450DDA8442FADB19F80410DD
:103950000029F6D106E0641C8442FCDB19F804104F
:103960000029F8D1264404E019F8010B52460D99BC
:103970009047641EF8D257E001CF4FF00A0B0028A1
:1039800002DA40422D2102E0210504D52B218DF8D9
:103990002410012103E0E10705D02021F7E70DF114
:1039A000200908910CE00021F9E701CF4FF00A0B44
:1039B000F9E75946FCF710FE01F1300209F8012D34
:1039C0000028F6D1ADEB090000F1200B600701D40F
:1039D0004FF00108D84502DDA8EB0B0000E0002005
:1039E0008046002406E009A85246005D0D999047E4
:1039F000641C761C08988442F5DB04E030205246B3
:103A00000D999047761CB8F10001A8F10108F5DC8A
:103A100005E019F8010B52460D999047761CBBF151
:103A20000001ABF1010BF4DC6D1C34E70928010047
:103A300010B5FFF75FF9FEF7E7F900F013FC00F0AF
:103A40003BFC00F059FC00F02BFCFFF779F805A0D7
:103A5000FFF7F2FEFFF780F8BDE8104008A0FFF77F
:103A6000EBBE00000D0A416C6C20706572697068D5
:103A70006572616C20696E69742E0D0A0000000089
:103A80000D0A484C4C5F323032325F454E47494E4A
:103A90004545525F4C4C0D0A000000000449C2B27B
:103AA0004A600A68C2F38012002AFAD07047000008
:103AB000004800401CB5FDF79BFAFFF743FCFEF7FA
:103AC000E1F9FEF7B1F9FEF73DFDFEF793FAFEF7D7
:103AD0006DFBFEF7E5FBFEF7B9FDFEF701FBFEF718
:103AE0008DFCFEF757FCFEF70BFEFEF735FAFCF7F0
:103AF0008DFE06490A20CDE900010023802204A1A1
:103B0000064801F0EFFB00F043FFFEE75400002001
:103B100073746172745F7461736B00000D3200081E
:103B20002DE9F0411E4C0F460546E6682068001D51
:103B300000F088FC38B9206890F82C1001208840EB
:103B4000216981432161681C15D1A7B115492268FB
:103B50004868906023688268DA6022688368121D72
:103B60005A602268121D8260206841610868401C0A
:103B70000860BDE8F08120683544B54245602168A1
:103B800005D2E06BBDE8F041091D00F07CBCA06BE4
:103B9000091D00F078FCA06A8542EAD2A562E8E738
:103BA00070000020200700202DE9F041054600F0BC
:103BB0008FFC354CA068401CA0602068334F10B1CA
:103BC000606930B32BE02560A068012827D100266A
:103BD00006EB860007EB800000F047FC761C202EE9
:103BE000F6D32B4800F041FC2948143000F03DFC8E
:103BF0002748283000F039FC25483C3000F035FCDF
:103C00002348503000F031FC2148A0631430E063B9
:103C100005E02068E96AC06A884200D82560606AC9
:103C20000121401C6062E86A2269814011432161E0
:103C300000EB800007EB80004068A8608168E960C5
:103C40008268291D51608160E86A00EB800007EB03
:103C50008001696157F82010491C47F8201000F0D6
:103C600073FC606900280CD02068E96AC06A884249
:103C700007D208494FF080500860BFF34F8FBFF361
:103C80006F8FBDE8F081000070000020500400201C
:103C9000D006002004ED00E030B4026C0B46002A90
:103CA0000BD0C1681144C1608468A14201D301688E
:103CB000C16030BC1846FCF726BB30BC70472DE90C
:103CC000F041856B174604460026026C82B1C7B1ED
:103CD000E068FCF718FBE168206C091AE1602268D3
:103CE000914202D2A168081AE060022F16D017E0B4
:103CF0002068A8B9A06801F0A5FC06460020A060D5
:103D00000EE06068FCF7FFFA216C606808446060B0
:103D1000A168884204D32068606001E005B16D1E8F
:103D20006D1CA5633046BDE8F08110B50446006BFC
:103D300000F03CFC2046BDE8104000F037BC00001D
:103D400010484FF43841420706D0C01D0D4920F0FD
:103D50000700411AC1F538410B4A00230144C2E96A
:103D600000030839183A21F0070111604B600B601D
:103D70000B1AC0E9001393604FF00040536050618C
:103D80007047000034070020C8000020144E154C76
:103D9000A6F52F774FF08058DFF84C9012E000BF67
:103DA00000F096FBF068C568281D00F04BFBA0688A
:103DB000401EA0606068401E606000F0C5FB2846A1
:103DC000FFF7B3FF60680028EAD138680128F9D905
:103DD000C9F80080BFF34F8FBFF36F8FF2E7000089
:103DE0000C0700207000002004ED00E02DE9F05FDA
:103DF000DDE90B940F4683466FF00301206B01EB66
:103E0000820108440A9E20F007089A465FEA48703B
:103E100005D04FF458721EA122A0FFF70DFD00251A
:103E200067B100202218395C82F83410395C11B176
:103E3000401C1028F6D384F8435001E084F8345035
:103E4000202E06D340F2973211A116A0FFF7F4FC02
:103E50001F26E662C4E91165201D00F011FB04F184
:103E6000180000F00DFB2461C6F120006462A0611F
:103E7000E56484F8505052465946404600F0B4F983
:103E80002060B9F1000F01D0C9F80040BDE8F09FF3
:103E90002E2E5C4672656552544F535C7461736B91
:103EA000732E63004572726F723A25732C25640D70
:103EB0000A00000030B5114900E011460A6882424C
:103EC000FBD34B685C18844203D1406818444860B7
:103ED000084643681C18944209D1084C183C2468D1
:103EE000A24209D052681A4442600A68126802600D
:103EF000814200D0086030BD0460F9E7C8000020AE
:103F000010B5044600F0E4FAA06B28B15FF000049D
:103F100000F01AFB204610BD0124F9E7F1B5009826
:103F20000026846C2CB940F6D53219A11DA0FFF7EC
:103F300083FCA06BE16B884205D340F6D63214A116
:103F400018A0FFF779FCA06BE16B88421ED294F9B0
:103F50004550002269462046FFF7B1FE0646681C20
:103F600002D07F2D09D00EE0606A78B104F1240000
:103F700001F02AFC50B1012608E040F6F63204A117
:103F800008A0FFF759FC6D1C84F845503046F8BD79
:103F90002E2E5C4672656552544F535C7175657583
:103FA000652E63004572726F723A25732C25640D7D
:103FB0000A0000000548816B096821B1816BC9685E
:103FC0000968816270474FF0FF31FAE77000002006
:103FD00008484068401C04D0E92207A111A0FFF75F
:103FE0002BFC502080F31188BFF34F8FBFF36F8FEE
:103FF000FEE70000D00000202E2E5C467265655260
:10400000544F535C706F727461626C655C525644BD
:10401000535C41524D5F434D34465C706F72742E59
:10402000630000004572726F723A25732C25640D8F
:104030000A0000002DE9F041044600F049FA94F925
:10404000455004F124060FE0A06C18B12046FFF79C
:1040500065FF04E0606A48B1304601F0B5FB08B185
:1040600000F0F4FB6D1E6DB2002DEDDC4FF0FF365D
:1040700084F8456000F068FA00F02AFA94F9445098
:1040800004F1100709E0206948B1384601F09CFBB3
:1040900008B100F0DBFB6D1E6DB2002DF3DC84F87F
:1040A0004460BDE8F04100F04FBA00002DE9F04156
:1040B0000546002600F0B0FC364F386808B9FFF717
:1040C0003FFE7869054258D1002D56D005F108040D
:1040D000AC4252D960070ED004F00700C0F10800CE
:1040E0002044A04249D90446400704D09C222AA17A
:1040F00033A0FFF7A1FB002C3FD0786884423CD866
:104100002448183001460D6801E028460D466968CC
:10411000A14202D229680029F7D13968B8468D42F8
:104120002BD006682968016068680836001B1028D3
:104130000ED92F19780704D0CF2217A120A0FFF79E
:104140007BFB6868001B786038466C60FFF7B2FE46
:104150006A68D8F804104046891AC8F80410D8F8DC
:104160000830994200D2816041690A430021C5E9C3
:104170000012C168491CC8F80C1001F0A3FB7007BD
:1041800005D04FF4887204A10DA0FFF755FB30460F
:10419000BDE8F081B00000202E2E5C4672656552AD
:1041A000544F535C706F727461626C655C4D656DE9
:1041B0004D616E675C686561705F342E630000005E
:1041C0004572726F723A25732C25640D0A00000047
:1041D0000449086818B10868826C521C8264086837
:1041E000704700007000002010B5031F4FF080746E
:1041F0001C601B1F21F001011960191F044B0B608B
:1042000014390A60091F6FF0020244380A6010BDB9
:10421000D13F00084FF08041486A002200B24A6254
:104220007047000003480068024A0021243A00B2A7
:10423000516270472408004003480068024A002188
:10424000243A00B251627047240C00400448016ACD
:1042500041F001010162016841F001010160704714
:104260000018004010B50C4C022201212046FDF739
:104270004BFA022211462046FDF746FA0748016A2A
:1042800041F480710162016A41F480510162016868
:1042900041F00101016010BD000402400004004033
:1042A0000448C16841F00101C160016841F00101A9
:1042B00001607047001400400E48016A41F001019E
:1042C0000162016A41F010010162016A41F48071EA
:1042D0000162016A41F480510162016841F001010B
:1042E0000160416C41F40041416440F2DC514163A2
:1042F000816370470004014010B51A4C0122114639
:104300002046FDF7EEF9012202212046FDF7E9F9EA
:104310006003016A41F001010162016A41F010018C
:104320000162016841F0010101604FEAF440016A55
:1043300041F001010162016A41F01001016201686E
:1043400041F0010101600848016A41F00101016288
:10435000016A41F010010162016841F00101016050
:1043600010BD000000000240000C004038B51E4C9B
:104370001B4A1B4DA17808321A4888501849A27868
:104380000C311A485050242202212846FDF7BCF86F
:10439000164913482431A27810301258A2781150CF
:1043A000002202212846FDF7A5F8A0782858A17818
:1043B00040F4802068500B49091F08680090486845
:1043C0000090C86840F01000C860486940F04000A4
:1043D00048612846BDE838400221FDF76FB800006B
:1043E0000064024004100140505A00083C020020C2
:1043F000124A10B50F4B517808330E4C0E48C85076
:104400005278181D0E491150802201212046FDF7D7
:104410007BF80949091FC86840F01000C860486966
:1044200040F0400048612046BDE810400121FDF702
:1044300045B800000064024004140140505A0008CE
:1044400084020020D0E9013201699A60D0E9012399
:104450005A604A68824201D182684A600022026141
:104460000868401E08600868704700F108014FF0B6
:10447000FF32C0E90112C160016100210160704793
:1044800000210161704730B50B685A1C02D000F161
:10449000080202E0026904E02246546825689D4251
:1044A000FAD953684B6099608A605160086101686D
:1044B000491C016030BD42684A6093688B60936814
:1044C0005960916008610168491C016070470000F3
:1044D000502080F31188BFF34F8FBFF36F8F0949CE
:1044E0004868401C486001280AD10748006810F05D
:1044F000FF0F05D04FF4DB7204A10FA0FFF79CB9AA
:1045000070470000D000002004ED00E02E2E5C4635
:1045100072656552544F535C706F727461626C6562
:104520005C525644535C41524D5F434D34465C707F
:104530006F72742E630000004572726F723A2573B9
:104540002C25640D0A00000010B5084C606828B9DD
:1045500040F2BD1206A111A0FFF76EF96068401E7F
:10456000606001D180F3118810BD0000D0000020F0
:104570002E2E5C4672656552544F535C706F727498
:1045800061626C655C525644535C41524D5F434DD1
:1045900034465C706F72742E630000004572726F57
:1045A000723A25732C25640D0A00000070B50028AE
:1045B0002DD0174DA0F1080460686969084205D143
:1045C0004FF4927213A11DA0FFF736F9206828B1AD
:1045D00040F225120FA119A0FFF72EF96168686952
:1045E000014214D02268002A11D18143616000F099
:1045F00013FA60686968084468602046FFF75AFC4F
:104600002869401C2861BDE8704001F05BB970BDAD
:10461000B00000202E2E5C4672656552544F535CEC
:10462000706F727461626C655C4D656D4D616E6733
:104630005C686561705F342E630000004572726FC4
:10464000723A25732C25640D0A0000004FF0E0201B
:1046500000210161816105494FF47A720968B1FB5B
:10466000F2F1491E41610721016170470C000020F1
:1046700010B5FBF701FE104C10280CD300F1E02020
:1046800090F8F0032178884205D240F217320BA14E
:1046900015A0FFF7D1F818480068A16800F4E060A1
:1046A000884207D9BDE8104040F2273203A10EA08E
:1046B000FFF7C2B810BD0000D00000202E2E5C46CF
:1046C00072656552544F535C706F727461626C65B1
:1046D0005C525644535C41524D5F434D34465C70CE
:1046E0006F72742E630000004572726F723A257308
:1046F0002C25640D0A0000000CED00E010B504004C
:1047000012D00E48406B28B140F249520CA111A0C2
:10471000FFF792F800F080F900212046FFF700FA39
:1047200001F0D0F8002807D10E494FF08050086002
:10473000BFF34F8FBFF36F8F10BD000070000020DC
:104740002E2E5C4672656552544F535C7461736BD8
:10475000732E63004572726F723A25732C25640DB7
:104760000A00000004ED00E070B50546FFF7B0FE5A
:10477000254C05B92568281DFFF764FE58B9E86A7D
:10478000224A00EB800152F8211021B90121814019
:10479000206988432061A86A18B105F11800FFF765
:1047A00051FE606A401C60622068854207D1291D65
:1047B0001748FFF780FE6068401C606004E0A06856
:1047C000401EA060FFF7F6FBFFF7BEFE20688542A3
:1047D00002D02846FFF7A9FA6069002812D02068A5
:1047E00085420FD1606B28B140F2DC4209A10EA0D6
:1047F000FFF722F810494FF080500860BFF34F8F49
:10480000BFF36F8F70BD00007000002050040020C7
:104810000C0700202E2E5C4672656552544F535C87
:104820007461736B732E63004572726F723A2573F5
:104830002C25640D0A00000004ED00E002490A6A1C
:104840000260C96841607047700000200149012082
:10485000C86170477000002070B50D46040005D196
:1048600040F61C4207A10CA0FEF7E6FF0E480168C7
:1048700020461831FFF707FE2846BDE870400121A9
:10488000FFF74EB92E2E5C4672656552544F535C4D
:104890007461736B732E63004572726F723A257385
:1048A0002C25640D0A0000007000002070B50D4634
:1048B000040056D0A06C28B941F29F0229A12EA075
:1048C000FEF7BAFF606CA84200D30546E06AA84232
:1048D00047D0A06C012844D12B4E3068844205D1CA
:1048E00041F2BA021FA124A0FEF7A6FFE06AE5622A
:1048F000A169002902DBC5F12001A161234D00EB74
:104900008000616905EB800081422AD1201DFFF7FC
:1049100099FD012130B994F82C00326901FA00F0B8
:1049200082433261E06A326981401143316100EBB8
:10493000800005EB80004068A0608168E1608268CB
:10494000211D51608160E06A00EB800005EB800072
:104950006061E06A00EB800055F82010491C45F8C2
:10496000201070BD2E2E5C4672656552544F535C0C
:104970007461736B732E63004572726F723A2573A4
:104980002C25640D0A000000700000205004002057
:104990007CB514480025CDE900502B46802212A199
:1049A000134800F09FFC0F4C2C3C012802D0401C07
:1049B00010D015E0502080F31188BFF34F8FBFF364
:1049C0006F8F4FF0FF30A06201206061E56000F062
:1049D00069F805E04FF4046206A10BA0FEF72CFF76
:1049E000206B7CBD9C00002049444C450000000029
:1049F0008D3D00082E2E5C4672656552544F535C07
:104A00007461736B732E63004572726F723A257313
:104A10002C25640D0A0000000248416B491C4163CB
:104A2000704700007000002070B5134C606B10B12F
:104A30000120E06170BD0020E06120690F4EB0FAF6
:104A400080F0C0F11F0000EB800556F8250028B962
:104A500040F602420AA10FA0FEF7EEFE06EB85002B
:104A600000F10802416849684160914201D14968FA
:104A70004160C868206070BD7000002050040020B4
:104A80002E2E5C4672656552544F535C7461736B95
:104A9000732E63004572726F723A25732C25640D74
:104AA0000A0000007CB5344C20683449884205D1A6
:104AB00040F2431232A13DA0FEF7BEFE20682F490E
:104AC000491E884205D14FF4A2722DA137A0FEF7EE
:104AD000B3FE3A4D28780190FF20287028788DF891
:104AE00000009DF800009DF8001000F0F0008842E2
:104AF00005D040F25D1222A12CA0FEF79DFE9DF88C
:104B000000002F4C00F0500020700720A06005E04E
:104B10009DF8001049008DF80010401E9DF800100F
:104B20000906F5D4A060032805D04FF4BD7214A186
:104B30001EA0FEF781FE207A000200F4E060A06073
:104B4000019828700C482030016841F47001016020
:104B5000016841F070410160FFF778FD002060605E
:104B6000FBF752FB1748016841F040410160FBF739
:104B700037FB00207CBD000000ED00E071C20F415A
:104B80002E2E5C4672656552544F535C706F727482
:104B900061626C655C525644535C41524D5F434DBB
:104BA00034465C706F72742E630000004572726F41
:104BB000723A25732C25640D0A00000000E400E021
:104BC000D000002034EF00E070B50E4605004FF035
:104BD00000041DD0601EB0FBF5F0B04218D305FBF9
:104BE00006F010F14D0F13D84C30FFF75FFA0400B8
:104BF00014D004F14C004EB12060C4E90F56204699
:104C0000012100F01FF80021A16407E02460F4E70F
:104C10004FF4E37202A107A0FEF70EFE204670BD1E
:104C20002E2E5C4672656552544F535C71756575E6
:104C3000652E63004572726F723A25732C25640DE0
:104C40000A0000002DE9F0410F4604004FF0010674
:104C50002BD0E06B78B3B51EB5FBF0F1206C814230
:104C600029D3FFF735FCD4E90F20216802FB00119E
:104C7000A1600021A163216861600A46D4E90F01A7
:104C8000401E00FB01212046E16000F8445F4570B2
:104C900004F11000CFB1FFF7E8FB04F12400FFF7A7
:104CA000E4FB00BFFFF750FC0CE04FF488720FA14B
:104CB00013A0FEF7C1FD002640F245120BA110A083
:104CC000FEF7BAFD3046BDE8F08121690029E9D040
:104CD00000F07AFD0028E5D00D494FF080500860C3
:104CE000BFF34F8FBFF36F8FDCE700002E2E5C46C3
:104CF00072656552544F535C71756575652E63001E
:104D00004572726F723A25732C25640D0A000000FB
:104D100004ED00E02DE9FF4782B01D468A464FF0C2
:104D20000008040005D140F22E3253A157A0FEF72F
:104D300083FDBAF1000F07D1206C28B140F22F3269
:104D40004DA152A0FEF778FD022D08D1E06B01289D
:104D500005D04FF44C7248A14CA0FEF76DFD00F059
:104D6000B7FB38B9049828B140F2333242A147A0CA
:104D7000FEF762FD494F4FF000094FF0805600BF2B
:104D8000FFF7A6FBA06BE16B884207D3022D05D08D
:104D9000049838B3B8F1000F27D02BE0D4F838804E
:104DA0002A4651462046FEF78AFFA16C41B1022DEA
:104DB00002D1B8F1000F0FD12046FFF7AFF805E0A0
:104DC000616A19B104F1240000F0FEFC20B13E60DC
:104DD000BFF34F8FBFF36F8FFFF7B6FB012006B015
:104DE000BDE8F087FFF7B0FB22E06846FFF726FD3D
:104DF0004FF00108FFF7A8FBFFF70EFEFFF768FB77
:104E000094F94400401C01D184F8449094F9450081
:104E1000401C01D184F84590FFF796FB04A9684631
:104E200000F014FA30B12046FFF704F900F04AFD13
:104E30000020D4E7FFF74CFBA06BE16B884213D155
:104E4000FFF782FB04F110000499FFF705FD2046EF
:104E5000FFF7F0F800F036FD002891D13E60BFF377
:104E60004F8FBFF36F8F8BE7FFF76EFB2046FFF787
:104E7000E1F800F027FD83E72E2E5C46726565524F
:104E8000544F535C71756575652E63004572726F82
:104E9000723A25732C25640D0A00000004ED00E031
:104EA0002DE9F0410F46040005D140F2AD4227A1A3
:104EB0002BA0FEF7C1FC206C28B140F2B14223A127
:104EC00027A0FEF7B9FC206838B9A06828B140F2E5
:104ED000B6421EA122A0FEF7AFFCFFF7C9FB50208F
:104EE000EFF3118680F31188BFF34F8FBFF36F8FFD
:104EF000A06BE16B814224D994F94550401CA0631A
:104F0000681C02D07F2D11D016E0A06C012518B1CD
:104F10002046FFF703F805E0606A80B104F1240041
:104F200000F052FC58B157B13D6008E040F23552F4
:104F300006A10BA0FEF780FC6D1C84F845500120F3
:104F400000E0002086F31188BDE8F0812E2E5C463B
:104F500072656552544F535C71756575652E6300BB
:104F60004572726F723A25732C25640D0A00000099
:104F70002DE9F747002683B08A46040005D140F2A8
:104F8000515245A149A0FEF757FCBAF1000F07D1D5
:104F9000206C28B140F255523FA144A0FEF74CFCD2
:104FA00000F096FA38B9059828B140F25A523AA161
:104FB0003EA0FEF741FCDFF804814FF000094FF0FE
:104FC000805700BFFFF784FAA56BC5B15146204654
:104FD000FEF762FE6D1EA563206950B104F110005A
:104FE00000F0F2FB28B1C8F80070BFF34F8FBFF399
:104FF0006F8FFFF7A9FA012006B0BDE8F08705988A
:1050000008B11EB106E0FFF79FFA27E06846FFF7F8
:1050100015FC0126FFF798FAFFF7FEFCFFF758FA98
:1050200094F94400401C01D184F8449094F945005F
:10503000401C01D184F84590FFF786FA05A968461F
:1050400000F004F9002820460AD0FEF7F3FF00F034
:1050500039FC2046FEF754FF0028B3D00020CBE7F0
:10506000FEF74EFF90B104F124000599FFF7F4FB21
:105070002046FEF7DFFF00F025FC0028A2D1C8F88B
:105080000070BFF34F8FBFF36F8F9BE72046FEF793
:10509000D1FF00F017FC95E72E2E5C467265655235
:1050A000544F535C71756575652E63004572726F60
:1050B000723A25732C25640D0A00000004ED00E00F
:1050C0002DE9F343002683B00400354605D140F2B4
:1050D000E35254A158A0FEF7AFFB206C28B140F278
:1050E000E75250A154A0FEF7A7FB00F0F1F938B940
:1050F000049828B140F2EC524AA14FA0FEF79CFB65
:105100004FF000094FF08057DFF83C81FFF7E0F9DE
:10511000A06BC8B1401EA063206810B9FFF758F813
:10512000A060206950B104F1100000F04DFB28B1DF
:10513000C8F80070BFF34F8FBFF36F8FFFF704FA0B
:10514000012005B0BDE8F083049808B156B10DE028
:105150002DB140F2326233A137A0FEF76DFBFFF7AD
:10516000F3F95DE06846FFF769FB0126FFF7ECF90C
:10517000FFF752FCFFF7ACF994F94400401C01D151
:1051800084F8449094F94500401C01D184F845907E
:10519000FFF7DAF904A9684600F058F8002820461D
:1051A00012D0FEF747FF00F08DFB2046FEF7A8FE69
:1051B0000028ABD09DB3FFF78BF9606A50B3206B2A
:1051C0000068C0F1200126E0FEF79AFEE0B12068F9
:1051D00038B9FFF77DF9A06800F09EFA0546FFF7A1
:1051E000B3F904F124000499FFF736FB2046FEF7DB
:1051F00021FF00F067FB002888D1C8F80070BFF3DA
:105200004F8FBFF36F8F81E72046FEF713FF00F04B
:1052100059FB7BE70021A068FFF748FB9FE7FFE70A
:1052200000208EE72E2E5C4672656552544F535C0B
:1052300071756575652E63004572726F723A2573DC
:105240002C25640D0A00000004ED00E02DE9F0417A
:105250000C46050005D140F6FD4218A11CA0FEF742
:10526000EBFA2CB940F6FE4214A119A0FEF7E4FABD
:10527000FFF72EF91A4EF2686B682068D11A471CA6
:105280000AD02F68D6F820C00026674506D0934282
:1052900004D8012526600BE0002509E0884205D9E5
:1052A000401A20602846FFF7C9FAF5E70125266075
:1052B000FFF74AF92846BDE8F08100002E2E5C4633
:1052C00072656552544F535C7461736B732E630047
:1052D0004572726F723A25732C25640D0A00000026
:1052E000700000202DE9FF5F8346DDE90E879946B7
:1052F00016468A469000FEF7D9FE05001AD05420C3
:10530000FEF7D4FE040012D025630021CDE902414E
:10531000CDE900874B46324651465846FEF766FDBA
:105320002046FEF741FC012004B0BDE8F09F28466E
:10533000FFF73CF94FF0FF30F6E700002DE9F05F92
:10534000DDE90A9A9B4616460F4604004FF0010815
:1053500005D141F2853252A156A0FEF76DFA2FB168
:1053600041F286324EA153A0FEF766FAFFF780F9AC
:105370005020EFF3118580F31188BFF34F8FBFF3F7
:105380006F8F04EB8700B9F1000F02D0C26CC9F82F
:105390000020E11911F8507F02220A70DFF82491F1
:1053A000BBF1050F12D2DFE80BF01A03060C0A005E
:1053B000C16C314301E0C16C491CC1640FE0022F94
:1053C00001D0C6640BE04FF0000830E0D9F80C00C3
:1053D00028B141F2CD3232A136A0FEF72DFA012FCD
:1053E00025D1A06A28B141F2D8322DA131A0FEF713
:1053F00023FAD9F8342048460121EAB1324B5A68E1
:10540000E26196682662976804F118067E609660ED
:10541000A3621A68521C1A60E26A0368DB6A9A4245
:1054200005D9BAF1000F01D0CAF80010C16185F3A7
:1054300011884046BDE8F09FD4E902636269B36019
:10544000D4E9023673605368261DB34201D1E36884
:1054500053600023636113685B1E1360E36A07698E
:1054600001FA03F23A43026103EB8302174B03EBA9
:1054700082025268A2609768E76097687E609660D3
:10548000E26A02EB820203EB82026261E26A02EBF1
:10549000820253F82260761C43F82260BCE70000C9
:1054A0002E2E5C4672656552544F535C7461736B6B
:1054B000732E63004572726F723A25732C25640D4A
:1054C0000A00000070000020F806002050040020B0
:1054D0000548416919B1406B18B10020704701209F
:1054E0007047022070470000700000202DE9F04155
:1054F000494C0026606B28B1A069401CA061304671
:10550000BDE8F081E5686D1CE56011D1A06B006815
:1055100028B140F6C72241A145A0FEF78DF9A06B46
:10552000E16BA163E063206A401C2062FEF742FD4C
:10553000A16A43488D420FD34FF0000EA16B09685A
:1055400039B1A16BC968C9684A68954212D2A26292
:1055500002E04FF0FF31A1622168C96A01EB8101CD
:1055600050F82100012800D90126E0690028C6D0A2
:105570000126C4E7D1E902724B69BA60D1E902277A
:105580007A605F680A1D974201D1CF685F60C1F8F9
:1055900014E01F687F1E1F60D1F828C0BCF1000F07
:1055A00015D0D1E907379F60D1E907377B60DCF878
:1055B000047001F118039F4202D10B6ACCF8043049
:1055C000C1F828E0DCF800305B1ECCF80030CB6A74
:1055D0000127D4F810C09F4047EA0C07276103EB6E
:1055E000830300EB83035B688B609F68CF609F68D9
:1055F0007A609A60CA6A02EB820200EB82034B6116
:1056000050F822305B1C40F82230C96A2268D26A06
:10561000914293D3012691E7700000202E2E5C4624
:1056200072656552544F535C7461736B732E6300E3
:105630004572726F723A25732C25640D0A000000C2
:105640005004002070B504004FF000064BD0274DE9
:105650002868844205D041F24F0225A129A0FEF717
:10566000EBF8A06C28B941F2500221A125A0FEF769
:10567000E3F8A06C401EA064626CE16A914232D0F3
:1056800088BB201DFEF7DEFE012130B994F82C0006
:105690002A6901FA00F082432A61606CE062C0F17D
:1056A0002000A061E06A2A698140114329611949FB
:1056B00000EB800001EB80004068A0608268E2603F
:1056C0008368221D5A608260E06A00EB800001EB73
:1056D00080006061E06A00EB800051F82020521CDD
:1056E00041F820200126304670BD000070000020E7
:1056F0002E2E5C4672656552544F535C7461736B19
:10570000732E63004572726F723A25732C25640DF7
:105710000A0000005004002070B504004FF00000A3
:1057200047D0274DE16A2A68D26A914242D2A069E5
:10573000002804DB2868C06AC0F12000A061214E67
:1057400001EB8101606906EB810188422DD1201DAA
:10575000FEF778FE012130B994F82C002A6901FA8D
:1057600000F082432A612868C06AE0622A698140A9
:105770001143296100EB800006EB80004068A060C7
:105780008168E1608268211D51608160E06A00EB00
:10579000800006EB80006061E06A00EB800056F854
:1057A0002010491C46F8201002E02868C06AE06218
:1057B000012070BD616C2A68D26A9142F8D370BD35
:1057C000700000205004002070B5C068C4682CB977
:1057D00040F682422FA134A0FEF72EF8D4E907202C
:1057E000A16A9060D4E9070250604A6804F1180089
:1057F000824201D1226A4A600023A3620A68521ED3
:105800000A602D494A6B01259AB12C4B5A68E26116
:1058100096682662966870609060A3621868401C63
:105820001860E06A0A68D26A904231D90120CD61DD
:1058300070BDD4E902626069B260D4E90226726088
:105840004668221D964201D1E6684660636103689E
:105850005B1E0360E06A0E6905FA00F333430B61D7
:10586000174B00EB800003EB80004068A060866867
:10587000E660866872608260E06A00EB800003EB9D
:105880008002626153F82020521C43F82020C8E7B0
:10589000002070BD2E2E5C4672656552544F535CDD
:1058A0007461736B732E63004572726F723A257365
:1058B0002C25640D0A00000070000020F80600206E
:1058C000500400202DE9F041454D00242746686B27
:1058D00028B940F6B30243A147A0FDF7ADFFFEF79C
:1058E000F7FD686B401E6863686B002872D1A8687A
:1058F000454B00264FF00108F0BB6BE0D868C46848
:10590000D4E90721A06A9160D4E907125160426886
:1059100004F118018A4201D1216A4160A66201683E
:10592000491E0160D4E9022160699160D4E9021244
:1059300051604268211D8A4201D1E268426066617D
:105940000268521E0260E26AD5F810C008FA02F03E
:1059500040EA0C00286102EB82002C4A02EB800036
:105960004068A060D0F808C0C4F80CC0D0F808C0E7
:10597000CCF80410816000E011E0E06A00EB8000E8
:1059800002EB8001616152F82010491C42F820109E
:10599000E06A2968C96A884201D3C5F81C80186882
:1059A0000028ABD10CB1FEF705FBAC6944B100BFD8
:1059B000FFF79CFD08B1C5F81C80641EF8D1AE61EC
:1059C000E86938B11249012738070860BFF34F8FE3
:1059D000BFF36F8FFEF7B8FD3846BDE8F0810000D9
:1059E000700000202E2E5C4672656552544F535C49
:1059F0007461736B732E63004572726F723A257314
:105A00002C25640D0A000000F80600205004002038
:105A100004ED00E0000000000404040000080000A1
:105A200000080000080000000800020406080A0C34
:105A3000102840587088A0B8000000000000000046
:105A40000102030406070809000000000102030424
:105A5000102840587088A0B8005EBCE2613FDD832A
:105A6000C29C7E20A3FD1F419DC3217FFCA2401E3E
:105A70005F01E3BD3E6082DC237D9FC1421CFEA02E
:105A8000E1BF5D0380DE3C62BEE0025CDF81633D1E
:105A90007C22C09E1D43A1FF4618FAA427799BC50E
:105AA00084DA3866E5BB5907DB856739BAE40658FE
:105AB0001947A5FB7826C49A653BD987045AB8E6EE
:105AC000A7F91B45C6987A24F8A6441A99C7257BDE
:105AD0003A6486D85B05E7B98CD2306EEDB3510FCE
