:020000040800F2
:1000000058C400202D03000813280008B715000865
:1000100011280008CD1000086D3000080000000015
:100020000000000000000000000000006D02000859
:10003000D111000800000000C9020008712D00085D
:100040004703000847030008470300084703000868
:100050004703000847030008470300084703000858
:100060004703000847030008470300084703000848
:100070004703000847030008470300084703000838
:100080004703000847030008470300084703000828
:10009000D110000847030008470300084703000881
:1000A00047030008952E000847030008470300088F
:1000B000A12E000847030008A32E000847030008EC
:1000C00047030008470300084703000847030008E8
:1000D00047030008712F000847030008852F000818
:1000E00047030008470300084703000847030008C8
:1000F00047030008470300084703000847030008B8
:100100004703000847030008A52E0008470300081E
:10011000470300084703000847030008A72E00080C
:1001200047030008CD110008CF110008470300085D
:100130004703000847030008470300084703000877
:100140004703000847030008470300084703000867
:10015000470300084703000847030008892F0008E9
:100160004703000847030008470300084703000847
:100170004703000847030008470300080000000089
:100180004703000847030008470300084703000827
:100190004703000847030008470300084703000817
:1001A00000000000000000004703000800F002F813
:1001B00000F04CF80AA090E8000C82448344AAF1B5
:1001C0000107DA4501D100F041F8AFF2090EBAE8B3
:1001D0000F0013F0010F18BFFB1A43F0010318477B
:1001E0003049000050490000103A24BF78C878C157
:1001F000FAD8520724BF30C830C144BF04680C602D
:10020000704700000023002400250026103A28BF74
:1002100078C1FBD8520728BF30C148BF0B60704778
:10022000642900F08581732900F0988200207047CE
:100230001FB504F037FC9DE8030000F0FFFC00F060
:10024000F1FA1FBD10B500F056FB10BD00F0B9FB70
:100250001146FFF7EDFF03F089F800F0BDFC03B491
:10026000FFF7F0FF03BC00F07BFE00002C4B196889
:100270000868B0E8F04F80F30988BFF36F8F4FF044
:10028000000080F3118870470000000008480068F3
:10029000006880F308884FF0000080F3148862B68D
:1002A00061B6BFF34F8FBFF36F8F00DF00BF00BF9A
:1002B00008ED00E0DFF80C00016841F47001016016
:1002C000704700BF88ED00E0EFF30980BFF36F8F48
:1002D000134B1A681EF0100F08BF20ED108A20E99A
:1002E000F04F106009B44FF0500080F31188BFF355
:1002F0004F8FBFF36F8F03F07FFE4FF0000080F34E
:10030000118809BC19680868B0E8F04F1EF0100F9A
:1003100008BFB0EC108A80F30988BFF36F8F704775
:1003200038000020EFF3058070470000094880473F
:1003300009480047FEE7FEE7FEE7FEE7FEE7FEE7C7
:10034000FEE7FEE7FEE7FEE704480549054A064BDF
:1003500070470000792E0008AD01000858BE00204B
:1003600058C4002058C0002058C0002053EA020C96
:1003700000F069802DE9F04B4FF00006002B1FBF05
:10038000B3FA83F503FA05F424FA05F65E4012BFCA
:100390001643B2FA82F502FA05F4C5F120051EBF34
:1003A00022FA05FC44EA0C04203556EA044C4FEAD4
:1003B000144418BF641C4FF000084FF0000990422D
:1003C00071EB030C39D3002919BFB1FA81F701FA97
:1003D00007F6B0FA80F700FA07F6C7F120071EBF4C
:1003E00020FA07FC46EA0C062037B6FBF4FCA7EB24
:1003F0000507103F07F01F0BCBF120060CFA0BFB93
:100400002CFA06F644BFB3460026202FA4BF5E4652
:100410004FF0000B5BEA060C08BF4FF0010B19EB25
:100420000B09ABFB027C48EB0608C01B06FB02CCA9
:100430000BFB03CC71EB0C01C1E70B4602464146B6
:100440004846BDE8F08B13B54FF000004FF00001B7
:10045000AFF30080BDE81C40704700000FB40449B2
:1004600010B503AA029800F07DF910BC5DF814FBEA
:100470004CBD00202DE9F0410E46044600202062CC
:100480002046E168884730B3252805D0D4E901210A
:100490009047206A401CF2E7E16820460027884721
:1004A000050018D0A5F14100192802D820354FF4D5
:1004B00000673246294620462760FFF7B1FE40B16B
:1004C000012804D0F61D26F007060836D8E7361DA9
:1004D000D6E72846DAE7206ABDE8F08170B50C4619
:1004E0000546012A05D02878800600D5EA69002350
:1004F00002E0012305E05B1C934202D2E05C00288D
:10050000F9D1A869E618C01AA861286A18442862B7
:100510002846AFF3008004E0D5E9012114F8010B6F
:100520009047B442F8D32846AFF3008070BD000076
:100530002DE9F0410646002410687529314616A5BC
:1005400010D0AFF30080002802DA404213A507E084
:1005500031688A0701D512A502E0490704D511A523
:10056000012401E0AFF3008000210A2206F12407F4
:1005700009E0B0FBF2FCB0FBF2F302FB1C003030F0
:1005800078541846491C0028F3D123462A463046A1
:10059000BDE8F04100F077B8000000002D00000039
:1005A0002B00000020000000032A40F2308010F0F1
:1005B000030C00F0158011F8013BBCF1020F6244FE
:1005C00098BF11F801CB00F8013B38BF11F8013B8F
:1005D000A2F1040298BF00F801CB38BF00F8013B3C
:1005E00011F0030300F0D080083AC0F0088051F801
:1005F000043B083A51F804CBA0E80810F5E7121DB7
:100600005CBF51F8043B40F8043BAFF30080D207D5
:1006100024BF11F8013B11F801CB48BF11F8012BA1
:1006200024BF00F8013B00F801CB48BF00F8012BC4
:1006300070474FF0000200B51346944696462039A5
:1006400022BFA0E80C50A0E80C50B1F12001BFF48B
:10065000F7AF090728BFA0E80C5048BF0CC05DF8F1
:1006600004EB890028BF40F8042B08BF704748BF3F
:1006700020F8022B11F0804F18BF00F8012B7047B3
:100680007047704770472DE9F0470D4699469246EE
:10069000044600F124080168880604D5E06921F0C9
:1006A0001001216000E00120A84201DD471B00E0AD
:1006B0000027A1697A1902EB0900081AA0612078C5
:1006C000C00602D42046AFF30080002608E0D4E93B
:1006D00001211AF806009047206A401C761C20620F
:1006E0004E45F4DB2078C0060AD52046AFF30080E3
:1006F00006E0D4E9012130209047206A401C2062A6
:10070000381EA7F10107F4DC07E0D4E9012118F84D
:1007100005009047206A401C2062281EA5F10105B3
:10072000F3DC2046AFF300802078000602D50220DB
:10073000BDE8F0870120FBE710B5436913B1AFF3C3
:10074000008001E0FFF7CAFE012010BD127800F121
:1007500024010A7000224A700122EDE711684FF06F
:10076000FF32E9E7074B70B50D467B4400F043F8D4
:100770000446284600F052F810B14FF0FF3070BD2B
:10078000204670BDE72B000010B5203AC0F00B806A
:10079000B1E81850203AA0E81850B1E81850A0E885
:1007A0001850BFF4F5AF5FEA027C24BFB1E81850DF
:1007B000A0E8185044BF18C918C0BDE810405FEA4F
:1007C000827C24BF51F8043B40F8043B08BF7047CB
:1007D000D20728BF31F8023B48BF11F8012B28BFD0
:1007E00020F8023B48BF00F8012B704701694A1C02
:1007F00002610878704700B58FB0CDE90131002162
:10080000059105497944CDE9031011466846FFF783
:1008100031FE0FB000BD0000E5FFFFFF007B00F0E0
:100820008000704710B542485421FFF702FF41484D
:100830005421FFF7FEFE40485421FFF7FAFE3F49DE
:100840003B483C4A3F4B08603D490A603A491960C1
:10085000531C0365481C1065012008653B48344A59
:1008600039A1784400F01CF920B9384878440A3896
:1008700000F0BBF937482F4A35A1784400F010F951
:1008800020B9344878440A3800F0AFF932482A4A8F
:100890002FA1784400F004F920B92F4878440A3891
:1008A00000F0A3F940232248DC000021224600F09A
:1008B000D4F820B125487844543800F096F91D4802
:1008C00022464023002100F0C8F820B12148784496
:1008D000543800F08AF9184822461023002100F00D
:1008E000BCF8002806D01C487844BDE810405638B3
:1008F00000F07BB910BD104870B5006D20F0010408
:100900000B4800F043F90B4800F040F90A4800F0AA
:100910003DF909E0206D20F00105204600F036F990
:10092000204600F073F82C46002CF3D170BD000077
:10093000F8BC00204CBD0020A0BD0020A400002079
:10094000A8000020AC000020720000009C420000C3
:100950007700000088420000744200000EB5CDE927
:10096000000100F0DDFA029069460120ABBE0EBD29
:1009700008B5694600900220ABBE08BD1FB58DE8E2
:10098000070069460520ABBE04B010BD1FB58DE859
:100990000F0069460620ABBEF6E708B56946009031
:1009A0000920ABBE08BD1CB5CDE9000169460A208F
:1009B000ABBE1CBD704708B5694600900C20ABBEAD
:1009C00008BD754600F018F9AE4605006946534665
:1009D00020F00700854618B020B5FFF7B5FCBDE84C
:1009E00020404FF000064FF000074FF000084FF096
:1009F000000B21F00701AC46ACE8C009ACE8C00927
:100A0000ACE8C009ACE8C0098D46704770B5044633
:100A1000051F00F0F7F80068002C14BF446870BD93
:100A2000002C18BFAC423CBF20466468F8D3016874
:100A30000A18AA4218BF456003D12A680546114426
:100A4000016028684119A1421CBF6C6070BD6168DB
:100A5000696021680844286070BD70B5C468A50746
:100A600013D0650211D4B2F5807F09D0B2F5007FB2
:100A700006D0B2F5806F08D1012300F1240106E011
:100A80005D1E6FF07F46B54201D3012070BD01614C
:100A9000C361416024F470611143C160002070BDE6
:100AA0002DE9F0410C4607461646104600F06EF858
:100AB0002078611C61280AD0722802D077283CD1A6
:100AC00002E00125002405E00225042402E00824B8
:100AD00048F2020511F8010B2B2806D0622809D034
:100AE00011F8010C74280AD00BE045F0030544F01E
:100AF0000204EFE745F0040544F00104EAE744F09E
:100B0000100438462146FFF729FF411C15D000216B
:100B1000316171604FF40071F560F161706120071F
:100B200004D530460222002100F0E6F8306D40F096
:100B3000010030653046BDE8F0810020FBE72DE97B
:100B4000F0410D460646104C206DC10704D0410807
:100B500004D020F00104F7E722460EE0542000F014
:100B60009CF807000ED0206D47F001010843542186
:100B700020653846FFF75DFD3A4629463046BDE818
:100B8000F0418DE70020D6E7F8BC00202DE9F047C2
:100B900004464FF000094FF0FF37C568D4E90486DA
:100BA000A80707D0204600F057F93046FFF7E0FECF
:100BB000002802DA3846BDE8F087280502D540460D
:100BC000FFF724FF4C212046FFF733FD206D20F076
:100BD000010020654846EEE710B50446AFF30080FB
:100BE0002046BDE81040FFF73ABB10B500F07EF993
:100BF000BDE8104000F074B900487047F4BD002013
:100C00007047000000487047FCBD002070477047E7
:100C10007047704738B504460A4600206946AFF36E
:100C20000080002808BF38BD02460099204600F029
:100C3000A4F9012038BD012000F0F3B9F8B5AFF3F5
:100C40000080054600200C46102000BF0646A8196B
:100C5000A0420DD9324669460020AFF3008007005C
:100C600008BF00F0DEF90098A04218BF0546C4197D
:100C7000FFF7C8FF05600746F01D20F00700461982
:100C8000284600F073F9B44208BFF8BDA21B3146F4
:100C90003868BDE8F84000F070B970B50646FFF757
:100CA000B1FF056806F10B0020F00704B4429CBFB9
:100CB000002070BD2B466A68BAB11068A04210D3FC
:100CC00004F1080188423CBF5068586007D351685E
:100CD000101941601168091B016058601460101DF3
:100CE00070BD13465268002AE7D121462846FFF717
:100CF00091FF0028DED170BD2DE9F0410446164673
:100D00000D464769007B80072ED03846FFF745FE29
:100D100050BB3EB3012E02D0022E25D104E0204666
:100D200000F045F905441DE03846FFF744FEE16850
:100D3000002841F01001E16005DA204600F058F883
:100D40000120BDE8F081C9030BD56268E16A9142D8
:100D500000D81146A26911442269891A814200DD36
:100D600008460544002D01DA0220EAE7E16A6068DE
:100D7000E268814206D29103E06203D522F4003199
:100D800041F01002A6690027AE4213DCE16A8142FD
:100D900001D90B4600E0034603EB060C2369ACEBDC
:100DA000030CAC4506DD814201D98C4600E0844647
:100DB0009C4505D1A760276042F02000A5620DE0A8
:100DC000AD1BE669AE1B8142A66000D90846C01A79
:100DD000281A20605819606022F02000034908405A
:100DE000E060002084F84870ABE70000BFCFD7FF79
:100DF000C16821F4001141F08001C16000218160CF
:100E0000016070472DE9F047814614460E464FF0C9
:100E1000FF383248D5685769054209D03846A1697C
:100E2000FFF7C1FD002811DB2C48C0430540E560F9
:100E30002B46324649463846FFF7A0FDA16920F00F
:100E40000042B21A11440028A16103D02046FFF7E6
:100E5000CFFF4046BDE8F08770B504460569C06A1B
:100E60006168884200D80846E16821F42011E160F9
:100E7000C90312D5A84208D02246411B2846FFF7D5
:100E8000C1FF10B14FF0FF3070BD0020E562C4E932
:100E90000150E06820F48030E060002070BD10B5A3
:100EA0000446C06820F02000E060A16AA069884282
:100EB0000DD02046FFF7D0FFE06820F4405040F00E
:100EC0001000E060A06AA0612069E062606044F206
:100ED0004001E0688843E06010BD0000100002009F
:100EE000002801D000F03CB87047000010B5014662
:100EF00002A000F07DF8012010BD000053494752C8
:100F0000545245443A2052656469726563743A20CC
:100F100063616E2774206F70656E3A2000000000D8
:100F200010B5431C02E010F8011B71B18107FAD122
:100F30004FF0013202C88C1A8C4314EAC211F9D066
:100F4000C01A0A0603D0C01E10BDC01A10BD0A0484
:100F500001D0801E10BD0902FCD0401E10BD000053
:100F600001491820ABBEFEE7260002000021016007
:100F7000C0E90110704710207047034640688C4656
:100F8000002818BF88423CBF03464068F8D3186861
:100F90001844884207D00CF1030020F00700001D20
:100FA000411A521A0146081D0A60FFF72FBD10B5FD
:100FB0000146C268900703D0900607D5886A0AE008
:100FC00000F03EF801210160881E10BD8B69486861
:100FD00018440B69C01A91F848301BB191F84910B8
:100FE000401A10BD1103FCD50028FADD401E10BDCB
:100FF00070B505460C460A2000E06D1C00F018F89C
:1010000035B128780028F8D102E0641C00F010F80F
:1010100014B120780028F8D1BDE870400A2000F013
:1010200007B810B500F010F8BDE81040FFF758BF42
:1010300008B569468DF800000320ABBE08BD00006E
:1010400000487047F4BD002010B5012805D00021EC
:1010500003A0FFF7CDFF012010BD09A1F8E70000B4
:1010600053494752544D454D3A204F7574206F6691
:101070002068656170206D656D6F727900000000F9
:101080003A2048656170206D656D6F727920636FDD
:10109000727275707465640010B502F003F901F0A6
:1010A00071FCBDE8104001A0FFF7D8B93C494E469D
:1010B0004F3E200D0A416C6C207461736B7320638A
:1010C000726561742E0D0A0D0A000000FEE7000033
:1010D00000B589B002A907A8CDE9000106AB05AAB1
:1010E00004A9002000F01EF8049801280CD0022862
:1010F0000ED0032810D0042804D1094802A900BF4B
:1011000000F058F809B000BD054802A91838F7E703
:10111000034802A91038F3E7014802A90838EFE7AD
:10112000F0BC0020F0B5214CDDE9055604EB0014BD
:10113000D4F8B07507F004071770D4F8B025520D35
:101140000A60D4F8B01501F002011970D4F8B41592
:1011500001F00F012970D4F8B8153170D4F8B81522
:10116000090A7170D4F8B815090CB170D4F8B81523
:10117000090EF170D4F8BC153171D4F8BC15090A08
:101180007171D4F8BC15090CB171D4F8BC15090EF5
:10119000F17138B1012804D10548016841F02001FE
:1011A0000160F0BD0248001FF7E70000006000404A
:1011B000106400400A8852BA02804A8852BA4280BB
:1011C0008A8852BA828089798171704770477047E6
:1011D00070470000064905488978405810F4002FF0
:1011E00001D00020704701207047000000640240D9
:1011F000EA4A000818B1012803D0002070470248CD
:10120000704701481230704714010020024881687D
:101210000278114481607047000000200B4810B52F
:10122000016841F400710160016841F4806101606E
:10123000016841F480710160032000F089F800200A
:1012400000F006F800F03EF8002010BD003C02401F
:1012500010B5014688B00022192000F059F8192075
:1012600000F048F813480024016841F001010160D2
:10127000006805A900F001000690684600F07AF8C1
:1012800000F098F80C494000B0FBF1F10C480B4A13
:10129000491E026040F2E732C0E90324C0E90114AC
:1012A00000F09AF810B1012008B010BD044800F019
:1012B000AFF8F9E74438024040420F000000014017
:1012C000B00000200A4808B5016841F4804101607F
:1012D000006800F4804000900548001F016841F05C
:1012E00080510160006800F08050009008BD00004F
:1012F00044380240002809DB00F01F020121914020
:101300004009800000F1E020C0F8001170470000A3
:10131000F0B40E4B1B680C46C3F30223C3F1070560
:10132000042D00D90425191D072901D2002300E04E
:10133000DB1E012606FA05F1491E214099409E4018
:10134000761E16403143F0BC01F08ABF0CED00E080
:10135000064900F0070208684FF6FF03184040EA0C
:101360000220034A10430860704700000CED00E0C3
:101370000000FA050F2202600C4A136803F0030311
:101380004360136803F0F0038360136803F4E053D1
:10139000C36012684FF4E05303EAD20202610448CA
:1013A000006800F00F000860704700000838024035
:1013B000003C02400448054900680968044AC1F33A
:1013C0004231515CC84070470C0000200838024090
:1013D000E24A00087047704710B5040003D094F843
:1013E0003D0010B107E0012010BD002084F83C0052
:1013F000204600F00CF8022084F83D00211D2068F2
:1014000001F052FD012084F83D00002010BD70471E
:101410000168CA6842F00102CA600068816801F090
:101420000701062903D0016841F001010160002095
:101430007047704770B50446006801694FF00005B9
:10144000C943890715D4C168C943890711D4E91E66
:10145000016101202077206880698007204602D042
:10146000FFF7E7FF04E000F098F8204600F096F858
:10147000257720680169C943490717D4C168C94362
:10148000490713D46FF0040101610220207720681E
:10149000806910F4407F204602D0FFF7CAFF04E0C5
:1014A00000F07BF8204600F079F825772068016984
:1014B000C943090716D4C168C943090712D46FF09C
:1014C00008010161042020772068C0698007204658
:1014D00002D0FFF7AEFF04E000F05FF8204600F016
:1014E0005DF8257720680169C943C90617D4C1682A
:1014F000C943C90613D46FF0100101610820207799
:101500002068C06910F4407F204602D0FFF791FFA9
:1015100004E000F042F8204600F040F8257720680B
:101520000169C943C90708D1C168C943C90704D1C2
:10153000891E0161204600F033F820680169C94323
:10154000090609D4C168C943090605D46FF08001B2
:1015500001612046FFF73EFF20680169C943490643
:1015600009D4C168C943490605D46FF0400101613F
:10157000204600F01FF820680169C94389060BD492
:10158000C168C943890607D46FF020010161204674
:10159000BDE87040FFF71FBF70BD70477047000087
:1015A00000680349884201D1FFF730BE7047000050
:1015B000000001407047FEE7904201DD1046704791
:1015C0008842FCDA0846704770470000044908B5B5
:1015D0000A6802430A6009680140009108BD0000E2
:1015E00030380240044908B50A6802430A600968B5
:1015F0000140009108BD000030380240044908B5A0
:101600000A6802430A6009680140009108BD0000B1
:1016100030380240044908B50A6802430A60096884
:101620000140009108BD000040380240044908B55F
:101630000A6802430A6009680140009108BD000081
:1016400044380240034A1430515C0A5822F0040224
:101650000A507047CA4A0008034A1430515C0A58BD
:1016600022F004020A507047F24A0008034A515C13
:10167000425822F00102425070470000EA4A000836
:10168000034A515C425842F0010242507047000048
:10169000EA4A0008034A515C425842F001024250B3
:1016A00070470000F24A0008034B595C435823F08E
:1016B0006063134343507047CA4A0008044B001D3F
:1016C000595C0B586FF30F0313430B507047000026
:1016D000EA4A0008044B001D595C0B586FF30F03D6
:1016E00013430B5070470000F24A0008034B595C4B
:1016F000435823F0C003134343507047CA4A0008BD
:10170000034B595C435823F48063134343507047A1
:10171000CA4A0008034B595C435823F4C04313439F
:1017200043507047CA4A0008034B595C435823F49E
:101730009073134343507047CA4A0008034B595CE7
:10174000435823F40073134343507047CA4A0008B8
:10175000034B595C435823F4C05313434350704721
:10176000CA4A0008034B595C435823F440331343DF
:1017700043507047CA4A0008F0B50A680F2692FA2B
:10178000A2F2B2FA82F303248AE001279F4015EA0D
:1017900007027DD04D68012D01D0022D1BD18D682F
:1017A000876892FAA2FCBCFA8CFC4FEA4C0C04FA53
:1017B0000CFC27EA0C0792FAA2FCBCFA8CFC4FEA5C
:1017C0004C0C05FA0CF52F438760CD6847685543EC
:1017D00097432F4347600F69D0F80CC092FAA2F5E7
:1017E000B5FA85F54FEA450E04FA0EF52CEA050C1C
:1017F00092FAA2F5B5FA85F56D00AF404CEA070CF8
:10180000C0F80CC04D68022D33D192FAA2F5B5FA9A
:1018100085F5082D15D2D1F814C0056A92FAA2F701
:10182000B7FA87F7BF0006FA07F7BD4392FAA2F7A7
:10183000B7FA87F7BF000CFA07FC45EA0C0505620A
:1018400017E0D1F814E0476A150A95FAA5FCBCFA2E
:101850008CFC4FEA8C0C06FA0CFC95FAA5F5B5FA4F
:1018600085F5AD0027EA0C070EFA05FE47EA0E07DC
:1018700047624D68076892FAA2FCBCFA8CFC4FEAFA
:101880004C0C04FA0CFE27EA0E0792FAA2F200E0D2
:1018900005E0B2FA82F2520095402F4307605B1CCC
:1018A0000A681546DA407FF470AF0020F0BD10B52D
:1018B000044601F09DF8206001F070F8606001F0CE
:1018C0007BF8A060606801F085F8E06010BD000062
:1018D00001490860704700000C0000200A7B8B68FB
:1018E0001A434B6822F480621A430B6822F40062A8
:1018F0001A43CB8922F480521A430B6922F4005216
:101900001A434B6922F480421A4322F400411943DE
:10191000416400207047000010B501291CD0042943
:101920001CD010291CD040291CD0B1F5807F1BD0C1
:10193000B1F5806F1AD006210D4B18305B5C18444E
:1019400003680B4C0E34615C03248C40120CA343DF
:101950008A401343036010BD0021EDE70121EBE74E
:101960000221E9E70321E7E70421E5E70521E3E7B1
:10197000AE4A000810B501291CD004291CD010293A
:101980001CD040291CD0B1F5807F1BD0B1F5806FF1
:101990001AD006210D4B18305B5C184403680B4CC1
:1019A0000E34615CF0248C40120CA3438A40134334
:1019B000036010BD0021EDE70121EBE70221E9E71B
:1019C0000321E7E70421E5E70521E3E7AE4A000844
:1019D00010B5012916D0042916D0102916D0402997
:1019E00016D0B1F5807F15D0B1F5806F14D00623E5
:1019F000016A0A4CE35C0A249C40A1439A401143CB
:101A0000016210BD0023F3E70123F1E70223EFE7B2
:101A10000323EDE70423EBE70523E9E7C34A0008C6
:101A200010B501291CD004291CD010291CD0402934
:101A30001CD0B1F5807F1BD0B1F5806F1AD0062184
:101A40000D4B18305B5C184403680B4C0E34615C22
:101A50000C248C40120CA3438A401343036010BD36
:101A60000021EDE70121EBE70221E9E70321E7E7A8
:101A70000421E5E70521E3E7AE4A0008F0B5026876
:101A8000254B264D264E274F274C4FF0804C984231
:101A900009D0604507D0A84205D0B04203D0B84273
:101AA00001D0A04205D1D1F804E022F0700242EA50
:101AB0000E0298421BD0604519D0A84217D0B04200
:101AC00015D0B84213D0A04211D0184DA8420ED064
:101AD000174DA8420BD0174DA84208D0164DA8426A
:101AE00005D0164DA84202D0154DA84203D1CD68AD
:101AF00022F440722A4302608A68C2620A888262C3
:101B0000984201D0A04201D1097C0163416941F0B2
:101B1000010141610020F0BD0000014000040040CF
:101B200000080040000C004000040140004001405B
:101B3000004401400048014000180040001C0040E3
:101B400000200040012919D0042919D0102919D0EA
:101B5000402919D0B1F5807F18D0B1F5806F17D02A
:101B600006210C4A1830525C10440268094BDB1DF8
:101B70005B5C042199408A43026070470021F0E7D2
:101B80000121EEE70221ECE70321EAE70421E8E77F
:101B90000521E6E7AE4A0008012919D0042919D029
:101BA000102919D0402919D0B1F5807F18D0B1F58E
:101BB000806F17D006210C4A1830525C104402681E
:101BC000094BDB1D5B5C082199400A4302607047AA
:101BD0000021F0E70121EEE70221ECE70321EAE72B
:101BE0000421E8E70521E6E7AE4A0008F0B5012642
:101BF00000236E4C6E4D012908D010293BD0B1F561
:101C0000807F73D0B1F5805F6ED1A6E0016A21F0CC
:101C100001010162016A46688769D2F800C027F0B5
:101C2000730747EA0C07D2F810C021F0020141EA1D
:101C30000C01D2F804C021F0010141EA0C01A042DC
:101C400001D0A84212D1546921F0080141EA84016F
:101C5000946821F0040141EA8401956926F48074B6
:101C60002C43D56924F4007444EA45064660876134
:101C7000D26842636FE0016A21F010010162066AD6
:101C800041688769D2F800C027F4E64747EA0C2785
:101C9000D2F810C026F0200646EA0C16D2F804C08E
:101CA00026F0100646EA0C16A04201D0A84213D135
:101CB000556926F0800444EA8514956824F04004B0
:101CC00044EA8516946921F4806141EA8401D4696B
:101CD00021F4006141EAC40141608761D1688163F8
:101CE00061E003E000E01E463046F0BD016A21F4E9
:101CF00080710162016A4668C769D2F800C027F0A6
:101D0000730747EA0C07D2F810C021F4007141EACA
:101D10000C21D2F804C021F4807141EA0C21A042C8
:101D200001D0A84213D1546921F4006141EA842111
:101D3000946821F4806141EA8421956926F48054F5
:101D400044EA0514D56924F4005444EA4516466073
:101D5000C761D268C2630162C5E7016A21F480519C
:101D60000162066A4168C769D2F800C027F4E647F5
:101D700047EA0C27D2F810C026F4005646EA0C3683
:101D8000D2F804C026F4805646EA0C36A04201D0B0
:101D9000A84204D1946921F4804141EA8411416050
:101DA000C761D168016406629DE700000000014040
:101DB000000401407FB50446C0680D460126C0F30B
:101DC0004030E8BBE9686868AA690843296911439B
:101DD0000843E16849F20C6291430843E060A86857
:101DE000216921F44051014321616869616921F44D
:101DF0004071014361616846FFF759FD1348844211
:101E000008D01348844213D01248844210D012489C
:101E1000844201D103990CE01048844208D0104854
:101E2000844205D00F48844202D00F4884420AD130
:101E3000029929B12B681BB100262046AA6900E04F
:101E400001E000F013F804B0304670BD001001400E
:101E5000004400400048004000140140004C004095
:101E60000050004000780040007C00402DE9F04127
:101E700006461920A1FB00011F46002364243225D9
:101E8000B2F5004F27D0BB0FBA00FEF76FFA01463C
:101E9000B0FBF4F06FF01802504301EB800005EB4B
:101EA0000010B0FBF4F000F0F002B1FBF4F002EB34
:101EB0000012B1FBF4F06FF01803584301EB8000FF
:101EC00005EB0010B0FBF4F000F00F00104480B2FE
:101ED000B060BDE8F081FA195B41FEF747FA0146B0
:101EE000B0FBF4F00201B1FBF4F06FF018035843BB
:101EF00001EB800005EBC000B0FBF4F000F0F8004F
:101F000002EB4002B1FBF4F0584301EB800005EB1B
:101F1000C000B0FBF4F000F00700D7E738B5144874
:101F2000016841F4800101600068124C00F48000F7
:101F3000009020680022C0F30220114600F06AFCE5
:101F40000146392001F05CF9392001F029F92068B7
:101F50000022C0F30220114600F05CFC01463A204A
:101F600001F04EF9BDE838403A2001F019B90000FF
:101F7000303802400CED00E000B587B0182168460B
:101F8000FEF757FB4020FFF721FB0220FFF71EFB67
:101F90000120FFF71BFB0420FFF718FB4FF48070B4
:101FA000FFF714FB8020FFF711FB0820FFF70EFB63
:101FB00008484FF4701181613C21009101210322F6
:101FC000CDE901120022CDE903216946FFF7D4FBD8
:101FD00007B000BD001C024070B58CB0142106A8EB
:101FE000FEF727FB18216846FEF723FB0120FFF7C9
:101FF00011FB0220FFF7F6FA0120FFF7F3FA0124A4
:102000000820022505940326CDE90005CDE90264E8
:10201000049469463148FFF7AFFBE0030594CDE92E
:102020000005CDE90264049469462D48FFF7A4FB3E
:1020300001F0DEF80022114600F005FC01461C20EC
:1020400001F0EEF81C2001F0B8F8A407A06820F019
:10205000070040F00200A060A5132A460121204697
:10206000FFF75AFC002201212046FFF7D9FC00228D
:1020700001212046FFF77EFC002201212046FFF7C8
:10208000A7FC2A4610212046FFF746FC002210211B
:102090002046FFF7C5FC002210212046FFF76AFC0E
:1020A000002210212046FFF793FC0020ADF8180015
:1020B000691ECDE90701099006A92046FFF7DEFC5D
:1020C000206820F080002060606820F07000606070
:1020D000A06820F08000A0600CB070BD0004024039
:1020E0000000024070B594B014210EA8FEF7A1FACA
:1020F00020216846FEF79DFA182108A8FEF799FAF4
:102100000220FFF787FA1120ADF83800002440F2D2
:10211000F310CDE90F40254D0EA928461194FFF785
:10212000ADFC286840F080002860AE153146284696
:10213000FFF732FD6020CDE90004029403946A4663
:10214000314628460494FFF751FD31462846FFF7F3
:10215000F9FCAE1431462846FFF71EFD01946A468D
:10216000314628460294FFF741FD31462846FFF7E5
:10217000E9FC686820F070006860A86820F08000C2
:10218000A8600420FFF72EFA4FF44070089009AAC7
:102190000220032182E813000121CDE90C1008A9D7
:1021A0000348FFF7E9FA14B070BD000000040040D6
:1021B0000008024070B58CB0142106A8FEF739FA69
:1021C00018216846FEF735FA0420FFF723FA0820A5
:1021D000FFF708FA4FF44050009002200321CDE9A8
:1021E0000101059001210025CDE9031569462C4820
:1021F000FFF7C2FA00F0FCFF0022114600F023FBBB
:1022000001461E2001F00CF81E2000F0D6FF254CE0
:10221000A06820F0070040F00200A060A61332463C
:1022200001212046FFF778FB002201212046FFF71D
:10223000F7FB002201212046FFF79CFB0022012131
:102240002046FFF7C5FB324610212046FFF764FB0E
:10225000002210212046FFF7E3FB00221021204638
:10226000FFF788FB002210212046FFF7B1FBADF8F5
:102270001850701ECDE9075006A920460995FFF7B2
:10228000FDFB206820F080002060606820F0700076
:102290006060A06820F08000A0600CB070BD0000FD
:1022A000000C02400008004070B58CB0142106A854
:1022B000FEF7BFF918216846FEF7BBF90820FFF7C3
:1022C000A9F98020FFF78EF94FF4406000900220BA
:1022D0000321CDE90101059001210025CDE9031578
:1022E00069462C48FFF748FA00F082FF00221146A9
:1022F00000F0A9FA0146322000F092FF322000F0EF
:102300005CFF254CA06820F0070040F00200A060B0
:10231000A613324601212046FFF7FEFA00220121D2
:102320002046FFF77DFB002201212046FFF722FB1C
:10233000002201212046FFF74BFB324610212046A8
:10234000FFF7EAFA002210212046FFF769FB00227E
:1023500010212046FFF70EFB002210212046FFF738
:1023600037FBADF81850701ECDE9075006A920467E
:102370000995FFF783FB206820F0800020606068EB
:1023800020F070006060A06820F08000A0600CB0B9
:1023900070BD0000001C0240000C004010B586B06B
:1023A00014216846FEF745F92020FFF733F900F0C5
:1023B0001FFF0022114600F046FA0146372000F0C8
:1023C0002FFF372000F0F9FE5920ADF80000002063
:1023D000019044F61F600A4C029069462046FFF7C0
:1023E0004DFB206820F080002060606820F07000C5
:1023F0006060A06820F08000A06006B010BD000002
:1024000000140040F0B59BB0142114A8FEF711F998
:1024100020216846FEF70DF9182108A8FEF709F9F2
:1024200018210EA8FEF705F94548016841F00201A0
:1024300001600068002400F002001990B320ADF89C
:10244000500044F61F60CDE915403E4D17948DF8BD
:10245000604014A92846FFF711FB286840F080006F
:10246000286001212846FFF797FB6020CDE9000492
:10247000029403940494059406946A460121284624
:102480000794FFF7B3FB01212846FFF75BFB102100
:102490002846FFF781FB01946A46102128460294E2
:1024A000FFF7A4FB10212846FFF74CFBAE15314681
:1024B0002846FFF771FB01946A463146284602948C
:1024C000FFF794FB31462846FFF73CFBAF14394633
:1024D0002846FFF761FB01946A4639462846029474
:1024E000FFF784FB39462846FFF72CFB686820F08D
:1024F00070006860A86820F08000A86008946814E4
:10250000CDE90C048DF82C4009940A94ADF82E40C6
:1025100008A92846FFF7E2F93046FFF763F8E42000
:102520000E9002200F9003200121CDE91210CDE979
:1025300010040EA90448FFF71FF91BB0F0BD0000FE
:1025400044380240000401400020024030B58DB004
:102550001C216846FEF76DF8182107A8FEF769F8F8
:102560001020FFF763F80220FFF748F8C02007901B
:102570000220089003200024CDE9090401200B90DB
:1025800007200C9007A92E48FFF7F6F82D4D4FF0C5
:10259000006202212846FFF787F800220221284620
:1025A000FFF7A4F8002202212846FFF7DBF8AA155E
:1025B00002212846FFF7B8F8002202212846FFF73B
:1025C000BDF82A1502212846FFF79AF800220221B9
:1025D0002846FFF7BDF8002202212846FFF79AF8A7
:1025E00002212846FFF72EF8174800680022C0F3A2
:1025F0000220114600F040F90146252000F020FE9F
:10260000252000F0E7FD11480090A814CDE9010451
:102610000C20CDE90340059406940D4C69462046F4
:10262000FFF7C8FB206920F490402061606920F02A
:102630002A006061E06840F40050E0600DB030BDF9
:1026400000040240006402400CED00E0A08601009E
:102650000010014010B58EB01C216846FDF7E9FF5F
:10266000182107A8FDF7E5FF2348016841F4802100
:102670000160006800F480200D900420FEF7BEFF8A
:102680004FF440600790022000240890CDE909042F
:1026900001200B9007200C9007A91848FFF76CF851
:1026A000174800680022C0F30220114600F0E4F849
:1026B0000146272000F0C4FD272000F08BFD4FF4D9
:1026C000E130CDE900040C200294CDE903400594EB
:1026D00006940C4C69462046FFF76CFB206920F4F9
:1026E00090402061606920F02A006061E06840F459
:1026F0000050E0600EB010BD4038024000080240BB
:102700000CED00E00048004030B58DB01C2168465B
:10271000FDF78FFF182107A8FDF78BFF2020FEF79C
:1027200085FF4020FEF76AFF4FF4844007900220A7
:10273000089003200024CDE9090401200B90082013
:102740000C9007A92E48FFF717F82E4D4FF0206286
:1027500001212846FEF7A8FF002201212846FEF7A6
:10276000C5FF002201212846FEF7FCFF00220121BF
:102770002846FEF7D9FF002201212846FEF7DEFF9A
:102780002A1501212846FEF7BBFF00220121284619
:10279000FEF7DEFF002201212846FEF7BBFF0121E4
:1027A0002846FEF74FFF184800680022C0F30220B9
:1027B000114600F061F80146472000F041FD472036
:1027C00000F008FD4FF4E130CDE900040C20029444
:1027D000CDE90340059406940C4C69462046FFF76A
:1027E000E9FA206920F490402061606920F02A0015
:1027F0006061E06840F40050E0600DB030BD000062
:1028000000180240006402400CED00E0001401409A
:10281000FEE7FEE730B500F00703C3F10704042C20
:1028200000D90424181D072801D2002300E0DB1E74
:10283000012505FA04F0401E084098409D406D1E99
:102840001540284330BD30B500F00703C3F107043D
:10285000042C00D90424181D072801D2002300E00D
:10286000DB1E012505FA04F0401E084098409D40FB
:102870006D1E1540284330BD30B500F00703C3F18D
:102880000704042C00D90424181D072801D20023B2
:1028900000E0DB1E012505FA04F0401E08409840C8
:1028A0009D406D1E1540284330BD2DE9F0410C467A
:1028B0000178427841EA0221C1F30A01218042787D
:1028C0008378D20842EA4312C2F30A026280837814
:1028D000C5789B0943EA8503057943EA8523C3F359
:1028E0000A03A380057946796D0845EAC615C5F344
:1028F0000A05E5804679C6F30116A6724679B6093F
:10290000E6728679C77946EA0726A681067A477A6B
:1029100046EA0726E681867AC77A46EA07262682AD
:10292000067BA674467BE674867BC77B46EA072651
:10293000A682067C407CA1F580612180A2F58062A0
:102940006280A3F5806346EA0020A380A5F5806538
:10295000E580A0F580602081204600F0A7FB4FF4C1
:1029600096656E42B4F90C002A463146FEF724FE05
:10297000A081B4F90E002A463146FEF71DFEE08123
:10298000BDE8F081044804218161082181611021A2
:102990008161202181617047001C0240044909685F
:1029A000044A01F0F0010909515CC8407047000079
:1029B00008380240D24A000804490968044A01F470
:1029C000E05102EB91210978C84070470838024075
:1029D000E24A000804490968044A01F4604102EB34
:1029E00051310978C840704708380240E24A00086F
:1029F0000748006810F00C01064807D0042904D0ED
:102A0000082903D1082000F009B8034870470000E6
:102A1000083802400024F400001BB70010B5104A2B
:102A200004460020116811F480030E4903D0B3F569
:102A3000800F00D10C49082C11D1106800F03F0024
:102A4000B1FBF0F01168C1F388114843116801220D
:102A500001F4403102EB11414900B0FBF1F010BD2F
:102A6000043802400024F400001BB7008A8A8282E6
:102A70008A7C8274CA7CC2748A898281CA89C28132
:102A80000A8A02820A8802804A8842808A88828072
:102A9000CA88C2800A8902818A7A8272C97AC1721E
:102AA0007047002181828174C1748181C18101825A
:102AB000018041808180C180018103218172C172C6
:102AC0007047B0F900204FF4A56102F525728A42E3
:102AD0001FD8B0F9022002F525728A4219D8B0F940
:102AE000042002F525728A4213D8B0F9062002F5B7
:102AF00025728A420DD8817A012903D0022901D09A
:102B0000032906D1C07A012805D0022803D0032862
:102B100001D00120704700207047000003220021EF
:102B2000012001F039FB2B4C60600020FEF762FBB6
:102B300004F1100528600120FEF75CFB6860264860
:102B4000FFF7AFFF24481E30FFF7ABFF04F108008A
:102B500002210170012141708170C1700171C82092
:102B600001F0B4F81E491D488A788258897842F0ED
:102B7000010242504FF4FA763146606801F0B2FB30
:102B8000012807D01448FFF78CFF13481E30FFF7C9
:102B900088FFF1E7FEF71EFB207055F820000E4974
:102BA000FFF783FE0C48FFF78CFF50B10A490A4833
:102BB0001E31FFF75BFF00F05BFA642109A0FDF70F
:102BC0004DFC00F019F8044901F11E00FFF74EFF1B
:102BD000D2E7000018000020B80100200064024085
:102BE000FA4A00083C4552524F523E206572726FBD
:102BF000723A25640D0A0000F0B52E4B0226A3F1AF
:102C00001E00DC7AC27A01212B48032C04D0012C4F
:102C10000CD0022C0ED00FE0022A02D0012A02D0E2
:102C20000AE0467008E00325457005E0022A03D15A
:102C3000417001E0032AFBD09D7A1E4B1E3B032D01
:102C40009B7A02D0012D04D006E0012B04D1C6707E
:102C500002E0032B00D1C170174F083F032C14D1A1
:102C6000022A02D0012A08D00FE04278521CD2B2C8
:102C70004270042A09D1417007E079708278521CB1
:102C8000D2B28270052A00D18170032D07D1012BA9
:102C900006D0022B03D10179012900D10671F0BDC4
:102CA000B970C278521CD2B2C270032AF7D1C17077
:102CB000F0BD0000D6010020200000201CB500F06F
:102CC00035FF11490F20CDE900014FF48074002336
:102CD00022460EA1114801F017FC11490920CDE947
:102CE0000001002322460FA1114801F00DFC11A0A4
:102CF000FDF7B4FB17A0FDF7B1FB00F053FFBDE8F3
:102D00001C40002001F018B83000002072656D6F83
:102D10007465725F7461736B000000001D2B000806
:102D2000340000206A756467655F7461736B00002E
:102D3000C91500083C494E464F3E200D0A416C6CB7
:102D4000207461736B732063726561742E0D0A0DBC
:102D50000A0000003C494E464F3E200D0A5379734D
:102D600074656D2072756E2E0D0A0D0A000000004C
:102D700010B5502080F31188BFF34F8FBFF36F8FD2
:102D800001F0FCFB18B104494FF0805008600020AE
:102D900080F3118810BD000004ED00E0304810B54C
:102DA000016821F00F0141F005010160016801F0A7
:102DB0000F010529FAD12B48016841F44041016017
:102DC000016841F4803101602748016841F4803195
:102DD00001600168C1F340410029FAD02249234A29
:102DE000091D0B68224C23401A430A600A6822F42A
:102DF00040320A60016841F0807101600168C1F3EE
:102E000040610029FAD018480830016821F0F0012B
:102E10000160016821F4E05141F4A05101600168B2
:102E200021F4604141F400410160016821F0030197
:102E300041F002010160016801F00C010829FAD19A
:102E40000C48FEF745FD0020FEF702FA08B172B605
:102E5000FEE705488C30016821F08071016010BDEB
:102E6000003C02400070004000380240062D400047
:102E70000080BFFF0095BA0A0548016841F470015F
:102E8000016003494FF0006080390860704700001E
:102E900088ED00E00148FEF7CDBA0000B000002048
:102EA0007047704770477047F0B50268254C264D53
:102EB000264E274F274B4FF0804CA04209D060454B
:102EC00007D0A84205D0B04203D0B84201D0984202
:102ED00004D122F0700E4A6842EA0E02A0421BD0D2
:102EE000604519D0A84217D0B04215D0B84213D0CF
:102EF000984211D0184DA8420ED0184DA8420BD0C0
:102F0000174DA84208D0174DA84205D0164DA8422B
:102F100002D0164DA84203D122F44075CA682A4354
:102F20004D6922F080022A4302608A68C2620A6800
:102F30008262A04201D0984201D109690163012156
:102F40004161F0BD00000140000400400008004065
:102F5000000C0040000401400040014000440140DA
:102F60000048014000180040001C004000200040C4
:102F700010B500F049F802496FF02000086010BD5C
:102F8000001001407047000010B500F007F802493A
:102F90006FF02000086010BD0014014038B51548DE
:102FA0000168C1F30011002922D001680091406836
:102FB000009011488078EE2818D0104C012120464E
:102FC000FEF754FB0E48211D407840580D4980B251
:102FD000C0F180004870802201212046FEF76EFB80
:102FE0002046BDE838400221FEF74ABB00F048F910
:102FF00038BD000000140140380100200064024088
:10300000EA4A00081000002038B514480168C1F3EE
:103010000011002921D0016800914068104C0090F7
:10302000A078EE2817D00F4D02212846FEF71EFB90
:103030000021A4F11200625C4254491CC9B2122959
:10304000F9D309490120122208702846BDE838400A
:103050000221FEF733BB00F013F938BD0010014028
:10306000020100200064024010000020FEE7000082
:1030700070B50C4CE06840F40050E0600A4D02214D
:103080002846FEF7F3FA122202212846FEF716FB25
:1030900002212846FEF7F4FAE06840F40050E060B0
:1030A00070BD0000001001400064024070B5828ACB
:1030B0004FF41674D607B0F91810C4F100054FF09C
:1030C00000034FEA82760BD0002E0DDB002901DAD7
:1030D0000A310183B0F91810A14220DA491D15E028
:1030E000002E01DAD60708D0002911DA01F10A0111
:1030F00009B20183002911DC11E0002901DD0A3940
:103100000183B0F91810A94209DD491F018306E0C7
:1031100005DD0A3909B20183002900DA0383B0F919
:10312000161016070BD5520718D4002901DA0A31F8
:10313000C182B0F91610A14220DA491D0CE05407F3
:103140000CD512070AD4002901DD0A39C182B0F971
:103150001610A94212DD491FC1820FE0002906DACC
:1031600001F10A0109B2C182002906DC06E005DD91
:103170000A3909B2C182002900DAC382B0F90C1001
:1031800061B1428B114409B24FF4257241839142DF
:1031900002DC5242914200DA428370BD438370BD2B
:1031A000002809DB00F01F02012191404009800046
:1031B00000F1E020C0F800117047002809DB00F0A2
:1031C0001F02012191404009800000F1E020C0F879
:1031D00000117047002809DB00F01F020121914017
:1031E0004009800000F1E020C0F8001170470000A5
:1031F00002480068C0F30220704700000CED00E0B8
:103200000907090E002804DB00F1E02080F8001413
:10321000704700F00F0000F1E02080F8141D7047A7
:103220000907090E002804DB00F1E02080F80014F3
:10323000704700F00F0000F1E02080F8141D704787
:103240000907090E002804DB00F1E02080F80014D3
:10325000704700F00F0000F1E02080F8141D704767
:103260000907090E002804DB00F1E02080F80014B3
:10327000704700F00F0000F1E02080F8141D704747
:10328000BFF34F8F05480168054A01F4E06111431F
:103290000160BFF34F8F00BFFDE700000CED00E0C1
:1032A0000400FA052DE9F041244F02213846FEF7CB
:1032B000D3F9244C214E2248A17808368851A178B0
:1032C000351D21484851122202213846FEF702FAE4
:1032D0001B48001FC16841F02001C160C16841F076
:1032E0001001C160416941F040014161022138464D
:1032F000FEF7D0F901213846FEF7AEF961781348A0
:103300008851617812484851802201213846FEF7E1
:10331000E1F90E48001FC16841F02001C160C16899
:1033200041F01001C160416941F0400141613846FE
:10333000BDE8F0410121FEF7ADB900000064024094
:1033400004100140F24A0008020100200414014068
:10335000380100200449C2B24A600A68C2F38012F0
:10336000002AFAD070470000004800401CB5FDF765
:1033700055FFFFF713FDFEF7FFFDFEF7CFFDFFF74B
:10338000E5F8FEF729FEFEF715FFFEF78DFFFFF7C4
:1033900061F9FEF7A7FEFFF735F8FEF7FFFFFFF72D
:1033A000B3F9FDF779FE06490A20CDE900010023B3
:1033B000802204A1064801F0A7F800F0D1FDFEE745
:1033C0001400002073746172745F7461736B000089
:1033D000BD2C00082DE9F0411E4C0F460546E6685D
:1033E0002068001D00F05CFB38B9206890F82C10B4
:1033F00001208840216981432161681C15D1A7B152
:10340000154922684868906023688268DA602268FB
:103410008368121D5A602268121D82602068416113
:103420000868401C0860BDE8F08120683544B5425A
:103430004560216805D2E06BBDE8F041091D00F050
:1034400050BBA06B091D00F04CFBA06A8542EAD27C
:10345000A562E8E738000020C40400202DE9F0410F
:10346000054600F063FB354CA068401CA060206856
:10347000334F10B1606930B32BE02560A06801289C
:1034800027D1002606EB860007EB800000F01BFB2F
:10349000761C202EF6D32B4800F015FB294814305B
:1034A00000F011FB2748283000F00DFB25483C3088
:1034B00000F009FB2348503000F005FB2148A063D1
:1034C0001430E06305E02068E96AC06A884200D8E9
:1034D0002560606A0121401C6062E86A22698140BF
:1034E0001143216100EB800007EB80004068A86079
:1034F0008168E9608268291D51608160E86A00EB9B
:10350000800007EB8001696157F82010491C47F8DB
:10351000201000F047FB606900280CD02068E96AA1
:10352000C06A884207D208494FF080500860BFF354
:103530004F8FBFF36F8FBDE8F0810000380000208F
:10354000F40100207404002004ED00E02DE9F041B6
:10355000856B174604460026026C82B1C7B1E0684D
:10356000FDF722F8E168206C091AE16022689142B7
:1035700002D2A168081AE060022F16D017E0206876
:10358000A8B9A06801F0A6F806460020A0600EE0E9
:103590006068FDF709F8216C606808446060A16804
:1035A000884204D32068606001E005B16D1E6D1C87
:1035B000A5633046BDE8F08110B50446006B00F00D
:1035C00023FB2046BDE8104000F01EBB10484FF41E
:1035D0003841420706D0C01D0D4920F00700411AAE
:1035E000C1F538410B4A00230144C2E90003083900
:1035F000183A21F0070111604B600B600B1AC0E90B
:10360000001393604FF0004053605061704700001A
:10361000D804002090000020144E154CA6F52F77FA
:103620004FF08058DFF84C9012E000BF00F07EFAB7
:10363000F068C568281D00F033FAA068401EA0603D
:103640006068401E606000F0ADFA2846FFF7B4FFE6
:1036500060680028EAD138680128F9D9C9F80080E3
:10366000BFF34F8FBFF36F8FF2E70000B00400206D
:103670003800002004ED00E02DE9F05FDDE90B9457
:103680000F4683466FF00301206B01EB8201084473
:103690000A9E20F007089A465FEA487005D04FF46A
:1036A00058721EA122A0FCF7D9FE002567B10020A8
:1036B0002218395C82F83410395C11B1401C102892
:1036C000F6D384F8435001E084F83450202E06D31A
:1036D00040F2973211A116A0FCF7C0FE1F26E66249
:1036E000C4E91165201D00F0F9F904F1180000F09B
:1036F000F5F92461C6F120006462A061E56484F8F4
:10370000505052465946404600F0B4F92060B9F195
:10371000000F01D0C9F80040BDE8F09F2E2E5C4696
:1037200072656552544F535C7461736B732E630002
:103730004572726F723A25732C25640D0A000000E1
:1037400030B5114900E011460A688242FBD34B684C
:103750005C18844203D140681844486008464368B6
:103760001C18944209D1084C183C2468A24209D084
:1037700052681A4442600A6812680260814200D0AE
:10378000086030BD0460F9E79000002010B50446E1
:1037900000F0CCF9A06B28B15FF0000400F002FA51
:1037A000204610BD0124F9E7F1B500980026846C8D
:1037B0002CB940F6D53219A11DA0FCF74FFEA06B25
:1037C000E16B884205D340F6D63214A118A0FCF76D
:1037D00045FEA06BE16B88421ED294F94550002251
:1037E00069462046FFF7B2FE0646681C02D07F2DD0
:1037F00009D00EE0606A78B104F1240001F02CF8E1
:1038000050B1012608E040F6F63204A108A0FCF70A
:1038100025FE6D1C84F845503046F8BD2E2E5C46C2
:1038200072656552544F535C71756575652E630002
:103830004572726F723A25732C25640D0A000000E0
:103840000548816B096821B1816BC968096881628B
:1038500070474FF0FF31FAE7380000200848406811
:10386000401C04D0E92207A111A0FCF7F7FD50206D
:1038700080F31188BFF34F8FBFF36F8FFEE7000017
:10388000980000202E2E5C4672656552544F535CA2
:10389000706F727461626C655C525644535C415245
:1038A0004D5F434D34465C706F72742E63000000B0
:1038B0004572726F723A25732C25640D0A00000060
:1038C0002DE9F041044600F031F994F9455004F136
:1038D00024060FE0A06C18B12046FFF765FF04E056
:1038E000606A48B1304600F0B7FF08B100F096FAC0
:1038F0006D1E6DB2002DEDDC4FF0FF3684F8456093
:1039000000F050F900F012F994F9445004F1100756
:1039100009E0206948B1384600F09EFF08B100F088
:103920007DFA6D1E6DB2002DF3DC84F84460BDE8B5
:10393000F04100F037B900002DE9F04105460026BE
:1039400000F052FB364F386808B9FFF73FFE786940
:10395000054258D1002D56D005F10804AC4252D989
:1039600060070ED004F00700C0F108002044A04218
:1039700049D90446400704D09C222AA133A0FCF771
:103980006DFD002C3FD0786884423CD82448183024
:1039900001460D6801E028460D466968A14202D241
:1039A00029680029F7D13968B8468D422BD00668BE
:1039B0002968016068680836001B10280ED92F1985
:1039C000780704D0CF2217A120A0FCF747FD686834
:1039D000001B786038466C60FFF7B2FE6A68D8F862
:1039E00004104046891AC8F80410D8F808309942E3
:1039F00000D2816041690A430021C5E90012C16813
:103A0000491CC8F80C1000F0A5FF700705D04FF452
:103A1000887204A10DA0FCF721FD3046BDE8F081BD
:103A2000780000202E2E5C4672656552544F535C20
:103A3000706F727461626C655C4D656D4D616E672F
:103A40005C686561705F342E630000004572726FC0
:103A5000723A25732C25640D0A0000000449086899
:103A600018B10868826C521C8264086870470000B4
:103A70003800002010B5031F4FF080741C601B1F1E
:103A800021F001011960191F044B0B6014390A6001
:103A9000091F6FF0020244380A6010BD5D3800084B
:103AA000D0E9013201699A60D0E901235A604A687D
:103AB000824201D182684A60002202610868401E89
:103AC00008600868704700F108014FF0FF32C0E954
:103AD0000112C16001610021016070470021016194
:103AE000704730B50B685A1C02D000F1080202E0A2
:103AF000026904E02246546825689D42FAD9536859
:103B00004B6099608A60516008610168491C0160DE
:103B100030BD42684A6093688B60936859609160D9
:103B200008610168491C016070470000502080F363
:103B30001188BFF34F8FBFF36F8F09494868401C4E
:103B4000486001280AD10748006810F0FF0F05D02F
:103B50004FF4DB7204A10FA0FCF780BC704700009B
:103B60009800002004ED00E02E2E5C467265655240
:103B7000544F535C706F727461626C655C52564452
:103B8000535C41524D5F434D34465C706F72742EEE
:103B9000630000004572726F723A25732C25640D24
:103BA0000A00000010B5084C606828B940F2BD1248
:103BB00006A111A0FCF752FC6068401E606001D1B4
:103BC00080F3118810BD0000980000202E2E5C4666
:103BD00072656552544F535C706F727461626C65AC
:103BE0005C525644535C41524D5F434D34465C70C9
:103BF0006F72742E630000004572726F723A257303
:103C00002C25640D0A00000070B500282DD0174D3A
:103C1000A0F1080460686969084205D14FF4927206
:103C200013A11DA0FCF71AFC206828B140F2251250
:103C30000FA119A0FCF712FC61686869014214D059
:103C40002268002A11D18143616000F0CDF96068DB
:103C50006968084468602046FFF772FD2869401CC7
:103C60002861BDE8704000F075BE70BD780000208E
:103C70002E2E5C4672656552544F535C706F7274A1
:103C800061626C655C4D656D4D616E675C68656118
:103C9000705F342E630000004572726F723A2573B4
:103CA0002C25640D0A0000004FF0E0200021016186
:103CB000816105494FF47A720968B1FBF2F1491E3E
:103CC00041610721016170470C00002010B504001C
:103CD00012D00E48406B28B140F249520CA111A0FD
:103CE000FCF7BCFB00F080F900212046FFF772FBD7
:103CF00000F030FE002807D10E494FF080500860D8
:103D0000BFF34F8FBFF36F8F10BD0000380000204E
:103D10002E2E5C4672656552544F535C7461736B12
:103D2000732E63004572726F723A25732C25640DF1
:103D30000A00000004ED00E070B50546FFF7F6FE4E
:103D4000254C05B92568281DFFF7AAFE58B9E86A71
:103D5000224A00EB800152F8211021B90121814053
:103D6000206988432061A86A18B105F11800FFF79F
:103D700097FE606A401C60622068854207D1291D59
:103D80001748FFF7C6FE6068401C606004E0A0684A
:103D9000401EA060FFF754FDFFF704FF2068854236
:103DA00002D02846FFF708FC6069002812D020687E
:103DB00085420FD1606B28B140F2DC4209A10EA010
:103DC000FCF74CFB10494FF080500860BFF34F8F59
:103DD000BFF36F8F70BD000038000020F401002099
:103DE000B00400202E2E5C4672656552544F535C21
:103DF0007461736B732E63004572726F723A257330
:103E00002C25640D0A00000004ED00E002490A6A56
:103E10000260C968416070473800002001490120F4
:103E2000C86170473800002070B50D46040005D108
:103E300040F61C4207A10CA0FCF710FB0E480168DD
:103E400020461831FFF74DFE2846BDE8704001219D
:103E5000FFF7C0BA2E2E5C4672656552544F535C14
:103E60007461736B732E63004572726F723A2573BF
:103E70002C25640D0A0000003800002070B50D46A6
:103E8000040056D0A06C28B941F29F0229A12EA0AF
:103E9000FCF7E4FA606CA84200D30546E06AA84249
:103EA00047D0A06C012844D12B4E3068844205D104
:103EB00041F2BA021FA124A0FCF7D0FAE06AE56241
:103EC000A169002902DBC5F12001A161234D00EBAE
:103ED0008000616905EB800081422AD1201DFFF737
:103EE000DFFD012130B994F82C00326901FA00F0AD
:103EF00082433261E06A326981401143316100EBF3
:103F0000800005EB80004068A0608168E160826805
:103F1000211D51608160E06A00EB800005EB8000AC
:103F20006061E06A00EB800055F82010491C45F8FC
:103F3000201070BD2E2E5C4672656552544F535C46
:103F40007461736B732E63004572726F723A2573DE
:103F50002C25640D0A00000038000020F401002028
:103F60007CB514480025CDE900502B46802212A1D3
:103F7000134800F0C9FA0F4C2C3C012802D0401C19
:103F800010D015E0502080F31188BFF34F8FBFF39E
:103F90006F8F4FF0FF30A06201206061E56000F09C
:103FA00069F805E04FF4046206A10BA0FCF756FA8D
:103FB000206B7CBD6400002049444C45000000009B
:103FC000193600082E2E5C4672656552544F535CBC
:103FD0007461736B732E63004572726F723A25734E
:103FE0002C25640D0A0000000248416B491C416306
:103FF000704700003800002070B5134C606B10B1A2
:104000000120E06170BD0020E06120690F4EB0FA30
:1040100080F0C0F11F0000EB800556F8250028B99C
:1040200040F602420AA10FA0FCF718FA06EB850041
:1040300000F10802416849684160914201D1496834
:104040004160C868206070BD38000020F401002085
:104050002E2E5C4672656552544F535C7461736BCF
:10406000732E63004572726F723A25732C25640DAE
:104070000A0000007CB5344C20683449884205D1E0
:1040800040F2431232A13DA0FCF7E8F920682F4925
:10409000491E884205D14FF4A2722DA137A0FCF72A
:1040A000DDF93A4D28780190FF20287028788DF8A6
:1040B00000009DF800009DF8001000F0F00088421C
:1040C00005D040F25D1222A12CA0FCF7C7F99DF8A3
:1040D00000002F4C00F0500020700720A06005E089
:1040E0009DF8001049008DF80010401E9DF800104A
:1040F0000906F5D4A060032805D04FF4BD7214A1C1
:104100001EA0FCF7ABF9207A000200F4E060A0608A
:10411000019828700C482030016841F4700101605A
:10412000016841F070410160FFF7BEFD0020606052
:10413000FCF7C0F81748016841F040410160FCF706
:10414000A5F800207CBD000000ED00E071C20F4129
:104150002E2E5C4672656552544F535C706F7274BC
:1041600061626C655C525644535C41524D5F434DF5
:1041700034465C706F72742E630000004572726F7B
:10418000723A25732C25640D0A00000000E400E05B
:104190009800002034EF00E070B50E4605004FF0A7
:1041A00000041DD0601EB0FBF5F0B04218D305FB33
:1041B00006F010F14D0F13D84C30FFF7BDFB040093
:1041C00014D004F14C004EB12060C4E90F562046D3
:1041D000012100F01FF80021A16407E02460F4E74A
:1041E0004FF4E37202A107A0FCF738F9204670BD36
:1041F0002E2E5C4672656552544F535C7175657521
:10420000652E63004572726F723A25732C25640D1A
:104210000A0000002DE9F0410F4604004FF00106AE
:104220002BD0E06B78B3B51EB5FBF0F1206C81426A
:1042300029D3FFF77BFCD4E90F20216802FB001192
:10424000A1600021A163216861600A46D4E90F01E1
:10425000401E00FB01212046E16000F8445F4570EC
:1042600004F11000CFB1FFF72EFC04F12400FFF79A
:104270002AFC00BFFFF796FC0CE04FF488720FA1F8
:1042800013A0FCF7EBF8002640F245120BA110A09A
:10429000FCF7E4F83046BDE8F08121690029E9D057
:1042A00000F0DAFA0028E5D00D494FF080500860A0
:1042B000BFF34F8FBFF36F8FDCE700002E2E5C46FD
:1042C00072656552544F535C71756575652E630058
:1042D0004572726F723A25732C25640D0A00000036
:1042E00004ED00E02DE9F343002683B004003546D9
:1042F00005D140F2E35254A158A0FCF7AFF8206C6E
:1043000028B140F2E75250A154A0FCF7A7F800F002
:1043100027F938B9049828B140F2EC524AA14FA0CD
:10432000FCF79CF84FF000094FF08057DFF83C8114
:10433000FFF7FCFBA06BC8B1401EA063206810B95A
:10434000FFF78CFBA060206950B104F1100000F071
:1043500083FA28B1C8F80070BFF34F8FBFF36F8F97
:10436000FFF720FC012005B0BDE8F083049808B1F8
:1043700056B10DE02DB140F2326233A137A0FCF707
:104380006DF8FFF70FFC5DE06846FFF73FFD012683
:10439000FFF708FCFFF728FEFFF7C8FB94F944007D
:1043A000401C01D184F8449094F94500401C01D18F
:1043B00084F84590FFF7F6FB04A9684600F058F82A
:1043C0000028204612D0FFF77BFA00F0C3FA2046FF
:1043D000FFF7DCF90028ABD09DB3FFF7A7FB606ABD
:1043E00050B3206B0068C0F1200126E0FFF7CEF942
:1043F000E0B1206838B9FFF799FBA06800F0D4F964
:104400000546FFF7CFFB04F124000499FFF70CFDEC
:104410002046FFF755FA00F09DFA002888D1C8F829
:104420000070BFF34F8FBFF36F8F81E72046FFF718
:1044300047FA00F08FFA7BE70021A068FFF71EFD26
:104440009FE7FFE700208EE72E2E5C4672656552DF
:10445000544F535C71756575652E63004572726FBC
:10446000723A25732C25640D0A00000004ED00E06B
:104470002DE9F0410C46050005D140F6FD4218A19A
:104480001CA0FBF7EBFF2CB940F6FE4214A119A0CB
:10449000FBF7E4FFFFF74AFB1A4EF2686B682068EF
:1044A000D11A471C0AD02F68D6F820C000266745CD
:1044B00006D0934204D8012526600BE0002509E0D0
:1044C000884205D9401A20602846FFF79FFCF5E78F
:1044D00001252660FFF766FB2846BDE8F081000055
:1044E0002E2E5C4672656552544F535C7461736B3B
:1044F000732E63004572726F723A25732C25640D1A
:104500000A000000380000202DE9FF5F8346DDE946
:104510000E87994616468A469000FFF70DFA050069
:104520001AD05420FFF708FA040012D025630021A6
:10453000CDE90241CDE900874B4632465146584607
:10454000FFF79AF82046FEF789FF012004B0BDE886
:10455000F09F2846FFF758FB4FF0FF30F6E70000CA
:104560000548416919B1406B18B10020704701201E
:104570007047022070470000380000202DE9F0410C
:10458000494C0026606B28B1A069401CA0613046F0
:10459000BDE8F081E5686D1CE56011D1A06B006895
:1045A00028B140F6C72241A145A0FBF757FFA06BF9
:1045B000E16BA163E063206A401C2062FFF740F9D1
:1045C000A16A43488D420FD34FF0000EA16B0968DA
:1045D00039B1A16BC968C9684A68954212D2A26212
:1045E00002E04FF0FF31A1622168C96A01EB81014D
:1045F00050F82100012800D90126E0690028C6D022
:104600000126C4E7D1E902724B69BA60D1E90227F9
:104610007A605F680A1D974201D1CF685F60C1F878
:1046200014E01F687F1E1F60D1F828C0BCF1000F86
:1046300015D0D1E907379F60D1E907377B60DCF8F7
:10464000047001F118039F4202D10B6ACCF80430C8
:10465000C1F828E0DCF800305B1ECCF80030CB6AF3
:104660000127D4F810C09F4047EA0C07276103EBED
:10467000830300EB83035B688B609F68CF609F6858
:104680007A609A60CA6A02EB820200EB82034B6195
:1046900050F822305B1C40F82230C96A2268D26A86
:1046A000914293D3012691E7380000202E2E5C46DC
:1046B00072656552544F535C7461736B732E630063
:1046C0004572726F723A25732C25640D0A00000042
:1046D000F401002070B504004FF000064BD0274DC8
:1046E0002868844205D041F24F0225A129A0FBF79A
:1046F000B5FEA06C28B941F2500221A125A0FBF71C
:10470000ADFEA06C401EA064626CE16A914232D0A2
:1047100088BB201DFFF7C4F9012130B994F82C00A3
:104720002A6901FA00F082432A61606CE062C0F1FC
:104730002000A061E06A2A6981401143296119497A
:1047400000EB800001EB80004068A0608268E260BE
:104750008368221D5A608260E06A00EB800001EBF2
:1047600080006061E06A00EB800051F82020521C5C
:1047700041F820200126304670BD0000380000209E
:104780002E2E5C4672656552544F535C7461736B98
:10479000732E63004572726F723A25732C25640D77
:1047A0000A000000F401002070B504004FF0000082
:1047B00047D0274DE16A2A68D26A914242D2A06965
:1047C000002804DB2868C06AC0F12000A061214EE7
:1047D00001EB8101606906EB810188422DD1201D2A
:1047E000FFF75EF9012130B994F82C002A6901FA2B
:1047F00000F082432A612868C06AE0622A69814029
:104800001143296100EB800006EB80004068A06046
:104810008168E1608268211D51608160E06A00EB7F
:10482000800006EB80006061E06A00EB800056F8D3
:104830002010491C46F8201002E02868C06AE06297
:10484000012070BD616C2A68D26A9142F8D370BDB4
:1048500038000020F401002070B5C068C4682CB98D
:1048600040F682422FA134A0FBF7F8FDD4E90720DF
:10487000A16A9060D4E9070250604A6804F1180008
:10488000824201D1226A4A600023A3620A68521E52
:104890000A602D494A6B01259AB12C4B5A68E26196
:1048A00096682662966870609060A3621868401CE3
:1048B0001860E06A0A68D26A904231D90120CD615D
:1048C00070BDD4E902626069B260D4E90226726008
:1048D0004668221D964201D1E6684660636103681E
:1048E0005B1E0360E06A0E6905FA00F333430B6157
:1048F000174B00EB800003EB80004068A0608668E7
:10490000E660866872608260E06A00EB800003EB1C
:104910008002626153F82020521C43F82020C8E72F
:10492000002070BD2E2E5C4672656552544F535C5C
:104930007461736B732E63004572726F723A2573E4
:104940002C25640D0A000000380000209C04002083
:10495000F40100202DE9F041454D00242746686B05
:1049600028B940F6B30243A147A0FBF777FDFFF754
:10497000DDF8686B401E6863686B002872D1A86818
:10498000454B00264FF00108F0BB6BE0D868C468C7
:10499000D4E90721A06A9160D4E907125160426806
:1049A00004F118018A4201D1216A4160A6620168BE
:1049B000491E0160D4E9022160699160D4E90212C4
:1049C00051604268211D8A4201D1E26842606661FD
:1049D0000268521E0260E26AD5F810C008FA02F0BE
:1049E00040EA0C00286102EB82002C4A02EB8000B6
:1049F0004068A060D0F808C0C4F80CC0D0F808C067
:104A0000CCF80410816000E011E0E06A00EB800067
:104A100002EB8001616152F82010491C42F820101D
:104A2000E06A2968C96A884201D3C5F81C80186801
:104A30000028ABD10CB1FEF703FFAC6944B100BF55
:104A4000FFF79CFD08B1C5F81C80641EF8D1AE616B
:104A5000E86938B11249012738070860BFF34F8F62
:104A6000BFF36F8FFFF79EF83846BDE8F081000076
:104A7000380000202E2E5C4672656552544F535C00
:104A80007461736B732E63004572726F723A257393
:104A90002C25640D0A0000009C040020F401002075
:104AA00004ED00E04FF04070E1EE100A70470000A6
:104AB00000000404040000080000000800000800D2
:104AC00000000800020406080A0C102840587088EC
:104AD000A0B8000000000000000001020304060767
:104AE00008090000000001020304102840587088E3
:104AF000A0B8102840587088A0B810284058708876
:104B0000A0B83A7474003A7474003A7474000000E7
:104B1000304B000800000020B0000000E801000851
:104B2000E04B0008B0000020A8C300000402000809
:104B300001000000100000000000000080A8120129
:104B40000000000000000000000000000000000065
:104B50000000000000000000000000000000000055
:104B60000000000000000000000000000000000045
:104B70000000000000000000000000000000000035
:104B80000000000000000000000000000000000025
:104B900000000000000000001F00000000000000F6
:104BA0000000000000000000000000000000000005
:104BB00000000000000000000000000000000000F5
:104BC000000000000000000000000000AAAAAAAA3D
:104BD00000000000000000000000000000000000D5
:04000005080001AD41
:00000001FF
