:020000040800F2
:1000000038C300202D030008372300085F130008C1
:1000100035230008AD0F0008392700080000000054
:100020000000000000000000000000006D02000859
:10003000B10F000800000000C90200088124000878
:100040004703000847030008470300084703000868
:100050004703000847030008470300084703000858
:100060004703000847030008470300084703000848
:100070004703000847030008470300084703000838
:100080004703000847030008470300084703000828
:100090004703000847030008470300084703000818
:1000A00047030008A5250008470300084703000888
:1000B000B125000847030008B325000847030008DE
:1000C00047030008470300084703000847030008E8
:1000D000470300088126000847030008952600080A
:1000E00047030008470300084703000847030008C8
:1000F00047030008470300084703000847030008B8
:100100004703000847030008B52500084703000817
:10011000470300084703000847030008B725000805
:100120004703000847030008AF0F00084703000813
:100130004703000847030008470300084703000877
:100140004703000847030008470300084703000867
:100150004703000847030008470300084703000857
:100160004703000847030008470300084703000847
:100170004703000847030008470300080000000089
:100180004703000847030008470300084703000827
:100190004703000847030008470300084703000817
:1001A00000000000000000004703000800F002F813
:1001B00000F04CF80AA090E8000C82448344AAF1B5
:1001C0000107DA4501D100F041F8AFF2090EBAE8B3
:1001D0000F0013F0010F18BFFB1A43F0010318477B
:1001E000F433000014340000103A24BF78C878C1FA
:1001F000FAD8520724BF30C830C144BF04680C602D
:10020000704700000023002400250026103A28BF74
:1002100078C1FBD8520728BF30C148BF0B60704778
:10022000642900F08581732900F053820020704713
:100230001FB503F09DF99DE8030000F087FC00F076
:100240007BFA1FBD10B500F0E0FA10BD00F043FBD3
:100250001146FFF7EDFF02F00BFB00F047FC03B483
:10026000FFF7F0FF03BC00F003FE00002C4B196801
:100270000868B0E8F04F80F30988BFF36F8F4FF044
:10028000000080F3118870470000000008480068F3
:10029000006880F308884FF0000080F3148862B68D
:1002A00061B6BFF34F8FBFF36F8F00DF00BF00BF9A
:1002B00008ED00E0DFF80C00016841F47001016016
:1002C000704700BF88ED00E0EFF30980BFF36F8F48
:1002D000134B1A681EF0100F08BF20ED108A20E99A
:1002E000F04F106009B44FF0500080F31188BFF355
:1002F0004F8FBFF36F8F02F0EBFE4FF0000080F3E3
:10030000118809BC19680868B0E8F04F1EF0100F9A
:1003100008BFB0EC108A80F30988BFF36F8F704775
:1003200018000020EFF3058070470000094880475F
:1003300009480047FEE7FEE7FEE7FEE7FEE7FEE7C7
:10034000FEE7FEE7FEE7FEE704480549054A064BDF
:100350007047000089250008AD01000838BD002065
:1003600038C3002038BF002038BF002053EA020CF9
:1003700000F069802DE9F04B4FF00006002B1FBF05
:10038000B3FA83F503FA05F424FA05F65E4012BFCA
:100390001643B2FA82F502FA05F4C5F120051EBF34
:1003A00022FA05FC44EA0C04203556EA044C4FEAD4
:1003B000144418BF641C4FF000084FF0000990422D
:1003C00071EB030C39D3002919BFB1FA81F701FA97
:1003D00007F6B0FA80F700FA07F6C7F120071EBF4C
:1003E00020FA07FC46EA0C062037B6FBF4FCA7EB24
:1003F0000507103F07F01F0BCBF120060CFA0BFB93
:100400002CFA06F644BFB3460026202FA4BF5E4652
:100410004FF0000B5BEA060C08BF4FF0010B19EB25
:100420000B09ABFB027C48EB0608C01B06FB02CCA9
:100430000BFB03CC71EB0C01C1E70B4602464146B6
:100440004846BDE8F08B13B54FF000004FF00001B7
:10045000AFF30080BDE81C40704700000FB40449B2
:1004600010B503AA029800F039F910BC5DF814FB2E
:100470002CBC00202DE9F0410E46044600202062ED
:100480002046E168884730B3252805D0D4E901210A
:100490009047206A401CF2E7E16820460027884721
:1004A000050018D0A5F14100192802D820354FF4D5
:1004B00000673246294620462760FFF7B1FE40B16B
:1004C000012804D0F61D26F007060836D8E7361DA9
:1004D000D6E72846DAE7206ABDE8F08170B50C4619
:1004E0000546012A05D02878800600D5EA69002350
:1004F00002E0012305E05B1C934202D2E05C00288D
:10050000F9D1A869E618C01AA861286A18442862B7
:100510002846AFF3008004E0D5E9012114F8010B6F
:100520009047B442F8D32846AFF3008070BD000076
:100530002DE9F0410646002410687529314616A5BC
:1005400010D0AFF30080002802DA404213A507E084
:1005500031688A0701D512A502E0490704D511A523
:10056000012401E0AFF3008000210A2206F12407F4
:1005700009E0B0FBF2FCB0FBF2F302FB1C003030F0
:1005800078541846491C0028F3D123462A463046A1
:10059000BDE8F04100F032B8000000002D0000007E
:1005A0002B000000200000004FF0000200B51346B1
:1005B00094469646203922BFA0E80C50A0E80C5083
:1005C000B1F12001BFF4F7AF090728BFA0E80C5034
:1005D00048BF0CC05DF804EB890028BF40F8042B2D
:1005E00008BF704748BF20F8022B11F0804F18BF9A
:1005F00000F8012B70477047704770472DE9F047AE
:100600000D4699469246044600F124080168880682
:1006100004D5E06921F01001216000E00120A8422A
:1006200001DD471B00E00027A1697A1902EB0900F0
:10063000081AA0612078C00602D42046AFF30080DB
:10064000002608E0D4E901211AF806009047206A44
:10065000401C761C20624E45F4DB2078C0060AD58B
:100660002046AFF3008006E0D4E901213020904716
:10067000206A401C2062381EA7F10107F4DC07E065
:10068000D4E9012118F805009047206A401C206237
:10069000281EA5F10105F3DC2046AFF30080207889
:1006A000000602D50220BDE8F0870120FBE710B567
:1006B000436913B1AFF3008001E0FFF70FFF0120A2
:1006C00010BD127800F124010A7000224A70012244
:1006D000EDE711684FF0FF32E9E70000074B70B516
:1006E0000D467B4400F011F80446284600F020F83F
:1006F00010B14FF0FF3070BD204670BD7321000077
:1007000001694A1C02610878704700B58FB0CDE9D5
:1007100001310021059105497944CDE903101146C5
:100720006846FFF7A7FE0FB000BD0000E5FFFFFF22
:10073000007B00F08000704710B542485421FFF75D
:1007400033FF41485421FFF72FFF40485421FFF762
:100750002BFF3F493B483C4A3F4B08603D490A60FC
:100760003A491960531C0365481C1065012008654F
:100770003B48344A39A1784400F01CF920B9384884
:1007800078440A3800F0B8F937482F4A35A1784440
:1007900000F010F920B9344878440A3800F0ACF978
:1007A00032482A4A2FA1784400F004F920B92F4892
:1007B00078440A3800F0A0F940232248DC000021E8
:1007C000224600F0D4F820B125487844543800F08F
:1007D00093F91D4822464023002100F0C8F820B1BB
:1007E00021487844543800F087F9184822461023ED
:1007F000002100F0BCF8002806D01C487844BDE871
:100800001040563800F078B910BD104870B5006D32
:1008100020F001040B4800F043F90B4800F040F9C8
:100820000A4800F03DF909E0206D20F0010520465E
:1008300000F036F9204600F073F82C46002CF3D176
:1008400070BD0000D8BB00202CBC002080BC002064
:1008500084000020880000208C000020720000002E
:100860004C2E000077000000382E0000242E0000DF
:100870000EB5CDE9000100F0DBFA029069460120D7
:10088000ABBE0EBD08B5694600900220ABBE08BDE8
:100890001FB58DE8070069460520ABBE04B010BD4A
:1008A0001FB58DE80F0069460620ABBEF6E708B518
:1008B000694600900920ABBE08BD1CB5CDE900011A
:1008C00069460A20ABBE1CBD704708B5694600905A
:1008D0000C20ABBE08BD754600F016F9AE4605000B
:1008E0006946534620F00700854618B020B5FFF74B
:1008F0002BFDBDE820404FF000064FF000074FF001
:1009000000084FF0000B21F00701AC46ACE8C0092D
:10091000ACE8C009ACE8C009ACE8C0098D46704736
:1009200070B50446051F00F0F5F80068002C14BFF0
:10093000446870BD002C18BFAC423CBF20466468C0
:10094000F8D301680A18AA4218BF456003D12A6883
:1009500005461144016028684119A1421CBF6C6022
:1009600070BD6168696021680844286070BD70B519
:10097000C468A50713D0650211D4B2F5807F09D0F1
:10098000B2F5007F06D0B2F5806F08D1012300F1E7
:10099000240106E05D1E6FF07F46B54201D30120C1
:1009A00070BD0161C361416024F470611143C16095
:1009B000002070BD2DE9F0410C4607461646104652
:1009C00000F06EF82078611C61280AD0722802D0ED
:1009D00077283CD102E00125002405E0022504240B
:1009E00002E0082448F2020511F8010B2B2806D07A
:1009F000622809D011F8010C74280AD00BE045F0E8
:100A0000030544F00204EFE745F0040544F0010457
:100A1000EAE744F0100438462146FFF729FF411C5D
:100A200015D00021316171604FF40071F560F16102
:100A30007061200704D530460222002100F0E4F85E
:100A4000306D40F0010030653046BDE8F081002097
:100A5000FBE72DE9F0410D460646104C206DC1071D
:100A600004D0410804D020F00104F7E722460EE04C
:100A7000542000F09AF807000ED0206D47F00101D5
:100A80000843542120653846FFF78EFD3A46294633
:100A90003046BDE8F0418DE70020D6E7D8BB002006
:100AA0002DE9F04704464FF000094FF0FF37C568C5
:100AB000D4E90486A80707D0204600F055F930464F
:100AC000FFF7E0FE002802DA3846BDE8F087280587
:100AD00002D54046FFF724FF4C212046FFF764FD76
:100AE000206D20F0010020654846EEE70446AFF394
:100AF00000802046FFF7B3FB10B500F07FF9BDE89A
:100B0000104000F075B9000000487047D4BC0020C8
:100B10007047000000487047DCBC002070477047F9
:100B20007047704738B504460A4600206946AFF35F
:100B30000080002808BF38BD02460099204600F01A
:100B4000A4F9012038BD012000F0F3B9F8B5AFF3E6
:100B50000080054600200C46102000BF0646A8195C
:100B6000A0420DD9324669460020AFF3008007004D
:100B700008BF00F0DEF90098A04218BF0546C4196E
:100B8000FFF7C8FF05600746F01D20F00700461973
:100B9000284600F073F9B44208BFF8BDA21B3146E5
:100BA0003868BDE8F84000F070B970B50646FFF748
:100BB000B1FF056806F10B0020F00704B4429CBFAA
:100BC000002070BD2B466A68BAB11068A04210D3ED
:100BD00004F1080188423CBF5068586007D351684F
:100BE000101941601168091B016058601460101DE4
:100BF00070BD13465268002AE7D121462846FFF708
:100C000091FF0028DED170BD2DE9F0410446164663
:100C10000D464769007B80072ED03846FFF747FE18
:100C200050BB3EB3012E02D0022E25D104E0204657
:100C300000F045F905441DE03846FFF746FEE1683F
:100C4000002841F01001E16005DA204600F058F874
:100C50000120BDE8F081C9030BD56268E16A9142C9
:100C600000D81146A26911442269891A814200DD27
:100C700008460544002D01DA0220EAE7E16A6068CF
:100C8000E268814206D29103E06203D522F400318A
:100C900041F01002A6690027AE4213DCE16A8142EE
:100CA00001D90B4600E0034603EB060C2369ACEBCD
:100CB000030CAC4506DD814201D98C4600E0844638
:100CC0009C4505D1A760276042F02000A5620DE099
:100CD000AD1BE669AE1B8142A66000D90846C01A6A
:100CE000281A20605819606022F02000034908404B
:100CF000E060002084F84870ABE70000BFCFD7FF6A
:100D0000C16821F4001141F08001C16000218160BF
:100D1000016070472DE9F047814614460E464FF0BA
:100D2000FF383248D5685769054209D03846A1696D
:100D3000FFF7C3FD002811DB2C48C0430540E560E8
:100D40002B46324649463846FFF7A2FDA16920F0FE
:100D50000042B21A11440028A16103D02046FFF7D7
:100D6000CFFF4046BDE8F08770B504460569C06A0C
:100D70006168884200D80846E16821F42011E160EA
:100D8000C90312D5A84208D02246411B2846FFF7C6
:100D9000C1FF10B14FF0FF3070BD0020E562C4E923
:100DA0000150E06820F48030E060002070BD10B594
:100DB0000446C06820F02000E060A16AA069884273
:100DC0000DD02046FFF7D0FFE06820F4405040F0FF
:100DD0001000E060A06AA0612069E062606044F2F7
:100DE0004001E0688843E06010BD00001000020090
:100DF000002801D000F03CB87047000010B5014653
:100E000002A000F07DF8012010BD000053494752B8
:100E1000545245443A2052656469726563743A20BD
:100E200063616E2774206F70656E3A2000000000C9
:100E300010B5431C02E010F8011B71B18107FAD113
:100E40004FF0013202C88C1A8C4314EAC211F9D057
:100E5000C01A0A0603D0C01E10BDC01A10BD0A0475
:100E600001D0801E10BD0902FCD0401E10BD000044
:100E700001491820ABBEFEE72600020000210160F8
:100E8000C0E90110704710207047034640688C4647
:100E9000002818BF88423CBF03464068F8D3186852
:100EA0001844884207D00CF1030020F00700001D11
:100EB000411A521A0146081D0A60FFF731BD10B5EC
:100EC0000146C268900703D0900607D5886A0AE0F9
:100ED00000F03EF801210160881E10BD8B69486852
:100EE00018440B69C01A91F848301BB191F84910A9
:100EF000401A10BD1103FCD50028FADD401E10BDBC
:100F000070B505460C460A2000E06D1C00F018F88C
:100F100035B128780028F8D102E0641C00F010F800
:100F200014B120780028F8D1BDE870400A2000F004
:100F300007B810B500F010F8BDE81040FFF758BF33
:100F400008B569468DF800000320ABBE08BD00005F
:100F500000487047D4BC002010B5012805D00021FE
:100F600003A0FFF7CDFF012010BD09A1F8E70000A5
:100F700053494752544D454D3A204F7574206F6682
:100F80002068656170206D656D6F727900000000EA
:100F90003A2048656170206D656D6F727920636FCE
:100FA000727275707465640001F01ABCFEE77047D8
:100FB00070470000024881680278114481607047E0
:100FC000000000200B4810B5016841F40071016079
:100FD000016841F480610160016841F48071016041
:100FE000032000F089F8002000F006F800F03EF839
:100FF000002010BD003C024010B5014688B0002220
:10100000192000F059F8192000F048F8134800247E
:10101000016841F001010160006805A900F00100CC
:101020000690684600F07AF800F098F80C49400005
:10103000B0FBF1F10C480B4A491E026040F2E73266
:10104000C0E90324C0E9011400F09AF810B10120AE
:1010500008B010BD044800F0AFF8F9E7443802408A
:1010600040420F0000000140900000200A4808B5EF
:10107000016841F480410160006800F48040009004
:101080000548001F016841F080510160006800F0D0
:101090008050009008BD000044380240002809DB61
:1010A00000F01F02012191404009800000F1E02082
:1010B000C0F8001170470000F0B40E4B1B680C46DE
:1010C000C3F30223C3F10705042D00D90425191D1C
:1010D000072901D2002300E0DB1E012606FA05F1F4
:1010E000491E214099409E40761E16403143F0BC77
:1010F00001F066BB0CED00E0064900F0070208684D
:101100004FF6FF03184040EA0220034A10430860EC
:10111000704700000CED00E00000FA050F220260AD
:101120000C4A136803F003034360136803F0F003F1
:101130008360136803F4E053C36012684FF4E05314
:1011400003EAD20202610448006800F00F00086060
:101150007047000008380240003C0240044805493E
:1011600000680968044AC1F34231515CC8407047C5
:101170000C00002008380240AE3500087047704768
:1011800010B5040003D094F83D0010B107E0012031
:1011900010BD002084F83C00204600F00CF802202E
:1011A00084F83D00211D206801F006FA012084F832
:1011B0003D00002010BD70470168CA6842F001027E
:1011C000CA600068816801F00701062903D0016840
:1011D00041F00101016000207047704770B504467E
:1011E000006801694FF00005C943890715D4C1683B
:1011F000C943890711D4E91E0161012020772068C5
:1012000080698007204602D0FFF7E7FF04E000F086
:1012100098F8204600F096F8257720680169C943C0
:10122000490717D4C168C943490713D46FF00401B3
:101230000161022020772068806910F4407F2046F9
:1012400002D0FFF7CAFF04E000F07BF8204600F070
:1012500079F8257720680169C943090716D4C16860
:10126000C943090712D46FF00801016104202077F7
:101270002068C0698007204602D0FFF7AEFF04E077
:1012800000F05FF8204600F05DF8257720680169DE
:10129000C943C90617D4C168C943C90613D46FF03E
:1012A00010010161082020772068C06910F4407F98
:1012B000204602D0FFF791FF04E000F042F82046FC
:1012C00000F040F8257720680169C943C90708D1B3
:1012D000C168C943C90704D1891E0161204600F0D5
:1012E00033F820680169C943090609D4C168C943B4
:1012F000090605D46FF0800101612046FFF73EFF2B
:1013000020680169C943490609D4C168C94349062F
:1013100005D46FF040010161204600F01FF82068FD
:101320000169C94389060BD4C168C943890607D43A
:101330006FF0200101612046BDE87040FFF71FBF3C
:1013400070BD70477047000000680349884201D1B2
:10135000FFF730BE70470000000001407047FEE715
:10136000044908B50A6802430A600968014000910F
:1013700008BD000030380240044908B50A6802433D
:101380000A6009680140009108BD00003038024041
:10139000044908B50A6802430A60096801400091DF
:1013A00008BD000030380240044908B50A6802430D
:1013B0000A6009680140009108BD00004038024001
:1013C000F0B50A680F2692FAA2F2B2FA82F3032469
:1013D0008AE001279F4015EA07027DD04D68012D64
:1013E00001D0022D1BD18D68876892FAA2FCBCFA4D
:1013F0008CFC4FEA4C0C04FA0CFC27EA0C0792FA1E
:10140000A2FCBCFA8CFC4FEA4C0C05FA0CF52F43FD
:101410008760CD684768554397432F4347600F69FE
:10142000D0F80CC092FAA2F5B5FA85F54FEA450E50
:1014300004FA0EF52CEA050C92FAA2F5B5FA85F538
:101440006D00AF404CEA070CC0F80CC04D68022D8F
:1014500033D192FAA2F5B5FA85F5082D15D2D1F857
:1014600014C0056A92FAA2F7B7FA87F7BF0006FA26
:1014700007F7BD4392FAA2F7B7FA87F7BF000CFA55
:1014800007FC45EA0C05056217E0D1F814E0476A4D
:10149000150A95FAA5FCBCFA8CFC4FEA8C0C06FAEE
:1014A0000CFC95FAA5F5B5FA85F5AD0027EA0C0711
:1014B0000EFA05FE47EA0E0747624D68076892FA82
:1014C000A2FCBCFA8CFC4FEA4C0C04FA0CFE27EA96
:1014D0000E0792FAA2F200E005E0B2FA82F25200A0
:1014E00095402F4307605B1C0A681546DA407FF47D
:1014F00070AF0020F0BD10B5044600F079FF206009
:1015000000F04CFF606000F057FFA060606800F0E2
:1015100061FFE06010BD00000149086070470000F5
:101520000C0000200A7B8B681A434B6822F480620F
:101530001A430B6822F400621A43CB8922F48052CA
:101540001A430B6922F400521A434B6922F4804279
:101550001A4322F4004119434164002070470000FF
:1015600010B501291CD004291CD010291CD04029F9
:101570001CD0B1F5807F1BD0B1F5806F1AD0062149
:101580000D4B18305B5C184403680B4C0E34615CE7
:1015900003248C40120CA3438A401343036010BD04
:1015A0000021EDE70121EBE70221E9E70321E7E76D
:1015B0000421E5E70521E3E77A35000810B50129A4
:1015C0001CD004291CD010291CD040291CD0B1F5F6
:1015D000807F1BD0B1F5806F1AD006210D4B1830DB
:1015E0005B5C184403680B4C0E34615CF0248C4047
:1015F000120CA3438A401343036010BD0021EDE7A2
:101600000121EBE70221E9E70321E7E70421E5E710
:101610000521E3E77A35000810B5012916D0042921
:1016200016D0102916D0402916D0B1F5807F15D0DC
:10163000B1F5806F14D00623016A0A4CE35C0A24DA
:101640009C40A1439A401143016210BD0023F3E77F
:101650000123F1E70223EFE70323EDE70423EBE7A0
:101660000523E9E78F35000810B501291CD00429AE
:101670001CD010291CD040291CD0B1F5807F1BD074
:10168000B1F5806F1AD006210D4B18305B5C184401
:1016900003680B4C0E34615C0C248C40120CA34389
:1016A0008A401343036010BD0021EDE70121EBE701
:1016B0000221E9E70321E7E70421E5E70521E3E764
:1016C0007A350008F0B50268254B264D264E274F87
:1016D000274C4FF0804C984209D0604507D0A84273
:1016E00005D0B04203D0B84201D0A04205D1D1F814
:1016F00004E022F0700242EA0E0298421BD06045DC
:1017000019D0A84217D0B04215D0B84213D0A04289
:1017100011D0184DA8420ED0174DA8420BD0174D2E
:10172000A84208D0164DA84205D0164DA84202D0B6
:10173000154DA84203D1CD6822F440722A430260BD
:101740008A68C2620A888262984201D0A04201D1AE
:10175000097C0163416941F0010141610020F0BD54
:10176000000001400004004000080040000C004060
:101770000004014000400140004401400048014095
:1017800000180040001C004000200040012919D032
:10179000042919D0102919D0402919D0B1F5807F1A
:1017A00018D0B1F5806F17D006210C4A1830525C62
:1017B00010440268094BDB1D5B5C042199408A439D
:1017C000026070470021F0E70121EEE70221ECE71B
:1017D0000321EAE70421E8E70521E6E77A35000876
:1017E000012919D0042919D0102919D0402919D05C
:1017F000B1F5807F18D0B1F5806F17D006210C4A63
:101800001830525C10440268094BDB1D5B5C0821F8
:1018100099400A43026070470021F0E70121EEE79A
:101820000221ECE70321EAE70421E8E70521E6E7E6
:101830007A350008F0B5012600236E4C6E4D012963
:1018400008D010293BD0B1F5807F73D0B1F5805F0F
:101850006ED1A6E0016A21F001010162016A4668C9
:101860008769D2F800C027F0730747EA0C07D2F85F
:1018700010C021F0020141EA0C01D2F804C021F0AD
:10188000010141EA0C01A04201D0A84212D15469E1
:1018900021F0080141EA8401946821F0040141EA41
:1018A0008401956926F480742C43D56924F400746E
:1018B00044EA450646608761D26842636FE0016A88
:1018C00021F010010162066A41688769D2F800C000
:1018D00027F4E64747EA0C27D2F810C026F0200686
:1018E00046EA0C16D2F804C026F0100646EA0C169A
:1018F000A04201D0A84213D1556926F0800444EAE1
:101900008514956824F0400444EA8516946921F40E
:10191000806141EA8401D46921F4006141EAC40193
:1019200041608761D168816361E003E000E01E46A9
:101930003046F0BD016A21F480710162016A466897
:10194000C769D2F800C027F0730747EA0C07D2F83E
:1019500010C021F4007141EA0C21D2F804C021F436
:10196000807141EA0C21A04201D0A84213D15469F0
:1019700021F4006141EA8421946821F4806141EA04
:101980008421956926F4805444EA0514D56924F429
:10199000005444EA45164660C761D268C2630162DA
:1019A000C5E7016A21F480510162066A4168C7698E
:1019B000D2F800C027F4E64747EA0C27D2F810C057
:1019C00026F4005646EA0C36D2F804C026F48056B7
:1019D00046EA0C36A04201D0A84204D1946921F411
:1019E000804141EA84114160C761D16801640662A7
:1019F0009DE7000000000140000401407FB504465F
:101A0000C0680D460126C0F34030E8BBE96868684D
:101A1000AA690843296911430843E16849F20C6245
:101A200091430843E060A868216921F440510143D3
:101A300021616869616921F440710143616168460F
:101A4000FFF759FD1348844208D01348844213D04D
:101A50001248844210D01248844201D103990CE00C
:101A60001048844208D01048844205D00F48844270
:101A700002D00F4884420AD1029929B12B681BB1C8
:101A800000262046AA6900E001E000F013F804B047
:101A9000304670BD00100140004400400048004046
:101AA00000140140004C004000500040007800400D
:101AB000007C00402DE9F04106461920A1FB000101
:101AC0001F46002364243225B2F5004F27D0BB0FF8
:101AD000BA00FEF74BFC0146B0FBF4F06FF01802C1
:101AE000504301EB800005EB0010B0FBF4F000F078
:101AF000F002B1FBF4F002EB0012B1FBF4F06FF076
:101B00001803584301EB800005EB0010B0FBF4F024
:101B100000F00F00104480B2B060BDE8F081FA1907
:101B20005B41FEF723FC0146B0FBF4F00201B1FB80
:101B3000F4F06FF01803584301EB800005EBC00090
:101B4000B0FBF4F000F0F80002EB4002B1FBF4F05F
:101B5000584301EB800005EBC000B0FBF4F000F04F
:101B60000700D7E7104808B5016841F4800101601B
:101B7000006800F4800000900C480068C0F3022068
:101B8000011D072901D2002000E0C01E0021814074
:101B90000801074981F8000405494FF08060363993
:101BA000C1F8000108BD0000303802400CED00E033
:101BB0003AE000E010B50220FFF7D2FB0120FFF76A
:101BC000CFFB0420FFF7CCFB4FF48070FFF7C8FB7E
:101BD0008020FFF7C5FBBDE810400820FFF7C0BB21
:101BE00070B58CB0142106A8FEF7DEFC18216846FB
:101BF000FEF7DAFC0120FFF7D7FB0220FFF7BCFB62
:101C00000120FFF7B9FB0820009002260024CDE94F
:101C100001640125694633480394CDE90445FFF783
:101C2000CFFBE8030090CDE9016469462E48039498
:101C3000CDE90445FFF7C4FB00F09AFD00221146F0
:101C400000F07AFB01461C2000F09AFD1C2000F0F9
:101C500074FDAD07A86820F0070040F00200A860FE
:101C6000AE13324601212846FFF77AFC00220121FB
:101C70002846FFF7F9FC002201212846FFF79EFCC9
:101C8000002201212846FFF7C7FC324610212846D2
:101C9000FFF766FC002210212846FFF7E5FC002232
:101CA00010212846FFF78AFC002210212846FFF762
:101CB000B3FCADF81840701ECDE9074006A92846D0
:101CC0000994FFF7FFFC286820F08000286068680E
:101CD00020F070006860A86820F08000A8600CB058
:101CE00070BD0000000402400000024070B594B0D6
:101CF00014210EA8FEF758FC20216846FEF754FC7C
:101D0000182108A8FEF750FC0220FFF74DFB112018
:101D1000ADF83800002440F2F310CDE90F40244D17
:101D20000EA928461194FFF7CDFC286840F08000EA
:101D30002860AE1531462846FFF752FD6020CDE9F8
:101D40000004029403946A46314628460494FFF73F
:101D500071FD31462846FFF719FDAE14314628467D
:101D6000FFF73EFD01946A46314628460294FFF78C
:101D700061FD31462846FFF709FD686820F07000D4
:101D80006860A86820F08000A8600420FFF7F4FADB
:101D90004FF4407008900220CDE90904CDE90C40D1
:101DA00008A90B940348FFF70BFB14B070BD0000AB
:101DB000000400400008024070B58CB0142106A851
:101DC000FEF7F2FB18216846FEF7EEFB0420FFF752
:101DD000EBFA0820FFF7D0FA4FF4405000900220B1
:101DE0000025CDE90105CDE90450694603952C484D
:101DF000FFF7E6FA00F0BCFC0022114600F09CFA66
:101E000001461E2000F0BCFC1E2000F096FC254C74
:101E1000A06820F0070040F00200A060A613324640
:101E200001212046FFF79CFB002201212046FFF7FD
:101E30001BFC002201212046FFF7C0FB00220121EC
:101E40002046FFF7E9FB324610212046FFF788FBCA
:101E5000002210212046FFF707FC00221021204617
:101E6000FFF7ACFB002210212046FFF7D5FBADF8B1
:101E70001850701ECDE9075006A920460995FFF7B6
:101E800021FC206820F080002060606820F0700055
:101E90006060A06820F08000A0600CB070BD000001
:101EA000000C02400008004070B58CB0142106A858
:101EB000FEF77AFB18216846FEF776FB0820FFF74D
:101EC00073FA8020FFF758FA4FF440600090022028
:101ED0000025CDE90105CDE90450694603952C485C
:101EE000FFF76EFA00F044FC0022114600F024FADD
:101EF0000146322000F044FC322000F01EFC254C4C
:101F0000A06820F0070040F00200A060A61332464F
:101F100001212046FFF724FB002201212046FFF784
:101F2000A3FB002201212046FFF748FB00220121EC
:101F30002046FFF771FB324610212046FFF710FBC9
:101F4000002210212046FFF78FFB0022102120469F
:101F5000FFF734FB002210212046FFF75DFBADF8B0
:101F60001850701ECDE9075006A920460995FFF7C5
:101F7000A9FB206820F080002060606820F07000DD
:101F80006060A06820F08000A0600CB070BD000010
:101F9000001C0240000C004010B586B014216846B9
:101FA000FEF702FB2020FFF7FFF900F0E1FB002223
:101FB000114600F0C1F90146372000F0E1FB37205F
:101FC00000F0BBFB5920ADF800000020019044F662
:101FD0001F600A4C029069462046FFF773FB206899
:101FE00020F080002060606820F070006060A068D1
:101FF00020F08000A06006B010BD0000001400407A
:10200000F0B59BB0142114A8FEF7CEFA2021684643
:10201000FEF7CAFA182108A8FEF7C6FA18210EA87A
:10202000FEF7C2FA4448016841F00201016000680D
:10203000002400F002001990B320ADF8500044F6DF
:102040001F60CDE915403D4D17948DF8604014A9EF
:102050002846FFF737FB286840F080002860012100
:102060002846FFF7BDFB6020CDE9000402940394ED
:102070000494059406946A46012128460794FFF7C4
:10208000D9FB01212846FFF781FB10212846FFF7E5
:10209000A7FB01946A46102128460294FFF7CAFB69
:1020A00010212846FFF772FBAE1531462846FFF790
:1020B00097FB01946A46314628460294FFF7BAFB23
:1020C00031462846FFF762FBAF1439462846FFF732
:1020D00087FB01946A46394628460294FFF7AAFB1B
:1020E00039462846FFF752FB686820F070006860A8
:1020F000A86820F08000A86008946814CDE90C045A
:102100008DF82C4009940A94ADF82E4008A9284671
:10211000FFF708FA3046FFF72FF9E4200E9002206F
:10212000CDE90F040320CDE912400EA91194044813
:10213000FFF746F91BB0F0BD4438024000040140EF
:102140000020024010B58EB01C216846FEF72CFA24
:10215000182107A8FEF728FA4248016841F010014B
:102160000160006800F010000D900220FFF710F9E8
:10217000C02007900220089003200024CDE9090424
:102180000720CDE90B4007A93748FFF719F9384870
:10219000364982788A58837822F0606242F0006281
:1021A000CA5082788A58837822F0C002CA50827856
:1021B0008A58837822F44032CA5082788A588378C9
:1021C00022F4907242F48072CA5082788A588378DE
:1021D00022F40072CA5082788A58837842F480626E
:1021E000CA5082788A58837822F4C052CA508278C2
:1021F0008A58837822F4C042CA501C49827814312C
:102200005258807822F0040242501A480068002296
:10221000C0F30220114600F0A8F80146252000F086
:10222000BFFA252000F096FA134800904FF4805032
:10223000CDE901040C20CDE90340059406940F4C30
:1022400069462046FFF7DAFB206920F490402061C0
:10225000606920F02A006061E06840F40050E060AE
:102260000EB010BD44380240000402400064024039
:10227000963500080CED00E0A0860100001001403A
:1022800010B58EB01C216846FEF78EF9182107A8FC
:10229000FEF78AF92348016841F480210160006853
:1022A00000F480200D900420FFF772F84FF4406096
:1022B00007900220089003200024CDE9090407209C
:1022C000CDE90B4007A91848FFF77AF817480068CE
:1022D0000022C0F30220114600F047F801462720F3
:1022E00000F05EFA272000F035FA4FF4E130CDE936
:1022F00000040C200294CDE90340059406940C4C94
:1023000069462046FFF77AFB206920F4904020615F
:10231000606920F02A006061E06840F40050E060ED
:102320000EB010BD40380240000802400CED00E045
:1023300000480040FEE7FEE730B500F00703C3F1B8
:102340000704042C00D90424181D072801D20023F7
:1023500000E0DB1E012505FA04F0401E084098400D
:102360009D406D1E1540284330BD30B500F0070379
:10237000C3F10704042C00D90424181D072801D236
:10238000002300E0DB1E012505FA04F0401E084092
:1023900098409D406D1E1540284330BD0449096892
:1023A000044A01F0F0010909515CC840704700007F
:1023B000083802409E35000804490968044A01F4BF
:1023C000E05102EB91210978C8407047083802407B
:1023D000AE35000804490968044A01F4604102EB83
:1023E00051310978C840704708380240AE350008BE
:1023F0000748006810F00C01064807D0042904D0F3
:10240000082903D1082000F009B8034870470000EC
:10241000083802400024F400001BB70010B5104A31
:1024200004460020116811F480030E4903D0B3F56F
:10243000800F00D10C49082C11D1106800F03F002A
:10244000B1FBF0F01168C1F3881148431168012213
:1024500001F4403102EB11414900B0FBF1F010BD35
:10246000043802400024F400001BB70010B500F04F
:10247000A9FC00F0E3FCBDE81040002000F072BDB4
:1024800010B5502080F31188BFF34F8FBFF36F8FCB
:1024900000F01AFF18B104494FF080500860002086
:1024A00080F3118810BD000004ED00E0304810B545
:1024B000016821F00F0141F005010160016801F0A0
:1024C0000F010529FAD12B48016841F44041016010
:1024D000016841F4803101602748016841F480318E
:1024E00001600168C1F340410029FAD02249234A22
:1024F000091D0B68224C23401A430A600A6822F423
:1025000040320A60016841F0807101600168C1F3E6
:1025100040610029FAD018480830016821F0F00124
:102520000160016821F4E05141F4A05101600168AB
:1025300021F4604141F400410160016821F0030190
:1025400041F002010160016801F00C010829FAD193
:102550000C48FEF7E1FF0020FEF74EFD08B172B611
:10256000FEE705488C30016821F08071016010BDE4
:10257000003C02400070004000380240062D400040
:102580000080BFFF0095BA0A0548016841F4700158
:10259000016003494FF00060803908607047000017
:1025A00088ED00E00148FEF719BE00009000002011
:1025B0007047704770477047F0B50268254C264D4C
:1025C000264E274F274B4FF0804CA04209D0604544
:1025D00007D0A84205D0B04203D0B84201D09842FB
:1025E00004D122F0700E4A6842EA0E02A0421BD0CB
:1025F000604519D0A84217D0B04215D0B84213D0C8
:10260000984211D0184DA8420ED0184DA8420BD0B8
:10261000174DA84208D0174DA84205D0164DA84224
:1026200002D0164DA84203D122F44075CA682A434D
:102630004D6922F080022A4302608A68C2620A68F9
:102640008262A04201D0984201D10969016301214F
:102650004161F0BD0000014000040040000800405E
:10266000000C0040000401400040014000440140D3
:102670000048014000180040001C004000200040BD
:1026800010B500F009F802496FF02000086010BD95
:10269000001001407047000038B520480168C1F3C0
:1026A000001100292BD00168009140681C4B00905C
:1026B0009878EE2824D01C481A4A8178515884789A
:1026C00021F0010111510021A3F112045D5C655458
:1026D000491CC9B20829F9D3144B012119701149B9
:1026E0008378091D5B5884786FF30F0343F0080368
:1026F000635081785158807841F00101115038BD04
:10270000BFF34F8F0A4801680A4A01F4E0611143A0
:102710000160BFF34F8F00BFFDE7000000100140D4
:10272000E200002000640240B635000810000020DE
:102730000CED00E00400FA05FEE7002809DB00F0DC
:102740001F02012191404009800000F1E020C0F803
:1027500000117047002809DB00F01F0201219140A1
:102760004009800000F1E020C0F80011704700002F
:1027700002480068C0F30220704700000CED00E042
:102780000907090E002804DB00F1E02080F800149E
:10279000704700F00F0000F1E02080F8141D704732
:1027A0000907090E002804DB00F1E02080F800147E
:1027B000704700F00F0000F1E02080F8141D704712
:1027C0000907090E002804DB00F1E02080F800145E
:1027D000704700F00F0000F1E02080F8141D7047F2
:1027E0001A4810B5184983781431174A5B58847811
:1027F00023F004036350144C8378083414491951AE
:10280000114B84780C331349E1508378111D5B58C8
:1028100084786FF30F0343F0120363500C49091FD0
:10282000CB6843F02003CB60CB6843F01003CB6050
:102830004B6943F040034B6181785158807841F0F7
:102840000101115010BD000000640240BE350008B7
:1028500004100140E20000200449C2B24A600A6844
:10286000C2F38012002AFAD07047000000480040EE
:102870001CB5FEF7A7FBFFF719FEFFF79BF9FFF763
:1028800071F9FFF75FFCFFF7ABF9FFF795FAFFF778
:102890000BFBFFF7F5FCFFF729FAFFF7B1FBFFF79A
:1028A0007BFBFEF781FB06490A20CDE900010023EE
:1028B000802204A1064800F0DBFC00F0BDFBFEE72F
:1028C0001400002073746172745F7461736B000094
:1028D0006D2400082DE9F041054600F073FA354CEF
:1028E000A068401CA0602068334F10B1606930B30D
:1028F0002BE02560A068012827D1002606EB860082
:1029000007EB800000F043FA761C202EF6D32B480C
:1029100000F03DFA2948143000F039FA27482830F1
:1029200000F035FA25483C3000F031FA23485030A9
:1029300000F02DFA2148A0631430E06305E0206820
:10294000E96AC06A884200D82560606A0121401C9B
:102950006062E86A226981401143216100EB8000D6
:1029600007EB80004068A8608168E9608268291DE3
:1029700051608160E86A00EB800007EB80016961CB
:1029800057F82010491C47F8201000F057FA6069EA
:1029900000280CD02068E96AC06A884207D208493A
:1029A0004FF080500860BFF34F8FBFF36F8FBDE8CB
:1029B000F081000018000020F400002074030020C3
:1029C00004ED00E010B50446006B00F069FA204603
:1029D000BDE8104000F064BA10484FF43841420797
:1029E00006D0C01D0D4920F00700411AC1F538413D
:1029F0000B4A00230144C2E900030839183A21F0C8
:102A0000070111604B600B600B1AC0E90013936063
:102A10004FF000405360506170470000D803002021
:102A200070000020144E154CA6F52F774FF08058FB
:102A3000DFF84C9012E000BF00F0C4F9F068C56800
:102A4000281D00F091F9A068401EA0606068401E3B
:102A5000606000F0F3F92846FFF7B4FF60680028D3
:102A6000EAD138680128F9D9C9F80080BFF34F8F3F
:102A7000BFF36F8FF2E70000B003002018000020C2
:102A800004ED00E02DE9F05FDDE90B940F4683468D
:102A90006FF00301206B01EB820108440A9E20F0D5
:102AA00007089A465FEA487005D04FF458721EA195
:102AB00022A0FDF7D3FC002567B100202218395C65
:102AC00082F83410395C11B1401C1028F6D384F818
:102AD000435001E084F83450202E06D340F2973260
:102AE00011A116A0FDF7BAFC1F26E662C4E9116524
:102AF000201D00F057F904F1180000F053F924618B
:102B0000C6F120006462A061E56484F8505052462A
:102B10005946404600F012F92060B9F1000F01D08B
:102B2000C9F80040BDE8F09F2E2E5C4672656552E4
:102B3000544F535C7461736B732E63004572726FF4
:102B4000723A25732C25640D0A00000030B5114936
:102B500000E011460A688242FBD34B685C1884424D
:102B600003D1406818444860084643681C189442E2
:102B700009D1084C183C2468A24209D052681A4472
:102B800042600A6812680260814200D0086030BD6D
:102B90000460F9E7700000200548816B096821B1E5
:102BA000816BC9680968816270474FF0FF31FAE7AD
:102BB0001800002008484068401C04D0E92207A102
:102BC00011A0FDF74BFC502080F31188BFF34F8F0D
:102BD000BFF36F8FFEE70000780000202E2E5C46CA
:102BE00072656552544F535C706F727461626C65AC
:102BF0005C525644535C41524D5F434D34465C70C9
:102C00006F72742E630000004572726F723A257302
:102C10002C25640D0A0000002DE9F0410546002630
:102C200000F04EFA364F386808B9FFF7D5FE7869DC
:102C3000054258D1002D56D005F10804AC4252D9B6
:102C400060070ED004F00700C0F108002044A04245
:102C500049D90446400704D09C222AA133A0FDF79D
:102C6000FDFB002C3FD0786884423CD824481830C3
:102C700001460D6801E028460D466968A14202D26E
:102C800029680029F7D13968B8468D422BD00668EB
:102C90002968016068680836001B10280ED92F19B2
:102CA000780704D0CF2217A120A0FDF7D7FB6868D2
:102CB000001B786038466C60FFF748FF6A68D8F8F8
:102CC00004104046891AC8F80410D8F80830994210
:102CD00000D2816041690A430021C5E90012C16840
:102CE000491CC8F80C1000F09BFB700705D04FF48E
:102CF000887204A10DA0FDF7B1FB3046BDE8F0815C
:102D0000580000202E2E5C4672656552544F535C6D
:102D1000706F727461626C655C4D656D4D616E675C
:102D20005C686561705F342E630000004572726FED
:102D3000723A25732C25640D0A00000010B5031F9C
:102D40004FF080741C601B1F21F001011960191FD6
:102D5000044B0B6014390A60091F6FF002024438FB
:102D60000A6010BDB52B0008D0E9013201699A60F4
:102D7000D0E901235A604A68824201D182684A60E0
:102D8000002202610868401E08600868704700F170
:102D900008014FF0FF32C0E90112C160016100215A
:102DA0000160704700210161704742684A60936882
:102DB0008B6093685960916008610168491C0160EB
:102DC00070470000502080F31188BFF34F8FBFF38E
:102DD0006F8F09494868401C486001280AD107489C
:102DE000006810F0FF0F05D04FF4DB7204A10FA0B4
:102DF000FDF734BB704700007800002004ED00E0D0
:102E00002E2E5C4672656552544F535C706F72741F
:102E100061626C655C525644535C41524D5F434D58
:102E200034465C706F72742E630000004572726FDE
:102E3000723A25732C25640D0A00000010B5084C69
:102E4000606828B940F2BD1206A111A0FDF706FB8B
:102E50006068401E606001D180F3118810BD0000E1
:102E6000780000202E2E5C4672656552544F535CEC
:102E7000706F727461626C655C525644535C41526F
:102E80004D5F434D34465C706F72742E63000000DA
:102E90004572726F723A25732C25640D0A0000008A
:102EA00070B500282DD0174DA0F10804606869693D
:102EB000084205D14FF4927213A11DA0FDF7CEFA7E
:102EC000206828B140F225120FA119A0FDF7C6FA1B
:102ED00061686869014214D02268002A11D18143D7
:102EE000616000F0EDF86068696808446860204639
:102EF000FFF72CFE2869401C2861BDE8704000F0F7
:102F00008FBA70BD580000202E2E5C467265655247
:102F1000544F535C706F727461626C655C4D656D8B
:102F20004D616E675C686561705F342E6300000000
:102F30004572726F723A25732C25640D0A000000E9
:102F40004FF0E02000210161816105494FF47A7260
:102F50000968B1FBF2F1491E416107210161704727
:102F60000C00002070B50546FFF72CFF254C05B975
:102F70002568281DFFF7F8FE58B9E86A224A00EBD9
:102F8000800152F8211021B9012181402069884334
:102F90002061A86A18B105F11800FFF7E5FE606A24
:102FA000401C60622068854207D1291D1748FFF741
:102FB000FCFE6068401C606004E0A068401EA060E9
:102FC000FFF7EAFDFFF73AFF2068854202D0284666
:102FD000FFF7F8FC6069002812D0206885420FD105
:102FE000606B28B140F2DC4209A10EA0FDF736FA71
:102FF00010494FF080500860BFF34F8FBFF36F8FC1
:1030000070BD000018000020F4000020B003002074
:103010002E2E5C4672656552544F535C7461736B1F
:10302000732E63004572726F723A25732C25640DFE
:103030000A00000004ED00E07CB514480025CDE94D
:1030400000502B46802212A1134800F011F90F4CBA
:103050002C3C012802D0401C10D015E0502080F3F9
:103060001188BFF34F8FBFF36F8F4FF0FF30A06217
:1030700001206061E56000F069F805E04FF404624A
:1030800006A10BA0FDF7EAF9206B7CBD44000020EF
:1030900049444C4500000000252A00082E2E5C46BD
:1030A00072656552544F535C7461736B732E630089
:1030B0004572726F723A25732C25640D0A00000068
:1030C0000248416B491C4163704700001800002012
:1030D00070B5134C606B10B10120E06170BD002031
:1030E000E06120690F4EB0FA80F0C0F11F0000EBE4
:1030F000800556F8250028B940F602420AA10FA023
:10310000FDF7ACF906EB850000F10802416849685B
:103110004160914201D149684160C868206070BD3A
:1031200018000020F40000202E2E5C4672656552C7
:10313000544F535C7461736B732E63004572726FEE
:10314000723A25732C25640D0A0000007CB5344CBE
:1031500020683449884205D140F2431232A13DA093
:10316000FDF77CF920682F49491E884205D14FF4AC
:10317000A2722DA137A0FDF771F93A4D2878019080
:10318000FF20287028788DF800009DF800009DF839
:10319000001000F0F000884205D040F25D1222A13C
:1031A0002CA0FDF75BF99DF800002F4C00F05000BB
:1031B00020700720A06005E09DF8001049008DF800
:1031C0000010401E9DF800100906F5D4A0600328E9
:1031D00005D04FF4BD7214A11EA0FDF73FF9207A6F
:1031E000000200F4E060A060019828700C482030D4
:1031F000016841F470010160016841F070410160B3
:10320000FFF79EFE00206060FDF754F81748016844
:1032100041F040410160FDF739F800207CBD00001D
:1032200000ED00E071C20F412E2E5C4672656552C2
:10323000544F535C706F727461626C655C5256449B
:10324000535C41524D5F434D34465C706F72742E37
:10325000630000004572726F723A25732C25640D6D
:103260000A00000000E400E07800002034EF00E0F5
:103270002DE9FF5F8346DDE90E87994616468A46AB
:103280009000FFF7C9FC05001AD05420FFF7C4FCDA
:10329000040012D025630021CDE90241CDE9008769
:1032A0004B46324651465846FFF7ECFB2046FFF7A7
:1032B00011FB012004B0BDE8F09F2846FFF7F0FDA8
:1032C0004FF0FF30F6E700002DE9F041494C0026B1
:1032D000606B28B1A069401CA0613046BDE8F08158
:1032E000E5686D1CE56011D1A06B006828B140F65F
:1032F000C72241A145A0FDF7B1F8A06BE16BA16326
:10330000E063206A401C2062FFF746FCA16A434844
:103310008D420FD34FF0000EA16B096839B1A16B3C
:10332000C968C9684A68954212D2A26202E04FF0A9
:10333000FF31A1622168C96A01EB810150F82100C7
:10334000012800D90126E0690028C6D00126C4E77B
:10335000D1E902724B69BA60D1E902277A605F68ED
:103360000A1D974201D1CF685F60C1F814E01F6861
:103370007F1E1F60D1F828C0BCF1000F15D0D1E925
:1033800007379F60D1E907377B60DCF8047001F1F3
:1033900018039F4202D10B6ACCF80430C1F828E030
:1033A000DCF800305B1ECCF80030CB6A0127D4F883
:1033B00010C09F4047EA0C07276103EB830300EB33
:1033C00083035B688B609F68CF609F687A609A60B8
:1033D000CA6A02EB820200EB82034B6150F8223092
:1033E0005B1C40F82230C96A2268D26A914293D3AA
:1033F000012691E7180000202E2E5C46726565526A
:10340000544F535C7461736B732E63004572726F1B
:10341000723A25732C25640D0A000000F400002088
:103420002DE9F041454D00242746686B28B940F648
:10343000B30243A147A0FDF711F8FFF7C3FC686B87
:10344000401E6863686B002872D1A868454B00264F
:103450004FF00108F0BB6BE0D868C468D4E90721DD
:10346000A06A9160D4E907125160426804F1180122
:103470008A4201D1216A4160A6620168491E016049
:10348000D4E9022160699160D4E902125160426876
:10349000211D8A4201D1E268426066610268521EC3
:1034A0000260E26AD5F810C008FA02F040EA0C00A7
:1034B000286102EB82002C4A02EB80004068A06089
:1034C000D0F808C0C4F80CC0D0F808C0CCF804107C
:1034D000816000E011E0E06A00EB800002EB800117
:1034E000616152F82010491C42F82010E06A2968F6
:1034F000C96A884201D3C5F81C8018680028ABD17E
:103500000CB1FFF749FBAC6944B100BFFFF7DCFE2B
:1035100008B1C5F81C80641EF8D1AE61E86938B105
:103520001249012738070860BFF34F8FBFF36F8F31
:10353000FFF784FC3846BDE8F08100001800002049
:103540002E2E5C4672656552544F535C7461736BEA
:10355000732E63004572726F723A25732C25640DC9
:103560000A0000009C030020F400002004ED00E0AD
:103570004FF04070E1EE100A7047000000000404B4
:103580000400000800000008000008000000080017
:10359000020406080A0C102840587088A0B80000E1
:1035A00000000000000001020304060708090000F3
:1035B000000001020304102840587088A0B81028A9
:1035C00040587088A0B83A7474003A7474003A7421
:1035D00074000000F4350008000000209000000096
:1035E000E80100088436000890000020A8C200000E
:1035F00004020008010000001000000000000000AC
:1036000080A812010000000000000000000000007F
:1036100000000000000000000000000000000000AA
:10362000000000000000000000000000000000009A
:103630000000000000000000000000001F0000006B
:10364000000000000000000000000000000000007A
:10365000000000000000000000000000000000006A
:10366000000000000000000000000000000000005A
:10367000AAAAAAAA000000000000000000000000A2
:043680000000000046
:04000005080001AD41
:00000001FF
