:020000040800F2
:1000000088C6002081020008AD340008BB1B000830
:10001000C93200083109000841450008000000000D
:10002000000000000000000000000000C101000806
:1000300011140008000000001D0200086D410008B6
:100040009B0200089B0200089B0200089B0200081C
:100050009B0200089B0200089B0200089B0200080C
:100060009B0200089B0200089B0200080B1400087A
:100070009B0200089B0200089B0200089B020008EC
:100080009B0200080D1400089B0200089B02000858
:10009000FD0900089B0200089B0200089B02000863
:1000A0009B020008914200089B0200089B02000886
:1000B0009D4200089B020008AD4200089B02000818
:1000C0009B0200089B0200089B0200089B0200089C
:1000D0009B020008F34300089B020008F743000856
:1000E0009B0200089B0200089B0200089B0200087C
:1000F0009B0200089B0200089B0200089B0200086C
:100100009B0200089B020008C14200089B020008F5
:100110009B0200089B0200089B020008D5420008D1
:100120009B0200080F1400089B0200089B020008B5
:100130009B0200089B0200089B0200089B0200082B
:10014000D90B00089B0200089B0200089B020008D4
:100150009B0200089B0200089B020008F94300086C
:100160009B0200089B0200089B0200089B020008FB
:100170009B0200089B0200089B0200080000000090
:100180009B0200089B0200089B020008EF43000846
:100190009B0200089B0200089B0200089B020008CB
:1001A00000000000000000009B020008DFF80CD0F7
:1001B00000F0EEFA00480047C54B000888C6002052
:1001C0002C4B19680868B0E8F04F80F30988BFF33A
:1001D0006F8F4FF0000080F311887047000000001F
:1001E00008480068006880F308884FF0000080F33A
:1001F000148862B661B6BFF34F8FBFF36F8F00DF15
:1002000000BF00BF08ED00E0DFF80C00016841F41A
:1002100070010160704700BF88ED00E0EFF30980D6
:10022000BFF36F8F134B1A681EF0100F08BF20ED3D
:10023000108A20E9F04F106009B44FF0500080F3AD
:100240001188BFF34F8FBFF36F8F05F0C5FC4FF0E0
:10025000000080F3118809BC19680868B0E8F04F05
:100260001EF0100F08BFB0EC108A80F30988BFF3AE
:100270006F8F704780000020EFF30580704700000B
:100280000648804706480047FEE7FEE7FEE7FEE730
:10029000FEE7FEE7FEE7FEE7FEE7FEE77542000841
:1002A000AD0100082DE9F05F0546002092469B460F
:1002B00088460646814640241BE02846414647467C
:1002C000224600F0AEF953465A46C01A914110D367
:1002D00011461846224600F095F92D1A67EB0108E1
:1002E0004F4622460120002100F08CF917EB00094F
:1002F0004E41201EA4F10104DFDC484631462A4667
:100300004346BDE8F09F40EA01039B0703D009E0A4
:1003100008C9121F08C0042AFAD203E011F8013BF1
:1003200000F8013B521EF9D27047D2B201E000F84A
:10033000012B491EFBD270470022F6E710B5134689
:100340000A4604461946FFF7F0FF204610BD2DE986
:10035000FE4F804681EA0300C00F0C46009021F05A
:10036000004123F00045B8EB0200A94105D2404608
:10037000214690461C460B46024623F0004010439F
:1003800047D0270DC7F30A00C3F30A510290401A61
:10039000019040286BDAC3F3130040F4801B0098EF
:1003A000924620B10023D2EB030A63EB0B0B0198BA
:1003B0005946C0F14002504600F024F906460D4669
:1003C00050465946019A00F03CF910EB0800614193
:1003D000002487EA115284EAE7731A4340D0009A56
:1003E00062B3019A012A4FEA075215DC001B61EB48
:1003F00002014FF0004202EA0752CDE90042001C20
:1004000041F5801132462B4600F073F903B0BDE888
:10041000F08F40462146F9E7001B61EB0201001C0A
:1004200041F5801300185B412018A2F5001747EB37
:10043000030140EAD570B6196D4111E06D084FEA2D
:10044000360645EAC0754FEA0752001B61EB020110
:10045000001C41F5801149084FEA30000019514154
:1004600032462B4603B0BDE8F04F00F033B9009898
:10047000012240000023D0EB020263EBE0730098FE
:1004800021464FEAE074B8EB000061EB0401E9E7B4
:1004900083F000435BE781F0004158E72DE9F04D20
:1004A00081EA030404F0004B21F0004514464FF0AC
:1004B000000A23F0004150EA050220D054EA01026C
:1004C0001DD0C5F30A570246C5F31303C1F3130049
:1004D000C1F30A5640F4801543F48013A7EB0608D5
:1004E000101BD64608F2FD3873EB050002D308F165
:1004F000010801E092185B41B8F1000F03DA002017
:100500000146BDE8F08D00204FF480110646844678
:100510000EE0171B73EB050705D3121B63EB0503F6
:1005200006434CEA010C49084FEA300092185B413F
:1005300050EA0107EDD152EA030012D082EA04002A
:1005400083EA0501084305D0101BAB4106D2012206
:10055000002306E000224FF0004302E06FF00102AA
:1005600053101AEB06004CEB085110EB0A0041EB5C
:100570000B01BDE8F04D00F0ADB800F0004230F0E6
:1005800000400AD0C10D01F56071C0F3160042EAC7
:100590000151C208400711437047002001467047CF
:1005A00001F0004330B421F0004150EA010206D0CE
:1005B0000A0DA2F56072C1F31301002A02DC30BCFF
:1005C00000207047440F44EAC104C100E01830BC69
:1005D00000EBC25000F047B830B50B460146002092
:1005E0002022012409E021FA02F59D4205D303FAF5
:1005F00002F5491B04FA02F52844151EA2F1010276
:10060000F1DC30BD202A04DB203A00FA02F10020A0
:1006100070479140C2F1200320FA03F31943904040
:100620007047202A04DB203A21FA02F000217047AB
:1006300021FA02F3D040C2F120029140084319464A
:100640007047202A06DBCB17203A41FA02F043EA32
:10065000E07306E041FA02F3D040C2F1200291407B
:100660000843194670470029A8BF7047401C49003D
:1006700008BF20F00100704710B4B0FA80FC00FA07
:100680000CF050EA010404BF10BC704749B1CCF132
:10069000200421FA04F411FA0CF118BF01212143BE
:1006A0000843A3EB0C01CB1D4FEA00614FEA102079
:1006B00042BF002010BC704700EBC350104400291B
:1006C000A4BF10BC7047401C490008BF20F00100C7
:1006D00010BC704710B5141E73F1000408DA401CFA
:1006E00041F1000192185B411A4301D120F0010051
:1006F00010BD2DE9F04D92469B4611B1B1FA81F241
:1007000002E0B0FA80F220329046FFF77BFF044609
:100710000F4640EA0A0041EA0B0153465A46084395
:1007200013D0114653EA010019D0C8F140025046D7
:10073000FFF777FF05460E46504659464246FFF7FB
:1007400061FF084305D0012004E020463946BDE89A
:10075000F08D0020054346EAE0762C4337430A98A3
:100760006305E40AA0EB08000022FD0A44EA4754AE
:100770000A3002D500200146E9E701051019694158
:10078000DDE9084500196941BDE8F04DA2E7000028
:10079000064C074D06E0E06840F0010394E80700CE
:1007A00098471034AC42F6D3FFF704FDE06F000821
:1007B0000070000870B58C1810F8015B15F0070385
:1007C00001D110F8013B2A1106D110F8012B03E0EA
:1007D00010F8016B01F8016B5B1EF9D12B0705D4F2
:1007E0000023521E0DD401F8013BFAE710F8013B3B
:1007F000CB1A921C03E013F8015B01F8015B521E57
:10080000F9D5A142D8D3002070BD000010B504F086
:1008100045F902F037FFBDE8104001A003F0C2BF68
:100820000D0A416C6C207065726970686572616C4C
:1008300020696E69742E0D0A0000000070B5B0F8D2
:100840000520164DB2F5017F08D0B2F5027F0AD01F
:10085000A2F50072093A16D00A2070BD012915D1FF
:10086000C079A87218E0C01D044606290ED103F015
:10087000B3FD2880A01C03F0AFFD6880201D03F0AD
:10088000ABFDA88008E0C01D042901D0002070BD88
:1008900003F0A4FDC5F80600012070BD7CC2002055
:1008A00070B50446007815460E46A52801D00020F4
:1008B00070BD0521204603F081FE0028F8D016B156
:1008C000B4F8010030800DB1E0782870012070BDCF
:1008D000F0B589B0074600208DF8140005AB06AAD4
:1008E000384600F015FE002406AE01AD19E000BF49
:1008F000305D05EB440138440022FFF7D1FF70B1B1
:1009000035F81400093081B2305D384400F078FDCC
:1009100028B1305D35F814103844FFF78FFF641CA0
:10092000E4B29DF814008442E2D309B00120F0BD86
:10093000FEE7000010B504F015FD024900204863F1
:1009400010BD0000001800401CB500220621032045
:1009500005F012FA174E3060FFF7ECFFC82004F0E4
:10096000A5FF4FF0FF3842466946306805F0D8FBD6
:10097000012803D010A003F015FFF4E7164D002462
:10098000154F2C3D11E000BFBDF802003860400853
:100990006863BDF8040004F089FF00206863BDF8B7
:1009A000040004F083FF641CE4B29DF80000A04240
:1009B000D9D9E9E7400000203C44454255473E2054
:1009C00042656570207461736B206572726F72216D
:1009D00021210D0A0D0A00002C18004018B1012831
:1009E00003D000207047044801E00348001D006860
:1009F00000F00300704700000C64004010B5254C67
:100A000088B0206820F0020020600020FFF7E6FF99
:100A100030B90120FFF7E2FF10B91FA003F0C2FEBA
:100A200004A907A8CDE9000103AB02AA06A900208A
:100A300000F048F89DF808009DF80C10084302D01B
:100A40001AA003F0AFFE0698012806D0022807D0AE
:100A5000032816D0042808D117E004A9184802E09A
:100A6000174804A9083000F009FA0A480838016854
:100A700021F020010160206840F00200206008B0F1
:100A800010BD0F4804A91030EDE70D4804A9183037
:100A9000E9E700001464004043616E31CEB4BDD379
:100AA000CAD5B5BDCAFDBEDD0D0A000063616E3159
:100AB000BDD3CAD5CAFDBEDDD2ECB3A30D0A00007A
:100AC00040C20020F0B5214CDDE9055604EB0014CE
:100AD000D4F8B07507F004071770D4F8B025C2F346
:100AE00047520A60D4F8B01501F002011970D4F829
:100AF000B41501F00F012970D4F8B8153170D4F88D
:100B0000B815090A7170D4F8B815090CB170D4F889
:100B1000B815090EF170D4F8BC153171D4F8BC15B4
:100B2000090A7171D4F8BC15090CB171D4F8BC155F
:100B3000090EF17138B1012804D10548016841F06E
:100B400020010160F0BD0248001FF7E7006000408F
:100B500010640040174928B1012810D002281BD08A
:100B600005207047086800F001020868096800F075
:100B70000200104301F0806140EA1160704708688C
:100B800000F001020868096800F00200104301F05B
:100B9000006140EA51607047086800F0010208688F
:100BA000096800F00200104301F0805140EA9160B2
:100BB000704700000864004018B1012803D00020ED
:100BC0007047044801E00348001D006800F003007E
:100BD000704700000C68004010B51B4C88B02068BE
:100BE00020F0020020600020FFF7E6FF30B901206E
:100BF000FFF7E2FF10B915A003F0D4FD04A907A880
:100C0000CDE9000103AB02AA06A9002000F034F8E8
:100C10009DF808009DF80C10084302D010A003F0C6
:100C2000C1FD0698012803D104A9124803F0AAFFC8
:100C300005480838016821F020010160206840F073
:100C40000200206008B010BD1468004043616E319E
:100C5000CEB4BDD3CAD5B5BDCAFDBEDD0D0A0000F8
:100C600063616E31BDD3CAD5CAFDBEDDD2ECB3A37C
:100C70000D0A000060C20020F0B5214CDDE90556E8
:100C800004EB0014D4F8B07907F004071770D4F817
:100C9000B029C2F347520A60D4F8B01901F002013A
:100CA0001970D4F8B41901F00F012970D4F8B819EB
:100CB0003170D4F8B819090A7170D4F8B819090C50
:100CC000B170D4F8B819090EF170D4F8BC193171AB
:100CD000D4F8BC19090A7171D4F8BC19090CB171A6
:100CE000D4F8BC19090EF17138B1012804D10548B6
:100CF000016841F020010160F0BD0248001FF7E7E4
:100D00000060004010680040174928B1012810D049
:100D100002281BD005207047086800F0010208680F
:100D2000096800F00200104301F0806140EA1160A0
:100D30007047086800F001020868096800F00200C6
:100D4000104301F0006140EA51607047086800F00C
:100D500001020868096800F00200104301F08051A8
:100D600040EA9160704700000868004010B50446F2
:100D70002DED068BB7EE008A90ED030AD0ED040A44
:100D800030EE600A80ED050A90F82000D4ED070AE5
:100D900090B194ED099AF0EEC08AF4EEC98AF1EEB2
:100DA00010FA02DD9FED348A2DE094ED0A1AF4EE7C
:100DB000C18AF1EE10FA04D230EE800A84ED070AFF
:100DC00021E030EE800A84ED070A39EE410A10EE88
:100DD000100AFFF7D2FB41EC1A0B18EE900AFFF74E
:100DE000CCFB41EC180B19EE100AFFF7C6FB53ECD5
:100DF000182BFFF74DFB53EC1A2BFFF74FFBFFF7B8
:100E0000CFFB08EE100A94ED0B1A94ED070AF1EEF1
:100E1000410A02F01BFC84ED070A94ED001AD4EDA0
:100E2000050A21EE201A84ED0D1AD4ED011A21EEE7
:100E3000800A20EE080A84ED0E0AD4ED061A31EE7F
:100E4000000A70EEE10AD4ED021A60EEA10AC4EDC8
:100E50000F0A30EE200A84ED100A94ED0C1AF1EE20
:100E6000410A02F0F3FB84ED100A94ED050A84EDCB
:100E7000060ABDEC068B10BD000000000A8852BABD
:100E800002804A8852BA42808A8852BA828089791E
:100E9000817170471248016841F0010101601049F9
:100EA0001C310A6822F001020A600D4A0C321368F4
:100EB00043F001031360021D13681360084A1432E3
:100EC00013681360064B002240331A601B1D1A6022
:100ED0000B6843F001030B6001680260704700007B
:100EE00000660040434810B5016841F00801016008
:100EF0004148016841F00A010160001D016821F0CC
:100F000003010160001D016841F00F0101603B49D0
:100F10000120086038480C30016841F0050101608B
:100F200035482030016841F009010160016841F055
:100F3000900101602F4800221030016841F00071DB
:100F400001602F4814460260016841F00101016010
:100F5000031D04E0521C642A01DD022010BD196843
:100F6000C907F7D00168016001680160016801608C
:100F7000016841F0100101600168016001680160D1
:100F80001F491C310C600C680C600C680C600C680C
:100F900044F480140C600C6844F4A0240C600C68C9
:100FA00044F004040C60016821F0010101604FF677
:100FB000F07004E0521C824201DD032010BD19686C
:100FC000C907F7D1FFF766FF0D481430016841F0FB
:100FD000020101604FF0E020D0F8001141F48011CF
:100FE000C0F800110748017841F06001017000204D
:100FF00010BD000030380240000C02402038014093
:101000000064004014E400E03CB50A880024120AA1
:101010008DF800200A788DF801204A88120A8DF890
:1010200002208A788DF803208A88120A8DF804201D
:101030000A798DF80520CA88120A8DF80620897968
:101040008DF807106A46082102F0E4F9054640F6DB
:10105000FF7301E0641CA4B22846FFF77BFD07285C
:1010600001D09C42F6D39C4201D301203CBD00201C
:101070003CBD00001248016841F0010101601049C7
:101080001C310A6822F480520A600D4A0C3213683F
:1010900043F480531360021D13681360084A14322E
:1010A00013681360064B002240331A601B1D1A6040
:1010B0000B6843F001030B60016802607047000099
:1010C000006A0040424810B5016841F00201016029
:1010D0004048016841F020610160001D016889B24B
:1010E0000160001D016841F0706101603A49012012
:1010F000086038480C30016841F0A0610160354853
:101100002430016841F410210160016841F41001AC
:1011100001602F4800221030016841F080610160B9
:101120002E4814460260016841F001010160031D70
:1011300004E0521C642A01DD022010BD1968C907B1
:10114000F7D0016801600168016001680160016811
:1011500041F01001016001680160016801601F49F0
:101160001C310C600C680C600C680C600C6844F45A
:1011700080140C600C6844F4A0240C600C6844F0EB
:1011800004040C60016821F0010101604FF6F07069
:1011900004E0521C824201DD032010BD1968C9071A
:1011A000F7D1FFF767FF0D481430016841F00201E5
:1011B00001604FF0E020D0F8081141F00101C0F8C3
:1011C00008110748017841F060010170002010BD4E
:1011D00030380240000402402038014000680040DE
:1011E00040E400E008B500252E4600F009FB814CE4
:1011F000E06000F009FB2061FFF774FEFFF762FF7B
:10120000C82004F053FB7C4FDFF8F0A107F1080081
:1012100007F10C0B009020690078012802D0022809
:101220007ED0B9E0E168B1F91A00B1F9183000EEEA
:10123000100AB1F91620F8EEC00A94ED010AA3EBEA
:10124000020C02EB030880EE801A00EE90CAF8EE62
:10125000E00A71EE200AFDEEE00A10EE90CA00EE00
:10126000900A0FFA8CF9F8EEE00AC8F1000C80EE53
:10127000801A00EE90CAF8EEE00A71EE200AFDEE48
:10128000E00A10EE90CA00EE900A0FFA8CFCF8EE1D
:10129000E00A80EE801A00EE908AF8EEE00A71EE25
:1012A000200AFDEEE00A10EE908A00EE900AD01AB5
:1012B0000FFA88F8B8EEE01AC1EE000A00EE100A44
:1012C000B8EEC00A30EE800ABDEEC00A10EE100A79
:1012D00000EE109A00B2F8EEC00A94ED000A60EE3B
:1012E000800AFDEEE00A10EE902A00EE90CA62F34A
:1012F0000F05F8EEE00A60EE800AFDEEE00A10EE5F
:10130000902A00EE908A62F31F45F8EEE00A60EE44
:10131000800AFDEEE00A10EE902A62F30F0600E06C
:101320000EE000EE900AF8EEE00A20EE800ABDEE34
:10133000C00A10EE100A60F31F46B1F91C0028E045
:10134000E1688B88CA88088803EB0209A3EB020CCA
:10135000D21A09EB000884440244A0EB090308EB0D
:10136000480000EBC80060F30F050CEB4C0000EBED
:10137000CC0060F31F4502EB420000EBC20060F3BB
:101380000F0603EB430000EBC30060F31F46B1F907
:10139000020000F2DC50A0602AB23221164802F0AE
:1013A000BFFA2A143221381D02F0BAFA32B23221C1
:1013B000009802F0B5FA32143221584602F0B0FA21
:1013C00097ED030AF8EEC01A97ED020AB8EEC01ABC
:1013D00097ED010AF8EEC00A97ED000AB8EEC00AD0
:1013E00002F0A6FCA068CAF83400052004F05EFAFA
:1013F00011E70000440000204C070020004001409D
:1014000010B503F0BDF8C0B210BD7047704770470B
:1014100070470000024901EB001001F076BF0000A8
:101420000406002025A003F0BDF904F08DF8254E38
:10143000002400BF002306EB04101A46052101F02A
:1014400044FF641CE4B2082CF4D30A20A6F852002E
:101450004FF4487004F02AFADFF86C804FF480777C
:101460005FF0000406EB0415284601F038FF2879E8
:1014700010B101280BD014E06879012811D127FAA6
:1014800004F00104C8F81810214610A007E068799C
:1014900038B927FA04F0C8F81800214613A003F061
:1014A00081F9641CE4B2082CDCD31848416981F44A
:1014B00080414161FA2004F0F9F9D1E7646574656F
:1014C0006374000004060020001802403C494E46A8
:1014D0004F3E204D6F64756C652564204F6E6C69BE
:1014E0006E652E0D0A0D0A0D0A0000003C494E469D
:1014F0004F3E204D6F64756C652564204F66666CA9
:10150000696E652E0D0A0D0A0D0A000000140240D6
:1015100030B500241C7009E0055DA52D04D11D78AF
:1015200054551D786D1C1D70641CA4B28C42F3D3FD
:1015300030BD000000F064F9854C206000F064F9D3
:1015400060604FF47A7004F0B1F903F0EBFAC82050
:1015500004F0ACF942F2E45A7E4D6FF009094FF005
:101560000A080027CAF1000B7B4E706980F48040A6
:10157000706160680078012802D002287DD0D5E033
:10158000287A012809D0022804D0032806D1C4F8FB
:10159000189003E0C4F8188000E0A761A87801283B
:1015A0000FD002280FD003280BD0042801D10AE065
:1015B000A060E879012811D002280CD003280ED1B0
:1015C00006E0A069F4E7A069A0F5D850D038EFE7AD
:1015D000C4F8149003E0C4F8148000E067616878F0
:1015E00001282ED0022821D0032818D05B4940F2D0
:1015F000DC500860091D0860091D0860606880797A
:10160000012822D056484FF46171C1634FF49661AE
:101610000164287901281FD0022822D11EE06269C6
:10162000504942F6F8201044891A04E0616901EB40
:101630000A00ABEB0101C4E90301A26802F0CAFA97
:10164000DCE700210846A268F8E745484FF4FA7144
:10165000C1634FF46171DBE7434800E0434802F0A7
:10166000C9FB6068417901290CD04FF00071404AF4
:101670009161C078012808D000E009E04FF0806057
:10168000B06153E04FF40071F1E74FF48060F7E789
:10169000A878012806D0022806D0032802D0042802
:1016A00004D101E0A76001E03248A0606878012819
:1016B0001BD0022813D003280DD0284940F2DC505B
:1016C0000860091D0860091D08602879012810D0EC
:1016D000022813D10FE02349A268484202E059468C
:1016E0005046A26802F076FAEFE700210846A268A9
:1016F000F8E71D4800E01D4802F07CFB6068C178F7
:10170000012917D04FF08061B1614179012914D0CE
:101710004FF00071164A91618079012810D010486D
:101720004FF46171C1634FF496610164052004F0C8
:10173000BDF819E74FF48061E6E74FF40071E9E77F
:1017400007484FF4FA71C1634FF46171EDE700008F
:1017500060000020400700200014024034040140D3
:101760000004004008D5FFFFB0BFFEFF9CE6FFFF6E
:101770000020024030E4FFFF10B558B1084C491E6C
:101780000BD310F8013B5340DBB234F8133083EA3B
:101790001222F4E74FF6FF7010BD104610BD000096
:1017A000E06D000810B5054C04E000BF10F8013BE7
:1017B0005340E25C491EF9D2104610BDE06C0008AF
:1017C000004870478405002006490548897840583C
:1017D00010F4002F01D00020704701207047000056
:1017E00000640240D86C000818B1012803D0002022
:1017F000704702487047014824307047BC040020FD
:101800000048704704070020004870474007002048
:10181000024881680278114481607047000000200E
:101820000B4810B5016841F400710160016841F492
:1018300080610160016841F480710160032000F063
:1018400089F8062000F006F800F03EF8002010BDF0
:10185000003C024010B5014688B00022192000F07B
:1018600059F8192000F048F813480024016841F0A5
:1018700001010160006805A900F0010006906846BA
:1018800000F07AF800F098F80C494000B0FBF1F154
:101890000C480B4A491E026040F2E732C0E90324BB
:1018A000C0E9011400F09AF810B1012008B010BD91
:1018B000044800F0AFF8F9E74438024040420F0016
:1018C00000000140400400200A4808B5016841F4C6
:1018D00080410160006800F4804000900548001FCE
:1018E000016841F080510160006800F08050009074
:1018F00008BD000044380240002809DB00F01F0248
:10190000012191404009800000F1E020C0F8001161
:1019100070470000F0B40E4B1B680C46C3F3022363
:10192000C3F10705042D00D90425191D072901D28B
:10193000002300E0DB1E012606FA05F1491E2140C6
:1019400099409E40761E16403143F0BC02F0AABF7B
:101950000CED00E0064900F0070208684FF6FF03AF
:10196000184040EA0220034A104308607047000014
:101970000CED00E00000FA050F2202600C4A13682B
:1019800003F003034360136803F0F00383601368FC
:1019900003F4E053C36012684FF4E05303EAD20249
:1019A00002610448006800F00F0008607047000002
:1019B00008380240003C02400448054900680968B4
:1019C000044AC1F34231515CC84070470C0000200A
:1019D00008380240D06C00087047704710B504000A
:1019E00003D094F83D0010B107E0012010BD0020A5
:1019F00084F83C00204600F00CF8022084F83D00FA
:101A0000211D206802F084FC012084F83D000020A4
:101A100010BD70470168CA6842F00102CA600068E0
:101A2000816801F00701062903D0016841F0010136
:101A3000016000207047704770B504460068016976
:101A40004FF00005C943890715D4C168C943890708
:101A500011D4E91E01610120207720688069800788
:101A6000204602D0FFF7E7FF04E000F098F8204698
:101A700000F096F8257720680169C943490717D413
:101A8000C168C943490713D46FF004010161022002
:101A900020772068806910F4407F204602D0FFF74D
:101AA000CAFF04E000F07BF8204600F079F82577C3
:101AB00020680169C943090716D4C168C9430907E9
:101AC00012D46FF008010161042020772068C069FA
:101AD0008007204602D0FFF7AEFF04E000F05FF879
:101AE000204600F05DF8257720680169C943C906E2
:101AF00017D4C168C943C90613D46FF0100101613E
:101B0000082020772068C06910F4407F204602D06A
:101B1000FFF791FF04E000F042F8204600F040F8A3
:101B2000257720680169C943C90708D1C168C9433D
:101B3000C90704D1891E0161204600F033F82068EE
:101B40000169C943090609D4C168C943090605D416
:101B50006FF0800101612046FFF73EFF20680169B8
:101B6000C943490609D4C168C943490605D46FF081
:101B700040010161204600F01FF820680169C94357
:101B800089060BD4C168C943890607D46FF02001C8
:101B900001612046BDE87040FFF71FBF70BD704770
:101BA0007047000000680349884201D1FFF730BE4A
:101BB00070470000000001407047FEE7904201DDE1
:101BC000104670478842FCDA0846704708B5FFF7B0
:101BD000F7FD1C4CA06003F0E1FCC82003F066FE9A
:101BE000194E4FF0FF3800214246164B0846CDF8FB
:101BF000008004F045FD706980F400607061134856
:101C00002268A168FEF77FFB0520FFF703FC10A107
:101C100013A0226802F0C6FD00250C4F05E03978BC
:101C200014A002F0BFFD6D1CEDB220688542F6D312
:101C300011A002F0B7FD208881B20448FEF748FEEB
:101C4000D1E70000180000200010024084060020A8
:101C50006A756467655F6275665F6C656E0000003B
:101C60003C44454255473E202573203D2025640DC8
:101C70000A000000256420000D0A0000044908B590
:101C80000A6802430A6009680140009108BD00002B
:101C900030380240044908B50A6802430A600968FE
:101CA0000140009108BD000030380240044908B5E9
:101CB0000A6802430A6009680140009108BD0000FB
:101CC00030380240044908B50A6802430A600968CE
:101CD0000140009108BD000030380240044908B5B9
:101CE0000A6802430A6009680140009108BD0000CB
:101CF00040380240044908B50A6802430A6009688E
:101D00000140009108BD000040380240044908B578
:101D10000A6802430A6009680140009108BD00009A
:101D200044380240044908B50A6802430A60096859
:101D30000140009108BD000044380240034A1430BD
:101D4000515C0A5822F004020A507047B86C00082F
:101D5000034A515C425822F0010242507047000091
:101D6000D86C0008034A515C425842F001024250CC
:101D700070470000D86C0008024A001D515C0858EA
:101D800080B27047D86C0008034B595C435823F06D
:101D90006063134343507047B86C0008034B595CB1
:101DA000435823F40023134343507047D86C000872
:101DB000044B001D595C0B586FF30F0313430B507A
:101DC00070470000D86C0008034B595C435823F05F
:101DD000C003134343507047B86C0008034B595C71
:101DE000435823F48063134343507047B86C000892
:101DF000034B595C435823F4C0431343435070478B
:101E0000B86C0008034B595C435823F49073134398
:101E100043507047B86C0008034B595C435823F497
:101E20000073134343507047B86C0008034B595C70
:101E3000435823F4C053134343507047B86C000811
:101E4000034B595C435823F44033134343507047CA
:101E5000B86C0008F0B50A680F2692FAA2F2B2FA3E
:101E600082F303248AE001279F4015EA07027DD010
:101E70004D68012D01D0022D1BD18D68876892FA23
:101E8000A2FCBCFA8CFC4FEA4C0C04FA0CFC27EACE
:101E90000C0792FAA2FCBCFA8CFC4FEA4C0C05FA37
:101EA0000CF52F438760CD684768554397432F4310
:101EB00047600F69D0F80CC092FAA2F5B5FA85F523
:101EC0004FEA450E04FA0EF52CEA050C92FAA2F53B
:101ED000B5FA85F56D00AF404CEA070CC0F80CC0B0
:101EE0004D68022D33D192FAA2F5B5FA85F5082D89
:101EF00015D2D1F814C0056A92FAA2F7B7FA87F79B
:101F0000BF0006FA07F7BD4392FAA2F7B7FA87F7C0
:101F1000BF000CFA07FC45EA0C05056217E0D1F892
:101F200014E0476A150A95FAA5FCBCFA8CFC4FEA46
:101F30008C0C06FA0CFC95FAA5F5B5FA85F5AD0002
:101F400027EA0C070EFA05FE47EA0E0747624D68BE
:101F5000076892FAA2FCBCFA8CFC4FEA4C0C04FA1B
:101F60000CFE27EA0E0792FAA2F200E005E0B2FAB0
:101F700082F2520095402F4307605B1C0A681546A9
:101F8000DA407FF470AF0020F0BD30B5036A91FAFB
:101F9000A1F4B4FA84F4A5000F24AC4091FAA1F1A5
:101FA000B1FA81F18900A3438A401343036230BD33
:101FB00030B5436A090A91FAA1F4B4FA84F4A50091
:101FC0000F24AC4091FAA1F1B1FA81F18900A34349
:101FD0008A401343436230BD10B5044601F062FCF1
:101FE000206001F035FC606001F040FCA06060689A
:101FF00001F04AFCE06010BD014908607047000034
:102000000C0000200A7B8B681A434B6822F4806224
:102010001A430B6822F400621A43CB8922F48052DF
:102020001A430B6922F400521A434B6922F480428E
:102030001A4322F400411943416400207047000014
:1020400010B501291CD004291CD010291CD040290E
:102050001CD0B1F5807F1BD0B1F5806F1AD006215E
:102060000D4B18305B5C184403680B4C0E34615CFC
:1020700003248C40120CA3438A401343036010BD19
:102080000021EDE70121EBE70221E9E70321E7E782
:102090000421E5E70521E3E79C6C000810B5012960
:1020A0001CD004291CD010291CD040291CD0B1F50B
:1020B000807F1BD0B1F5806F1AD006210D4B1830F0
:1020C0005B5C184403680B4C0E34615CF0248C405C
:1020D000120CA3438A401343036010BD0021EDE7B7
:1020E0000121EBE70221E9E70321E7E70421E5E726
:1020F0000521E3E79C6C000810B5012916D00429DE
:1021000016D0102916D0402916D0B1F5807F15D0F1
:10211000B1F5806F14D00623016A0A4CE35C0A24EF
:102120009C40A1439A401143016210BD0023F3E794
:102130000123F1E70223EFE70323EDE70423EBE7B5
:102140000523E9E7B16C000810B501291CD004296A
:102150001CD010291CD040291CD0B1F5807F1BD089
:10216000B1F5806F1AD006210D4B18305B5C184416
:1021700003680B4C0E34615C0C248C40120CA3439E
:102180008A401343036010BD0021EDE70121EBE716
:102190000221E9E70321E7E70421E5E70521E3E779
:1021A0009C6C0008F0B50268254B264D264E274F43
:1021B000274C4FF0804C984209D0604507D0A84288
:1021C00005D0B04203D0B84201D0A04205D1D1F829
:1021D00004E022F0700242EA0E0298421BD06045F1
:1021E00019D0A84217D0B04215D0B84213D0A0429F
:1021F00011D0184DA8420ED0174DA8420BD0174D44
:10220000A84208D0164DA84205D0164DA84202D0CB
:10221000154DA84203D1CD6822F440722A430260D2
:102220008A68C2620A888262984201D0A04201D1C3
:10223000097C0163416941F0010141610020F0BD69
:10224000000001400004004000080040000C004075
:1022500000040140004001400044014000480140AA
:1022600000180040001C004000200040012919D047
:10227000042919D0102919D0402919D0B1F5807F2F
:1022800018D0B1F5806F17D006210C4A1830525C77
:1022900010440268094BDB1D5B5C042199408A43B2
:1022A000026070470021F0E70121EEE70221ECE730
:1022B0000321EAE70421E8E70521E6E79C6C000832
:1022C000012919D0042919D0102919D0402919D071
:1022D000B1F5807F18D0B1F5806F17D006210C4A78
:1022E0001830525C10440268094BDB1D5B5C08210E
:1022F00099400A43026070470021F0E70121EEE7B0
:102300000221ECE70321EAE70421E8E70521E6E7FB
:102310009C6C0008F0B5012600236E4C6E4D01291F
:1023200008D010293BD0B1F5807F73D0B1F5805F24
:102330006ED1A6E0016A21F001010162016A4668DE
:102340008769D2F800C027F0730747EA0C07D2F874
:1023500010C021F0020141EA0C01D2F804C021F0C2
:10236000010141EA0C01A04201D0A84212D15469F6
:1023700021F0080141EA8401946821F0040141EA56
:102380008401956926F480742C43D56924F4007483
:1023900044EA450646608761D26842636FE0016A9D
:1023A00021F010010162066A41688769D2F800C015
:1023B00027F4E64747EA0C27D2F810C026F020069B
:1023C00046EA0C16D2F804C026F0100646EA0C16AF
:1023D000A04201D0A84213D1556926F0800444EAF6
:1023E0008514956824F0400444EA8516946921F424
:1023F000806141EA8401D46921F4006141EAC401A9
:1024000041608761D168816361E003E000E01E46BE
:102410003046F0BD016A21F480710162016A4668AC
:10242000C769D2F800C027F0730747EA0C07D2F853
:1024300010C021F4007141EA0C21D2F804C021F44B
:10244000807141EA0C21A04201D0A84213D1546905
:1024500021F4006141EA8421946821F4806141EA19
:102460008421956926F4805444EA0514D56924F43E
:10247000005444EA45164660C761D268C2630162EF
:10248000C5E7016A21F480510162066A4168C769A3
:10249000D2F800C027F4E64747EA0C27D2F810C06C
:1024A00026F4005646EA0C36D2F804C026F48056CC
:1024B00046EA0C36A04201D0A84204D1946921F426
:1024C000804141EA84114160C761D16801640662BC
:1024D0009DE70000000001400004014008B50168CC
:1024E00000914068009008BD016921F490410161AC
:1024F000416921F02A014161704700007FB504461F
:10250000C0680D460126C0F34030E8BBE968686842
:10251000AA690843296911430843E16849F20C623A
:1025200091430843E060A868216921F440510143C8
:1025300021616869616921F4407101436161684604
:10254000FFF74AFD1348844208D01348844213D051
:102550001248844210D01248844201D103990CE001
:102560001048844208D01048844205D00F48844265
:1025700002D00F4884420AD1029929B12B681BB1BD
:1025800000262046AA6900E001E000F013F804B03C
:10259000304670BD0010014000440040004800403B
:1025A00000140140004C0040005000400078004002
:1025B000007C00402DE9F04106461920A1FB0001F6
:1025C0001F46002364243225B2F5004F27D0BB0FED
:1025D000BA00FDF767FE0146B0FBF4F06FF0180299
:1025E000504301EB800005EB0010B0FBF4F000F06D
:1025F000F002B1FBF4F002EB0012B1FBF4F06FF06B
:102600001803584301EB800005EB0010B0FBF4F019
:1026100000F00F00104480B2B060BDE8F081FA19FC
:102620005B41FDF73FFE0146B0FBF4F00201B1FB58
:10263000F4F06FF01803584301EB800005EBC00085
:10264000B0FBF4F000F0F80002EB4002B1FBF4F054
:10265000584301EB800005EBC000B0FBF4F000F044
:102660000700D7E708B54FF0E0210A690092421C45
:1026700000D0401C0A69D20300D5401E0028F9D1C1
:1026800008BD00002DE9F0410E4F00244FF4807684
:1026900026FA04F5BD611E20FFF7E4FF641CE4B2D6
:1026A000082CF5D308494FF4006088611E20FFF71D
:1026B000D9FF06494FF480408861BDE8F0411E20F3
:1026C000FFF7D0BF00180240001002400014024083
:1026D00005494FF480408861C110044881614FF47E
:1026E000FF71816170470000001402400010024039
:1026F00010B54FF48000FFF7CDFA4FF40010FFF74C
:10270000C9FA02F087F80022062100F0D0FE014647
:102710000B2002F097F80B2002F054F802F07AF840
:102720000022062100F0C3FE0146112002F08AF8C3
:10273000112002F047F802F06DF80022062100F0A7
:10274000B6FE0146392002F07DF8392002F03AF851
:1027500002F060F80022062100F0A9FE01463A20AE
:1027600002F070F8BDE810403A2002F02BB80000EB
:102770002DE9F04F87B018216846FDF7DDFD1020E8
:10278000FFF77CFA4020FFF779FA0120FFF776FA8D
:102790000220FFF773FA4FF48070FFF76FFA802082
:1027A000FFF76CFA2020FFF769FA0820FFF766FAB6
:1027B00024484FF400710A048261234F4FF47012D1
:1027C000BA61DFF888804FF0FF734FF4FF7BC8F8E1
:1027D0001830DFF87C904303C9F81830DFF874A094
:1027E0008B04CAF818300124032500268DE87200F6
:1027F00069460494FFF72EFB3C208DE87100694682
:1028000038460494FFF726FB01A9CDF800B081E813
:102810007000694640460494FFF71CFB4FF4884063
:102820008DE87100694648460494FFF713FBE00207
:102830008DE87100694650460494FFF70BFB07B022
:10284000BDE8F08F00200240001C0240001802404A
:10285000001402400010024030B593B014210EA8BD
:10286000FDF76AFD20216846FDF766FD182108A8DE
:10287000FDF762FD4020FFF731FA5920ADF838002E
:10288000002440F2E730CDE90F40184D0EA928464C
:102890001194FFF787FC286820F080002860012150
:1028A0002846FFF70DFD6020CDE900040294039453
:1028B0006A46012128460494FFF72CFD0121284691
:1028C000FFF7D4FC8020FFF7F1F94020089009AA17
:1028D0000220032182E813000C9009200D9008A922
:1028E0000348FFF7B7FA13B030BD000000180040EE
:1028F000001C024070B58CB0142106A8FDF71CFD29
:1029000018216846FDF718FD0120FFF7E7F90120BF
:10291000FFF7CCF903200221CDE90001029001204C
:102920000025CDE90305059069462C48FFF792FA8A
:1029300001F078FF0022062100F0D2FD01461C20A4
:1029400001F090FF1C2001F04AFF4FF08044A06886
:1029500020F0070040F00200A060A61332460121DB
:102960002046FFF76DFB002201212046FFF7ECFB1C
:10297000002201212046FFF791FB00220121204681
:10298000FFF7BAFB324610212046FFF759FB002221
:1029900010212046FFF7D8FB002210212046FFF728
:1029A0007DFB002210212046FFF7A6FBADF8185052
:1029B000701ECDE9075006A920460995FFF7F2FBE6
:1029C000206820F080002060606820F07000606067
:1029D000A06820F08000A0600CB070BD0000024034
:1029E00070B594B014210EA8FDF7A6FC202168460E
:1029F000FDF7A2FC182108A8FDF79EFC0220FFF7B6
:102A00006DF9B320ADF83800002444F61F60CDE91D
:102A10000F40244D0EA928461194FFF7C3FB2868E8
:102A200040F080002860AE1531462846FFF748FC8C
:102A30006020CDE90004029403946A46314628469A
:102A40000494FFF767FC31462846FFF70FFCAE14ED
:102A500031462846FFF734FC01946A463146284641
:102A60000294FFF757FC31462846FFF7FFFB6868E2
:102A700020F070006860A86820F08000A860022044
:102A8000FFF714F90320CDE90A040221CDE908017A
:102A90000120CDE90C0108A90348FFF7DBF914B0C8
:102AA00070BD0000000400400004024070B58CB00E
:102AB000142106A8FDF740FC18216846FDF73CFCF0
:102AC0000420FFF70BF90820FFF7F0F84FF440500F
:102AD000009002200321CDE901010590012100258C
:102AE000CDE9031569462C48FFF7B4F901F09AFEC9
:102AF0000022062100F0F4FC01461E2001F0B2FE87
:102B00001E2001F06CFE254CA06820F0070040F06C
:102B10000200A060A613324601212046FFF790FA7A
:102B2000002201212046FFF70FFB00220121204651
:102B3000FFF7B4FA002201212046FFF7DDFA324602
:102B400010212046FFF77CFA002210212046FFF7D3
:102B5000FBFA002210212046FFF7A0FA00221021E4
:102B60002046FFF7C9FAADF81850701ECDE907509E
:102B700006A920460995FFF715FB206820F0800084
:102B80002060606820F070006060A06820F0800025
:102B9000A0600CB070BD0000000C024000080040B6
:102BA00070B58CB0142106A8FDF7C6FB1821684645
:102BB000FDF7C2FB0820FFF791F88020FFF776F8B9
:102BC0004FF44060009002200321CDE901010590FF
:102BD00001210025CDE9031569462C48FFF73AF994
:102BE00001F020FE0022062100F07AFC014632208E
:102BF00001F038FE322001F0F2FD254CA06820F0F3
:102C0000070040F00200A060A613324601212046D2
:102C1000FFF716FA002201212046FFF795FA00225D
:102C200001212046FFF73AFA002201212046FFF752
:102C300063FA324610212046FFF702FA00221021E3
:102C40002046FFF781FA002210212046FFF726FADE
:102C5000002210212046FFF74FFAADF81850701EE1
:102C6000CDE9075006A920460995FFF79BFA206891
:102C700020F080002060606820F070006060A06834
:102C800020F08000A0600CB070BD0000001C02406D
:102C9000000C004010B586B014216846FDF74CFBCF
:102CA0002020FFF71BF801F0BDFD0022062100F0F7
:102CB00017FC0146372001F0D5FD372001F08FFDCC
:102CC0005920ADF800000020019044F61F600A4C26
:102CD000029069462046FFF765FA206820F08000E0
:102CE0002060606820F070006060A06820F08000C4
:102CF000A06006B010BD000000140040F0B599B00F
:102D0000142114A8FDF718FB20216846FDF714FBD9
:102D1000182108A8FDF710FB18210EA8FDF70CFBE1
:102D20000220FEF7F3FFB320ADF85000002444F674
:102D30001F60CDE915403D4D17948DF8604014A9F2
:102D40002846FFF72FFA286840F08000286001210C
:102D50002846FFF7B5FA6020CDE9000402940394F9
:102D60000494059406946A46012128460794FFF7C7
:102D7000D1FA01212846FFF779FA10212846FFF7FA
:102D80009FFA01946A46102128460294FFF7C2FA7E
:102D900010212846FFF76AFAAE1531462846FFF79C
:102DA0008FFA01946A46314628460294FFF7B2FA38
:102DB00031462846FFF75AFAAF1439462846FFF73E
:102DC0007FFA01946A46394628460294FFF7A2FA30
:102DD00039462846FFF74AFA686820F070006860B4
:102DE000A86820F08000A86008946814CDE90C045D
:102DF0008DF82C4009940A94ADF82E4008A9284675
:102E0000FFF700F93046FEF751FFE4200E90022054
:102E10000F9003200121CDE91210CDE910040EA975
:102E20000348FFF717F819B0F0BD00000004014097
:102E30000020024070B594B014210EA8FDF77CFA72
:102E400020216846FDF778FA182108A8FDF774FAE2
:102E50004FF48030FEF75AFFB320ADF8380000245D
:102E600044F61F60CDE90F401E4D0EA9284611946F
:102E7000FFF798F9286820F0800028600121284693
:102E8000FFF71EFA6026CDE90064029403946A46B7
:102E9000012128460494FFF73DFA01212846FFF757
:102EA000E5F910212846FFF70BFA01946A46102134
:102EB00028460294FFF72EFA10212846FFF7D6F98C
:102EC0001020FEF7F3FE0220CDE908600320012167
:102ED000CDE90C10CDE90A0408A90348FEF7BAFFB2
:102EE00014B070BD00400140001002402DE9F041D7
:102EF0008EB01C216846FDF71FFA182107A8FDF7C0
:102F00001BFA4FF00040FEF7F5FE1020FEF7DAFE48
:102F100003200221CDE907010024CDE909040120A5
:102F20000B9008200C9007A94348FEF793FF434EEF
:102F30004FF020652A4606213046FEF725FF002285
:102F400006213046FEF740FF4FF440373A4606214F
:102F50003046FEF775FF002206213046FEF752FF8D
:102F6000002206213046FEF757FF4FF480684246A4
:102F700006213046FEF732FF002206213046FEF7DA
:102F800055FF002206213046FEF732FF062130466B
:102F9000FEF7D4FE2A4600213046FEF7F5FE402219
:102FA00000213046FEF710FF3A4600213046FEF77A
:102FB00047FF002211463046FEF724FF002211464B
:102FC0003046FEF729FF424600213046FEF706FF55
:102FD000002211463046FEF729FF002211463046F6
:102FE000FEF706FF00213046FEF7A8FE01F022FCA6
:102FF0000022062100F08DFA0146532001F042FC28
:10300000532001F0F9FB4FF4E130CDE900040C202E
:103010000294CDE9034005940694094C6946204684
:10302000FFF76CFA2046FFF75FFAE06840F40050C3
:10303000E0600EB0BDE8F081001002400060024088
:10304000007C004030B58DB01C216846FDF774F956
:10305000182107A8FDF770F91020FEF763FE022083
:10306000FEF730FEC02007900220089003200024C5
:10307000CDE9090401200B9007200C9007A92B48EB
:10308000FEF7E8FE2A4D4FF0006202212846FEF7C7
:103090007BFE002202212846FEF796FE4FF44032C6
:1030A00002212846FEF7CCFEAA1502212846FEF78B
:1030B000A9FE002202212846FEF7AEFE2A150221B3
:1030C0002846FEF78BFE002202212846FEF7AEFEC0
:1030D000002202212846FEF78BFE02212846FEF739
:1030E0002DFE01F0A7FB0022062100F012FA014696
:1030F000252001F0C7FB252001F07EFB0D48009044
:10310000A814CDE901040C20CDE9034005940694F0
:10311000094C69462046FFF7F1F92046FFF7E4F92C
:10312000E06840F40050E0600DB030BD00040240A3
:1031300000640240A08601000010014010B58EB06E
:103140001C216846FDF7F8F8182107A8FDF7F4F8E8
:103150004FF48020FEF7CEFD0820FEF7B3FD4FF4BC
:1031600040700790022000240890CDE90904012056
:103170000B9007200C9007A91348FEF76BFE01F097
:1031800059FB0022062100F0C4F90146272001F076
:1031900079FB272001F030FB4FF4E130CDE900044A
:1031A0000C200294CDE9034005940694074C69462F
:1031B0002046FFF7A3F92046FFF796F9E06840F4B0
:1031C0000050E0600EB010BD000C0240004800400E
:1031D00030B58DB01C216846FDF7AEF8182107A860
:1031E000FDF7AAF82020FEF79DFD4020FEF76AFDBE
:1031F0004FF4844007900220089003200024CDE97A
:10320000090401200B9008200C9007A92B48FEF719
:1032100021FE2B4D4FF0206201212846FEF7B4FD20
:10322000002201212846FEF7CFFD4FF44032012154
:103230002846FEF705FE002201212846FEF7E2FDA2
:10324000002201212846FEF7E7FD2A150121284624
:10325000FEF7C4FD002201212846FEF7E7FD00220B
:1032600001212846FEF7C4FD01212846FEF766FD30
:1032700001F0E0FA0022062100F04BF90146472058
:1032800001F000FB472001F0B7FA4FF4E130CDE93F
:1032900000040C200294CDE9034005940694094CE7
:1032A00069462046FFF72AF92046FFF71DF9E06836
:1032B00040F40050E0600DB030BD00000018024046
:1032C0000064024000140140FEE710B500240480B1
:1032D0004180012101714171C0E9022310BD0179D2
:1032E000417102884AB1521E028000220271806838
:1032F000002801D0012907D0704701220271C0685F
:103300000028F9D00029F7D1004741880180704793
:103310003CB50A880024120A8DF800200A788DF83E
:1033200001204A88120A8DF802208A788DF803203D
:103330008A88120A8DF804200A798DF80520CA8837
:10334000120A8DF8062089798DF807106A4608213F
:1033500000F014F8054640F6FF7301E0641CA4B2C7
:103360002846FDF7D1FC072801D09C42F6D39C42A9
:1033700001D301203CBD00203CBD000070B5234BB3
:10338000044600201D686D0108D41868000101D5AD
:10339000012003E01868C00036D502201C4B002530
:1033A00003EB0013C3F88059D3F8805945EA44551C
:1033B000C3F88059D3F88049C3F88049D3F88049CD
:1033C000C3F88049D3F8844901F00F0124F00F04B9
:1033D000C3F88449D3F884490C43C3F8844911796C
:1033E000D2F8054041EA0421C3F88C191178D2F8CB
:1033F000012041EA0221C3F88819D3F8801941F06D
:103400000101C3F8801970BDFF2070BD086800403D
:103410000060004070B5234B044600201D686D011C
:1034200008D41868000101D5012003E01868C00025
:1034300036D502201C4B002503EB0013C3F8805542
:10344000D3F8805545EA4455C3F88055D3F88045F4
:10345000C3F88045D3F88045C3F88045D3F8844548
:1034600001F00F0124F00F04C3F88445D3F884451C
:103470000C43C3F884451179D2F8054041EA042190
:10348000C3F88C151178D2F8012041EA0221C3F863
:103490008815D3F8801541F00101C3F8801570BD7F
:1034A000FF2070BD0864004000600040FEE730B5BA
:1034B00000F00703C3F10704042C00D90424181DED
:1034C000072801D2002300E0DB1E012505FA04F0E5
:1034D000401E084098409D406D1E1540284330BD59
:1034E00030B500F00703C3F10704042C00D904240D
:1034F000181D072801D2002300E0DB1E012505FA74
:1035000004F0401E084098409D406D1E1540284321
:1035100030BD30B500F00703C3F10704042C00D917
:103520000424181D072801D2002300E0DB1E01251A
:1035300005FA04F0401E084098409D406D1E15405D
:10354000284330BD1CB5024600210448009101917A
:103550000323406802F0CAFF1CBD000018000020D1
:103560004FF4C874204602F0A1F9052002F09EF93C
:10357000F8E72DE9F0410C460178427841EA022152
:10358000C1F30A01218042788378D20842EA4312CB
:10359000C2F30A0262808378C5789B0943EA8503F7
:1035A000057943EA8523C3F30A03A38005794679A5
:1035B0006D0845EAC615C5F30A05E5804679C6F3E8
:1035C0000116A6724679B609E6728679C77946EA87
:1035D0000726A681067A477A46EA0726E681867A92
:1035E000C77A46EA07262682067BA674467BE674DF
:1035F000867BC77B46EA0726A682067C407CA1F52F
:1036000080612180A2F580626280A3F5806346EA32
:103610000020A380A5F58065E580A0F5806020816D
:10362000204600F0DFFF4FF496656E42B4F90C00BF
:103630002A463146FEF7C2FAA081B4F90E002A46A6
:103640003146FEF7BBFAE081BDE8F081B4EEE00A56
:10365000F1EE10FA02D2B0EE600A7047B4EEC10A81
:10366000F1EE10FAF9DDB0EE410A704710B580EDC9
:10367000030A0446C0ED040AFDF778FB94ED100A36
:1036800010BD0000044804218161082181611021DE
:103690008161202181617047001C024010B50EA09D
:1036A00001F080F80DA001F07DF818A001F07AF883
:1036B00022A001F077F82DA001F074F837A001F0F6
:1036C00071F843A001F06EF84EA001F06BF8BDE870
:1036D000104001A001F066B80D0A00002020202053
:1036E000202020202A3D3D3D2A2020202A3D3D3D0E
:1036F0002A202020202A3D3D3D2A20202020202055
:10370000202020202A3D3D3D2A0D0A002020202097
:103710002020202F2020202F2020202F2020202F6D
:10372000202020202F2020202F202020202020207B
:103730002020202F2020202F0D0A000020202020D4
:1037400020202F2020202A3D3D3D2A2020202F20F0
:103750002020202F2020202F20202020202020204B
:1037600020202F2020202F0D0A00000020202020C4
:10377000202F20202020202020202020202F20202B
:1037800020202F2020202F2020202020202020201B
:10379000202F2020202F0D0A0000000020202020B4
:1037A0002F2020202A3D3D3D2A2020202F20202090
:1037B000202F2020202A3D3D3D3D3D3D2A20202038
:1037C0002F2020202A3D3D3D3D3D3D2A0D0A000091
:1037D0002020202F2020202F2020202F2020202FAD
:1037E000202020202F202020202020202020202FBB
:1037F0002020202F202020202020202020202F0DBE
:103800000A00000020202A3D3D3D2A2020202A3D9C
:103810003D3D2A202020202A3D3D3D3D3D3D3D3D72
:103820003D3D2A2020202A3D3D3D3D3D3D3D3D3D45
:103830003D2A0D0A0000000003494FF480608861B2
:103840000249401088617047001402400020024085
:1038500004490968044A01F0F0010909515CC840B3
:103860007047000008380240C06C0008044909682D
:10387000044A01F4E05102EB91210978C8407047F5
:1038800008380240D06C000804490968044A01F471
:10389000604102EB51310978C84070470838024056
:1038A000D06C00080748006810F00C01064807D0EB
:1038B000042904D0082903D1082000F009B80348DE
:1038C00070470000083802400024F400001BB700D5
:1038D00010B5104A04460020116811F480030E4907
:1038E00003D0B3F5800F00D10C49082C11D110681A
:1038F00000F03F00B1FBF0F01168C1F388114843BC
:103900001168012201F4403102EB11414900B0FB82
:10391000F1F010BD043802400024F400001BB70091
:103920000368934205DA19440160914200DD0260A8
:103930007047FCDD591A01609142F8DB70478A8AB2
:1039400082828A7C8274CA7CC2748A898281CA8992
:10395000C2810A8A02820A8802804A8842808A8852
:103960008280CA88C2800A8902818A7A8272C97A70
:10397000C1727047002181828174C1748181C181CB
:103980000182018041808180C18001810321817297
:10399000C172704708B508486946406802F058FB94
:1039A0000098002807D005494FF080500860BFF309
:1039B0004F8FBFF36F8F08BD2400002004ED00E09F
:1039C000B0F900204FF4A56102F525728A4201D9B1
:1039D00001207047B0F9022002F525728A4201D910
:1039E00002207047B0F9042002F525728A4201D9FD
:1039F00003207047B0F9062002F525728A4201D9EA
:103A000004207047817A012905D0022903D00329B7
:103A100001D005207047C07A012805D0022803D0C4
:103A2000032801D0062070470020704703220021A0
:103A3000012002F0A1F9304C60600020FDF7D4FEB7
:103A400004F1080528600120FDF7CEFE68602B48D0
:103A5000FFF790FF29481E30FFF78CFF274802210F
:103A60003C300170012141708170C1700171817120
:103A70004171C171017201F027FDC82001F016FFEC
:103A80004FF4FA763146606802F0F2FB01280AD062
:103A90001A48FFF76FFF19481E30FFF76BFF05202C
:103AA00001F004FFEEE7FDF78FFE207055F82000CF
:103AB0001249FFF75EFD1148FFF782FF50B10F4931
:103AC0000E481E31FFF73BFF00F03CFD64210CA0C7
:103AD00000F068FE0020FDF79DFC00F01BF8074A8F
:103AE00006483C32A2F11E0100F086FA034901F1BA
:103AF0001E00FFF724FFD2E7240000200407002067
:103B00003C4552524F523E206572726F723A2564A4
:103B10000D0A00002DE9F0412C4D0126A5F11E07EC
:103B2000A87A05F11E0403280FD1B87A02280CD117
:103B30002078401CC0B22070032800D12670207865
:103B400037224FF47A7100F0E1F82078022811D181
:103B5000E87A4FF49668032802D001280CD020E0C0
:103B6000F87A022820D1A079401CC0B2A0710328A5
:103B700000D1A671BDE8F081F87A0328FAD1144982
:103B800048780028A07805D0401EA070C0B2042854
:103B900002D002E0401CF8E74E703222414600F0AD
:103BA000B5F8E87A0328E5D1F87A0128E2D120793E
:103BB000401CC0B22071022800D9267120794146EC
:103BC000BDE8F041322200F0A1B800002207002039
:103BD0002400002070B50D461949144691ED040AE1
:103BE000F8EEC00A00EE100A1648B8EEC00AFFF759
:103BF0003DFD154890ED040A1248F8EEC00A00EEAB
:103C0000105A8830B8EEC00AFFF730FD0F4890ED2B
:103C1000040A0F48F8EEC00A00EE104AB8EEC00AD7
:103C2000FFF724FD0A4890ED101A8838D0ED100AED
:103C3000883890ED100ABDE8704000F00BB8000025
:103C400080040020E402002094040020A804002046
:103C5000F403002010B527482DED028BF0EE608AAA
:103C6000B0F90E00B0EE418A00EE900A2248F8EE5C
:103C7000E00AFFF7FBFC2148B0F90E0000EE100A45
:103C80001D48F8EEC00AB0EE680A8830FFF7EEFC77
:103C90001B48B0F90E0000EE100A1A48F8EEC00AF0
:103CA000B0EE480AFFF7E2FC13481349154A90EDBD
:103CB000100A8831144BBDEEC00A10EE100A91EDC7
:103CC000100A00F2DC50BDEEC00A10EE101A92EDA0
:103CD000100A1860BDEEC00A10EE102A181D01F27D
:103CE000DC510160001D02F2DC520260BDEC028B6F
:103CF00010BD000080040020A002002094040020D9
:103D0000A8040020B0030020340401401CB50120A9
:103D1000ADF802108DF800000448ADF8042000232F
:103D20001A466946006802F0CDF81CBD400000202C
:103D300070B500202DED048BB0EE618AF0EE418A63
:103D40002A4CB0EE609A014624F81010401C04285A
:103D5000FADB274DB5F9020000EE900A2348F8EE91
:103D6000E00A0830FFF782FCBDEEC00A10EE100A30
:103D70002080B5F90A0000EE100A1C48F8EEC00ACF
:103D8000B0EE490A4C30FFF771FCBDEEC00A10EEF0
:103D9000100A6080B5F9120000EE100A1348F8EE20
:103DA000C00AB0EE680A9030FFF760FCBDEEC00AB2
:103DB00010EE100AA080B5F91A0000EE100A0B48A8
:103DC000F8EEC00AB0EE480AD430FFF74FFCBDEE63
:103DD000C00A064910EE100AE0804FF40070BDECF6
:103DE000048BBDE87040FDF70FB90000EC00002027
:103DF00040C20020094910B591ED040AF8EEC00A4E
:103E000000EE100A0648B8EEC00AFFF72FFC04487F
:103E100090ED100ABDE8104000F004B860C2002028
:103E20005002002010B500200E4C014624F810105E
:103E3000401C0428FADB0C48B0F9020000EE900A9E
:103E40000848F8EEE00A0830FFF710FCBDEEC00AA3
:103E5000044910EE100A2080BDE810404FF40070B5
:103E6000FFF756BA0402002060C200207CB501F0C2
:103E700007FC2B490F20CDE900014FF4807500238A
:103E80002A4628A12B4802F005FB2B490620CDE944
:103E900000010023802229A12B4802F0FBFA2B49C4
:103EA0001420CDE9000100232A4629A12C4802F064
:103EB000F1FA2C481324CDE9004000232A462AA118
:103EC0002D4802F0E7FA2D480023CDE900402A46AC
:103ED0002BA12F4802F0DEFA2E490920CDE900017E
:103EE00000232A462CA12F4802F0D4FA2E4918208C
:103EF000CDE9000100232A462CA12F4802F0CAFA7E
:103F0000FEF7C0FB2DA000F04DFC34A000F04AFCF1
:103F100001F0F2FBBDE87C40002001F0FDBC000098
:103F20003400002072656D6F7465725F7461736B2D
:103F3000000000002D3A00083C00002062757A7AEB
:103F400065725F7461736B004909000858000020B6
:103F5000636861737369735F7461736B0000000061
:103F6000E51100085C00002066756E6374696F6E71
:103F70005F7461736B000000351500087C00002041
:103F80006F766572636869705F7461736B000000BF
:103F9000613500081C0000206A756467655F746104
:103FA000736B0000CD1B000814000020646574656D
:103FB00063745F7461736B00251400083C494E46BE
:103FC0004F3E200D0A416C6C207461736B7320634B
:103FD000726561742E0D0A0D0A0000003C494E46C0
:103FE0004F3E200D0A53797374656D2072756E2EE5
:103FF0000D0A0D0A000000002DE9F0471178144663
:1040000001297DD1584D4FF0010705F11E06297D8C
:10401000490609D5317D490606D46178491CC9B2E3
:104020006170032900D96770817C4FF00208012973
:1040300001D184F80780C07C4FF00309012818D013
:10404000A98A480608D5B08A420605D4890603D550
:10405000800601D46770E771A88A80050DD5B08A03
:1040600080050AD46079401CC0B26071032803D077
:1040700003E084F80790EFE76771287D4FF4966AB4
:1040800000060ED5307D00060BD4A078401CC0B2CF
:10409000A070042800D9A770A07832225146FFF7FB
:1040A00035FEA88A000509D5B08A000506D484F833
:1040B0000880A07832225146FFF728FEA88A8104A2
:1040C0000AD5B18A890407D484F80890A0783222EE
:1040D0005146FFF71BFE0AE0010608D5B18A0A0621
:1040E00005D4800603D5880601D42772A770A88A54
:1040F000C00510D5B08AC0050DD42079401C00E061
:104100002FE0C0B22071022800D92771E078322256
:104110005146FFF7FBFDA88A40050ED5B08A400541
:104120000BD4A079401CC0B2A071022800D9A7719D
:10413000A07932225146FFF7E9FDA88A800410D504
:10414000B08A80040DD4E078401CC0B2E070022830
:1041500000D9E770E0785146BDE8F0473222FFF71A
:10416000D5BDBDE8F08700000407002010B5502041
:1041700080F31188BFF34F8FBFF36F8F02F0FAFA0D
:1041800018B104494FF080500860002080F3118876
:1041900010BD000004ED00E0304810B5016821F0CA
:1041A0000F0141F005010160016801F00F010529CF
:1041B000FAD12B48016841F440410160016841F4A3
:1041C000803101602748016841F480310160016855
:1041D000C1F340410029FAD02249234A091D0B6846
:1041E000224C23401A430A600A6822F440320A60D3
:1041F000016841F0807101600168C1F340610029EC
:10420000FAD018480830016821F0F0010160016817
:1042100021F4E05141F4A0510160016821F46041B2
:1042200041F400410160016821F0030141F0020105
:104230000160016801F00C010829FAD10C48FDF772
:10424000DBFE0620FDF706FB08B172B6FEE7054867
:104250008C30016821F08071016010BD003C02408B
:104260000070004000380240062D40000080BFFF73
:104270000095BA0A0548016841F4700101600349DC
:104280004FF00060803908607047000088ED00E062
:104290000148FDF7D1BB0000400400204FF08040F2
:1042A0000169016921F0010101617047034801685A
:1042B000016821F001010160704700001008004012
:1042C00003480168016821F00101016070470000A6
:1042D000100C00400C4810B5016911F0010F12D00C
:1042E0006FF0010101610421084800F02DFC07482E
:1042F0000521143000F028FC04480221BDE81040DC
:10430000283000F021BC10BD0014004080040020C3
:10431000F0B50268254C264D264E274F274B4FF00F
:10432000804CA04209D0604507D0A84205D0B042D9
:1043300003D0B84201D0984204D122F0700E4A68EE
:1043400042EA0E02A0421BD0604519D0A84217D005
:10435000B04215D0B84213D0984211D0184DA8429F
:104360000ED0184DA8420BD0174DA84208D0174DBB
:10437000A84205D0164DA84202D0164DA84203D13E
:1043800022F44075CA682A434D6922F080022A430C
:1043900002608A68C2620A688262A04201D09842C2
:1043A00001D10969016301214161F0BD00000140B3
:1043B0000004004000080040000C004000040140E0
:1043C0000040014000440140004801400018004006
:1043D000001C0040002000400088704702784178AF
:1043E00042EA01600A0442EA01210843704700F0F2
:1043F00031B800F061B87047AFF3008070B5124C6F
:104400002068C0F3001000281DD0104D012128465F
:10441000FDF79EFC2046FEF761F801212846FDF7D6
:10442000ABFC0B4CC0F1800080222070012128469B
:10443000FDF7BEFC2078FFF785F82846BDE8704000
:104440000221FDF78FBC70BD0014014000640240E2
:104450001000002070B5144C2068C0F30010002834
:1044600020D0124D06212846FDF772FC2046FEF7AB
:1044700035F806212846FDF77FFC0D4CC0F1800081
:104480000C496070E8148861802206212846FDF7F7
:104490008FFC6078FFF756F82846BDE8704006218B
:1044A000FDF760BC70BD0000007C00400060024071
:1044B000100000200010024070B51C4D2868C0F3A9
:1044C0000010002831D01A4C02212046FDF740FC94
:1044D0002846FEF703F84FF40010A06002212046A2
:1044E000FDF74AFC1349C0F1240048801248807847
:1044F00020584FF4002200F40020904200D1002206
:1045000002212046FDF74AFC242202212046FDF725
:104510004FFCFFF73FFA09494FF0006088612046E1
:10452000BDE870400221FDF71DBC70BD00100140C8
:104530000064024010000020D86C00080010024007
:10454000FEE7000070B50C4CE06840F40050E060FD
:104550000A4D02212846FDF7FBFB242202212846B2
:10456000FDF726FC02212846FDF7FCFBE06840F43D
:104570000050E06070BD0000001001400064024087
:1045800030B50C46050014D0022C12D90A48A11EE1
:1045900002882846FDF7F0F82919C2B211F8023C4A
:1045A0009A4206D111F8011CB1EB102F01D1012064
:1045B00030BD002030BD00003804002030B50C466E
:1045C00005000CD0022C0AD9FF22611EFDF7EAF883
:1045D000291911F8011C814201D1012030BD0020B0
:1045E00030BD000070B50446007D400702D563A0D1
:1045F00000F0D8F8207DC00702D061A000F0D2F80A
:10460000207D800702D55FA000F0CCF8207D000758
:1046100002D55DA000F0C6F8A08A000502D55BA017
:1046200000F0C0F8A08AC00402D559A000F0BAF882
:10463000A08A800402D557A000F0B4F8A08A4004F4
:1046400002D555A000F0AEF8A08A800502D553A08F
:1046500000F0A8F8A08A400502D551A000F0A2F809
:10466000A08A4FF42572C1074FF00005C2F1000384
:104670004FEA80710DD000290FDBB4F91810002922
:1046800001DA0A312183B4F91810914224DA491D64
:1046900019E0002901DAC1070AD0B4F9181000297D
:1046A00013DA01F10A0109B22183002913DC13E0B6
:1046B000B4F91810002901DD0A392183B4F9181062
:1046C000994209DD491F218306E005DD0A3909B257
:1046D0002183002900DA258341070DD500071CD46A
:1046E000B4F91600002801DA0A30E082B4F91600A5
:1046F000904224DA401D0EE001070ED540070CD48D
:10470000B4F91600002801DD0A38E082B4F9160079
:10471000984214DD401FE08211E0B4F91600002831
:1047200006DA00F10A0000B2E082002806DC06E0AA
:1047300005DD0A3800B2E082002800DAE582B4F92B
:104740000C0050B1618B084400B26083904201DDDF
:10475000628302E0984200DA6383B4F90E00002815
:1047600006D0A18B084400B2A083904201DDA28351
:1047700070BD9842FCDAA38370BD0000410D0A00B1
:10478000570D0A00530D0A00440D0A007A0D0A0065
:10479000780D0A00630D0A00760D0A00460D0A0026
:1047A000470D0A000FB4054B10B503A9044A02983F
:1047B00000F098F810BC5DF814FB00000D4B0008E9
:1047C0003C040020002809DB00F01F020121914079
:1047D0004009800000F1E020C0F800117047002877
:1047E00009DB00F01F02012191404009800000F127
:1047F000E020C0F800117047002809DB00F01F021C
:10480000012191404009800000F1E020C0F8001132
:104810007047000002480068C0F3022070470000A3
:104820000CED00E002480068C0F302207047000071
:104830000CED00E002480068C0F302207047000061
:104840000CED00E00907090E002804DB00F1E02070
:1048500080F80014704700F00F0000F1E02080F8AD
:10486000141D70470907090E002804DB00F1E02041
:1048700080F80014704700F00F0000F1E02080F88D
:10488000141D70470907090E002804DB00F1E02021
:1048900080F80014704700F00F0000F1E02080F86D
:1048A000141D70470907090E002804DB00F1E02001
:1048B00080F80014704700F00F0000F1E02080F84D
:1048C000141D704702E008C8121F08C1002AFAD15F
:1048D00070477047002001E001C1121F002AFBD180
:1048E000704700002DE9FF4F8BB09A460F460546F2
:1048F000002606E025280BD052460D9990476D1CE6
:10490000761C28780028F5D10FB03046BDE8F08F2E
:104910000024A0460122604900E0044315F8013F4D
:10492000203B02FA03F00842F7D128782E2817D14D
:1049300015F8010F44F004042A280ED06FF02F025E
:104940002878A0F1300109290AD808EB880102EB88
:10495000410100EB01086D1CF2E757F8048B6D1C58
:10496000287869283ED006DC0028CDD063280BD0FB
:10497000642804D136E0732810D075284BD05246F5
:104980000D999047761C85E017F8040B8DF8000010
:1049900000208DF80100E946012003E057F8049B50
:1049A0004FF0FF3061074FF0000401D40AE0641CAF
:1049B00044450DDA8442FADB19F804100029F6D1D7
:1049C00006E0641C8442FCDB19F804100029F8D1CD
:1049D000264404E019F8010B52460D999047641ED5
:1049E000F8D257E001CF4FF00A0B002802DA40421C
:1049F0002D2102E0210504D52B218DF82410012161
:104A000003E0E10705D02021F7E70DF12009089127
:104A10000CE00021F9E701CF4FF00A0BF9E7594606
:104A2000FBF7DAFD01F1300209F8012D0028F6D17B
:104A3000ADEB090000F1200B600701D44FF0010835
:104A4000D84502DDA8EB0B0000E0002080460024E2
:104A500006E009A85246005D0D999047641C761C3B
:104A600008988442F5DB04E0302052460D999047C7
:104A7000761CB8F10001A8F10108F5DC05E019F891
:104A8000010B52460D999047761CBBF10001ABF12A
:104A9000010BF4DC6D1C34E70928010010B5FEF7AA
:104AA000CBFEFDF715FE00F069FC00F097FC00F06E
:104AB000D1FC00F087FC00F0B5FCFEF7E3FD05A09B
:104AC000FFF770FEFEF7EAFDBDE8104008A0FFF713
:104AD00069BE00000D0A416C6C20706572697068D7
:104AE0006572616C20696E69742E0D0A0000000009
:104AF0000D0A484C4C5F323032325F454E47494ECA
:104B00004545525F4C4C0D0A000000000449C2B2FA
:104B10004A600A68C2F38012002AFAD07047000087
:104B200000480040054A0649002090600861054998
:104B300008610888488101201070704794020020A5
:104B40008004002060C2002010B50446C089A08106
:104B5000022904D0042905D0052906D10EE000F071
:104B6000E5FB01E000F0EAFBE081B4F90E102069FA
:104B7000084420612189401A208010BD00F0E8FB24
:104B80004042F1E710B5038803810A8852BA0280D7
:104B90004C88D31A64BA44808C88B3F5805F64BAB9
:104BA000848089798171C16801DD491E03E013F5B4
:104BB000805F01DA491CC16002EB41314289891AE8
:104BC000016110BD1CB5FCF72BFEFFF7E5FAFDF700
:104BD000CFFDFDF78DFDFEF735FAFDF78BFEFDF7F6
:104BE00065FFFDF7DDFFFEF7A9FAFDF7F9FEFEF719
:104BF00085F8FEF74FF8FEF7EBFAFDF72DFEFEF70E
:104C000075F9FEF717F9FBF701FE06490A20CDE911
:104C100000010023802204A1064801F03BFC00F0C3
:104C20008FFFFEE73800002073746172745F746157
:104C3000736B00006D3E00082DE9F0411E4C0F46DD
:104C40000546E6682068001D00F0D4FC38B92068ED
:104C500090F82C1001208840216981432161681C53
:104C600015D1A7B115492268486890602368826809
:104C7000DA6022688368121D5A602268121D826001
:104C8000206841610868401C0860BDE8F081206828
:104C90003544B5424560216805D2E06BBDE8F0417E
:104CA000091D00F0C8BCA06B091D00F0C4FCA06A7F
:104CB0008542EAD2A562E8E7800000202C0A0020A5
:104CC0002DE9F041054600F0DBFC354CA068401CA6
:104CD000A0602068334F10B1606930B32BE02560CD
:104CE000A068012827D1002606EB860007EB80008C
:104CF00000F093FC761C202EF6D32B4800F08DFCA0
:104D00002948143000F089FC2748283000F085FC41
:104D100025483C3000F081FC2348503000F07DFCF9
:104D20002148A0631430E06305E02068E96AC06AA6
:104D3000884200D82560606A0121401C6062E86AF0
:104D4000226981401143216100EB800007EB800064
:104D50004068A8608168E9608268291D51608160AF
:104D6000E86A00EB800007EB8001696157F82010CA
:104D7000491C47F8201000F0BFFC606900280CD0E7
:104D80002068E96AC06A884207D208494FF080501B
:104D90000860BFF34F8FBFF36F8FBDE8F081000055
:104DA000800000205C070020DC09002004ED00E00A
:104DB00030B4026C0B46002A0BD0C1681144C160AC
:104DC0008468A14201D30168C16030BC1846FBF77A
:104DD0009ABA30BC70472DE9F041856B17460446FE
:104DE0000026026C82B1C7B1E068FBF78CFAE1687B
:104DF000206C091AE1602268914202D2A168081A67
:104E0000E060022F16D017E02068A8B9A06801F072
:104E10005DFD06460020A0600EE06068FBF773FAB7
:104E2000216C606808446060A168884204D32068EF
:104E3000606001E005B16D1E6D1CA5633046BDE8E4
:104E4000F08110B50446006B00F088FC2046BDE8F8
:104E5000104000F083BC000010484FF43841420776
:104E600006D0C01D0D4920F00700411AC1F5384198
:104E70000B4A00230144C2E900030839183A21F023
:104E8000070111604B600B600B1AC0E900139360BF
:104E90004FF000405360506170470000400A00200E
:104EA000D8000020144E154CA6F52F774FF08058EF
:104EB000DFF84C9012E000BF00F0E2FBF068C5683C
:104EC000281D00F097FBA068401EA0606068401E8F
:104ED000606000F011FC2846FFF7B3FF606800280F
:104EE000EAD138680128F9D9C9F80080BFF34F8F9B
:104EF000BFF36F8FF2E70000180A00208000002047
:104F000004ED00E02DE9F05FDDE90B940F468346E8
:104F10006FF00301206B01EB820108440A9E20F030
:104F200007089A465FEA487005D04FF458721EA1F0
:104F300022A0FFF737FC002567B100202218395C5A
:104F400082F83410395C11B1401C1028F6D384F873
:104F5000435001E084F83450202E06D340F29732BB
:104F600011A116A0FFF71EFC1F26E662C4E9116519
:104F7000201D00F05DFB04F1180000F059FB2461D6
:104F8000C6F120006462A061E56484F85050524686
:104F90005946404600F0B4F92060B9F1000F01D045
:104FA000C9F80040BDE8F09F2E2E5C467265655240
:104FB000544F535C7461736B732E63004572726F50
:104FC000723A25732C25640D0A00000030B5114992
:104FD00000E011460A688242FBD34B685C188442A9
:104FE00003D1406818444860084643681C1894423E
:104FF00009D1084C183C2468A24209D052681A44CE
:1050000042600A6812680260814200D0086030BDC8
:105010000460F9E7D800002010B5044600F030FB2A
:10502000A06B28B15FF0000400F066FB204610BDC5
:105030000124F9E7F1B500980026846C2CB940F6FC
:10504000D53219A11DA0FFF7ADFBA06BE16B884223
:1050500005D340F6D63214A118A0FFF7A3FBA06B2E
:10506000E16B88421ED294F94550002269462046E1
:10507000FFF7B1FE0646681C02D07F2D09D00EE076
:10508000606A78B104F1240001F0E2FC50B101261D
:1050900008E040F6F63204A108A0FFF783FB6D1C80
:1050A00084F845503046F8BD2E2E5C467265655238
:1050B000544F535C71756575652E63004572726F50
:1050C000723A25732C25640D0A0000000548816B97
:1050D000096821B1816BC9680968816270474FF026
:1050E000FF31FAE78000002008484068401C04D0E7
:1050F000E92207A111A0FFF755FB502080F311888A
:10510000BFF34F8FBFF36F8FFEE70000E00000207A
:105110002E2E5C4672656552544F535C706F7274EC
:1051200061626C655C525644535C41524D5F434D25
:1051300034465C706F72742E630000004572726FAB
:10514000723A25732C25640D0A0000002DE9F04108
:10515000044600F095FA94F9455004F124060FE056
:10516000A06C18B12046FFF765FF04E0606A48B103
:10517000304601F06DFC08B100F040FC6D1E6DB2D0
:10518000002DEDDC4FF0FF3684F8456000F0B4FAF6
:1051900000F076FA94F9445004F1100709E0206910
:1051A00048B1384601F054FC08B100F027FC6D1EF0
:1051B0006DB2002DF3DC84F84460BDE8F04100F0EE
:1051C0009BBA00002DE9F0410546002600F0FCFCEA
:1051D000364F386808B9FFF73FFE7869054258D165
:1051E000002D56D005F10804AC4252D960070ED00C
:1051F00004F00700C0F108002044A04249D9044649
:10520000400704D09C222AA133A0FFF7CBFA002C40
:105210003FD0786884423CD82448183001460D6855
:1052200001E028460D466968A14202D2296800299A
:10523000F7D13968B8468D422BD0066829680160DD
:1052400068680836001B10280ED92F19780704D07B
:10525000CF2217A120A0FFF7A5FA6868001B78608D
:1052600038466C60FFF7B2FE6A68D8F80410404612
:10527000891AC8F80410D8F80830994200D2816021
:1052800041690A430021C5E90012C168491CC8F8F8
:105290000C1001F05BFC700705D04FF4887204A17C
:1052A0000DA0FFF77FFA3046BDE8F081C000002076
:1052B0002E2E5C4672656552544F535C706F72744B
:1052C00061626C655C4D656D4D616E675C686561C2
:1052D000705F342E630000004572726F723A25735E
:1052E0002C25640D0A0000000449086818B10868FC
:1052F000826C521C826408687047000080000020A5
:1053000010B5031F4FF080741C601B1F21F00101BA
:105310001960191F044B0B6014390A60091F6FF0E4
:10532000020244380A6010BDE95000084FF0804185
:10533000486A002200B24A627047000003480068D1
:10534000024A0021243A00B251627047240800400A
:1053500003480068024A0021243A00B251627047B3
:10536000240C00400448016A41F001010162016817
:1053700041F00101016070470018004010B50F4C6A
:10538000022201212046FCF713FE0222114620468C
:10539000FCF70EFE0A48016A41F480710162016A5D
:1053A00041F480510162016841F0010101604FF454
:1053B000FA71C1634900016410BD0000000402409D
:1053C000000400400448C16841F00101C160016867
:1053D00041F0010101607047001400401048016A6B
:1053E00041F001010162016A41F010010162016AAC
:1053F00041F480710162016A41F4805101620168E7
:1054000041F001010160416C41F40041416440F20E
:10541000DC5141638163C163002101647047000076
:10542000000401400A48016A41F001010162016A79
:1054300041F010010162016841F001010160416C1D
:1054400041F40041416440F2DC51416381637047A3
:105450000040014010B51A4C012211462046FCF7CD
:1054600094FD012202212046FCF78FFD6003016AB2
:1054700041F001010162016A41F01001016201681D
:1054800041F0010101604FEAF440016A41F001017D
:105490000162016A41F010010162016841F00101FD
:1054A00001600848016A41F001010162016A41F0AE
:1054B00010010162016841F00101016010BD0000AE
:1054C00000000240000C004070B51D4C1A4A1A4DF5
:1054D000A1780832194888501749A2780C31194828
:1054E0005050242202212846FCF762FC154912483C
:1054F0002431A27810301258A278115000220221D3
:105500002846FCF74BFCA0782858A17840F480206E
:1055100068500A4C241F2046FCF7E0FFE06840F08A
:105520001000E060606940F0400060612846BDE81E
:1055300070400221FCF716BC0064024004100140D8
:10554000D86C0008BC040020124A10B50F4B5178EB
:1055500008330E4C0E48C8505278181D0E49115091
:10556000802201212046FCF723FC0949091FC86855
:1055700040F01000C860486940F040004861204693
:10558000BDE810400121FCF7EDBB000000640240C3
:1055900004140140D86C000804050020134910B51C
:1055A000104B8A7908330F4C0F48D0508979181D59
:1055B0000F4A0A50802206212046FCF7F9FB0621FB
:1055C0002046FCF7CFFB084C241F606940F04000E8
:1055D00060612046FCF782FFE06840F01000E06068
:1055E00010BD000000600240047C0040D86C000840
:1055F00084050020D0E9013201699A60D0E90123D5
:105600005A604A68824201D182684A60002202617F
:105610000868401E08600868704700F108014FF0F4
:10562000FF32C0E90112C1600161002101607047D1
:1056300000210161704730B50B685A1C02D000F19F
:10564000080202E0026904E02246546825689D428F
:10565000FAD953684B6099608A60516008610168AB
:10566000491C016030BD42684A6093688B60936852
:105670005960916008610168491C01607047000031
:10568000502080F31188BFF34F8FBFF36F8F09490C
:105690004868401C486001280AD10748006810F09B
:1056A000FF0F05D04FF4DB7204A10FA0FFF77AB80B
:1056B00070470000E000002004ED00E02E2E5C4664
:1056C00072656552544F535C706F727461626C65A1
:1056D0005C525644535C41524D5F434D34465C70BE
:1056E0006F72742E630000004572726F723A2573F8
:1056F0002C25640D0A00000010B5084C606828B91C
:1057000040F2BD1206A111A0FFF74CF86068401EE0
:10571000606001D180F3118810BD0000E00000201E
:105720002E2E5C4672656552544F535C706F7274D6
:1057300061626C655C525644535C41524D5F434D0F
:1057400034465C706F72742E630000004572726F95
:10575000723A25732C25640D0A00000070B50028EC
:105760002DD0174DA0F1080460686969084205D181
:105770004FF4927213A11DA0FFF714F8206828B10E
:1057800040F225120FA119A0FFF70CF861686869B3
:10579000014214D02268002A11D18143616000F0D7
:1057A00013FA60686968084468602046FFF70EFCD9
:1057B0002869401C2861BDE8704001F0C7B970BD80
:1057C000C00000202E2E5C4672656552544F535C1B
:1057D000706F727461626C655C4D656D4D616E6772
:1057E0005C686561705F342E630000004572726F03
:1057F000723A25732C25640D0A0000004FF0E0205A
:1058000000210161816105494FF47A720968B1FB99
:10581000F2F1491E41610721016170470C0000202F
:1058200010B5FAF729FD104C10280CD300F1E02038
:1058300090F8F0032178884205D240F217320BA18C
:1058400015A0FEF7AFFF18480068A16800F4E060FB
:10585000884207D9BDE8104040F2273203A10EA0CC
:10586000FEF7A0BF10BD0000E00000202E2E5C4619
:1058700072656552544F535C706F727461626C65EF
:105880005C525644535C41524D5F434D34465C700C
:105890006F72742E630000004572726F723A257346
:1058A0002C25640D0A0000000CED00E010B504008A
:1058B00012D00E48406B28B140F249520CA111A001
:1058C000FEF770FF00F080F900212046FFF7B4F9E1
:1058D00001F03CF9002807D10E494FF080500860D4
:1058E000BFF34F8FBFF36F8F10BD0000800000200B
:1058F0002E2E5C4672656552544F535C7461736B17
:10590000732E63004572726F723A25732C25640DF5
:105910000A00000004ED00E070B50546FFF7B0FE98
:10592000254C05B92568281DFFF764FE58B9E86ABB
:10593000224A00EB800152F8211021B90121814057
:10594000206988432061A86A18B105F11800FFF7A3
:1059500051FE606A401C60622068854207D1291DA3
:105960001748FFF780FE6068401C606004E0A06894
:10597000401EA060FFF7AAFBFFF7BEFE206885422D
:1059800002D02846FFF75DFA6069002812D020682F
:1059900085420FD1606B28B140F2DC4209A10EA014
:1059A000FEF700FF10494FF080500860BFF34F8FA3
:1059B000BFF36F8F70BD0000800000205C070020E7
:1059C000180A00202E2E5C4672656552544F535CB7
:1059D0007461736B732E63004572726F723A257334
:1059E0002C25640D0A00000004ED00E002490A6A5B
:1059F0000260C968416070478000002001490120B1
:105A0000C86170478000002070B50D46040005D1C4
:105A100040F61C4207A10CA0FEF7C4FE0E48016828
:105A200020461831FFF707FE2846BDE870400121E7
:105A3000FFF702B92E2E5C4672656552544F535CD7
:105A40007461736B732E63004572726F723A2573C3
:105A50002C25640D0A0000008000002070B50D4662
:105A6000040056D0A06C28B941F29F0229A12EA0B3
:105A7000FEF798FE606CA84200D30546E06AA84293
:105A800047D0A06C012844D12B4E3068844205D108
:105A900041F2BA021FA124A0FEF784FEE06AE5628B
:105AA000A169002902DBC5F12001A161234D00EBB2
:105AB0008000616905EB800081422AD1201DFFF73B
:105AC00099FD012130B994F82C00326901FA00F0F7
:105AD00082433261E06A326981401143316100EBF7
