:020000040800F2
:1000000088C8002081020008813F00085F260008A0
:100010009D3D0008E30A000831550008000000007B
:10002000000000000000000000000000C101000806
:10003000371A0008000000001D020008FD4E0008ED
:100040009B0200089B0200089B0200089B0200081C
:100050009B0200089B0200089B0200089B0200080C
:100060009B0200089B0200089B020008311A00084E
:100070009B0200089B0200089B0200089B020008EC
:100080009B020008331A00089B0200089B0200082C
:10009000AD0B00089B0200089B0200089B020008B1
:1000A0009B020008215000089B0200089B020008E8
:1000B0002D5000089B0200083D5000089B020008DC
:1000C0009B0200089B0200089B0200089B0200089C
:1000D0009B020008315400089B02000835540008B8
:1000E0009B0200089B0200089B0200089B0200087C
:1000F0009B0200089B0200089B0200089B0200086C
:100100009B0200089B020008515000089B02000857
:100110009B0200089B0200089B0200086550000833
:100120009B020008351A00089B0200089B02000889
:100130009B0200089B0200089B0200089B0200082B
:10014000890D00089B0200089B0200089B02000822
:100150009B0200089B0200089B020008375400081D
:100160009B0200089B0200089B0200089B020008FB
:100170009B0200089B0200089B0200080000000090
:100180009B0200089B0200089B020008A751000880
:100190009B0200089B0200089B0200089B020008CB
:1001A00000000000000000009B020008DFF80CD0F7
:1001B00000F0EEFA004800478D5B000888C8002078
:1001C0002C4B19680868B0E8F04F80F30988BFF33A
:1001D0006F8F4FF0000080F311887047000000001F
:1001E00008480068006880F308884FF0000080F33A
:1001F000148862B661B6BFF34F8FBFF36F8F00DF15
:1002000000BF00BF08ED00E0DFF80C00016841F41A
:1002100070010160704700BF88ED00E0EFF30980D6
:10022000BFF36F8F134B1A681EF0100F08BF20ED3D
:10023000108A20E9F04F106009B44FF0500080F3AD
:100240001188BFF34F8FBFF36F8F06F0ADFC4FF0F7
:10025000000080F3118809BC19680868B0E8F04F05
:100260001EF0100F08BFB0EC108A80F30988BFF3AE
:100270006F8F704794000020EFF3058070470000F7
:100280000648804706480047FEE7FEE7FEE7FEE730
:10029000FEE7FEE7FEE7FEE7FEE7FEE705500008A3
:1002A000AD0100082DE9F05F0546002092469B460F
:1002B00088460646814640241BE02846414647467C
:1002C000224600F0AEF953465A46C01A914110D367
:1002D00011461846224600F095F92D1A67EB0108E1
:1002E0004F4622460120002100F08CF917EB00094F
:1002F0004E41201EA4F10104DFDC484631462A4667
:100300004346BDE8F09F40EA01039B0703D009E0A4
:1003100008C9121F08C0042AFAD203E011F8013BF1
:1003200000F8013B521EF9D27047D2B201E000F84A
:10033000012B491EFBD270470022F6E710B5134689
:100340000A4604461946FFF7F0FF204610BD2DE986
:10035000FE4F804681EA0300C00F0C46009021F05A
:10036000004123F00045B8EB0200A94105D2404608
:10037000214690461C460B46024623F0004010439F
:1003800047D0270DC7F30A00C3F30A510290401A61
:10039000019040286BDAC3F3130040F4801B0098EF
:1003A000924620B10023D2EB030A63EB0B0B0198BA
:1003B0005946C0F14002504600F024F906460D4669
:1003C00050465946019A00F03CF910EB0800614193
:1003D000002487EA115284EAE7731A4340D0009A56
:1003E00062B3019A012A4FEA075215DC001B61EB48
:1003F00002014FF0004202EA0752CDE90042001C20
:1004000041F5801132462B4600F073F903B0BDE888
:10041000F08F40462146F9E7001B61EB0201001C0A
:1004200041F5801300185B412018A2F5001747EB37
:10043000030140EAD570B6196D4111E06D084FEA2D
:10044000360645EAC0754FEA0752001B61EB020110
:10045000001C41F5801149084FEA30000019514154
:1004600032462B4603B0BDE8F04F00F033B9009898
:10047000012240000023D0EB020263EBE0730098FE
:1004800021464FEAE074B8EB000061EB0401E9E7B4
:1004900083F000435BE781F0004158E72DE9F04D20
:1004A00081EA030404F0004B21F0004514464FF0AC
:1004B000000A23F0004150EA050220D054EA01026C
:1004C0001DD0C5F30A570246C5F31303C1F3130049
:1004D000C1F30A5640F4801543F48013A7EB0608D5
:1004E000101BD64608F2FD3873EB050002D308F165
:1004F000010801E092185B41B8F1000F03DA002017
:100500000146BDE8F08D00204FF480110646844678
:100510000EE0171B73EB050705D3121B63EB0503F6
:1005200006434CEA010C49084FEA300092185B413F
:1005300050EA0107EDD152EA030012D082EA04002A
:1005400083EA0501084305D0101BAB4106D2012206
:10055000002306E000224FF0004302E06FF00102AA
:1005600053101AEB06004CEB085110EB0A0041EB5C
:100570000B01BDE8F04D00F0ADB800F0004230F0E6
:1005800000400AD0C10D01F56071C0F3160042EAC7
:100590000151C208400711437047002001467047CF
:1005A00001F0004330B421F0004150EA010206D0CE
:1005B0000A0DA2F56072C1F31301002A02DC30BCFF
:1005C00000207047440F44EAC104C100E01830BC69
:1005D00000EBC25000F047B830B50B460146002092
:1005E0002022012409E021FA02F59D4205D303FAF5
:1005F00002F5491B04FA02F52844151EA2F1010276
:10060000F1DC30BD202A04DB203A00FA02F10020A0
:1006100070479140C2F1200320FA03F31943904040
:100620007047202A04DB203A21FA02F000217047AB
:1006300021FA02F3D040C2F120029140084319464A
:100640007047202A06DBCB17203A41FA02F043EA32
:10065000E07306E041FA02F3D040C2F1200291407B
:100660000843194670470029A8BF7047401C49003D
:1006700008BF20F00100704710B4B0FA80FC00FA07
:100680000CF050EA010404BF10BC704749B1CCF132
:10069000200421FA04F411FA0CF118BF01212143BE
:1006A0000843A3EB0C01CB1D4FEA00614FEA102079
:1006B00042BF002010BC704700EBC350104400291B
:1006C000A4BF10BC7047401C490008BF20F00100C7
:1006D00010BC704710B5141E73F1000408DA401CFA
:1006E00041F1000192185B411A4301D120F0010051
:1006F00010BD2DE9F04D92469B4611B1B1FA81F241
:1007000002E0B0FA80F220329046FFF77BFF044609
:100710000F4640EA0A0041EA0B0153465A46084395
:1007200013D0114653EA010019D0C8F140025046D7
:10073000FFF777FF05460E46504659464246FFF7FB
:1007400061FF084305D0012004E020463946BDE89A
:10075000F08D0020054346EAE0762C4337430A98A3
:100760006305E40AA0EB08000022FD0A44EA4754AE
:100770000A3002D500200146E9E701051019694158
:10078000DDE9084500196941BDE8F04DA2E7000028
:10079000064C074D06E0E06840F0010394E80700CE
:1007A00098471034AC42F6D3FFF704FDB08200083E
:1007B000D082000870B58C1810F8015B15F00703A3
:1007C00001D110F8013B2A1106D110F8012B03E0EA
:1007D00010F8016B01F8016B5B1EF9D12B0705D4F2
:1007E0000023521E0DD401F8013BFAE710F8013B3B
:1007F000CB1A921C03E013F8015B01F8015B521E57
:10080000F9D5A142D8D3002070BD000010B505F085
:100810003DF903F0A1FCBDE8104001A004F0BABF0F
:100820000D0A416C6C207065726970686572616C4C
:1008300020696E69742E0D0A0000000070B5B0F8D2
:100840000520304CB2F5017F12D008DC032A2CD0F1
:10085000A2F50072013A2DD0012A07D140E0B2F58D
:10086000027F0AD0A2F50072093A16D00A2070BDA4
:10087000012938D1C079A07242E0C01D0546062981
:1008800031D104F085FC2080A81C04F081FC60803C
:10089000281D04F07DFCA08032E0C01D042922D177
:1008A00004F078FCC4F806002AE0BDE87040C01DE2
:1008B00000F072B8C51D1B2915D1287804F82B0F3C
:1008C00068786070A81C04F063FC6080281D04F048
:1008D0005FFCA08005F1180004F05AFC20830FE0B3
:1008E000C01D102901D0002070BD001D04F050FC77
:1008F00000EE100AB8EE400A10EE100AC4F84A00E2
:10090000012070BD8EC2002070B5044600781546E7
:100910000E46A52801D0002070BD0521204604F018
:1009200045FE0028F8D016B1B4F8010030800DB1B2
:10093000E0782870012070BDF0B589B0074600202E
:100940008DF8140005AB06AA384601F0C1FA002460
:1009500006AE01AD19E000BF305D05EB440138443F
:100960000022FFF7D1FF70B135F81400093081B2D1
:10097000305D384400F0F2FF28B1305D35F81410D6
:100980003844FFF75BFF641CE4B29DF81400844216
:10099000E2D309B00120F0BD70B50446202901D092
:1009A000002070BD04F0F4FB264D25F80B0FA01CB1
:1009B00004F0EEFB6880201D04F0EAFBA880A01D77
:1009C00004F0E6FBE88004F1080004F0E1FB288174
:1009D00004F10A0004F0DCFB688104F10C0004F06F
:1009E000D7FBA88104F10E0004F0D2FBE88104F1EA
:1009F000100004F0CDFB288204F1120004F0C8FBC3
:100A0000688204F1140004F0C3FBA88204F116000C
:100A100004F0BEFBE88204F1180004F0B9FB28835F
:100A200004F11A0004F0B4FB688304F11C0004F024
:100A3000AFFBA88304F11E0004F0AAFBE8830120A9
:100A400070BD00008EC200202DE9F04F0CACDDE936
:100A50000A9694E820480024DDF83CA0099F06E0AF
:100A6000C4F10208641C00F808C0032C04DA11F871
:100A700004C0BCF1000FF3D110F8031F21F03801BE
:100A8000203162F302010170018863F38911018052
:100A9000417867F385014170818865F309018180A0
:100AA000B0F805206BF38C02A0F80520C2886EF325
:100AB0004F12C280B0F8012069F38E12A0F8012015
:100AC000418866F3CF114180B0F809206AF38C02A7
:100AD000A0F809204289109961F34F124281BDE8C4
:100AE000F08FFEE710B505F021FC024900204863B5
:100AF00010BD0000001800401CB500220521032095
:100B000006F022F9174E3060FFF7ECFFC82005F021
:100B1000B5FE4FF0FF3842466946306806F0E8FA05
:100B2000012803D010A004F035FEF4E7164D002490
:100B3000154F2C3D11E000BFBDF8010038604008A2
:100B40006863BDF8030005F099FE00206863BDF8F6
:100B5000030005F093FE641CE4B29DF80000A0427F
:100B6000D9D9E9E7440000203C44454255473E209E
:100B700042656570207461736B206572726F7221BB
:100B800021210D0A0D0A00002C18004018B101287F
:100B900003D000207047044801E00348001D0068AE
:100BA00000F00300704700000C64004010B5254CB5
:100BB00088B0206820F0020020600020FFF7E6FFE8
:100BC00030B90120FFF7E2FF10B91FA004F0E2FDE9
:100BD00004A907A8CDE9000103AB02AA06A90020D9
:100BE00000F048F89DF808009DF80C10084302D06A
:100BF0001AA004F0CFFD0698012806D0022807D0DD
:100C0000032816D0042808D117E004A9184802E0E8
:100C1000174804A9C01D00F031FB0A4808380168D4
:100C200021F020010160206840F00200206008B03F
:100C300010BD0F4804A90E30EDE70D4804A915308A
:100C4000E9E700001464004043616E31CEB4BDD3C7
:100C5000CAD5B5BDCAFDBEDD0D0A000063616E31A7
:100C6000BDD3CAD5CAFDBEDDD2ECB3A30D0A0000C8
:100C700058C20020F0B5214CDDE9055604EB001404
:100C8000D4F8B07507F004071770D4F8B025C2F394
:100C900047520A60D4F8B01501F002011970D4F877
:100CA000B41501F00F012970D4F8B8153170D4F8DB
:100CB000B815090A7170D4F8B815090CB170D4F8D8
:100CC000B815090EF170D4F8BC153171D4F8BC1503
:100CD000090A7171D4F8BC15090CB171D4F8BC15AE
:100CE000090EF17138B1012804D10548016841F0BD
:100CF00020010160F0BD0248001FF7E700600040DE
:100D000010640040174928B1012810D002281BD0D8
:100D100005207047086800F001020868096800F0C3
:100D20000200104301F0806140EA116070470868DA
:100D300000F001020868096800F00200104301F0A9
:100D4000006140EA51607047086800F001020868DD
:100D5000096800F00200104301F0805140EA916000
:100D6000704700000864004018B1012803D000203B
:100D70007047044801E00348001D006800F00300CC
:100D8000704700000C68004010B51B4C88B020680C
:100D900020F0020020600020FFF7E6FF30B90120BC
:100DA000FFF7E2FF10B915A004F0F4FC04A907A8AE
:100DB000CDE9000103AB02AA06A9002000F034F837
:100DC0009DF808009DF80C10084302D010A004F014
:100DD000E1FC0698012803D104A9124804F0B0FEF2
:100DE00005480838016821F020010160206840F0C2
:100DF0000200206008B010BD1468004043616E31ED
:100E0000CEB4BDD3CAD5B5BDCAFDBEDD0D0A000046
:100E100063616E31BDD3CAD5CAFDBEDDD2ECB3A3CA
:100E20000D0A000074C20020F0B5214CDDE9055622
:100E300004EB0014D4F8B07907F004071770D4F865
:100E4000B029C2F347520A60D4F8B01901F0020188
:100E50001970D4F8B41901F00F012970D4F8B81939
:100E60003170D4F8B819090A7170D4F8B819090C9E
:100E7000B170D4F8B819090EF170D4F8BC193171F9
:100E8000D4F8BC19090A7171D4F8BC19090CB171F4
:100E9000D4F8BC19090EF17138B1012804D1054804
:100EA000016841F020010160F0BD0248001FF7E732
:100EB0000060004010680040174928B1012810D098
:100EC00002281BD005207047086800F0010208685E
:100ED000096800F00200104301F0806140EA1160EF
:100EE0007047086800F001020868096800F0020015
:100EF000104301F0006140EA51607047086800F05B
:100F000001020868096800F00200104301F08051F6
:100F100040EA916070470000086800402DE9F04FFA
:100F200004469FB00F218848FFF706FA86480F2134
:100F30000F30FFF701FA84480F211E30FFF7FCF94C
:100F400081480F212D30FFF7F7F97F480F213C3002
:100F5000FFF7F2F97C480F214B30FFF7EDF97A48A3
:100F60000F215A30FFF7E8F977480F216930FFF772
:100F7000E3F940F2C13640F2262102254FF41679FA
:100F8000CDE90261CDE90045CDE9046909230122DB
:100F90006EA16D4802F0D8F840F2122ACDE9026A3B
:100FA00069487710CDE900450923012268A10F3077
:100FB000CDE9046702F0C8F802A840F21D264FF4FC
:100FC000617B40F2B63180E842085F48059609230C
:100FD000012260A11E30CDE9004502F0B5F802A85B
:100FE0004FF47F7840F2CA3180E8420156480596B6
:100FF0000923012258A12D30CDE9004502F0A4F8C3
:101000007E0040F22621CDE90261CDE900454E483F
:10101000CDE904690923012250A13C3002F094F883
:10102000CDE9026A4848CDE90045092301224CA1D7
:101030004B30CDE9046702F087F802A84FF4077639
:1010400040F2B63180E842083F4805960923012264
:1010500044A15A30CDE9004502F076F802A840F2EA
:10106000CA3180E8420138480596092301223EA191
:101070006930CDE9004502F067F833490F225A3153
:1010800016A8FFF740F930490F224B3112A8FFF79D
:101090003AF92D490F223C310EA8FFF734F92A49BD
:1010A0000F222D310AA8FFF72EF927490F221E31F2
:1010B00006A8FFF728F924490F220F3102A8FFF7ED
:1010C00022F921480F22253850F82D1F00918188E0
:1010D000ADF8041080798DF806001B491AA8FFF7B7
:1010E00012F91948DDE91A230721713804F0F2F8E2
:1010F0001548713804F0E8F81348713804F072F9B3
:1011000011480F225B30D0F816100091418BADF8DA
:101110000410007F0C498DF80600693102A8FFF722
:10112000F2F80948DDE902230121713804F0D2F810
:101130000548713804F0C8F81FB00348BDE8F04F07
:10114000713804F04FB9000009C400203039310073
:10115000303932003039330030393400303935001D
:1011600030393600303937003039380010B5044690
:101170002DED068BB7EE008A90ED030AD0ED040A40
:1011800030EE600A80ED050A90F82000D4ED070AE1
:1011900090B194ED099AF0EEC08AF4EEC98AF1EEAE
:1011A00010FA02DD9FED348A2DE094ED0A1AF4EE78
:1011B000C18AF1EE10FA04D230EE800A84ED070AFB
:1011C00021E030EE800A84ED070A39EE410A10EE84
:1011D000100AFFF7D2F941EC1A0B18EE900AFFF74C
:1011E000CCF941EC180B19EE100AFFF7C6F953ECD5
:1011F000182BFFF74DF953EC1A2BFFF74FF9FFF7B8
:10120000CFF908EE100A94ED0B1A94ED070AF1EEEF
:10121000410A02F085FF84ED070A94ED001AD4ED2F
:10122000050A21EE201A84ED0D1AD4ED011A21EEE3
:10123000800A20EE080A84ED0E0AD4ED061A31EE7B
:10124000000A70EEE10AD4ED021A60EEA10AC4EDC4
:101250000F0A30EE200A84ED100A94ED0C1AF1EE1C
:10126000410A02F05DFF84ED100A94ED050A84ED59
:10127000060ABDEC068B10BD000000000A8852BAB9
:1012800002804A8852BA42808A8852BA828089791A
:10129000817170471248016841F0010101601049F5
:1012A0001C310A6822F001020A600D4A0C321368F0
:1012B00043F001031360021D13681360084A1432DF
:1012C00013681360064B002240331A601B1D1A601E
:1012D0000B6843F001030B60016802607047000077
:1012E00000660040434810B5016841F00801016004
:1012F0004148016841F00A010160001D016821F0C8
:1013000003010160001D016841F00F0101603B49CC
:101310000120086038480C30016841F00501016087
:1013200035482030016841F009010160016841F051
:10133000900101602F4800221030016841F00071D7
:1013400001602F4814460260016841F0010101600C
:10135000031D04E0521C642A01DD022010BD19683F
:10136000C907F7D001680160016801600168016088
:10137000016841F0100101600168016001680160CD
:101380001F491C310C600C680C600C680C600C6808
:1013900044F480140C600C6844F4A0240C600C68C5
:1013A00044F004040C60016821F0010101604FF673
:1013B000F07004E0521C824201DD032010BD196868
:1013C000C907F7D1FFF766FF0D481430016841F0F7
:1013D000020101604FF0E020D0F8001141F48011CB
:1013E000C0F800110748017841F060010170002049
:1013F00010BD000030380240000C0240203801408F
:101400000064004014E400E03CB50A880024120A9D
:101410008DF800200A788DF801204A88120A8DF88C
:1014200002208A788DF803208A88120A8DF8042019
:101430000A798DF80520CA88120A8DF80620897964
:101440008DF807106A46082102F04EFD054640F669
:10145000FF7301E0641CA4B22846FFF753FC072881
:1014600001D09C42F6D39C4201D301203CBD002018
:101470003CBD00001248016841F0010101601049C3
:101480001C310A6822F480520A600D4A0C3213683B
:1014900043F480531360021D13681360084A14322A
:1014A00013681360064B002240331A601B1D1A603C
:1014B0000B6843F001030B60016802607047000095
:1014C000006A0040424810B5016841F00201016025
:1014D0004048016841F020610160001D016889B247
:1014E0000160001D016841F0706101603A4901200E
:1014F000086038480C30016841F0A061016035484F
:101500002430016841F410210160016841F41001A8
:1015100001602F4800221030016841F080610160B5
:101520002E4814460260016841F001010160031D6C
:1015300004E0521C642A01DD022010BD1968C907AD
:10154000F7D001680160016801600168016001680D
:1015500041F01001016001680160016801601F49EC
:101560001C310C600C680C600C680C600C6844F456
:1015700080140C600C6844F4A0240C600C6844F0E7
:1015800004040C60016821F0010101604FF6F07065
:1015900004E0521C824201DD032010BD1968C90716
:1015A000F7D1FFF767FF0D481430016841F00201E1
:1015B00001604FF0E020D0F8081141F00101C0F8BF
:1015C00008110748017841F060010170002010BD4A
:1015D00030380240000402402038014000680040DA
:1015E00040E400E02DE9F04F0BACDDE90EA594E8F6
:1015F000400ADDE9097E002407E000BFC4F10208CB
:10160000641C00F808C0032C04DA11F804C0BCF113
:10161000000FF3D1C17841F0380162F30201C170CB
:10162000B0F8031063F38911A0F80310017967F390
:1016300085010171B0F8072069F30902A0F80720BD
:1016400002896BF38C020281B0F809206AF34F1211
:10165000A0F8092082886EF38E128280B0F80510FF
:1016600066F3CF11A0F80510002104E0431815F827
:10167000012BDA73491CB142F8D3BDE8F08F0000AA
:101680000FB43022F0B591B004464FF6FF7617A99B
:1016900004A8FEF738FEA5208DF80000274D332062
:1016A000ADF8010028786F468DF80300FF22042171
:1016B000384600F0C5FD8DF8040040F20130ADF869
:1016C00005004FF48870ADF808000220ADF80A005C
:1016D0004FF48170ADF80C0032460721384600F017
:1016E0008BFD024602A8062100F086FD024604A8F2
:1016F0002D2100F081FD0646009844F8040BBDF84A
:10170000040024F8020B9DF8060004F8010B02986F
:1017100044F8040BBDF80C0024F8020B04A92D2298
:101720002046FEF7F0FDA4F82D602878401C2870B4
:1017300011B00020F0BC5DF814FB00004E04002046
:1017400008B500252E4600F0ADFD814CE06000F0AC
:10175000ADFD2061FFF7C6FDFFF7B4FEC82005F020
:101760008DF87C4FDFF8F0A107F1080007F10C0BB2
:10177000009020690078012802D002287ED0B9E0CC
:10178000E168B1F91A00B1F9183000EE100AB1F9A8
:101790001620F8EEC00A94ED010AA3EB020C02EB4E
:1017A000030880EE801A00EE90CAF8EEE00A71EEAF
:1017B000200AFDEEE00A10EE90CA00EE900A0FFA41
:1017C0008CF9F8EEE00AC8F1000C80EE801A00EE09
:1017D00090CAF8EEE00A71EE200AFDEEE00A10EE83
:1017E00090CA00EE900A0FFA8CFCF8EEE00A80EE48
:1017F000801A00EE908AF8EEE00A71EE200AFDEE03
:10180000E00A10EE908A00EE900AD01A0FFA88F8DB
:10181000B8EEE01AC1EE000A00EE100AB8EEC00AF7
:1018200030EE800ABDEEC00A10EE100A00EE109AEB
:1018300000B2F8EEC00A94ED000A60EE800AFDEEF8
:10184000E00A10EE902A00EE90CA62F30F05F8EE5F
:10185000E00A60EE800AFDEEE00A10EE902A00EE4B
:10186000908A62F31F45F8EEE00A60EE800AFDEE12
:10187000E00A10EE902A62F30F0600E00EE000EEA0
:10188000900AF8EEE00A20EE800ABDEEC00A10EEE3
:10189000100A60F31F46B1F91C0028E0E1688B884C
:1018A000CA88088803EB0209A3EB020CD21A09EBE1
:1018B000000884440244A0EB090308EB480000EB55
:1018C000C80060F30F050CEB4C0000EBCC0060F39C
:1018D0001F4502EB420000EBC20060F30F0603EB72
:1018E000430000EBC30060F31F46B1F9020000F2B1
:1018F000DC50A0602AB23221164802F07BFD2A1487
:101900003221381D02F076FD32B23221009802F009
:1019100071FD32143221584602F06CFD97ED030A36
:10192000F8EEC01A97ED020AB8EEC01A97ED010A58
:10193000F8EEC00A97ED000AB8EEC00A02F0A8FF60
:10194000A068CAF83400052004F098FF11E70000F1
:1019500048000020640700200040014010B503F05B
:1019600007FEC0B210BD2DE9F0470024DDE90A955D
:10197000DDE90876DDF830A006E0C4F10208641C59
:1019800000F808C0032C04DA11F804C0BCF1000F01
:10199000F3D110F8031F21F03801103162F3020176
:1019A0000170018863F389110180417867F3850133
:1019B0004170818866F309018180B0F8052069F3E0
:1019C0008C02A0F80520C18865F34F11C1800289FF
:1019D0006AF309020281BDE8F087000003220021BA
:1019E000012005F0B1F90D4C206003F0CBF800F0B8
:1019F00039FC6060C82004F041FF4FF4FA752946B5
:101A0000206805F01DFC012804D100F093F804A023
:101A100003F0C0FE052004F031FFF0E78C00002049
:101A200044796E616D69635F55490D0A00000000DD
:101A30007047704770477047024901EB001002F091
:101A4000CEB900001C06002025A003F0A3FE04F080
:101A50008FFD254E002400BF002306EB04101A461C
:101A6000052102F09CF9641CE4B2082CF4D30A208E
:101A7000A6F852004FF4487004F000FFDFF86C80C5
:101A80004FF480775FF0000406EB0415284602F05F
:101A900090F9287910B101280BD014E06879012859
:101AA00011D127FA04F00104C8F81810214610A03B
:101AB00007E0687938B927FA04F0C8F81800214619
:101AC00013A003F067FE641CE4B2082CDCD31848B2
:101AD000416981F480414161FA2004F0CFFED1E7F1
:101AE00064657465637400001C06002000180240E1
:101AF0003C494E464F3E204D6F64756C6525642011
:101B00004F6E6C696E652E0D0A0D0A0D0A000000FD
:101B10003C494E464F3E204D6F64756C65256420F0
:101B20004F66666C696E652E0D0A0D0A0D0A00007F
:101B3000001402402DE9F04F97B000220121C8485F
:101B400003F068FBC64803F04DFCC648022600249B
:101B50000178C54801297DD004700078FFF7DEF9CF
:101B60004FF00309C1A14FF4B470CDF80890CDE94E
:101B700005014FF0100ACDE9004A4FF42075042703
:101B8000B748CDE9037500230122BBA17838FFF7E0
:101B900029FDB34921226C3968460991FEF7B3FB50
:101BA000AF492D2278390AA8FEF7ADFB0DF12808C0
:101BB000AB4898E80E00FFF763FDA94803F012FC5C
:101BC0004FF4AA704FF42572CDE904204FF00108BC
:101BD0004FF00C0BA948CDE9004BCDE90286007906
:101BE000002300EE100A9E484246B8EE400AA4A127
:101BF0004B3800F07FF9A3A04FF4C871CDF80890DE
:101C0000CDE90510CDE9004A9548CDE903750023DB
:101C100001229EA17838FFF7E5FC21226846099948
:101C2000FEF771FB8E492D2278390AA8FEF76BFB6F
:101C30000DF1280C8A489CE80E00FFF721FD88482A
:101C400003F0D0FB4FF4BE71CDE90451CDE9004B58
:101C50008A4800E001E1CDE902864078002300EEE9
:101C6000100A7F480122B8EE400A89A13C3800F0F2
:101C700041F988A04FF4DC71CDF80890CDE905104A
:101C8000CDE9004A7648CDE903750023012284A1FD
:101C90007838FFF7A7FC212268460999FEF733FB45
:101CA0006F492D2278390AA8FEF72DFB0DF1280C7B
:101CB0006B489CE80E00FFF7E3FC694803F092FBD9
:101CC0004FF4D271CDE904516C48CDE9004BCDE918
:101CD00002868079002300EE100A61480122B8EEE6
:101CE000400A70A12D3800F005F96FA04FF4F07193
:101CF000CDF80890CDE90510CDE9004A5848CDE966
:101D00000375002301226BA17838FFF76BFC2122B9
:101D100068460999FEF7F7FA51492D2278390AA841
:101D2000FEF7F1FA0DF1280C4D489CE80E00FFF784
:101D3000A7FC4B4803F056FB4FF4E671CDE9045184
:101D40004E48CDE9004BCDE902864079002300EEF4
:101D5000100A43480122B8EE400A57A11E3800F08D
:101D6000C9F856A14FF4B470CDF80890CDE905013B
:101D7000CDE9004A4FF496653948CDE90375002353
:101D8000012250A17838FFF72DFC212268460999DD
:101D9000FEF7B9FA32492D22783909A8FEF7B3FACD
:101DA00009AF2F4897E80E00FFF76AFC2C4803F0B4
:101DB00019FB4FF4AA70CDE904504348CDE9004B1C
:101DC000CDE90286006800230122B0F81B003FA184
:101DD00000EE100A2248B8EE400A0F3800F08AF8E8
:101DE0001F490F220F390EA8FEF78DFA1C490F224A
:101DF0001E390AA8FEF787FA19490F222D3906A8BD
:101E0000FEF781FA16490F223C3902A8FEF77BFA49
:101E100013480F22B43850F8711F00918188ADF833
:101E2000041080790E498DF806004B3912A8FEF790
:101E30006AFADDE912230521094803F04BFA084844
:101E400003F0D0FA00220121054803F0E3F917B0AE
:101E50000348BDE8F04F03F0C5BA06707DE6000008
:101E600098C3002038000020540400204F7665728B
:101E70007475726E00000000303036005807002084
:101E8000303037004D6F64655F757000303038005A
:101E9000303039004D6F64655F726573637565003E
:101EA00030313000303131004D6F64655F726576DE
:101EB000697665003031320030313300426C75652F
:101EC0005F310000303134009000002030313500A7
:101ED00030B500241C7009E0055DA52D04D11D78E6
:101EE00054551D786D1C1D70641CA4B28C42F3D334
:101EF00030BD00002DE9F04F0024DDE90D95DDE94E
:101F00000BB6DDE9097A06E0C4F10208641C00F8AA
:101F100008C0032C04DA11F804C0BCF1000FF3D19F
:101F200010F8031FDFED180A21F03801283162F3A1
:101F300002010170018820EE200A63F389110180FB
:101F40004178BDEEC00A67F385014170818866F370
:101F500009018180B0F8052069F38C02A0F8052002
:101F6000C18865F34F11C180B0F8012010EE101A3E
:101F70006AF38E12A0F8012042886BF3CF124280E0
:101F80008160BDE8F08F000000007A4400F08AF91B
:101F9000834C206000F08AF960604FF47A7004F09E
:101FA0006DFC03F0B7FDC82004F068FC4FF4967890
:101FB00040F68C2A7B4DC8F100090026CAF1000BBF
:101FC000794F786980F480407861606800780128F2
:101FD00002D002287CD0D2E0687A012809D00228F9
:101FE00004D0032806D1C4F81C9003E0C4F81C8078
:101FF00000E0E661A878012806D0022806D0032870
:1020000002D0042804D101E0A66001E06748A06086
:10201000E879012804D0022803D1C4F8148000E034
:102020006661287A012804D0022803D1C4F81890E8
:1020300000E0A6616878012829D002281ED0032874
:1020400018D05B4940F2DC500860091D0860091D8A
:1020500008606068807901281FD056484FF44371AA
:10206000C16340F27E410164287901281DD0022815
:1020700020D11CE041F24460414201E05046594603
:10208000C4E90301D4F8082002F04EFBE1E7E66062
:10209000266100210846A268F6E7464940F2B630BC
:1020A000C8634FF461700864DEE7434800E04348CA
:1020B00002F050FC6068417901290CD04FF00071AA
:1020C0003F4A9161C078012808D04FF0806000E05D
:1020D00007E0B86153E04FF40071F1E74FF480601E
:1020E000F5E7A878012806D0022806D0032802D0F8
:1020F000042804D101E0A66001E03248A0606878BD
:1021000001281BD0022813D003280DD0284940F203
:10211000DC500860091D0860091D08602879012845
:1021200010D0022813D10FE02749A268484202E0EC
:1021300059465046A26802F0F7FAEFE70021084638
:10214000A268F8E71C4800E01C4802F003FC606845
:10215000C178012917D04FF08061B9614179012917
:1021600014D04FF00071164A91618079012810D087
:1021700010494FF44370C86340F27E400864052064
:1021800004F07CFB1CE74FF48061E6E74FF400713C
:10219000E9E7084940F2B630C8634FF46170EDE7F3
:1021A00064000020580700200014024030E4FFFFC4
:1021B0003404014000040040B0BFFEFF9CE6FFFF76
:1021C000002002400CF4FFFFBCE9FFFF10B558B13E
:1021D000084C491E0BD310F8013B5340DBB234F8D6
:1021E000133083EA1222F4E74FF6FF7010BD104659
:1021F00010BD0000B07D000810B558B1084C491E54
:102200000BD310F8013B5340DBB234F8133083EAB0
:102210001222F4E74FF6FF7010BD104610BD00000B
:10222000B080000810B5054C04E000BF10F8013B79
:102230005340E25C491EF9D2104610BDB07C000844
:1022400010B5054C04E000BF10F8013B5340E25CC0
:10225000491EF9D2104610BDB07F000800487047F3
:102260009A050020004870478EC2002006490548A4
:102270008978405810F4002F01D0002070470120C9
:102280007047000000640240A87C000818B10128D3
:1022900003D000207047024870470148243070473F
:1022A000D2040020004870471C07002000487047F7
:1022B0005807002002488168027811448160704705
:1022C000000000200B4810B5016841F40071016066
:1022D000016841F480610160016841F4807101602E
:1022E000032000F089F8062000F006F800F03EF820
:1022F000002010BD003C024010B5014688B000220D
:10230000192000F059F8192000F048F8134800246B
:10231000016841F001010160006805A900F00100B9
:102320000690684600F07AF800F098F80C494000F2
:10233000B0FBF1F10C480B4A491E026040F2E73253
:10234000C0E90324C0E9011400F09AF810B101209B
:1023500008B010BD044800F0AFF8F9E74438024077
:1023600040420F00000001405C0400200A4808B50C
:10237000016841F480410160006800F480400090F1
:102380000548001F016841F080510160006800F0BD
:102390008050009008BD000044380240002809DB4E
:1023A00000F01F02012191404009800000F1E0206F
:1023B000C0F8001170470000F0B40E4B1B680C46CB
:1023C000C3F30223C3F10705042D00D90425191D09
:1023D000072901D2002300E0DB1E012606FA05F1E1
:1023E000491E214099409E40761E16403143F0BC64
:1023F00003F050BA0CED00E0064900F0070208684F
:102400004FF6FF03184040EA0220034A10430860D9
:10241000704700000CED00E00000FA050F2202609A
:102420000C4A136803F003034360136803F0F003DE
:102430008360136803F4E053C36012684FF4E05301
:1024400003EAD20202610448006800F00F0008604D
:102450007047000008380240003C0240044805492B
:1024600000680968044AC1F34231515CC8407047B2
:102470000C00002008380240A07C0008704770471C
:1024800010B5040003D094F83D0010B107E001201E
:1024900010BD002084F83C00204600F00CF802201B
:1024A00084F83D00211D206802F00EFE012084F812
:1024B0003D00002010BD70470168CA6842F001026B
:1024C000CA600068816801F00701062903D001682D
:1024D00041F00101016000207047704770B504466B
:1024E000006801694FF00005C943890715D4C16828
:1024F000C943890711D4E91E0161012020772068B2
:1025000080698007204602D0FFF7E7FF04E000F073
:1025100098F8204600F096F8257720680169C943AD
:10252000490717D4C168C943490713D46FF00401A0
:102530000161022020772068806910F4407F2046E6
:1025400002D0FFF7CAFF04E000F07BF8204600F05D
:1025500079F8257720680169C943090716D4C1684D
:10256000C943090712D46FF00801016104202077E4
:102570002068C0698007204602D0FFF7AEFF04E064
:1025800000F05FF8204600F05DF8257720680169CB
:10259000C943C90617D4C168C943C90613D46FF02B
:1025A00010010161082020772068C06910F4407F85
:1025B000204602D0FFF791FF04E000F042F82046E9
:1025C00000F040F8257720680169C943C90708D1A0
:1025D000C168C943C90704D1891E0161204600F0C2
:1025E00033F820680169C943090609D4C168C943A1
:1025F000090605D46FF0800101612046FFF73EFF18
:1026000020680169C943490609D4C168C94349061C
:1026100005D46FF040010161204600F01FF82068EA
:102620000169C94389060BD4C168C943890607D427
:102630006FF0200101612046BDE87040FFF71FBF29
:1026400070BD70477047000000680349884201D19F
:10265000FFF730BE70470000000001407047FEE702
:10266000904201DD104670478842FCDA0846704708
:1026700008B5FFF7F3FD144CA06003F009FFC82074
:1026800004F0FCF8114D4FF0FF36002132460E4B9E
:102690000846009604F0DCFF686980F40060686119
:1026A0000B482268A168FDF72EFE0520FFF7C4F94C
:1026B000208881B20648FEF73FF902F02FFF05207F
:1026C00004F0DCF8E1E700001800002000100240F0
:1026D0009C060020044908B50A6802430A6009689C
:1026E0000140009108BD000030380240044908B59F
:1026F0000A6802430A6009680140009108BD0000B1
:1027000030380240044908B50A6802430A60096883
:102710000140009108BD000030380240044908B56E
:102720000A6802430A6009680140009108BD000080
:1027300030380240044908B50A6802430A60096853
:102740000140009108BD000040380240044908B52E
:102750000A6802430A6009680140009108BD000050
:1027600040380240044908B50A6802430A60096813
:102770000140009108BD000044380240044908B5FA
:102780000A6802430A6009680140009108BD000020
:1027900044380240034A1430515C0A5822F00402C3
:1027A0000A507047887C0008034A515C425822F066
:1027B0000102425070470000A87C0008034A515CA7
:1027C000425842F00102425070470000A87C0008C5
:1027D000024A001D515C085880B27047A87C00086E
:1027E000034B595C435823F06063134343507047D5
:1027F000887C0008034B595C435823F4002313439F
:1028000043507047A87C0008044B001D595C0B58CE
:102810006FF30F0313430B5070470000A87C0008B0
:10282000034B595C435823F0C00313434350704794
:10283000887C0008034B595C435823F4806313439E
:1028400043507047887C0008034B595C435823F47D
:10285000C043134343507047887C0008034B595CC6
:10286000435823F49073134343507047887C000807
:10287000034B595C435823F4007313434350704790
:10288000887C0008034B595C435823F4C05313431E
:1028900043507047887C0008034B595C435823F42D
:1028A0004033134343507047887C0008F0B50A68F2
:1028B0000F2692FAA2F2B2FA82F303248AE00127E9
:1028C0009F4015EA07027DD04D68012D01D0022DF1
:1028D0001BD18D68876892FAA2FCBCFA8CFC4FEA87
:1028E0004C0C04FA0CFC27EA0C0792FAA2FCBCFA86
:1028F0008CFC4FEA4C0C05FA0CF52F438760CD6831
:102900004768554397432F4347600F69D0F80CC081
:1029100092FAA2F5B5FA85F54FEA450E04FA0EF5DE
:102920002CEA050C92FAA2F5B5FA85F56D00AF40D8
:102930004CEA070CC0F80CC04D68022D33D192FA56
:10294000A2F5B5FA85F5082D15D2D1F814C0056A9F
:1029500092FAA2F7B7FA87F7BF0006FA07F7BD4366
:1029600092FAA2F7B7FA87F7BF000CFA07FC45EA1C
:102970000C05056217E0D1F814E0476A150A95FACC
:10298000A5FCBCFA8CFC4FEA8C0C06FA0CFC95FA00
:10299000A5F5B5FA85F5AD0027EA0C070EFA05FE98
:1029A00047EA0E0747624D68076892FAA2FCBCFA34
:1029B0008CFC4FEA4C0C04FA0CFE27EA0E0792FA44
:1029C000A2F200E005E0B2FA82F2520095402F43F5
:1029D00007605B1C0A681546DA407FF470AF002080
:1029E000F0BD30B5036A91FAA1F4B4FA84F4A500FD
:1029F0000F24AC4091FAA1F1B1FA81F18900A3430F
:102A00008A401343036230BD30B5436A090A91FA24
:102A1000A1F4B4FA84F4A5000F24AC4091FAA1F11A
:102A2000B1FA81F18900A3438A401343436230BD68
:102A300010B5044601F0A0FC206001F073FC60605A
:102A400001F07EFCA060606801F088FCE06010BDD1
:102A500001490860704700000C0000200A7B8B6869
:102A60001A434B6822F480621A430B6822F4006216
:102A70001A43CB8922F480521A430B6922F4005284
:102A80001A434B6922F480421A4322F4004119434D
:102A9000416400207047000010B501291CD00429B2
:102AA0001CD010291CD040291CD0B1F5807F1BD030
:102AB000B1F5806F1AD006210D4B18305B5C1844BD
:102AC00003680B4C0E34615C03248C40120CA3434E
:102AD0008A401343036010BD0021EDE70121EBE7BD
:102AE0000221E9E70321E7E70421E5E70521E3E720
:102AF0006C7C000810B501291CD004291CD01029B9
:102B00001CD040291CD0B1F5807F1BD0B1F5806F5F
:102B10001AD006210D4B18305B5C184403680B4C2F
:102B20000E34615CF0248C40120CA3438A401343A2
:102B3000036010BD0021EDE70121EBE70221E9E789
:102B40000321E7E70421E5E70521E3E76C7C0008C2
:102B500010B5012916D0042916D0102916D0402905
:102B600016D0B1F5807F15D0B1F5806F14D0062353
:102B7000016A0A4CE35C0A249C40A1439A40114339
:102B8000016210BD0023F3E70123F1E70223EFE721
:102B90000323EDE70423EBE70523E9E7817C000845
:102BA00010B501291CD004291CD010291CD04029A3
:102BB0001CD0B1F5807F1BD0B1F5806F1AD00621F3
:102BC0000D4B18305B5C184403680B4C0E34615C91
:102BD0000C248C40120CA3438A401343036010BDA5
:102BE0000021EDE70121EBE70221E9E70321E7E717
:102BF0000421E5E70521E3E76C7C0008F0B50268F5
:102C0000254B264D264E274F274C4FF0804C98429F
:102C100009D0604507D0A84205D0B04203D0B842E1
:102C200001D0A04205D1D1F804E022F0700242EABE
:102C30000E0298421BD0604519D0A84217D0B0426E
:102C400015D0B84213D0A04211D0184DA8420ED0D2
:102C5000174DA8420BD0174DA84208D0164DA842D8
:102C600005D0164DA84202D0154DA84203D1CD681B
:102C700022F440722A4302608A68C2620A88826231
:102C8000984201D0A04201D1097C0163416941F021
:102C9000010141610020F0BD00000140000400403E
:102CA00000080040000C00400004014000400140CA
:102CB000004401400048014000180040001C004052
:102CC00000200040012919D0042919D0102919D059
:102CD000402919D0B1F5807F18D0B1F5806F17D099
:102CE00006210C4A1830525C10440268094BDB1D67
:102CF0005B5C042199408A43026070470021F0E741
:102D00000121EEE70221ECE70321EAE70421E8E7ED
:102D10000521E6E76C7C0008012919D0042919D0A7
:102D2000102919D0402919D0B1F5807F18D0B1F5FC
:102D3000806F17D006210C4A1830525C104402688C
:102D4000094BDB1D5B5C082199400A430260704718
:102D50000021F0E70121EEE70221ECE70321EAE799
:102D60000421E8E70521E6E76C7C0008F0B50126C0
:102D700000236E4C6E4D012908D010293BD0B1F5CF
:102D8000807F73D0B1F5805F6ED1A6E0016A21F03B
:102D900001010162016A46688769D2F800C027F024
:102DA000730747EA0C07D2F810C021F0020141EA8C
:102DB0000C01D2F804C021F0010141EA0C01A0424B
:102DC00001D0A84212D1546921F0080141EA8401DE
:102DD000946821F0040141EA8401956926F4807425
:102DE0002C43D56924F4007444EA450646608761A3
:102DF000D26842636FE0016A21F010010162066A45
:102E000041688769D2F800C027F4E64747EA0C27F3
:102E1000D2F810C026F0200646EA0C16D2F804C0FC
:102E200026F0100646EA0C16A04201D0A84213D1A3
:102E3000556926F0800444EA8514956824F040041E
:102E400044EA8516946921F4806141EA8401D469D9
:102E500021F4006141EAC40141608761D168816366
:102E600061E003E000E01E463046F0BD016A21F457
:102E700080710162016A4668C769D2F800C027F014
:102E8000730747EA0C07D2F810C021F4007141EA39
:102E90000C21D2F804C021F4807141EA0C21A04237
:102EA00001D0A84213D1546921F4006141EA842180
:102EB000946821F4806141EA8421956926F4805464
:102EC00044EA0514D56924F4005444EA45164660E2
:102ED000C761D268C2630162C5E7016A21F480510B
:102EE0000162066A4168C769D2F800C027F4E64764
:102EF00047EA0C27D2F810C026F4005646EA0C36F2
:102F0000D2F804C026F4805646EA0C36A04201D01E
:102F1000A84204D1946921F4804141EA84114160BE
:102F2000C761D168016406629DE7000000000140AE
:102F30000004014008B5016800914068009008BD98
:102F4000016921F490410161416921F02A01416147
:102F5000704700007FB50446C0680D460126C0F3E7
:102F60004030E8BBE9686868AA69084329691143E9
:102F70000843E16849F20C6291430843E060A868A5
:102F8000216921F44051014321616869616921F49B
:102F90004071014361616846FFF74AFD134884426E
:102FA00008D01348844213D01248844210D01248EB
:102FB000844201D103990CE01048844208D01048A3
:102FC000844205D00F48844202D00F4884420AD17F
:102FD000029929B12B681BB100262046AA6900E09E
:102FE00001E000F013F804B0304670BD001001405D
:102FF000004400400048004000140140004C0040E4
:103000000050004000780040007C00402DE9F04175
:1030100006461920A1FB00011F4600236424322527
:10302000B2F5004F27D0BB0FBA00FDF73BF90146C0
:10303000B0FBF4F06FF01802504301EB800005EB99
:103040000010B0FBF4F000F0F002B1FBF4F002EB82
:103050000012B1FBF4F06FF01803584301EB80004D
:1030600005EB0010B0FBF4F000F00F00104480B24C
:10307000B060BDE8F081FA195B41FDF713F9014634
:10308000B0FBF4F00201B1FBF4F06FF01803584309
:1030900001EB800005EBC000B0FBF4F000F0F8009D
:1030A00002EB4002B1FBF4F0584301EB800005EB6A
:1030B000C000B0FBF4F000F00700D7E708B54FF010
:1030C000E0210A690092421C00D0401C0A69D20328
:1030D00000D5401E0028F9D108BD00002DE9F041BF
:1030E0000E4F00244FF4807626FA04F5BD611E20B1
:1030F000FFF7E4FF641CE4B2082CF5D308494FF451
:10310000006088611E20FFF7D9FF06494FF4804018
:103110008861BDE8F0411E20FFF7D0BF00180240D3
:10312000001002400014024005494FF480408861BD
:10313000C110044881614FF4FF7181617047000044
:1031400000140240001002402DE9F04F09ACDDE907
:103150000C6594E880060024DDF838B007E000BF75
:10316000C4F10208641C00F808C0032C04DA11F84A
:1031700004C0BCF1000FF3D110F8031F62F3020189
:103180000170018863F389110180417867F385013B
:103190004170828869F309028280B0F805206AF3E1
:1031A0008C02A0F80520C18866F34F11C180B0F8E9
:1031B000091065F38C01A0F8091042896BF34F12D6
:1031C0004281BDE8F08F10B54FF48000FFF78EFA12
:1031D0004FF40010FFF78AFA02F014FB00220621D8
:1031E00000F0CFFE01460B2002F024FB0B2002F082
:1031F000E1FA02F007FB0022062100F0C2FE0146C0
:10320000112002F017FB112002F0D4FA02F0FAFAB2
:103210000022062100F0B5FE0146392002F00AFB2B
:10322000392002F0C7FA02F0EDFA0022062100F080
:10323000A8FE01463A2002F0FDFABDE810403A200F
:1032400002F0B8BA2DE9F04F87B018216846FDF7B3
:1032500073F81020FFF73EFA4020FFF73BFA0120F9
:10326000FFF738FA0220FFF735FA4FF48070FFF7C6
:1032700031FA8020FFF72EFA2020FFF72BFA0820E2
:10328000FFF728FA24484FF400710A048261234FA3
:103290004FF47012BA61DFF888804FF0FF734FF47B
:1032A000FF7BC8F81830DFF87C904303C9F818306A
:1032B000DFF874A08B04CAF8183001240325002617
:1032C0008DE8720069460494FFF7F0FA3C208DE81F
:1032D0007100694638460494FFF7E8FA01A9CDF871
:1032E00000B081E87000694640460494FFF7DEFABA
:1032F0004FF488408DE87100694648460494FFF712
:10330000D5FAE0028DE87100694650460494FFF753
:10331000CDFA07B0BDE8F08F00200240001C02404B
:1033200000180240001402400010024030B593B073
:1033300014210EA8FDF700F820216846FCF7FCFFD9
:10334000182108A8FCF7F8FF4020FFF7F3F95920EF
:10335000ADF83800002440F2E730CDE90F40184DB9
:103360000EA928461194FFF749FC286820F0800038
:10337000286001212846FFF7CFFC6020CDE900043A
:10338000029403946A46012128460494FFF7EEFC58
:1033900001212846FFF796FC8020FFF7B3F9402073
:1033A000089009AA0220032182E813000C9009204A
:1033B0000D9008A90348FFF779FA13B030BD00005B
:1033C00000180040001C024070B58CB0142106A803
:1033D000FCF7B2FF18216846FCF7AEFF0120FFF7AB
:1033E000A9F90120FFF78EF903200221CDE90001A0
:1033F000029001200025CDE90305059069462C487F
:10340000FFF754FA02F006FA0022062100F0D2FD7E
:1034100001461C2002F01EFA1C2002F0D8F94FF0E1
:103420008044A06820F0070040F00200A060A613CE
:10343000324601212046FFF72FFB002201212046C2
:10344000FFF7AEFB002201212046FFF753FB0022CD
:1034500001212046FFF77CFB324610212046FFF772
:103460001BFB002210212046FFF79AFB00221021AF
:103470002046FFF73FFB002210212046FFF768FBA4
:10348000ADF81850701ECDE9075006A920460995E1
:10349000FFF7B4FB206820F080002060606820F017
:1034A00070006060A06820F08000A0600CB070BD6B
:1034B0000000024070B594B014210EA8FCF73CFF48
:1034C00020216846FCF738FF182108A8FCF734FFD4
:1034D0000220FFF72FF9B320ADF83800002444F69E
:1034E0001F60CDE90F40244D0EA928461194FFF727
:1034F00085FB286840F080002860AE1531462846DC
:10350000FFF70AFC6020CDE90004029403946A46A8
:10351000314628460494FFF729FC31462846FFF738
:10352000D1FBAE1431462846FFF7F6FB01946A46FC
:10353000314628460294FFF719FC31462846FFF72A
:10354000C1FB686820F070006860A86820F0800007
:10355000A8600220FFF7D6F80320CDE90A04022173
:10356000CDE908010120CDE90C0108A90348FFF7C6
:103570009DF914B070BD000000040040000402403A
:1035800070B58CB0142106A8FCF7D6FE1821684649
:10359000FCF7D2FE0420FFF7CDF80820FFF7B2F8C1
:1035A0004FF44050009002200321CDE90101059025
:1035B00001210025CDE9031569462C48FFF776F96E
:1035C00002F028F90022062100F0F4FC01461E203A
:1035D00002F040F91E2002F0FAF8254CA06820F015
:1035E000070040F00200A060A613324601212046E9
:1035F000FFF752FA002201212046FFF7D1FA0022FC
:1036000001212046FFF776FA002201212046FFF72C
:103610009FFA324610212046FFF73EFA0022102181
:103620002046FFF7BDFA002210212046FFF762FA7C
:10363000002210212046FFF78BFAADF81850701EBB
:10364000CDE9075006A920460995FFF7D7FA20686B
:1036500020F080002060606820F070006060A0684A
:1036600020F08000A0600CB070BD0000000C024093
:103670000008004070B58CB0142106A8FCF75CFE71
:1036800018216846FCF758FE0820FFF753F8802001
:10369000FFF738F84FF44060009002200321CDE995
:1036A0000101059001210025CDE9031569462C484B
:1036B000FFF7FCF802F0AEF80022062100F07AFCD9
:1036C0000146322002F0C6F8322002F080F8254C84
:1036D000A06820F0070040F00200A060A613324668
:1036E00001212046FFF7D8F9002201212046FFF7EB
:1036F00057FA002201212046FFF7FCF900220121A0
:103700002046FFF725FA324610212046FFF7C4F97C
:10371000002210212046FFF743FA00221021204604
:10372000FFF7E8F9002210212046FFF711FAADF863
:103730001850701ECDE9075006A920460995FFF7DD
:103740005DFA206820F080002060606820F0700042
:103750006060A06820F08000A0600CB070BD000028
:10376000001C0240000C004010B586B014216846D1
:10377000FCF7E2FD2020FEF7DDFF02F04BF800220F
:10378000062100F017FC0146372002F063F83720CD
:1037900002F01DF85920ADF800000020019044F619
:1037A0001F600A4C029069462046FFF727FA2068FE
:1037B00020F080002060606820F070006060A068E9
:1037C00020F08000A06006B010BD00000014004092
:1037D000F0B599B0142114A8FCF7AEFD202168467D
:1037E000FCF7AAFD182108A8FCF7A6FD18210EA8D1
:1037F000FCF7A2FD0220FEF7B5FFB320ADF85000A4
:10380000002444F61F60CDE915403D4D17948DF816
:10381000604014A92846FFF7F1F9286840F08000BD
:10382000286001212846FFF777FA6020CDE90004DF
:10383000029403940494059406946A460121284650
:103840000794FFF793FA01212846FFF73BFA10216E
:103850002846FFF761FA01946A461021284602942F
:10386000FFF784FA10212846FFF72CFAAE153146EF
:103870002846FFF751FA01946A46314628460294D9
:10388000FFF774FA31462846FFF71CFAAF143946A1
:103890002846FFF741FA01946A46394628460294C1
:1038A000FFF764FA39462846FFF70CFA686820F0FB
:1038B00070006860A86820F08000A8600894681410
:1038C000CDE90C048DF82C4009940A94ADF82E40F3
:1038D00008A92846FFF7C2F83046FEF713FFE42098
:1038E0000E9002200F9003200121CDE91210CDE9A6
:1038F00010040EA90348FEF7D9FF19B0F0BD00006F
:10390000000401400020024070B594B014210EA8BC
:10391000FCF712FD20216846FCF70EFD182108A8CF
:10392000FCF70AFD4FF48030FEF71CFFB320ADF822
:103930003800002444F61F60CDE90F401E4D0EA94B
:1039400028461194FFF75AF9286820F08000286073
:1039500001212846FFF7E0F96026CDE900640294D2
:1039600003946A46012128460494FFF7FFF90121D8
:103970002846FFF7A7F910212846FFF7CDF9019453
:103980006A46102128460294FFF7F0F910212846D4
:10399000FFF798F91020FEF7B5FE0220CDE9086088
:1039A00003200121CDE90C10CDE90A0408A9034840
:1039B000FEF77CFF14B070BD0040014000100240D3
:1039C0002DE9F0418EB01C216846FCF7B5FC1821AA
:1039D00007A8FCF7B1FC4FF00040FEF7B7FE10203F
:1039E000FEF79CFE03200221CDE907010024CDE96A
:1039F000090401200B9008200C9007A94348FEF70A
:103A000055FF434E4FF020652A4606213046FEF70B
:103A1000E7FE002206213046FEF702FF4FF4403752
:103A20003A4606213046FEF737FF0022062130468F
:103A3000FEF714FF002206213046FEF719FF4FF46F
:103A40008068424606213046FEF7F4FE0022062139
:103A50003046FEF717FF002206213046FEF7F4FE3F
:103A600006213046FEF796FE2A4600213046FEF734
:103A7000B7FE402200213046FEF7D2FE3A46002132
:103A80003046FEF709FF002211463046FEF7E6FEFB
:103A9000002211463046FEF7EBFE4246002130463A
:103AA000FEF7C8FE002211463046FEF7EBFE00226C
:103AB00011463046FEF7C8FE00213046FEF76AFE8A
:103AC00001F0B0FE0022062100F08DFA01465320DD
:103AD00001F0D0FE532001F087FE4FF4E130CDE934
:103AE00000040C200294CDE9034005940694094C8F
:103AF00069462046FFF72EFA2046FFF721FAE068D4
:103B000040F40050E0600EB0BDE8F08100100240CB
:103B100000600240007C004030B58DB01C2168463A
:103B2000FCF70AFC182107A8FCF706FC1020FEF79A
:103B300025FE0220FEF7F2FDC0200790022008902B
:103B400003200024CDE9090401200B9007200C90EC
:103B500007A92B48FEF7AAFE2A4D4FF0006202216A
:103B60002846FEF73DFE002202212846FEF758FEB9
:103B70004FF4403202212846FEF78EFEAA1502219C
:103B80002846FEF76BFE002202212846FEF770FE53
:103B90002A1502212846FEF74DFE00220221284662
:103BA000FEF770FE002202212846FEF74DFE02219C
:103BB0002846FEF7EFFD01F035FE0022062100F059
:103BC00012FA0146252001F055FE252001F00CFED9
:103BD0000D480090A814CDE901040C20CDE9034064
:103BE00005940694094C69462046FFF7B3F9204630
:103BF000FFF7A6F9E06840F40050E0600DB030BD7A
:103C00000004024000640240A08601000010014050
:103C100010B58EB01C216846FCF78EFB182107A852
:103C2000FCF78AFB4FF48020FEF790FD0820FEF79A
:103C300075FD4FF440700790022000240890CDE9F4
:103C4000090401200B9007200C9007A91348FEF7E8
:103C50002DFE01F0E7FD0022062100F0C4F9014627
:103C6000272001F007FE272001F0BEFD4FF4E130D0
:103C7000CDE900040C200294CDE90340059406949C
:103C8000074C69462046FFF765F92046FFF758F9CB
:103C9000E06840F40050E0600EB010BD000C02403F
:103CA0000048004030B58DB01C216846FCF744FB4D
:103CB000182107A8FCF740FB2020FEF75FFD4020FD
:103CC000FEF72CFD4FF4844007900220089003205B
:103CD0000024CDE9090401200B9008200C9007A9CD
:103CE0002B48FEF7E3FD2B4D4FF0206201212846C3
:103CF000FEF776FD002201212846FEF791FD4FF4E4
:103D0000403201212846FEF7C7FD00220121284646
:103D1000FEF7A4FD002201212846FEF7A9FD2A1581
:103D200001212846FEF786FD002201212846FEF7E4
:103D3000A9FD002201212846FEF786FD0121284623
:103D4000FEF728FD01F06EFD0022062100F04BF980
:103D50000146472001F08EFD472001F045FD4FF45C
:103D6000E130CDE900040C200294CDE90340059434
:103D70000694094C69462046FFF7ECF82046FFF709
:103D8000DFF8E06840F40050E0600DB030BD0000A6
:103D9000001802400064024000140140FEE710B524
:103DA000002404804180012101714171C0E9022396
:103DB00010BD0179417102884AB1521E0280002271
:103DC00002718068002801D0012907D070470122C4
:103DD0000271C0680028F9D00029F7D10047418856
:103DE000018070473CB50A880024120A8DF8002033
:103DF0000A788DF801204A88120A8DF802208A7804
:103E00008DF803208A88120A8DF804200A798DF82B
:103E10000520CA88120A8DF8062089798DF80710C6
:103E20006A46082100F014F8054640F6FF7301E0E9
:103E3000641CA4B22846FDF73FF8072801D09C4235
:103E4000F6D39C4201D301203CBD00203CBD0000C4
:103E500070B5234B044600201D686D0108D4186816
:103E6000000101D5012003E01868C00036D502200A
:103E70001C4B002503EB0013C3F88059D3F880597D
:103E800045EA4455C3F88059D3F88049C3F88049BE
:103E9000D3F88049C3F88049D3F8844901F00F0171
:103EA00024F00F04C3F88449D3F884490C43C3F8C1
:103EB00084491179D2F8054041EA0421C3F88C19EC
:103EC0001178D2F8012041EA0221C3F88819D3F809
:103ED000801941F00101C3F8801970BDFF2070BD49
:103EE000086800400060004070B5234B0446002085
:103EF0001D686D0108D41868000101D5012003E098
:103F00001868C00036D502201C4B002503EB0013B7
:103F1000C3F88055D3F8805545EA4455C3F8805519
:103F2000D3F88045C3F88045D3F88045C3F8804571
:103F3000D3F8844501F00F0124F00F04C3F8844541
:103F4000D3F884450C43C3F884451179D2F8054071
:103F500041EA0421C3F88C151178D2F8012041EA16
:103F60000221C3F88815D3F8801541F00101C3F888
:103F7000801570BDFF2070BD0864004000600040E7
:103F8000FEE730B500F00703C3F10704042C00D9A5
:103F90000424181D072801D2002300E0DB1E0125A0
:103FA00005FA04F0401E084098409D406D1E1540E3
:103FB000284330BD30B500F00703C3F10704042CDB
:103FC00000D90424181D072801D2002300E0DB1EBD
:103FD000012505FA04F0401E084098409D406D1EE2
:103FE0001540284330BD30B500F00703C3F1070486
:103FF000042C00D90424181D072801D2002300E056
:10400000DB1E012505FA04F0401E084098409D4043
:104010006D1E1540284330BD1CB5024600210448E2
:10402000009101910323406803F048FA1CBD000091
:10403000180000204FF4C874204602F01FFC052031
:1040400002F01CFCF8E72DE9F0410C4601784278BB
:1040500041EA0221C1F30A01218042788378D20823
:1040600042EA4312C2F30A0262808378C5789B0950
:1040700043EA8503057943EA8523C3F30A03A38052
:10408000057946796D0845EAC615C5F30A05E58048
:104090004679C6F30116A6724679B609E6728679A4
:1040A000C77946EA0726A681067A477A46EA0726AE
:1040B000E681867AC77A46EA07262682067BA674B8
:1040C000467BE674867BC77B46EA0726A682067C8B
:1040D000407CA1F580612180A2F580626280A3F519
:1040E000806346EA0020A380A5F58065E580A0F501
:1040F00080602081204601F06DFA4FF496656E4293
:10410000B4F90C002A463146FEF7AAFAA081B4F9A8
:104110000E002A463146FEF7A3FAE081BDE8F081A1
:10412000B4EEE00AF1EE10FA02D2B0EE600A704787
:10413000B4EEC10AF1EE10FAF9DDB0EE410A7047B3
:1041400010B580ED030A0446C0ED040AFDF70EF831
:1041500094ED100A10BD000004480421816108217B
:10416000816110218161202181617047001C024022
:1041700010B50EA001F00EFB0DA001F00BFB18A076
:1041800001F008FB22A001F005FB2DA001F002FBCD
:1041900037A001F0FFFA43A001F0FCFA4EA001F0B5
:1041A000F9FABDE8104001A001F0F4BA0D0A0000D0
:1041B00020202020202020202A3D3D3D2A20202094
:1041C0002A3D3D3D2A202020202A3D3D3D2A202019
:1041D00020202020202020202A3D3D3D2A0D0A00BD
:1041E000202020202020202F2020202F2020202FA2
:1041F0002020202F202020202F2020202F20202092
:10420000202020202020202F2020202F0D0A0000F9
:104210002020202020202F2020202A3D3D3D2A2024
:1042200020202F202020202F2020202F2020202061
:104230002020202020202F2020202F0D0A000000E9
:1042400020202020202F202020202020202020205F
:10425000202F202020202F2020202F202020202031
:1042600020202020202F2020202F0D0A00000000D9
:10427000202020202F2020202A3D3D3D2A202020C4
:104280002F202020202F2020202A3D3D3D3D3D3D58
:104290002A2020202F2020202A3D3D3D3D3D3D2A43
:1042A0000D0A00002020202F2020202F2020202F4A
:1042B0002020202F202020202F20202020202020E0
:1042C0002020202F2020202F2020202020202020D0
:1042D00020202F0D0A00000020202A3D3D3D2A20ED
:1042E00020202A3D3D3D2A202020202A3D3D3D3DE5
:1042F0003D3D3D3D3D3D2A2020202A3D3D3D3D3D6B
:104300003D3D3D3D3D2A0D0A0000000003494FF4AC
:104310008060886102494010886170470014024043
:104320000020024004490968044A01F0F00109092B
:10433000515CC8407047000008380240907C00087B
:1043400004490968044A01F4E05102EB912109781B
:10435000C840704708380240A07C0008044909683A
:10436000044A01F4604102EB51310978C8407047BA
:1043700008380240A07C00080748006810F00C01D3
:10438000064807D0042904D0082903D1082000F0EA
:1043900009B8034870470000083802400024F400C0
:1043A000001BB70010B5104A04460020116811F434
:1043B00080030E4903D0B3F5800F00D10C49082CBF
:1043C00011D1106800F03F00B1FBF0F01168C1F3AB
:1043D000881148431168012201F4403102EB114178
:1043E0004900B0FBF1F010BD043802400024F40095
:1043F000001BB7000368934205DA1944016091423B
:1044000000DD02607047FCDD591A01609142F8DB63
:1044100070478A8A82828A7C8274CA7CC2748A8942
:104420008281CA89C2810A8A02820A8802804A88F5
:1044300042808A888280CA88C2800A8902818A7AF8
:104440008272C97AC1727047002181828174C174FD
:104450008181C1810182018041808180C18001818F
:1044600003218172C172704708B5084869464068E7
:1044700002F0D6FD0098002807D005494FF0805083
:104480000860BFF34F8FBFF36F8F08BD240000207B
:1044900004ED00E02DE9F04F0024DDE90CA5DDE995
:1044A0000976DDF838B0DDF82C9006E0C4F102089A
:1044B000641C00F808C0032C04DA11F804C0BCF135
:1044C000000FF3D110F8031F21F03801083162F317
:1044D00002010170018863F389110180417867F35B
:1044E00085014170818866F309018180B0F805205B
:1044F00069F38C02A0F80520C2886AF34F12C280CB
:10450000B0F8091065F38C01A0F8091042896BF32B
:104510004F124281BDE8F08FB0F900204FF4A56141
:1045200002F525728A4201D901207047B0F90220B4
:1045300002F525728A4201D902207047B0F90420A1
:1045400002F525728A4201D903207047B0F906208E
:1045500002F525728A4201D904207047817A012927
:1045600005D0022903D0032901D005207047C07A65
:10457000012805D0022803D0032801D00620704767
:104580000020704703220021012002F0DDFB314CA6
:1045900060600020FDF77AFE04F108052860012024
:1045A000FDF774FE68602C48FFF74EFF2A481E3066
:1045B000FFF74AFF284802213C3001700121417079
:1045C0008170C170017181714171C171017241725B
:1045D00001F08EFFC82002F051F94FF4FA7631460F
:1045E000606802F02DFE01280AD01B48FFF72CFF5F
:1045F00019481E30FFF728FF052002F03FF9EEE7CB
:10460000FDF734FE207055F820001349FFF71BFD1D
:104610001148FFF781FF50B10F490F481E31FFF7D6
:10462000F8FE00F087FF64210CA001F0B3F8002031
:10463000FDF702FA00F01CF8074A07483C32A2F1E5
:104640001E0100F097FB044901F11E00FFF7E1FE97
:10465000D2E70000240000201C0700203C455252F5
:104660004F523E206572726F723A25640D0A000047
:104670002DE9F0412B4D0127A5F11E06A87A05F181
:104680001E0403280FD1B07A02280CD12078401CD8
:10469000C0B22070032800D12770207837224FF451
:1046A0007A7100F0E3F82078022839D1E87A4FF4E3
:1046B000966803280ED1F07A022820D16078401C39
:1046C000C0B26070032800D967706078322241461A
:1046D00000F0CCF8E87A01280ED1F07A03281FD137
:1046E000A078401CC0B2A070042800D9A770A078A0
:1046F0003222414600F0BAF8E87A032810D1F07A65
:1047000001280DD12079401CC0B22071022800D9A7
:10471000277120794146BDE8F041322200F0A6B869
:10472000BDE8F0813A07002070B50D461C491446DB
:10473000D1F80E1000EE101AF8EEC00A00EE100AC2
:104740001848B8EEC00AFFF7FBFC1748D0F80E0077
:1047500000EE100A1348F8EEC00A00EE105A883036
:10476000B8EEC00AFFF7ECFC1048D0F80E0000EEDF
:10477000100A0F48F8EEC00A00EE104AB8EEC00A60
:10478000FFF7DEFC0A4890ED101A8838D0ED100AC9
:10479000883890ED100ABDE8704000F00BB80000BA
:1047A0009C040020F8020020AE040020C004002079
:1047B0000804002010B527482DED028BF0EE608A2A
:1047C000B0F90C00B0EE418A00EE900A2248F8EEF3
:1047D000E00AFFF7B5FC2148B0F90C0000EE100A22
:1047E0001D48F8EEC00AB0EE680A8830FFF7A8FC52
:1047F0001B48B0F90C0000EE100A1A48F8EEC00A87
:10480000B0EE480AFFF79CFC13481349154A90ED97
:10481000100A8831144BBDEEC00A10EE100A91ED5B
:10482000100A00F2DC50BDEEC00A10EE101A92ED34
:10483000100A1860BDEEC00A10EE102A181D01F211
:10484000DC510160001D02F2DC520260BDEC028B03
:1048500010BD00009C040020B4020020AE04002023
:10486000C0040020C4030020340401401CB5012012
:10487000ADF801108DF800000448ADF803200023C6
:104880001A466946006802F005FB1CBD4400002082
:1048900070B500202DED048BB0EE618AF0EE418AF8
:1048A0002A4CB0EE609A014624F81010401C0428EF
:1048B000FADB274DB5F9020000EE900A2348F8EE26
:1048C000E00A0830FFF73CFCBDEEC00A10EE100A0B
:1048D0002080B5F9090000EE100A1C48F8EEC00A65
:1048E000B0EE490A4C30FFF72BFCBDEEC00A10EECB
:1048F000100A6080B5F9100000EE100A1348F8EEB7
:10490000C00AB0EE680A9030FFF71AFCBDEEC00A8C
:1049100010EE100AA080B5F9170000EE100A0B483F
:10492000F8EEC00AB0EE480AD430FFF709FCBDEE3D
:10493000C00A064910EE100AE0804FF40070BDEC8A
:10494000048BBDE87040FCF75FBD00000001002053
:1049500058C200200A4910B5D1F80F1000EE101A05
:10496000F8EEC00A00EE100A0648B8EEC00AFFF7DB
:10497000E7FB044890ED100ABDE8104000F004B8D1
:1049800074C200206402002010B500200E4C0146C5
:1049900024F81010401C0428FADB0C48B0F902007F
:1049A00000EE900A0848F8EEE00A0830FFF7C8FB6E
:1049B000BDEEC00A044910EE100A2080BDE8104088
:1049C0004FF40070FFF70EBA1802002074C20020E6
:1049D0007CB501F03DFE2F490F20CDE900014FF4D9
:1049E000807500232A462CA12F4802F03BFD2F4959
:1049F0000620CDE90001002380222DA12F4802F0DE
:104A000031FD2F491420CDE9000100232A462DA1B4
:104A1000304802F027FD30481324CDE90040002340
:104A20002A462EA1314802F01DFD31480023CDE970
:104A300000402A462FA1334802F014FD32480924D1
:104A4000CDE9004000232A4630A1334802F00AFD98
:104A500032491820CDE9000100232A4630A133480D
:104A600002F000FD32480023CDE900402A4631A182
:104A7000344802F0F7FCFEF731FB33A000F08AFE69
:104A800039A000F087FE01F01FFEBDE87C40002049
:104A900001F02ABF3400002072656D6F7465725F8B
:104AA0007461736B00000000854500084000002021
:104AB00062757A7A65725F7461736B00F90A000837
:104AC0005C000020636861737369735F7461736B6A
:104AD00000000000411700086000002066756E634A
:104AE00074696F6E5F7461736B0000008D1F000846
:104AF000840000206F766572636869705F7461730B
:104B00006B000000354000081C0000206A756467D7
:104B1000655F7461736B000071260008140000204B
:104B20006465746563745F7461736B00491A00088F
:104B300088000020636C69656E745F75695F7461DD
:104B4000736B0000DD1900083C494E464F3E200DB6
:104B50000A416C6C207461736B73206372656174BD
:104B60002E0D0A0D0A0000003C494E464F3E200D16
:104B70000A53797374656D2072756E2E0D0A0D0AD5
:104B8000000000002DE9F04395B04FF4B37000F041
:104B90003DFC40F2C1344FF41677CDE90447601074
:104BA000CDE902404FF014080025CDE90058092353
:104BB000012269A16948FEF7C7FA684E0F22314603
:104BC000B0680090B089ADF80400B07B8DF80600A5
:104BD00002A8FBF798FBDDE90223012106F1B400EE
:104BE00000F078FB06F1B40000F0FCFB4FF47F709E
:104BF000CDE904074FF4D2714FF46172CDE902217F
:104C00004FF00509CDE900590923012254A106F10D
:104C10000F00FFF73FFCD6F817000090B6F81B0016
:104C2000ADF80400707F8DF806000F2206F10F0129
:104C300002A8FBF768FBDDE90223012106F1B400BD
:104C400000F048FB06F1B40000F0CCFB96214FF4D5
:104C500007770095CDE90371CDE90194092301227D
:104C600040A106F11E00FCF77EFED6F8260000905B
:104C7000708DADF8040096F82C008DF806000F2218
:104C800006F11E0102A8FBF73EFBDDE9022301212C
:104C900006F1B40000F01EFB06F1B40000F0A2FB28
:104CA0003220CDE9057007906FF013010095CDE932
:104CB0000181CDE90384092301222BA106F12D00F6
:104CC000FBF7C2FED6F835000090B6F83900ADF813
:104CD000040096F83B008DF806000F2206F12D0126
:104CE00002A8FBF710FBDDE90223012106F1B40065
:104CF00000F0F0FA06F1B40000F074FB1B48621EED
:104D0000CDE905700421CDE9031230210122CDE95E
:104D1000002103200290072315A106F13C00FCF7B7
:104D200061FC212206F148016846FBF7ECFA2D22CE
:104D300006F13C0109A8FBF7E6FA09AC06F1B4005C
:104D400094E80E00FCF79CFC15B006F1B400BDE839
:104D5000F04300F047BB000030303100E4C20020D7
:104D60003030320030303300303034005504002011
:104D7000303035002DE9F04711781446012975D1FE
:104D80005D494FF0010501F11E068A8A530611D5CF
:104D9000B38A5F060ED4920601D59A0607D56278CB
:104DA000521CD2B26270032A04D9657002E06570A9
:104DB000E5712572827C0227012A11D0E571C07C41
:104DC00001280FD02572888A80050ED5B08A80050B
:104DD0000BD46079401CC0B26071032804D004E099
:104DE000E771ECE72772EEE765718846898A4FF430
:104DF0009669080615D5B08A020612D4890601D52F
:104E000080060CD5A078401CC0B2A070042800D940
:104E1000A570A07832224946FFF728FD01E06572AF
:104E2000A570B8F8141008050CD5B08A020509D48D
:104E3000890601D5800605D56772A07832224946D9
:104E4000FFF714FDB8F81400474681040FD5B18A66
:104E50008A040CD4820601D5890608D50320607225
:104E6000A07832224946FFF701FD0BE042E0010540
:104E700002D5B18A090505D5800602D5307D8006A8
:104E800000D56572B88AC0050ED5B08AC0050BD4AE
:104E90002079401CC0B22071022800D92571E07829
:104EA00032224946FFF7E2FCB88A40050ED5B08AA7
:104EB00040050BD4A079401CC0B2A071022800D9D3
:104EC000A571A07932224946FFF7D0FCB88A800448
:104ED00010D5B08A80040DD4E078401CC0B2E070D8
:104EE000022800D9E570E0784946BDE8F047322253
:104EF000FFF7BCBCBDE8F0871C07002010B55020B0
:104F000080F31188BFF34F8FBFF36F8F02F01AFC4D
:104F100018B104494FF080500860002080F31188D8
:104F200010BD000004ED00E0304810B5016821F02C
:104F30000F0141F005010160016801F00F01052931
:104F4000FAD12B48016841F440410160016841F405
:104F5000803101602748016841F4803101600168B7
:104F6000C1F340410029FAD02249234A091D0B68A8
:104F7000224C23401A430A600A6822F440320A6035
:104F8000016841F0807101600168C1F3406100294E
:104F9000FAD018480830016821F0F001016001687A
:104FA00021F4E05141F4A0510160016821F4604115
:104FB00041F400410160016821F0030141F0020168
:104FC0000160016801F00C010829FAD10C48FDF7D5
:104FD0003FFD0620FDF790F908B172B6FEE70548DF
:104FE0008C30016821F08071016010BD003C0240EE
:104FF0000070004000380240062D40000080BFFFD6
:105000000095BA0A0548016841F47001016003493E
:105010004FF00060803908607047000088ED00E0C4
:105020000148FDF75BBA00005C0400204FF08040AF
:105030000169016921F001010161704703480168BC
:10504000016821F001010160704700001008004074
:1050500003480168016821F0010101607047000008
:10506000100C004070B51648016911F0010F25D0F1
:105070006FF00101016101F045F9124CA08101F0CE
:105080004BF904F112054042A88101F033F901B255
:1050900004F124008181D4F80E20B4F90C301A44B4
:1050A000C4F80E20D5F80E20B5F90C301A44C5F816
:1050B0000E20D0F80E201144C0F80E1070BD000074
:1050C000001400409C040020F0B50268254C264DD9
:1050D000264E274F274B4FF0804CA04209D0604509
:1050E00007D0A84205D0B04203D0B84201D09842C0
:1050F00004D122F0700E4A6842EA0E02A0421BD090
:10510000604519D0A84217D0B04215D0B84213D08C
:10511000984211D0184DA8420ED0184DA8420BD07D
:10512000174DA84208D0174DA84205D0164DA842E9
:1051300002D0164DA84203D122F44075CA682A4312
:105140004D6922F080022A4302608A68C2620A68BE
:105150008262A04201D0984201D109690163012114
:105160004161F0BD00000140000400400008004023
:10517000000C004000040140004001400044014098
:105180000048014000180040001C00400020004082
:10519000008870470278417842EA01600A0442EAD6
:1051A00001210843704700F001B8000070B5154DAB
:1051B0002868C0F30010002823D0134C0621204695
:1051C000FDF7F2FA2846FDF7B5FE4FF40010E06057
:1051D00006212046FDF7FCFA0C4DC0F1800080222C
:1051E000687006212046FDF70FFB0949E01488612D
:1051F0006878FEF711FF2046BDE870400621FDF7F4
:10520000DDBA70BD007C004000600240100000204C
:10521000001002402DE9F04385B00446A5208DF82A
:105220000400284D0820ADF80500287891468846EE
:1052300001AF8DF807004FF6FF76FF2204213846B4
:10524000FCF7FEFF8DF8080040F20130ADF80900D0
:105250004FF48070ADF80C000220ADF80E004FF452
:105260008170ADF810008DF800808DF80190324605
:1052700007213846FCF7C0FF024603A80621FCF7C9
:10528000BBFF024668460221FCF7B6FF01460198C3
:1052900044F8040BBDF8080024F8020B9DF80A003E
:1052A00004F8010B03982060BDF81000A080BDF841
:1052B0000000E08021812878401C287005B0BDE8FE
:1052C000F08300004E040020B0F80100093080B2E5
:1052D000704700000FB4FF222DE9F04389B0044667
:1052E000A5208DF800001198DFF8F490C0EB0010B5
:1052F000801DADF8010099F800006F468DF803009D
:105300004FF6FF7512AE04213846FCF799FF8DF871
:10531000040040F20130ADF8050011994FF481709E
:1053200001290CD002290DD005290ED0072934D02F
:105330004FF0FF3009B0BDE8F0035DF814FB40F218
:10534000011104E0ADF8080003E040F20311ADF8EC
:1053500008100221ADF80A10ADF80C002A4607210A
:105360003846FCF749FF024602A80621FCF744FF35
:105370000546009844F8040BBDF8040024F8020B1D
:105380009DF8060004F8010B029844F8040BBDF8E0
:105390000C0024F8020B002716E04FF48271D6E7C8
:1053A00030460DF110080FC888E80F0010362A4665
:1053B0000F214046FCF720FF05460F2241462046BC
:1053C000FAF7A1FF0F347F1C11988742E8DB258094
:1053D00099F80010491C89F800100020AAE7000085
:1053E0004E04002070B50446FFF76EFF064B002107
:1053F0001A1F06E0655C1D6015686D06FCD5491C2A
:1054000089B28142F6D370BD047C0040411E092957
:1054100004D36439092901D3002070470349488027
:1054200000F5807088800120704700004E04002045
:1054300000F030B8704700F001B8000070B5124CB1
:105440002068C0F3001000281DD0104D012128460F
:10545000FDF7AAF92046FDF76DFD01212846FDF76D
:10546000B7F90B4CC0F18000802220700121284642
:10547000FDF7CAF92078FEF7CFFD2846BDE8704059
:105480000221FDF79BB970BD001401400064024089
:105490001000002070B51C4D2868C0F300100028D3
:1054A00031D01A4C02212046FDF77EF92846FDF73F
:1054B00041FD4FF40010A06002212046FDF788F95D
:1054C0001349C0F1240048801248807820584FF4D6
:1054D000002200F40020904200D100220221204648
:1054E000FDF788F9242202212046FDF78DF9FEF709
:1054F000BBFF09494FF0006088612046BDE870405D
:105500000221FDF75BB970BD00100140006402404C
:1055100010000020A87C000800100240034800236F
:105520001A461946006801F0B5BC00008C00002046
:10553000FEE7000070B50C4CE06840F40050E060FD
:105540000A4D02212846FDF72FF924220221284680
:10555000FDF75AF902212846FDF730F9E06840F4DA
:105560000050E06070BD0000001001400064024087
:1055700030B50C46050014D0022C12D90A48A11EE1
:1055800002882846FCF722FE2919C2B211F8023C13
:105590009A4206D111F8011CB1EB102F01D1012064
:1055A00030BD002030BD00004C04002030B50C465A
:1055B00005000CD0022C0AD9FF22611EFCF732FE36
:1055C000291911F8011C814201D1012030BD0020B0
:1055D00030BD000070B50446007D400702D563A0D1
:1055E00000F0D8F8207DC00702D061A000F0D2F80A
:1055F000207D800702D55FA000F0CCF8207D000759
:1056000002D55DA000F0C6F8A08A000502D55BA017
:1056100000F0C0F8A08AC00402D559A000F0BAF882
:10562000A08A800402D557A000F0B4F8A08A4004F4
:1056300002D555A000F0AEF8A08A800502D553A08F
:1056400000F0A8F8A08A400502D551A000F0A2F809
:10565000A08A4FF42572C1074FF00005C2F1000384
:105660004FEA80710DD000290FDBB4F91810002922
:1056700001DA0A312183B4F91810914224DA491D64
:1056800019E0002901DAC1070AD0B4F9181000297D
:1056900013DA01F10A0109B22183002913DC13E0B6
:1056A000B4F91810002901DD0A392183B4F9181062
:1056B000994209DD491F218306E005DD0A3909B257
:1056C0002183002900DA258341070DD500071CD46A
:1056D000B4F91600002801DA0A30E082B4F91600A5
:1056E000904224DA401D0EE001070ED540070CD48D
:1056F000B4F91600002801DD0A38E082B4F916007A
:10570000984214DD401FE08211E0B4F91600002831
:1057100006DA00F10A0000B2E082002806DC06E0AA
:1057200005DD0A3800B2E082002800DAE582B4F92B
:105730000C0050B1618B084400B26083904201DDDF
:10574000628302E0984200DA6383B4F90E00002815
:1057500006D0A18B084400B2A083904201DDA28351
:1057600070BD9842FCDAA38370BD0000410D0A00B1
:10577000570D0A00530D0A00440D0A007A0D0A0065
:10578000780D0A00630D0A00760D0A00460D0A0026
:10579000470D0A000FB4054B10B503A9044A02983F
:1057A00000F098F810BC5DF814FB0000FD5A0008EA
:1057B00058040020002809DB00F01F02012191405D
:1057C0004009800000F1E020C0F800117047002877
:1057D00009DB00F01F02012191404009800000F127
:1057E000E020C0F800117047002809DB00F01F021C
:1057F000012191404009800000F1E020C0F8001133
:105800007047000002480068C0F3022070470000A3
:105810000CED00E002480068C0F302207047000071
:105820000CED00E002480068C0F302207047000061
:105830000CED00E00907090E002804DB00F1E02070
:1058400080F80014704700F00F0000F1E02080F8AD
:10585000141D70470907090E002804DB00F1E02041
:1058600080F80014704700F00F0000F1E02080F88D
:10587000141D70470907090E002804DB00F1E02021
:1058800080F80014704700F00F0000F1E02080F86D
:10589000141D70470907090E002804DB00F1E02001
:1058A00080F80014704700F00F0000F1E02080F84D
:1058B000141D704702E008C8121F08C1002AFAD15F
:1058C00070477047002001E001C1121F002AFBD180
:1058D000704700002DE9FF4F8BB09A460F460546F2
:1058E000002606E025280BD052460D9990476D1CE6
:1058F000761C28780028F5D10FB03046BDE8F08F2F
:105900000024A0460122604900E0044315F8013F4D
:10591000203B02FA03F00842F7D128782E2817D14D
:1059200015F8010F44F004042A280ED06FF02F025E
:105930002878A0F1300109290AD808EB880102EB88
:10594000410100EB01086D1CF2E757F8048B6D1C58
:10595000287869283ED006DC0028CDD063280BD0FB
:10596000642804D136E0732810D075284BD05246F5
:105970000D999047761C85E017F8040B8DF8000010
:1059800000208DF80100E946012003E057F8049B50
:105990004FF0FF3061074FF0000401D40AE0641CAF
:1059A00044450DDA8442FADB19F804100029F6D1D7
:1059B00006E0641C8442FCDB19F804100029F8D1CD
:1059C000264404E019F8010B52460D999047641ED5
:1059D000F8D257E001CF4FF00A0B002802DA40421C
:1059E0002D2102E0210504D52B218DF82410012161
:1059F00003E0E10705D02021F7E70DF12009089128
:105A00000CE00021F9E701CF4FF00A0BF9E7594606
:105A1000FAF7E2FD01F1300209F8012D0028F6D174
:105A2000ADEB090000F1200B600701D44FF0010835
:105A3000D84502DDA8EB0B0000E0002080460024E2
:105A400006E009A85246005D0D999047641C761C3B
:105A500008988442F5DB04E0302052460D999047C7
:105A6000761CB8F10001A8F10108F5DC05E019F891
:105A7000010B52460D999047761CBBF10001ABF12A
:105A8000010BF4DC6D1C34E70928010010B5FEF7AA
:105A90003DFCFDF749FB00F055FC00F083FC00F0F5
:105AA000BDFC00F073FC00F0A1FCFEF755FB05A067
:105AB000FFF770FEFEF75CFBBDE8104008A0FFF7A3
:105AC00069BE00000D0A416C6C20706572697068D7
:105AD0006572616C20696E69742E0D0A0000000009
